:020000040800F2
:10000000B8090020610200086F02000871020008B0
:100010007302000875020008770200080000000063
:10002000000000000000000000000000790200084D
:100030007B020008000000007D0200087F0200082B
:100040008102000881020008810200088102000884
:100050008102000881020008810200088102000874
:100060008102000881020008810200088102000864
:100070008102000881020008810200088102000854
:100080008102000881020008810200088102000844
:100090008102000881020008810200088102000834
:1000A0008102000881020008810200088102000824
:1000B0008102000881020008810200088102000814
:1000C0008102000881020008810200088102000804
:1000D00081020008BD5D000881020008810200085D
:1000E00081020008810200088102000881020008E4
:1000F00081020008810200088102000881020008D4
:1001000081020008810200088102000881020008C3
:1001100081020008810200088102000881020008B3
:1001200081020008810200088102000881020008A3
:100130008102000881020008810200088102000893
:100140008102000881020008810200088102000883
:100150008102000881020008810200088102000873
:100160008102000881020008810200088102000863
:1001700081020008810200088102000800000000DE
:100180008102000881020008810200088102000843
:100190008102000881020008810200088102000833
:1001A00081020008810200088102000800F002F8C4
:1001B00000F047F80AA090E8000C82448344AAF1BA
:1001C0000107DA4501D100F03CF8AFF2090EBAE8B8
:1001D0000F0013F0010F18BFFB1A43F0010318477B
:1001E00080B40000A0B40000103A24BF78C878C1E1
:1001F000FAD8520724BF30C830C144BF04680C602D
:10020000704700000023002400250026103A28BF74
:1002100078C1FBD8520728BF30C148BF0B60704778
:10022000642900F0AB80782900F0E480732900F0A5
:10023000C781002070471FB506F0A7FD1FBD10B590
:1002400010BD00F0F7F91146FFF7F5FF05F0BAFF12
:1002500000F015FA03B4FFF7F2FF03BC05F017FE38
:100260000B48016841F4700101600A480047FEE74D
:10027000FEE7FEE7FEE7FEE7FEE7FEE7FEE7FEE756
:10028000FEE7000004480549034A054B704700009B
:1002900088ED00E0AD010008B8010020B809002099
:1002A000B8010020704700000FB4044910B503AA3C
:1002B000029800F089F910BC5DF814FB08000020DA
:1002C0002DE9F0410E460446002020622046E168F8
:1002D000884730B3252805D0D4E901219047206A0A
:1002E000401CF2E7E168204600278847050018D047
:1002F000A5F14100192802D820354FF40067324695
:10030000294620462760FFF78BFF40B1012804D023
:10031000F61D26F007060836D8E7361DD6E728462C
:10032000DAE7206ABDE8F08170B50C460546012A7F
:1003300005D02878800600D5EA69002302E0012371
:1003400005E05B1C934202D2E05C0028F9D1A86969
:10035000E618C01AA861286A184428622846AFF334
:10036000008004E0D5E9012114F8010B9047B44264
:10037000F8D32846AFF3008070BD00002DE9F041AE
:100380000646002410687529314616A510D0AFF333
:100390000080002802DA404213A507E031688A078E
:1003A00001D512A502E0490704D511A5012401E0F9
:1003B000AFF3008000210A2206F1240709E0B0FB18
:1003C000F2FCB0FBF2F302FB1C003030785418460C
:1003D000491C0028F3D123462A463046BDE8F041A7
:1003E00000F083B8000000002D0000002B0000008A
:1003F0002000000070B504460D4621461068AFF39A
:1004000000802188090502D50F4A7A4402E00E4A8D
:100410007A440E32002104F1240305E000F00F06B7
:100420000009965D5E54491C0028F7D1207800230E
:10043000000704D5702D02D009B1022311322046E5
:10044000BDE8704000F051B8ACB100004FF0013C85
:1004500050F8042B51F8043B9A4221D1A2EB0C0333
:10046000934313EACC1317D150F8042B51F8043BF3
:100470009A4215D1A2EB0C03934313EACC130BD190
:1004800050F8042B51F8043B9A4209D1A2EB0C031B
:10049000934313EACC13DBD04FF00000704700BF4A
:1004A000D01A01BAB1FA81F101F0180122FA01F073
:1004B000CB40C1F12001DBB2C0B2C01A2CFA01F36B
:1004C000D11A914311EAC311E6D1704770477047C2
:1004D0007047704710B500F089F8006810BD10B57E
:1004E000044600F083F8046010BD2DE9F0470D4686
:1004F00099469246044600F124080168880604D50E
:10050000E06921F01001216000E00120A84201DD36
:10051000471B00E00027A1697A1902EB0900081ABD
:10052000A0612078C00602D42046AFF300800026E8
:1005300008E0D4E901211AF806009047206A401C1F
:10054000761C20624E45F4DB2078C0060AD5204692
:10055000AFF3008006E0D4E9012130209047206A03
:10056000401C2062381EA7F10107F4DC07E0D4E943
:10057000012118F805009047206A401C2062281EBF
:10058000A5F10105F3DC2046AFF3008020780006DA
:1005900002D50220BDE8F0870120FBE710B54369D2
:1005A00013B1AFF3008001E0FFF7BEFE012010BDE4
:1005B000127800F124010A7000224A700122EDE74E
:1005C00011684FF0FF32E9E7074B70B50D467B44E9
:1005D00000F015F80446284600F024F810B14FF05A
:1005E000FF3070BD204670BD435A00000048704780
:1005F0005401002001694A1C02610878704700B567
:100600008FB0CDE901310021059105497944CDE94B
:10061000031011466846FFF753FE0FB000BD0000FF
:10062000E5FFFFFF007B00F0800070470048704747
:10063000540100207546FFF7F9FFAE4605006946F4
:10064000534620F00700854618B020B5FFF71AFE84
:10065000BDE820404FF000064FF000074FF00008C3
:100660004FF0000B21F00701AC46ACE8C009ACE844
:10067000C009ACE8C009ACE8C0098D46704710B5A8
:100680000446AFF300802046BDE81040FFF7E2BD0E
:1006900000F090BD2DE9F0410D46014600200446D2
:1006A0004E1908E00702301B401E80B200F007F828
:1006B000641C3844E4B2AC42F4D3BDE8F08110B518
:1006C000044600F017FE200AA02101EB4000C0B252
:1006D00000F0E0FD00F050FEE0B200F0DBFD00F0C5
:1006E0004BFE00F007FEA12000F0D4FD00F044FE18
:1006F000002000F09BFD044600F01CFE204610BDCB
:100700002DE9F04116460D460746002409E0E000B9
:1007100025FA00F0C1B2381980B200F006F8641C66
:10072000E4B2B442F3D3BDE8F08170B50D4604469F
:1007300000F0E0FD200AA02101EB4000C0B200F073
:10074000A9FD00F019FEE0B200F0A4FD00F014FED7
:10075000284600F09FFD00F00FFE00F0EBFDBDE825
:1007600070400A2005F014BC70B50E4C0025C4F88A
:1007700098520D48016821F0C0010160016841F004
:10078000400101600948C0F88C52022004F526742B
:1007900005F018FC01202060022005F013FC256004
:1007A00070BD00000080434200200240000044422F
:1007B0007CB51148016841F080010160016841F495
:1007C0008071016001240325CDE9005400232246F5
:1007D00040210A4800F092FACDE90054002301229A
:1007E0000821074800F08AFA0648C0F88C420648FB
:1007F000C0F898427CBD000030380240001C024026
:1008000000200240000044420080434270B50E4C7C
:100810000026C4F898620D48016821F0C00101600B
:10082000016841F04001016009480125C0F88C527F
:10083000022004F5267405F0C5FB2560022005F0B2
:10084000C1FB266070BD00000080434200200240D2
:10085000000044422DE9F04782461948002401680F
:1008600021F0C0010160016801601E2005F0AAFBB3
:100870000025144EDFF850902F464FF00108C6F8BF
:100880009872022005F09EFBC6F898826006040E5E
:10089000D9F80C0208B1641CE4B2022005F092FB06
:1008A0006D1CEDB2082DEAD3BAF1000F04D0FFF7AA
:1008B0005BFF2046BDE8F087FFF7A8FFF9E70000DF
:1008C0000020024000804342000044422DE9F047EE
:1008D00005461548016821F0C0010160016841F03A
:1008E00040010160114E0027C6F89872DFF8408081
:1008F0003C464FF00109E909C8F88C126806050E5C
:10090000022005F05FFBC6F89892022005F05AFB22
:10091000C6F89872022005F055FB641CE4B2082C5E
:10092000E9D3BDE8F0870000002002400080434288
:100930000000444270B50F48016821F0C001016019
:10094000016841F0400101600B4E0120C6F88C02A5
:100950000A4DC5F898021E2005F5267506F5237682
:1009600005F030FB00243460022005F02BFB2C60E6
:1009700070BD00000020024000004442008043425D
:1009800070B50F48016821F0C0010160016841F0B5
:10099000400101600B4E0020C6F898020A4DC5F8D0
:1009A0008C021E2005F5237506F5267605F00AFB58
:1009B00001243460022005F005FB2C6070BD0000AE
:1009C00000200240008043420000444270B51148BC
:1009D0000024016821F0C0010160016801600E4D32
:1009E0000120C5F88C020D4EC6F8980207E0641C81
:1009F000E4B2FA2C03D9FFF7C3FF012070BD022037
:100A000005F0E0FAD5F80C020028F0D1C6F89802FB
:100A100070BD0000002002400000444200804342BC
:100A2000FEB53148016841F080010160016841F480
:100A30008071016000250124CDE900542B462A462F
:100A400080212A4800F05AF90320CDE90004012250
:100A500000231102264800F051F9FFF7A9FE254EA8
:100A6000C6F8A052142006F5287605F091FA3460F5
:100A7000322005F08DFA8DF80850012202A90020DD
:100A800000F008F9012202A9A42000F003F91620C1
:100A90008DF80800012202A9802000F0FBF80C204C
:100AA0008DF80800012202A9882000F0F3F8022244
:100AB00002A9A12000F026F89DF80800302803D1F3
:100AC0009DF80910032907D09DF80910012903D0CA
:100AD000022901D00120FEBDC9B201EB002106A010
:100AE000FFF7E2FB0020FEBD30380240001C024050
:100AF00000200240000044424354502049443A251B
:100B0000780D0A002DE9F04115460F460446FFF71F
:100B100011FF7020FFF7DAFEFFF758FFE0B2FFF792
:100B2000D5FEFFF753FFFFF705FF7120FFF7CEFE5D
:100B3000FFF74CFF00246E1E09E0B44201D00120F3
:100B400000E00020FFF786FE3855641CE4B2AC429A
:100B5000F3D3BDE8F041FFF713BF00002DE9F143E7
:100B6000484F00244FF00A09387882B0401CC0B2C8
:100B7000B0FBF9F209FB1201434DA046387009B1F0
:100B80000A2864D2012202A90220FFF7BBFF9DF8C8
:100B9000080001075BD000F00F00062857D2FF21A4
:100BA0008140C84340F0C00085F820004FF00108A4
:100BB000002695F8201008FA04F001423AD0334894
:100BC0000422694630F81400FFF79CFF95F83000C6
:100BD0009DF80010C0079DF8010001F00F010ED034
:100BE00000EB012105EB4400C1829DF802209DF835
:100BF000031002F00F0201EB0221818110E000EBF3
:100C0000012023490988091A05EB440081819DF8D8
:100C100002209DF8031002F00F0201EB0221C182B5
:100C20009DF800000821B1EB101F03D005EB440034
:100C3000C6828681641CE4B2052CBAD3A9894FF020
:100C4000010819B9E88A08B98DF808603E709DF866
:100C50000800C0060ED195F82000010602D520F04C
:100C6000800005E04FF6FF71A981E98200F0E00005
:100C700085F820003878F02801D987F800904046A0
:100C8000BDE8FE835800002024000020E4B40008E2
:100C9000240100202DE9F04115460E4604460027A8
:100CA000FFF748FE7020FFF711FEFFF78FFEE0B25E
:100CB000FFF70CFEFFF78AFE002408E0305DFFF727
:100CC00005FEFFF783FE070003D1641CE4B2AC42CB
:100CD000F4D3FFF755FE3846BDE8F081CB0810B5D8
:100CE00000EB8300036A4907C90E0F248C40A3431D
:100CF0000362036A8A401343036210BD2DE9F04F7B
:100D00009946DDE909AC00234FF0010B4FF0030ECB
:100D10000BFA03F501EA0504AC422AD107685C002E
:100D20000EFA04F6B7430760076802FA04F847EAC8
:100D300008070760012A01D0022A12D18768B74349
:100D40008760D0F808800AFA04F748EA0708C0F874
:100D500008804768AF434760476809FA03F52F43A7
:100D60004760C568B543C560C5680CFA04F42543FF
:100D7000C5605B1C102BCBD3BDE8F08F2DE9FF4184
:100D80003A48016841F080010160016841F48071D6
:100D900001600024364F0125234622468021384633
:100DA000CDE90045FFF7AAFF0320CDE900050122A8
:100DB000002311022F48FFF7A1FFFFF7F9FC2E4E89
:100DC000C6F8A0420A2006F5287605F0E1F835605D
:100DD0000A2005F0DDF8002300941A4680213846E9
:100DE0000194FFF78BFF642005F0D2F8042202A9DA
:100DF00048F2401000F058F88DF80C4002A91FA0EE
:100E0000FFF752FA20A102A8FFF720FB18B101203A
:100E100004B0BDE8F08102208DF8080048F24005DA
:100E2000012202A9284600F07BF9012202A9E81D4F
:100E300000F03AF89DF8081060290BD214A0FFF7D3
:100E400033FA18488088A0F5AA41103902D1012050
:100E500000F040F90A2005F09BF88DF808400122C7
:100E600002A9284600F05CF90020D1E730380240A2
:100E7000001C024000200240000044424354502025
:100E800049443A25730D0A00393134370000000017
:100E900044656661756C74205665723A25640D0A66
:100EA00000000000240100202DE9F04115460F4606
:100EB0000446FFF73FFD2820FFF708FDFFF786FDFA
:100EC000200AFFF703FDFFF781FDE0B2FFF7FEFC0C
:100ED000FFF77CFDFFF72EFD2920FFF7F7FCFFF75A
:100EE00075FD00246E1E09E0B44201D0012000E02F
:100EF0000020FFF7AFFC3855641CE4B2AC42F3D3DA
:100F0000BDE8F041FFF73CBD2DE9F14F6D4E0024E7
:100F10004FF00A0B307882B0401CC0B2B0FBFBF23D
:100F20000BFB1201684DA146307009B10A2873D23B
:100F300048F24E17012202A93846FFF7B5FF9DF887
:100F400008004FF0000801060AD500F00F0006283F
:100F500006D28DF80480012201A9384600F0E0F89D
:100F60009DF80800010757D000F00F01062953D261
:100F7000FF2088408DF80400C04395F820A040F081
:100F8000C00085F82000A889A882E88A4F4FE8832E
:100F90004FF0010995F8201009FA04F001424ED0F3
:100FA0004B480422694630F81400FFF77DFFB888EB
:100FB000A0F5AA41103904D0A0F58641423916D0D7
:100FC0003DE095F83000C00715D09DF800009DF871
:100FD000011000EB012105EB4400C1829DF80210D5
:100FE0009DF8032001EB0221C1F5487126E095F838
:100FF0003000C00711D09DF800009DF8011000EBF3
:10100000012105EB440081819DF802109DF8032029
:1010100001EB0221C18212E02CE09DF800009DF856
:10102000011000EB012105EB4400C1829DF8021084
:101030009DF8032001EB0221C1F588718181641CB8
:10104000E4B2052CA6D3A9893A884FF001092846B5
:10105000914203D8C18A7A88914209D99DF8081033
:1010600001F00F0101290CD9C1898181018BE9822D
:1010700086F800809DF8080000F08F0080280AD0D4
:1010800018E0818A8181C18BC18280218DF808108E
:1010900085F820A0EEE795F82000010602D520F0A3
:1010A000800005E04FF6FF71A981E98200F0E000C1
:1010B00085F820003078F02801D986F800B048463D
:1010C000BDE8FE8F590000202400002024010020EC
:1010D000A6B5000808B500218DF800108DF80100B4
:1010E0000E489DF80020435C491C1A44C9B28DF893
:1010F0000020B829F5D3D0B2C043401C8DF80000C1
:10110000B822064948F2470000F00AF80222694670
:1011100048F2FF0000F004F8002008BDEEB400081B
:101120002DE9F04115460E4604460027FFF702FC64
:101130002820FFF7CBFBFFF749FC200AFFF7C6FB8F
:10114000FFF744FCE0B2FFF7C1FBFFF73FFC0024D0
:1011500008E0305DFFF7BAFBFFF738FC070003D16A
:10116000641CE4B2AC42F4D3FFF70AFC3846BDE895
:10117000F081000070B50D4C0025C4F890520C4869
:10118000016821F440610160016841F480610160FF
:10119000C4F89452022004F5247404F013FF0120D3
:1011A0002060022004F00EFF256070BD00804342E5
:1011B000001C02401CB50A48016841F08001016032
:1011C00001240220CDE900040023224630210548F5
:1011D000FFF794FD0448C0F89042C0F894421CBD4B
:1011E00030380240001C02400080434270B50D4C74
:1011F0000026C4F890620C48016821F44061016047
:10120000016841F4806101600125C4F89452022014
:1012100004F5247404F0D6FE2560022004F0D2FE0A
:10122000266070BD00804342001C02402DE9F0475B
:10123000814616480024016821F44061016001687C
:101240000160134E254627464FF00108C6F89072FC
:10125000022004F0B7FEC6F890826006040ED6F8AD
:10126000140208B1641CE4B2012004F0ABFE6D1C52
:10127000EDB2082DEAD3B9F1000F04D0FFF77AFFE1
:101280002046BDE8F087FFF7B1FFF9E7001C0240F8
:10129000008043422DE9F04105461448016821F4DD
:1012A00040610160016841F480610160104E0027D7
:1012B000C6F890723C464FF00108E809C6F894025F
:1012C0006806050E022004F07DFEC6F8908202201A
:1012D00004F078FEC6F89072022004F073FE641CDD
:1012E000E4B2082CE9D3BDE8F0810000001C024004
:1012F0000080434270B50D48016821F440610160EF
:10130000016841F480610160094C0120C4F8940235
:10131000C4F89002042004F5247404F053FE002560
:101320006560042004F04EFE256070BD001C024084
:10133000008043420E4810B5016821F4406101600D
:10134000016841F4806101600A4C0020C4F89002F9
:10135000C4F89402042004F5247404F033FE012040
:1013600020606060BDE81040042004F02BBE000047
:10137000001C02400080434270B5124800240168FE
:1013800021F440610160016801600F4D0126C5F83C
:101390009462304604F016FEC5F89062012004F015
:1013A00011FE07E0641CE4B2FA2C03D9FFF7C2FF78
:1013B000012070BDD5F814020028F3D1C5F89002C1
:1013C00070BD0000001C0240008043427CB5144800
:1013D000016841F001010160016841F00401016010
:1013E000016841F08001016000240220CDE9004045
:1013F0002346224601210B48FFF780FC01250023EC
:101400001A4669030848CDE90045FFF777FC002339
:101410001A460C210548CDE90045FFF76FFC7CBD5D
:10142000303802400000024000080240001C024028
:101430002DE9F041224C234E234F244D012108B1C8
:10144000217001E0207860B1D5F80C0270B1D5F8B8
:10145000080258B1D6F8340240B1D7F8000201288A
:1014600004D0D5F80C0201281CD027E00A2004F093
:101470008FFD00202070D5F80C0250B1D5F808027D
:1014800050B1D6F8340248B1D7F80002012807D08D
:1014900014E00120BDE8F0810220FBE70320F9E71A
:1014A0000420F7E7D5F80802012807D1D6F834025E
:1014B000012803D1D7F8000200B921700020E9E724
:1014C0001C000020000041420000404200804342D6
:1014D00070B50E490E4A064608881268002422B1EB
:1014E0003046BDE8704002F00FBF4D8800214543F3
:1014F000084602F06DFD02F0D9FEB1B2054801E0E8
:101500000180641CAC42FBD370BD000024010020AC
:1015100034010020000008602DE9F05F394C3A4D9D
:10152000A071296839B102F03BFFE88A2080288B3E
:101530006080BDE8F09F33492C232A2589884FF02D
:10154000F00949F2413A2B2645F2105B4FF4305E28
:101550004FF448774FF4A07845F2103C4FF4F07206
:1015600058B1A4F80080A4F80290514501D061451B
:1015700029D123816581A68139E0A4F80090A4F8DF
:101580000280514501D0614508D123816581A68142
:10159000614531D1A4F8008062802DE0594508D121
:1015A000A4F808E04FF4285060814FF42C50A0813B
:1015B00006E0A1F5C85063381ED123816681A5815C
:1015C0002280678018E0594508D1A4F808E04FF45C
:1015D000285060814FF42C50A08106E0A1F5C8503E
:1015E000633804D123816581A681278062806145AB
:1015F00002D12280A4F80280BDE8F05F002002F052
:101600000BBC000024010020340100202DE9FE4F16
:101610000026A2EB000882465F1A701E35468946F6
:10162000B8F1000F02DD4FF0010102E003D14FF0ED
:101630000001019102E0C8F100080190002F02DDD5
:101640004FF0010002E003D14FF00000009002E0F3
:10165000C7F1000700904046B84501DD044600E0B0
:101660003C46601C4FF0000B029015E01FFA89F118
:101670001FFA8AF000F016F846443D44A64202DD07
:101680000199361B8A44A54202DD00992D1B89442D
:101690000BF101001FFA80FB02998B45E6DDBDE8E6
:1016A000FE8F000010B5084A084C126822B122686B
:1016B000BDE8104002F088BE02F08AFC02F0F6FDA0
:1016C00003492088088010BD340100200C00002050
:1016D000000008602DE9FC5F8046002415460320C9
:1016E0000F46A0EB450649E0781B81B208EB040ADF
:1016F00001901FFA8AF0FFF7D5FF381B81B208EB83
:10170000050900901FFA89F0FFF7CCFF07EB040BE7
:101710001FFA8BF11FFA89F0FFF7C4FF07EB0509E9
:101720001FFA89F11FFA8AF0FFF7BCFFA8EB040A41
:101730001FFA89F11FFA8AF0FFF7B4FFA8EB050939
:101740001FFA8BF11FFA89F0FFF7ACFF019881B205
:101750001FFA8AF0FFF7A6FF009881B21FFA89F0FE
:10176000FFF7A0FF641C002E03DA06EB8406B61D0B
:1017700004E0601B06EB80066D1E0A36AC42B3DD4A
:10178000BDE8FC9F2DE9F041044639480D4600684C
:1017900020B12046BDE8F04102F016BE354E270AC2
:1017A0003146B0884989A0F513434FEA1528413BDB
:1017B0000BD0A0F5A643103B07D0B3F5007311D0B2
:1017C000A0F5C853633B27D04BE0084602F062FD0A
:1017D000384602F053FDE0B202F050FDB08902F04D
:1017E00059FD38E0084602F055FD384602F046FD46
:1017F0007089401C80B202F04DFDE0B202F03EFD67
:10180000B08902F047FD404602F038FDB089401C27
:1018100080B202F03FFD21E0B07918B93088001B9A
:10182000401E84B2084602F035FD270A384602F011
:1018300025FDE0B202F022FD384602F01FFDE0B2C5
:1018400002F01CFDB08902F025FD404602F016FDB5
:10185000E8B202F013FD404602F010FDE8B202F0DB
:101860000DFD054930890880881C0280BDE8F081A3
:101870003401002024010020FEFF07602DE9F84319
:101880001F46144B804608981B6833B100903B46B6
:10189000404602F0B7FDBDE8F883A2EB0802521CF7
:1018A00096B20C4685B2DFF830900FE021464046F4
:1018B00002F08EFB02F0FAFC0020494602E00D80A7
:1018C000401C80B2B042FAD3641CA4B2BC42EDD931
:1018D000E1E7000034010020000008602DE9FC5F12
:1018E00003F024F8FE4D4FF0010B4FF02049A88083
:1018F00045F2103645F2105441F6631818B102F063
:10190000D7FD02F01DBAF748016841F002010160FD
:10191000016841F018010160F2480830016841F0A7
:10192000010101600220CDE9000B5F460023012286
:101930002021ED48FFF7E2F94FF0030ACDE900A7B7
:10194000002302224EF2B371E848FFF7D7F9CDE940
:1019500000A7E74F002302224FF680713846FFF7B9
:10196000CDF90C220021E148FFF7B8F90C22012142
:10197000DE48FFF7B3F90C220421DC48FFF7AEF98B
:101980000C220521D948FFF7A9F90C220721D748D5
:10199000FFF7A4F90C220821D448FFF79FF90C2285
:1019A0000921D248FFF79AF90C220A21CF48FFF704
:1019B00095F90C220D21CD48FFF790F90C220E214C
:1019C000CA48FFF78BF90C220F21C848FFF786F9A8
:1019D0000C2207213846FFF781F90C2208213846EE
:1019E000FFF77CF90C2209213846FFF777F90C2222
:1019F0000A213846FFF772F90C220B213846FFF70F
:101A00006DF90C2211463846FFF768F90C220D21BA
:101A10003846FFF763F90C220E213846FFF75EF9CE
:101A20000C220F213846FFF759F900214846C9F822
:101A30000010C9F80410C9F80411D9F8001041F4D5
:101A40008051C9F80010D9F8001041F48041C9F85C
:101A50000010D9F8001041F01001C9F80010D9F8B1
:101A60000410C9F80410D9F8041041F00F014160C6
:101A7000416841F48C414160D0F80411C0F8041170
:101A8000D0F8041141F00F01C0F80411D0F804118E
:101A900041F47061C0F80411016841F00101016076
:101AA000322004F075FAD32002F0F4FB02F082F940
:101AB000A88002F07FF9A88002F07CF94FF6FF724F
:101AC00002EA0020A88002F075F9A98849F241379E
:101AD0000843A880B84248D0D42002F0DBFB02F0D3
:101AE00069F9A88002F066F9A88002F063F902EAB9
:101AF0000020A88002F05EF9A9880843A880B042BF
:101B000033D04FF45A4002F0C5FB02F053F9A880DD
:101B10004FF45B4002F0BEFB02F04CF902EA0020F9
:101B2000A8804FF45C4002F0B5FB02F043F9A988AD
:101B30000843A880B0F5004F7DD0A04215D0A12069
:101B400002F0A8FB02F036F9A88002F033F902EAAD
:101B50000020A88002F02EF9A9880843A0F5AE4124
:101B6000A880613901D1A5F80480A98861A0FEF799
:101B70009BFBA888B8427DD1CF2002F08BFB0020D0
:101B800002F07CFBC12002F079FB302002F076FBF2
:101B9000ED2002F07FFB642002F070FB032002F0D6
:101BA0006DFB122002F06AFB812002F067FBE82047
:101BB00002F070FB852002F061FB102002F05EFB5A
:101BC0007A2002F05BFBCB2002F064FB392002F0AC
:101BD00055FB2C2002F052FB002002F04FFB34207A
:101BE00002F04CFB022002F049FBF72002F052FB0E
:101BF000202002F043FBEA2002F04CFB002002F020
:101C00003DFB002002F03AFBC02002F043FB1B200A
:101C100002F034FBC12002F03DFB012002F02EFB5C
:101C2000C52002F037FB302002F028FB302002F004
:101C300025FBC72000E0CAE002F02CFBB72002F031
:101C40001DFB362002F026FB482002F017FB3A204D
:101C500002F020FB552002F011FBB12002F01AFB2C
:101C6000002002F00BFB1A2002F008FBB62002F065
:101C700011FB00E0ADE00A2002F000FBA22002F020
:101C8000FDFAF22002F006FB002002F0F7FA26200F
:101C900002F000FB012002F0F1FAE02002F0FAFA73
:101CA0000F2002F0EBFA2A2002F0E8FA282002F0D6
:101CB000E5FA082002F0E2FA0E2002F0DFFA08202E
:101CC00002F0DCFA542002F0D9FAA92002F0D6FA88
:101CD000432002F0D3FA0A2002F0D0FA0F2011E0DC
:101CE000240100203038024000040240000C024071
:101CF00000100240204C43442049443A25780D0A04
:101D00000000000002F0BAFA002002F0B7FA00204A
:101D100002F0B4FA002002F0B1FA002002F0AEFAAC
:101D2000E12002F0B7FA002002F0A8FA152002F034
:101D3000A5FA172002F0A2FA072002F09FFA11205C
:101D400002F09CFA062002F099FA2B2002F096FA93
:101D5000562002F093FA3C2002F090FA052002F09F
:101D60008DFA102002F08AFA0F2002F087FA3F2045
:101D700002F084FA3F2002F081FA0F2002F07EFA8E
:101D80002B2002F087FA002002F078FA002002F0FF
:101D900075FA012002F072FA3F2002F06FFA2A2051
:101DA00002F078FA002002F069FA002002F066FAE8
:101DB000002002F063FAEF2002F060FA112002F036
:101DC00069FA782004F0E4F8292001F0FCBEAC8028
:101DD000CBE6B0427ED1ED2002F05CFA012002F0A9
:101DE0004DFAFE2002F04AFAEE2002F053FADE200D
:101DF00002F044FA212002F041FAF12002F04AFAFE
:101E0000012002F03BFADF2002F044FA102002F039
:101E100035FAC42002F03EFA8F2002F02FFAC620D5
:101E200002F038FA002002F029FAE22002F026FA45
:101E3000E22002F023FAE22002F020FABF2002F0B2
:101E400029FAAA2002F01AFAB02002F023FA0D2093
:101E500002F014FA002002F011FA0D2002F00EFA3E
:101E6000002002F00BFA112002F008FA002002F024
:101E700005FA192002F002FA002002F0FFF92120F1
:101E800002F0FCF9002002F0F9F92D2002F0F6F939
:101E9000002002F0F3F93D2002F0F0F9002002F0FA
:101EA000EDF95D2002F0EAF9002002F0E7F95D208B
:101EB00002F0E4F9002002F0E1F9B12002F0EAF9C1
:101EC000802002F0DBF9002002F0D8F98B2002F02C
:101ED000D5F900E0FDE3002002F0D0F9962002F0F1
:101EE000CDF9002002F0CAF9B22002F0D3F90020A7
:101EF00002F0C4F9002002F0C1F9022002F0BEF99C
:101F0000002002F0BBF9032002F0B8F9002002F033
:101F1000B5F9B32002F0BEF9002002F0AFF90020BD
:101F200002F0ACF9002002F0A9F9002002F0A6F9B5
:101F3000002002F0A3F9002002F0A0F9002002F036
:101F40009DF9002002F09AF9002002F097F9002094
:101F500002F094F9002002F091F9002002F08EF9CD
:101F6000002002F08BF9002002F088F9002002F036
:101F700085F9002002F082F9002002F07FF90020AC
:101F800002F07CF9002002F079F9002002F076F9E5
:101F9000002002F073F9002002F070F9002002F036
:101FA0006DF9002002F06AF9B42002F073F98B2079
:101FB00002F064F9002002F061F9962002F05EF967
:101FC000002002F05BF9A12002F058F9002002F095
:101FD00055F9B52002F05EF9022002F04FF9002019
:101FE00002F04CF9032002F049F9002002F046F912
:101FF000042002F043F9002002F040F9B62002F07C
:1020000049F9002002F03AF9002002F037F9B72030
:1020100002F040F9002002F031F9002002F02EF920
:102020003F2002F02BF9002002F028F95E2002F098
:1020300025F9002002F022F9642002F01FF90020A7
:1020400002F01CF98C2002F019F9002002F016F9B8
:10205000AC2002F013F9002002F010F9DC2002F0AD
:102060000DF9002002F00AF9702002F007F90020B3
:1020700002F004F9902002F001F9002002F0FEF8CD
:10208000EB2002F0FBF8002002F0F8F8DC2002F070
:10209000F5F8002002F0F2F8B82002F0FBF800207A
:1020A00002F0ECF8002002F0E9F8002002F0E6F877
:1020B000002002F0E3F8002002F0E0F8002002F037
:1020C000DDF8002002F0DAF8002002F0D7F8BA209C
:1020D00002F0E0F8242002F0D1F8002002F0CEF85F
:1020E000002002F0CBF8002002F0C8F8C12002F076
:1020F000D1F8202002F0C2F8002002F0BFF85420EE
:1021000002F0BCF8002002F0B9F8FF2002F0B6F8A7
:10211000002002F0B3F8C22002F0BCF80A2002F05E
:10212000ADF8002002F0AAF8042002F0A7F8002081
:1021300002F0A4F8C32002F0ADF83C2002F09EF8B3
:10214000002002F09BF83A2002F098F8002002F0FC
:1021500095F8392002F092F8002002F08FF837202D
:1021600002F08CF8002002F089F83C2002F086F89A
:10217000002002F083F8362002F080F8002002F000
:102180007DF8322002F07AF8002002F077F82F2054
:1021900002F074F8002002F071F82C2002F06EF8C2
:1021A000002002F06BF8292002F068F8002002F00D
:1021B00065F8262002F062F8002002F05FF8242083
:1021C00002F05CF8002002F059F8242002F056F8E2
:1021D000002002F053F8232002F050F8002002F013
:1021E0004DF83C2002F04AF8002002F047F8362073
:1021F00002F044F8002002F041F8322002F03EF8EC
:10220000002002F03BF82F2002F038F8002002F006
:1022100035F82C2002F032F8002002F02FF82920A7
:1022200002F02CF8002002F029F8262002F026F80F
:10223000002002F023F8242002F020F8002002F011
:102240001DF8242002F01AF8002002F017F82320CD
:1022500002F014F8002002F011F8C42002F01AF87D
:10226000622002F00BF8002002F008F8052002F0CE
:1022700005F8002002F002F8842001F0FFFF0020A2
:1022800001F0FCFFF02001F0F9FF002001F0F6FF63
:10229000182001F0F3FF002001F0F0FFA42001F06E
:1022A000EDFF002001F0EAFF182001F0E7FF002019
:1022B00001F0E4FF502001F0E1FF002001F0DEFF1B
:1022C0000C2001F0DBFF002001F0D8FF172001F007
:1022D000D5FF002001F0D2FF952001F0CFFF0020B4
:1022E00001F0CCFFF32001F0C9FF002001F0C6FF90
:1022F000E62001F0C3FF002001F0C0FFC52001F07F
:10230000C9FF322001F0BAFF002001F0B7FF4420DE
:1023100001F0B4FF002001F0B1FF652001F0AEFF35
:10232000002001F0ABFF762001F0A8FF002001F0B3
:10233000A5FF882001F0A2FF002001F09FFFC6202A
:1023400001F0A8FF202001F099FF002001F096FF86
:10235000172001F093FF002001F090FF012001F011
:102360008DFF002001F08AFFC72001F093FF0020BD
:1023700001F084FF002001F081FF002001F07EFFCA
:10238000002001F07BFFC82001F084FF002001F055
:1023900075FF002001F072FF002001F06FFF0020A8
:1023A00001F06CFFC92001F075FF002001F066FF0D
:1023B000002001F063FF002001F060FF002001F029
:1023C0005DFF002001F05AFF002001F057FF0020C0
:1023D00001F054FF002001F051FF002001F04EFFFA
:1023E000002001F04BFF002001F048FF002001F029
:1023F00045FF002001F042FF002001F03FFF0020D8
:1024000001F03CFF002001F039FFE02001F042FF25
:10241000162001F033FF002001F030FF1C2001F0F6
:102420002DFF002001F02AFF212001F027FF0020CE
:1024300001F024FF362001F021FF002001F01EFFF3
:10244000462001F01BFF002001F018FF522001F090
:1024500015FF002001F012FF642001F00FFF0020A3
:1024600001F00CFF7A2001F009FF002001F006FFC7
:102470008B2001F003FF002001F000FF992001F004
:10248000FDFE002001F0FAFEA82001F0F7FE00207A
:1024900001F0F4FEB92001F0F1FE002001F0EEFEA3
:1024A000C42001F0EBFE002001F0E8FECA2001F09C
:1024B000E5FE002001F0E2FED22001F0DFFE002068
:1024C00001F0DCFED92001F0D9FE002001F0D6FE9B
:1024D000E02001F0D3FE002001F0D0FEF32001F057
:1024E000CDFE002001F0CAFEE12001F0D3FE16204F
:1024F00001F0C4FE002001F0C1FE1C2001F0BEFE70
:10250000002001F0BBFE222001F0B8FE002001F007
:10251000B5FE362001F0B2FE002001F0AFFE4520EE
:1025200001F0ACFE002001F0A9FE522001F0A6FE51
:10253000002001F0A3FE642001F0A0FE002001F0C5
:102540009DFE7A2001F09AFE002001F097FE8B207C
:1025500001F094FE002001F091FE992001F08EFE22
:10256000002001F08BFEA82001F088FE002001F081
:1025700085FEB92001F082FE002001F07FFEC4201C
:1025800001F07CFE002001F079FECA2001F076FE09
:10259000002001F073FED22001F070FE002001F057
:1025A0006DFED82001F06AFE002001F067FEE020F9
:1025B00001F064FE002001F061FEF32001F05EFEF8
:1025C000002001F05BFEE22001F064FE052001F036
:1025D00055FE002001F052FE0B2001F04FFE0020BE
:1025E00001F04CFE1B2001F049FE002001F046FEE8
:1025F000342001F043FE002001F040FE442001F0B1
:102600003DFE002001F03AFE4F2001F037FE002091
:1026100001F034FE612001F031FE002001F02EFEB9
:10262000792001F02BFE002001F028FE882001F027
:1026300025FE002001F022FE972001F01FFE002061
:1026400001F01CFEA62001F019FE002001F016FE8C
:10265000B72001F013FE002001F010FEC22001F0AF
:102660000DFE002001F00AFEC72001F007FE002049
:1026700001F004FED12001F001FE002001F0FEFD7A
:10268000D62001F0FBFD002001F0F8FDDD2001F077
:10269000F5FD002001F0F2FDF32001F0EFFD002038
:1026A00001F0ECFDE32001F0F5FD052001F0E6FD71
:1026B000002001F0E3FD0A2001F0E0FD002001F020
:1026C000DDFD1C2001F0DAFD002001F0D7FD3320F4
:1026D00000E0FAE201F0D2FD002001F0CFFD44203D
:1026E00001F0CCFD002001F0C9FD502001F0C6FD35
:1026F000002001F0C3FD622001F0C0FD002001F0C8
:10270000BDFD782001F0BAFD002001F0B7FD882062
:1027100001F0B4FD002001F0B1FD972001F0AEFD05
:10272000002001F0ABFDA62001F0A8FD002001F083
:10273000A5FDB72001F0A2FD002001F09FFDC22001
:1027400001F09CFD002001F099FDC72001F096FDED
:10275000002001F093FDD12001F090FD002001F058
:102760008DFDD52001F08AFD002001F087FDDD20E0
:1027700001F084FD002001F081FDF32001F07EFDD9
:10278000002001F07BFDE42001F084FD012001F038
:1027900075FD002001F072FD012001F06FFD0020A9
:1027A00001F06CFD022001F069FD002001F066FDE2
:1027B0002A2001F063FD002001F060FD3C2001F0C3
:1027C0005DFD002001F05AFD4B2001F057FD002077
:1027D00001F054FD5D2001F051FD002001F04EFD9F
:1027E000742001F04BFD002001F048FD842001F031
:1027F00045FD002001F042FD932001F03FFD002047
:1028000001F03CFDA22001F039FD002001F036FD71
:10281000B32001F033FD002001F030FDBE2001F0B7
:102820002DFD002001F02AFDC42001F027FD00202D
:1028300001F024FDCD2001F021FD002001F01EFD5E
:10284000D32001F01BFD002001F018FDDD2001F078
:1028500015FD002001F012FDF32001F00FFD002016
:1028600001F00CFDE52001F015FD002001F006FD52
:10287000002001F003FD002001F000FD002001F028
:10288000FDFC022001F0FAFC002001F0F7FC2920F9
:1028900001F0F4FC002001F0F1FC3C2001F0EEFC22
:1028A000002001F0EBFC4B2001F0E8FC002001F0DF
:1028B000E5FC5D2001F0E2FC002001F0DFFC74206B
:1028C00001F0DCFC002001F0D9FC842001F0D6FCF2
:1028D000002001F0D3FC932001F0D0FC002001F097
:1028E000CDFCA22001F0CAFC002001F0C7FCB320FF
:1028F00001F0C4FC002001F0C1FCBE2001F0BEFCD0
:10290000002001F0BBFCC42001F0B8FC002001F065
:10291000B5FCCD2001F0B2FC002001F0AFFCD320CB
:1029200001F0ACFC002001F0A9FCDC2001F0A6FCC9
:10293000002001F0A3FCF32001F0A0FC002001F036
:102940009DFCE62001F0A6FC112001F097FC002080
:1029500001F094FC342001F091FC002001F08EFC89
:10296000562001F08BFC002001F088FC762001F05D
:1029700085FC002001F082FC772001F07FFC002024
:1029800001F07CFC662001F079FC002001F076FC6F
:10299000882001F073FC002001F070FC992001F008
:1029A0006DFC002001F06AFCBB2001F067FC0020F8
:1029B00001F064FC992001F061FC002001F05EFC54
:1029C000662001F05BFC002001F058FC552001F06E
:1029D00055FC002001F052FC552001F04FFC002076
:1029E00001F04CFC452001F049FC002001F046FCC0
:1029F000432001F043FC002001F040FC442001F0A2
:102A00003DFC002001F03AFCE72001F043FC3220BD
:102A100001F034FC002001F031FC552001F02EFCC7
:102A2000002001F02BFC762001F028FC002001F0B2
:102A300025FC662001F022FC002001F01FFC67202D
:102A400001F01CFC002001F019FC672001F016FCCD
:102A5000002001F013FC872001F010FC002001F0A1
:102A60000DFC992001F00AFC002001F007FCBB20BE
:102A700001F004FC002001F001FC992001F0FEFBB4
:102A8000002001F0FBFB772001F0F8FB002001F0B3
:102A9000F5FB442001F0F2FB002001F0EFFB562093
:102AA00001F0ECFB002001F0E9FB232001F0E6FB44
:102AB000002001F0E3FB332001F0E0FB002001F0F7
:102AC000DDFB452001F0DAFB002001F0D7FBE82018
:102AD00001F0E0FB002001F0D1FB002001F0CEFB73
:102AE000992001F0CBFB002001F0C8FB872001F00A
:102AF000C5FB002001F0C2FB882001F0BFFB0020D5
:102B000001F0BCFB772001F0B9FB002001F0B6FB1F
:102B1000662001F0B3FB002001F0B0FB882001F03B
:102B2000ADFB002001F0AAFBAA2001F0A7FB0020CA
:102B300001F0A4FBBB2001F0A1FB002001F09EFBF3
:102B4000992001F09BFB002001F098FB662001F02A
:102B500095FB002001F092FB552001F08FFB002037
:102B600001F08CFB552001F089FB002001F086FB71
:102B7000442001F083FB002001F080FB442001F0A1
:102B80007DFB002001F07AFB552001F077FB00204F
:102B900001F074FBE92001F07DFBAA2001F06EFB3F
:102BA000002001F06BFB002001F068FB002001F029
:102BB00065FB002001F06EFBAA2001F05FFBCF2037
:102BC00001F068FB002001F059FB002001F056FBEA
:102BD000002001F053FB002001F050FB002001F029
:102BE0004DFB002001F04AFB002001F047FB0020D4
:102BF00001F044FB002001F041FB002001F03EFB0E
:102C0000002001F03BFB002001F038FB002001F028
:102C100035FB002001F032FB002001F02FFB0020EB
:102C200001F02CFB002001F029FBF02001F032FB29
:102C3000002001F023FB502001F020FB002001F0D8
:102C40001DFB002001F01AFB002001F017FBF32010
:102C500001F020FB002001F011FBF92001F01AFB2C
:102C6000062001F00BFB102001F008FB292001F0E9
:102C700005FB002001F002FB3A2001F00BFB552080
:102C800001F0FCFA112001F005FB642003F080F94B
:102C9000292001F0FFFA352001F0FCFA002001F0B4
:102CA000EDFA512001F0F6FAFF2001F0E7FA532087
:102CB00001F0F0FA2C2001F0E1FA552001F0EAFAD7
:102CC000822001F0DBFA2C20FDE3A0427ED14FF4FC
:102CD00070435521184601F0F3FA4FF20107AA217B
:102CE000384601F0EDFA4FF2020A5221504601F047
:102CF000E7FA0821B81C01F0E3FA0121F81C01F001
:102D0000DFFA0D214FF4304001F0DAFA0D214BF2D9
:102D1000010001F0D5FA0D214BF2020001F0D0FACA
:102D200034214FF4364001F0CBFA34214BF20160EC
:102D300001F0C6FA34214BF2026001F0C1FA0D2114
:102D40004FF4314001F0BCFA0D214BF2011001F0BB
:102D5000B7FA0D214BF2021001F0B2FA34214FF410
:102D6000374001F0ADFA34214BF2017001F0A8FABE
:102D700034214BF2027001F0A3FA00214FF43240EB
:102D800001F09EFA00214BF2012001F099FA002196
:102D90004BF2022001F094FA24214FF4384001F064
:102DA0008FFA24214BF6010001F08AFA24214BF618
:102DB000020001F085FA01214FF43F4001F080FA52
:102DC0000F214FF4334001F07BFA00E0FEE30F21C6
:102DD0004BF2013001F074FA0F214BF2023001F096
:102DE0006FFA34214FF4394001F06AFA34214BF67E
:102DF000011001F065FA34214BF6021001F060FA7F
:102E000008214FF4354001F05BFA08214BF20150E4
:102E100001F056FA08214BF2025001F051FA032159
:102E20004FF4424001F04CFA24214FF43A4001F0B3
:102E300047FA24214BF6012001F042FA24214BF6F7
:102E4000022001F03DFA00214FF43C4001F038FA35
:102E500078214BF6014001F033FA00214BF6024095
:102E600001F02EFA00214FF43D4001F029FA7821BB
:102E70004BF6015001F024FA00214BF6025001F00C
:102E80001FFA00214FF43E4001F01AFA64214BF67C
:102E9000016001F015FA00214FF4514001F010FAE1
:102EA00033214DF2011001F00BFA00214DF2021016
:102EB00001F006FA34214DF2031001F001FA00216D
:102EC0004DF2041001F0FCF93A214DF2051001F029
:102ED000F7F900214DF2061001F0F2F94A214DF206
:102EE000071001F0EDF900214DF2081001F0E8F9AA
:102EF0005C214DF2091001F0E3F900214DF20A10B6
:102F000001F0DEF981214DF20B1001F0D9F9002119
:102F10004DF20C1001F0D4F9A6214DF20D1001F084
:102F2000CFF900214DF20E1001F0CAF9E5214DF262
:102F30000F1001F0C5F901214DF2101001F0C0F998
:102F400013214DF2111001F0BBF901214DF21210C5
:102F500001F0B6F954214DF2131001F0B1F901213D
:102F60004DF2141001F0ACF982214DF2151001F070
:102F7000A7F901214DF2161001F0A2F9CA214DF274
:102F8000171001F09DF902214DF2181001F098F987
:102F900000214DF2191001F093F902214DF21A109F
:102FA00001F08EF901214DF21B1001F089F9022187
:102FB0004DF21C1001F084F934214DF21D1001F086
:102FC0007FF902214DF21E1001F07AF967214DF2CE
:102FD0001F1001F075F902214DF2201001F070F977
:102FE00084214DF2211001F06BF902214DF22210E3
:102FF00001F066F9A4214DF2231001F061F90221DC
:103000004DF2241001F05CF9B7214DF2251001F0CA
:1030100057F902214DF2261001F052F9CF214DF25D
:10302000271001F04DF902214DF2281001F048F966
:10303000DE214DF2291001F043F902214DF22A1050
:1030400001F03EF9F2214DF22B1001F039F9022185
:103050004DF22C1001F034F9FE214DF22D1001F04B
:103060002FF903214DF22E1001F02AF910214DF213
:103070002F1001F025F903214DF2301001F020F955
:1030800033214DF2311001F01BF903214DF23210C2
:1030900001F016F96D214DF2331001F011F9002104
:1030A0004FF4524001F00CF933214DF2012001F0B0
:1030B00007F900214DF2022001F002F934214DF20E
:1030C000032001F0FDF800214DF2042001F0F8F892
:1030D0003A214DF2052001F0F3F800214DF20620CF
:1030E00001F0EEF84A214DF2072001F0E9F8002145
:1030F0004DF2082001F0E4F85C214DF2092001F0C6
:10310000DFF800214DF20A2001F0DAF881214DF2BA
:103110000B2001F0D5F800214DF20C2001F0D0F881
:10312000A6214DF20D2001F0CBF800214DF20E202A
:1031300001F0C6F8E5214DF20F2001F0C1F80121A0
:103140004DF2102001F0BCF813214DF2112001F0D6
:10315000B7F801214DF2122001F0B2F854214DF2DE
:10316000132001F0ADF801214DF2142001F0A8F870
:1031700082214DF2152001F0A3F801214DF2162015
:1031800001F09EF8CA214DF2172001F099F80221B2
:103190004DF2182001F094F800214DF2192001F0B1
:1031A0008FF802214DF21A2001F08AF801214DF228
:1031B0001B2001F085F802214DF21C2001F080F85F
:1031C00034214DF21D2001F07BF802214DF21E202A
:1031D00001F076F867214DF21F2001F071F802210D
:1031E0004DF2202001F06CF884214DF2212001F0F5
:1031F00067F802214DF2222001F062F8A4214DF27D
:10320000232001F05DF802214DF2242001F058F84E
:10321000B7214DF2252001F053F802214DF226206E
:1032200001F04EF8CF214DF2272001F049F802219C
:103230004DF2282001F044F8DE214DF2292001F062
:103240003FF802214DF22A2001F03AF8F2214DF226
:103250002B2001F035F802214DF22C2001F030F83E
:10326000FE214DF22D2001F02BF803214DF22E20EE
:1032700001F026F810214DF22F2001F021F8032152
:103280004DF2302001F01CF833214DF2312001F0D5
:1032900017F803214DF2322001F012F86D214DF2A2
:1032A000332001F00DF800214FF4534001F008F8ED
:1032B00033214DF2013001F003F800214DF20230CC
:1032C00000F0FEFF34214DF2033000F0F9FF002141
:1032D0004DF2043000F0F4FF3A214DF2053000F0D9
:1032E000EFFF00214DF2063000F0EAFF4A214DF2D7
:1032F000073000F0E5FF00214DF2083000F0E0FF5C
:103300005C214DF2093000F0DBFF00214DF20A3064
:1033100000F0D6FF81214DF20B3000F0D1FF0021EB
:103320004DF20C3000F0CCFFA6214DF20D3000F034
:10333000C7FF00214DF20E3000F0C2FFE5214DF233
:103340000F3000F0BDFF01214DF2103000F0B8FF4A
:1033500013214DF2113000F0B3FF01214DF2123074
:1033600000F0AEFF54214DF2133000F0A9FF01210F
:103370004DF2143000F0A4FF82214DF2153000F020
:103380009FFF01214DF2163000F09AFFCA214DF245
:10339000173000F095FF02214DF2183000F090FF39
:1033A00000214DF2193000F08BFF02214DF21A304E
:1033B00000F086FF01214DF21B3000F081FF022159
:1033C0004DF21C3000F07CFF34214DF21D3000F036
:1033D00077FF02214DF21E3000F072FF67214DF29F
:1033E0001F3000F06DFF02214DF2203000F068FF29
:1033F00084214DF2213000F063FF02214DF2223092
:1034000000F05EFFA4214DF2233000F059FF0221AD
:103410004DF2243000F054FFB7214DF2253000F07A
:103420004FFF02214DF2263000F04AFFCF214DF22E
:10343000273000F045FF02214DF2283000F040FF18
:10344000DE214DF2293000F03BFF02214DF22A30FF
:1034500000F036FFF2214DF22B3000F031FF022157
:103460004DF22C3000F02CFFFE214DF22D3000F0FB
:1034700027FF03214DF22E3000F022FF10214DF2E4
:103480002F3000F01DFF03214DF2303000F018FF07
:1034900033214DF2313000F013FF03214DF2323071
:1034A00000F00EFF6D214DF2333000F009FF0021D6
:1034B0004FF4544000F004FF33214DF2014000F07E
:1034C000FFFE002100E07EE34DF2024000F0F8FE36
:1034D00034214DF2034000F0F3FE00214DF2044090
:1034E00000F0EEFE3A214DF2054000F0E9FE002129
:1034F0004DF2064000F0E4FE4A214DF2074000F094
:10350000DFFE00214DF2084000F0DAFE5C214DF2B2
:10351000094000F0D5FE00214DF20A4000F0D0FE37
:1035200081214DF20B4000F0CBFE00214DF20C400A
:1035300000F0C6FEA6214DF20D4000F0C1FE0021B4
:103540004DF20E4000F0BCFEE5214DF20F4000F0C0
:10355000B7FE01214DF2104000F0B2FE13214DF2F2
:10356000114000F0ADFE01214DF2124000F0A8FE26
:1035700054214DF2134000F0A3FE01214DF21440FE
:1035800000F09EFE82214DF2154000F099FE0121CF
:103590004DF2164000F094FECA214DF2174000F0A3
:1035A0008FFE02214DF2184000F08AFE00214DF2FC
:1035B000194000F085FE02214DF21A4000F080FE15
:1035C00001214DF21B4000F07BFE00E0FEE20221F3
:1035D0004DF21C4000F074FE34214DF21D4000F00D
:1035E0006FFE02214DF21E4000F06AFE67214DF28F
:1035F0001F4000F065FE02214DF2204000F060FE09
:1036000084214DF2214000F05BFE02214DF2224068
:1036100000F056FEA4214DF2234000F051FE02219D
:103620004DF2244000F04CFEB7214DF2254000F051
:1036300047FE02214DF2264000F042FECF214DF21E
:10364000274000F03DFE02214DF2284000F038FEF8
:10365000DE214DF2294000F033FE02214DF22A40D6
:1036600000F02EFEF2214DF22B4000F029FE022147
:103670004DF22C4000F024FEFE214DF22D4000F0D2
:103680001FFE03214DF22E4000F01AFE10214DF2D4
:103690002F4000F015FE03214DF2304000F010FEE7
:1036A00033214DF2314000F00BFE03214DF2324048
:1036B00000F006FE6D214DF2334000F001FE0021C6
:1036C0004FF4554000F0FCFD33214DF2015000F065
:1036D000F7FD00214DF2025000F0F2FD34214DF2D1
:1036E000035000F0EDFD00214DF2045000F0E8FD24
:1036F0003A214DF2055000F0E3FD00214DF2065055
:1037000000F0DEFD4A214DF2075000F0D9FD002106
:103710004DF2085000F0D4FD5C214DF2095000F04C
:10372000CFFD00214DF20A5000F0CAFD81214DF27B
:103730000B5000F0C5FD00214DF20C5000F0C0FD13
:10374000A6214DF20D5000F0BBFD00214DF20E50B0
:1037500000F0B6FDE5214DF20F5000F0B1FD012162
:103760004DF2105000F0ACFD13214DF2115000F05D
:10377000A7FD01214DF2125000F0A2FD54214DF29F
:10378000135000F09DFD01214DF2145000F098FD02
:1037900082214DF2155000F093FD01214DF216509B
:1037A00000F08EFDCA214DF2175000F089FD022174
:1037B0004DF2185000F084FD00214DF2195000F038
:1037C0007FFD02214DF21A5000F07AFD01214DF2E9
:1037D0001B5000F075FD02214DF21C5000F070FDF1
:1037E00034214DF21D5000F06BFD02214DF21E50B0
:1037F00000F066FD67214DF21F5000F061FD0221CF
:103800004DF2205000F05CFD84214DF2215000F07B
:1038100057FD02214DF2225000F052FDA4214DF23D
:10382000235000F04DFD02214DF2245000F048FDE0
:10383000B7214DF2255000F043FD02214DF22650F4
:1038400000F03EFDCF214DF2275000F039FD02215E
:103850004DF2285000F034FDDE214DF2295000F0E9
:103860002FFD02214DF22A5000F02AFDF2214DF2E7
:103870002B5000F025FD02214DF22C5000F020FDD0
:10388000FE214DF22D5000F01BFD03214DF22E5074
:1038900000F016FD10214DF22F5000F011FD032114
:1038A0004DF2305000F00CFD33214DF2315000F05C
:1038B00007FD03214DF2325000F002FD6D214DF263
:1038C000335000F0FDFC00214FF4564000F0F8FCAE
:1038D00033214DF2016000F0F3FC00214DF2026053
:1038E00000F0EEFC34214DF2036000F0E9FC002111
:1038F0004DF2046000F0E4FC3A214DF2056000F066
:10390000DFFC00214DF2066000F0DAFC4A214DF2A6
:10391000076000F0D5FC00214DF2086000F0D0FCFB
:103920005C214DF2096000F0CBFC00214DF20A60F1
:1039300000F0C6FC81214DF20B6000F0C1FC0021BB
:103940004DF20C6000F0BCFCA6214DF20D6000F0C1
:10395000B7FC00214DF20E6000F0B2FCE5214DF203
:103960000F6000F0ADFC01214DF2106000F0A8FCEA
:1039700013214DF2116000F0A3FC01214DF2126001
:1039800000F09EFC54214DF2136000F099FC0121DF
:103990004DF2146000F094FC82214DF2156000F0AD
:1039A0008FFC01214DF2166000F08AFCCA214DF215
:1039B000176000F085FC02214DF2186000F080FCD9
:1039C00000214DF2196000F07BFC02214DF21A60DB
:1039D00000F076FC01214DF21B6000F071FC022129
:1039E0004DF21C6000F06CFC34214DF21D6000F0C3
:1039F00067FC02214DF21E6000F062FC67214DF26F
:103A00001F6000F05DFC02214DF2206000F058FCC8
:103A100084214DF2216000F053FC02214DF222601E
:103A200000F04EFCA4214DF2236000F049FC02217D
:103A30004DF2246000F044FCB7214DF2256000F007
:103A40003FFC02214DF2266000F03AFCCF214DF2FE
:103A5000276000F035FC02214DF2286000F030FCB8
:103A6000DE214DF2296000F02BFC02214DF22A608C
:103A700000F026FCF2214DF22B6000F021FC022127
:103A80004DF22C6000F01CFCFE214DF22D6000F088
:103A900017FC03214DF22E6000F012FC10214DF2B4
:103AA0002F6000F00DFC03214DF2306000F008FCA7
:103AB00033214DF2316000F003FC03214DF23260FE
:103AC00000F0FEFB6D214DF2336000F0F9FB552153
:103AD000184600F0F5FBAA21384600F0F1FB522110
:103AE000504600F0EDFB0821B81C00F0E9FB002176
:103AF000F81C00F0E5FBCC214FF4314000F0E0FB76
:103B000000214BF2011000F0DBFB05214FF43640A1
:103B100000F0D6FB70214FF4374000F0D1FB70214C
:103B20004BF2017000F0CCFB01214FF4384000F063
:103B3000C7FB03214BF6010000F0C2FB03214BF64B
:103B4000020000F0BDFB03214BF6030000F0B8FBC0
:103B500002214FF43C4000F0B3FB00214BF6014042
:103B600000F0AEFB00214BF6024000F0A9FBD02193
:103B70004FF4494000F0A4FB02214CF6011000F084
:103B80009FFB50214CF6021000F09AFB50214CF69E
:103B9000031000F095FB50214CF6041000F090FB50
:103BA00000214FF4545000F08BFB55214FF4685026
:103BB00000F086FB4FF4885000F06CFB782002F098
:103BC00001FA4FF4245000F065FBB9E04045FCD108
:103BD000E22000F05FFB1D2000F050FB022000F00F
:103BE0004DFB042000F04AFB642002F0EBF9E020DA
:103BF00000F050FB012000F041FB0A2002F0C8F960
:103C0000E02000F047FB032000F038FB0C2002F01E
:103C1000BFF9012000F03EFB0A2002F0B9F9E620CE
:103C200000F038FB2F2000F029FBFF2000F026FBDE
:103C3000FF2000F023FBB02000F02CFB202000F040
:103C40001DFB002000F01AFB032000F017FB40F2E0
:103C50001F3000F013FB012000F010FB40F2DF10DA
:103C600000F00CFB002000F009FBB42000F012FB78
:103C7000042000F003FB40F21F4000F0FFFA002098
:103C800000F0FCFA2E2000F0F9FA002000F0F6FA1D
:103C9000002000F0F3FA002000F0F0FA002000F01D
:103CA000EDFAB62000F0F6FA022000F0E7FA4FF441
:103CB000037000F0E3FA002000F0E0FA172000F0B3
:103CC000DDFA152000F0DAFA002000F0D7FA002023
:103CD00000F0D4FAF02000F0DDFA032000F0CEFA74
:103CE000292000F0D7FAD02000F0D4FA002000F00C
:103CF000C5FABE2000F0CEFA052000F0BFFAFE2083
:103D000000F0BCFA012000F0B9FA002000F0B6FA89
:103D1000002000F0B3FA002000F0B0FAB82000F064
:103D2000B9FA032000F0AAFA012000F0A7FABA209D
:103D300000F0B0FA012000F0A1FA642000F044F88D
:103D4000A888A0F51341413905D0B04203D0A04264
:103D500001D0404517D1D9F8041121F00F01C9F85D
:103D60000411D9F8041121F47061C9F80411D9F8CB
:103D7000041141F00401C9F80411D9F8041141F407
:103D80008061C9F804110020FDF7C6FB0449C1F8A1
:103D900094B2BDE8FC5F4FF6FF70FDF799BB0000E1
:103DA000008040420346012000E05843491EC9B24A
:103DB000FBD27047034808B50088ADF80000BDF895
:103DC000000008BD0000086010B50246BE2000F0EB
:103DD00061FA052000F052FA104602F020FC9FED37
:103DE0000C1B53EC112B02F069FC02F0EBFB80B2D0
:103DF00000F044FA012000F041FAFF2000F03EFA02
:103E0000002000F03BFABDE81040002000F036BA78
:103E10006666666666660440F0B56C4D002329460A
:103E2000AA79898841F66314012A01D01AB11BE0EE
:103E3000A14202D118E0A14216D1082814D2DFE82D
:103E400000F00406080A0C0E101206200CE00720F1
:103E50000AE0042008E0052006E0012004E000203C
:103E600002E0032000E00220A1F5134745F21032E2
:103E700045F21056413F05D0914203D0B14201D0E6
:103E8000A14277D1082812D2DFE800F01104060819
:103E90000A0C0E1080230AE0402308E0C02306E04D
:103EA000202304E0602302E0A02300E0E023B142ED
:103EB00002D14FF4585000E03620914205D0B14273
:103EC00003D0A14201D043F00803194600F0F8F9ED
:103ED000AA88A2420AD098062888698802D5884212
:103EE00002D303E0884201D9298068806889B24200
:103EF00041D100F0CFF9002000F0C0F96889401CE2
:103F000080B200F0C7F9002000F0B8F96889801C81
:103F100080B200F0BFF92888401EC0F30F2000F0E7
:103F2000ADF96889C01C80B200F0B4F92878401E51
:103F3000C0B200F0A3F9A88900F0ACF9002000F0AD
:103F40009DF9A889401C80B200F0A4F9002000F07F
:103F500095F9A889801C80B200F09CF96888401E01
:103F6000C0F30F2000F08AF9A889C01C80B200F0CD
:103F700091F922E028E000F08DF9002000F07EF9B0
:103F8000002000F07BF92888401EC0F30F2000F0CD
:103F900075F92878401EC0B200F070F9A88900F0C9
:103FA00079F9002000F06AF9002000F067F96888CC
:103FB000401EC0F30F2000F061F9A878BDE8F04082
:103FC000401EC0B200F05AB9F0BD0000240100202C
:103FD000F0B53F4D0C460246060AA9882846270A36
:103FE0004089A1F51343413B28D0A1F5A643103BDE
:103FF00024D0A1F5C853633B2FD0A1F5AA43103BB1
:1040000064D100F047F9304600F038F96889401C67
:1040100080B200F03FF9D0B200F030F9A88900F08A
:1040200039F9384600F02AF9A889401C80B200F01E
:1040300031F9E0B2BDE8F04000F020B900F02AF913
:10404000304600F01BF9D0B200F018F9A88900F052
:1040500021F9384600F012F9EBE7A97929B300F00D
:1040600019F9304600F00AF9D0B200F007F92888B3
:10407000401EC0F30F2000F001F92878401EC0B2A6
:1040800000F0FCF8A88900F005F9384600F0F6F8D1
:10409000E0B200F0F3F86888401EC0F30F2000F093
:1040A000EDF8A878401EC0B2C4E72988891A491ED5
:1040B0008AB200F0EFF8002000F0E0F8002000F0F5
:1040C000DDF8100A00F0DAF8D0B2D9E7F0BD000050
:1040D000240100202DE9F84F82461F460E468B46EC
:1040E000580700D0012000EBD700790810FB01F041
:1040F000203AC0B202F0FF090025009047E00C2FE3
:1041000010D0102F12D0182F14D0202F42D12249B6
:1041100001EBC9104FF00008445D200610D51F4880
:10412000026811E009EB49001D4906E01D4901EB59
:104130000910EFE71C4909EBC90001EB8000E9E732
:104140000A9828B91548426831465046FDF71AFBCF
:104150006006040E1548761CB6B24088B04219D9E4
:10416000A6EB0B00B84209D10AF101001FFA80FA50
:104170000E485E46018851450CD906E008F1010061
:1041800000F0FF08B8F1080FC7D36D1CEDB200981E
:104190008542B4D3BDE8F88F5E8500080C0000208E
:1041A0009E6D0008127200080278000824010020A9
:1041B0002DE9FF4F81B00027DDF838B01D4692464B
:1041C00080463C46B9464FEA5B0627E0281B401E66
:1041D000C1B20A20FFF7E6FDBAFBF0F00A21B0FBFE
:1041E000F1F201FB120027B9691E8C4201DA48B1D5
:1041F00001273030C2B206FB048080B25B46CDF8A6
:10420000009006E006FB048080B25B462022CDF8D9
:1042100000900299FFF75EFF641CE4B2AC42D5D374
:1042200005B0BDE8F08F2DE9F84F044600F0FF0817
:1042300010190D46DDE90A761FFA80FA58191FFA9F
:1042400080F94FF0000B11E0544502D3E8194446C1
:1042500085B24D450FD23B4629462046CDF800B0E9
:10426000FFF738FF04EB570084B2761C3278A2F1D6
:1042700020005E28E8D9BDE8F88F000001B5BDF840
:104280000000ADF80000BDF800000149088008BD3D
:104290000000086001B5BDF80000ADF80000BDF8F1
:1042A00000000149088008BDFEFF0760024803497D
:1042B000008908807047000024010020FEFF07608D
:1042C000024A1080901C018070470000FEFF0760CA
:1042D0001CB50A48016841F0020101600124032075
:1042E000CDE900040146002322460548FCF706FDFF
:1042F0000448C0F88442C0F880421CBD30380240F7
:10430000000402400080404208B500900548018B3F
:10431000C08A491E8BB2401E82B20021084600F0BE
:1043200071F808BD34010020F0B51C4C002307468D
:10433000256818461E4625F08055256041F6FF7514
:1043400001E05B1C9BB2D4F800C05FEA8C0C01D585
:10435000AB42F6D3AB4201D10120F0BD46EA87164D
:1043600046EA01710D4E88363160311D0E6826F423
:1043700040360E600E6846EA02420A60216841F04B
:104380008051216001E05B1C9BB22168890001D44F
:10439000AB42F8D3AB42E0D10220F0BD003802407E
:1043A00010B5084B1C465875A1888AB2218889B27D
:1043B00020B1012801D1D9821A8310BDDA82198374
:1043C00010BD000034010020F0B50C4F94B23D4602
:1043D000DFF82CC02B68EA692D7D7E7D5CF82550C6
:1043E00026B103FB01004243AC52F0BD7E68301A97
:1043F000401E03FB001050432C52F0BD340100203E
:10440000140000202DE9F043254EDDF81C90002417
:10441000757D0DB1054606E077680D46B91A1A4656
:104420003B1A491E5B1E306896F814C0DFF8748092
:10443000521B871A58F82CC0F66900FB015006FB86
:1044400000C519487F1EBFB2066846F40006066024
:104450001648066826F0010606604FF440360660EE
:10446000022646630764C563591AF30303EB02424D
:10447000491C11434164C0F83890016841F00101C2
:1044800001605A0102E0641C944202D2416889072B
:10449000F9D5816841F002018160BDE8F083000038
:1044A00034010020140000203038024000B00240E7
:1044B0002DE9FF5F002700F039FA0546B048016892
:1044C00041F080610160AE481438016841F002019A
:1044D0000160016841F4F071016001264FF0020AA9
:1044E000CDE900A6002332462021A648FCF706FCB1
:1044F0004FF00309CDE900964FF480684C46002345
:1045000002224146A048FCF7F9FBCDE90046002312
:1045100002224FF40C619D48FCF7F0FBDFF870B20B
:10452000CDE90046002302224FF47E415846FCF7B5
:10453000E5FBCDE90046974C0023022240F2F761EB
:104540002046FCF7DBFB0E220A218F48FCF7C6FB56
:104550000E2206218D48FCF7C1FB0E2207218B4855
:10456000FCF7BCFB0E220B218848FCF7B7FB0E22A0
:1045700009215846FCF7B2FB0E220A215846FCF7E7
:10458000ADFB0E220B215846FCF7A8FB0E220C2196
:104590005846FCF7A3FB0E220D215846FCF79EFB64
:1045A0000E2211465846FCF799FB0E220F21584661
:1045B000FCF794FB0E2200212046FCF78FFB0E2215
:1045C00001212046FCF78AFB0E2202212046FCF73F
:1045D00085FB0E2204212046FCF780FB0E220521DC
:1045E0002046FCF77BFB0E2206212046FCF776FBDB
:1045F0000E2207212046FCF771FB0E2209212046DE
:10460000FCF76CFB0E220A212046FCF767FB624C8C
:10461000A5F586404FF4F071423810D0A5F5E04280
:104620004FF44870843A1CD04FF416716E3229D082
:10463000921E3BD0A5F5004016383CD03DE04FF42B
:104640008870C4E90010268166812820A081082096
:10465000E081052121826082022204214FF49070C2
:1046600021E0C4E90001268166812E20A081172067
:10467000E081D220208216206082012203214FF4A3
:10468000C67010E0C4E9008114202081A4F80A90CB
:104690008C21A181E081A02020820C206082012257
:1046A00002214FF4B470FFF73FFE06E04FF4A06123
:1046B000C4E9001001E0C4E900813848076060895E
:1046C0002289374D034605EB0241401E0143334822
:1046D00010380160E0891918A0894B1E104405EBC1
:1046E00000421A432D4B0C3B1A606268531ECF18D0
:1046F000238800EB030C05EB0C4C4CEA070C274F0E
:10470000083FC7F800C0678A3A441144228A491E0C
:104710001A44104405EB004008432049091F086073
:104720001E48002514300560012000F049F91E489C
:104730001C4906220160C4F81CA00720CDE90052E4
:10474000CDE90205FF230222002000F033F8A08803
:10475000002280B200902088114683B2104600F0FB
:1047600071F8124821880180A18841801048257580
:10477000C0F8946204B0681EBDE8F05FFFF7C4BDE6
:104780004438024000040240001402400018024075
:10479000001C024000200240340100201868014043
:1047A0000000FFFF000000C01400002024010020D2
:1047B00000804042F0B5DDE90554DDE9077646EAC0
:1047C000056547EA042458B10B4801600A481838C7
:1047D0000260001D0360001D0560001D0460F0BD47
:1047E000054880380160044898380260001D036065
:1047F000001D0560001DF1E72C690140104B104AB7
:104800008033012901D049B10DE018B1186840F09A
:10481000010007E0106840F001000EE050B1186898
:1048200020F00100186006486038016841F001017D
:1048300001607047106820F001001060F3E700008D
:1048400084680140F0B4374F049CCE18D7F800C0FC
:104850001519CCF30B4C6644D7F800C0CCF30B4CC5
:10486000614401F1010141EA064140B32D4EFC369D
:1048700031603968C1F30A0129443D68C5F30A056E
:104880002A44521C42EA0142311D0A602649096845
:1048900011F007013FD001293FD005293FD006295B
:1048A0003DD002214B43204AD91C1C3241EA03412E
:1048B0001160111D0C60F0BC0121FFF79FBF194E64
:1048C0007C3631603968C1F30A0129443D68C5F37B
:1048D0000A052A44521C42EA0142311D0A6012496B
:1048E0008039096811F007010FD001290FD005297F
:1048F0000FD006290DD002214B430B4AD91C643A34
:1049000041EA03411160111DD4E70421F4E70321BA
:10491000F2E70121F0E70421C4E70321C2E7012106
:10492000C0E700000C680140146901407CB51F48D5
:10493000016841F4A071016000240125234622464C
:1049400040211B48CDE90045FCF7D8F900231A4661
:1049500084211848CDE90045FCF7D0F91648D0F875
:1049600018021649D1F80822D1F81C1240EA420078
:1049700040EA810010F0FF0009D001280AD0022887
:104980000BD003280CD004280DD000207CBD44F2AD
:1049900042307CBD47F284007CBD47F216007CBDEE
:1049A00047F218007CBD48F216007CBD303802404A
:1049B0000018024000200240000043420000444230
:1049C0000649012806D0002803D1086820F001001C
:1049D00008607047086840F00100F9E71868014076
:1049E0001CB54FF6FF70FCF773FD0A4C1F200AA19F
:1049F00020601020CDE9000108481023C82200885B
:104A00000021183880B2FFF70EFC4FF47840206088
:104A10001CBD00000C000020525354002401002053
:104A2000F0B5064614460F461D46184600F01EF81F
:104A3000C5F1040086400F21E94039403143600947
:104A4000800000F1E020D0F8002104F01F050123D0
:104A5000AB401A43C0F8002104F1E02494F80004AC
:104A600040EA011084F80004F0BD0000064A072166
:104A7000814310684FF6FF031840044B184340EA87
:104A800001201060704700000CED00E00000FA0506
:104A90006FF30801014301480160704708ED00E031
:104AA000FEB5214800248DF80840016841F08001DE
:104AB0000160016841F480710160012523462246AE
:104AC00080211A48CDE90045FCF718F90320CDE90B
:104AD00000050122002311021548FCF70FF9FBF72E
:104AE00067FE144EC6F8A042642006F5287601F051
:104AF0004FFA3560642001F04BFA012000F00CF908
:104B0000012202A94FF4506000F01CF89DF8081033
:104B100009A0FBF7C9FB9DF80800802801D00120FF
:104B2000FEBD0020FEBD000030380240001C0240E7
:104B300000200240000044424354502049443A259A
:104B4000780D0A002DE9F04115460F460446FBF7A3
:104B5000F1FEB220FBF7BAFEFBF738FF200AFBF7A5
:104B6000B5FEFBF733FFE0B2FBF7B0FEFBF72EFF1D
:104B7000FBF7E0FEB320FBF7A9FEFBF727FF0024BD
:104B80006E1E09E0B44201D0012000E00020FBF7D6
:104B900061FE3855641CE4B2AC42F3D3BDE8F04189
:104BA000FBF7EEBE2DE9F143524F00242DED048BAF
:104BB0004FF00A0882B038784F4E401CC0B2B0FBAC
:104BC000F8F208FB12012546387009B10A2873D2A1
:104BD000012206A90020FFF7B5FF9DF81800C106C5
:104BE0006ED000F01F0040F0C00086F820004FF0AB
:104BF00001099FED428B9FED439B96F8201009FA27
:104C000004F001424BD041480422694630F81400B8
:104C1000FFF798FF96F830009DF80210C0079DF846
:104C2000030000EB012020D001F0F9FC53EC182B1D
:104C300001F044FD01F0C6FC06EB4405E8829DF856
:104C400001009DF8001000EB012001F0E8FC53EC9E
:104C5000192B01F033FD9FED2E1B53EC112B01F0AE
:104C600061FE01F0AFFCA88119E001F0D8FC53EC23
:104C7000182B01F023FD01F0A5FC06EB4405A881EB
:104C80009DF801009DF8001000EB012001F0C7FC29
:104C900053EC192B01F012FD01F094FCE882641C26
:104CA000E4B2052CA9D30125B28900211AB9F08AF2
:104CB00008B98DF8181039709DF81800C0060ED18B
:104CC00096F82000010602D520F0800005E04FF69E
:104CD000FF71B181F18200F0E00086F820003878A1
:104CE000F02801D987F8008002B02846BDEC048B7B
:104CF000BDE8F8835A000020240000207B14AE4752
:104D0000E17AD43FD881734694F6D23FB0B500081B
:104D1000000000000000894008B500218DF8001057
:104D200010B180208DF80000012269464FF45060D8
:104D300000F001F808BD2DE9F04115460E46044685
:104D40000027FBF7F7FDB220FBF7C0FDFBF73EFEA7
:104D5000200AFBF7BBFDFBF739FEE0B2FBF7B6FD1F
:104D6000FBF734FE002408E0305DFBF7AFFDFBF7F6
:104D70002DFE070003D1641CE4B2AC42F4D3FBF770
:104D8000FFFD3846BDE8F0812DE9FC419A480068F6
:104D9000994940F001000860974808380068964932
:104DA00040F07C000839086001200324CDE9004070
:104DB000DFF84882002302220D214046FBF79EFFC8
:104DC0000120CDE900408E4D002302224CF20371F8
:104DD0002846FBF793FF0120CDE90040894E0023D0
:104DE00002224FF683713046FBF788FF0120CDE9A0
:104DF0000040854F002302224FF63F013846FBF763
:104E00007DFF0120CDE90040804C0023022248F2C2
:104E100037112046FBF772FF0C2200214046FBF7BA
:104E20005DFF0C2202214046FBF758FF0C220321B4
:104E30004046FBF753FF0C2200212846FBF74EFFAC
:104E40000C2201212846FBF749FF0C2208212846A5
:104E5000FBF744FF0C2209212846FBF73FFF0C22F9
:104E60000A212846FBF73AFF0C220E212846FBF7C1
:104E700035FF0C220F212846FBF730FF0C220021C2
:104E80003046FBF72BFF0C2201213046FBF726FFB3
:104E90000C2207213046FBF721FF0C220821304667
:104EA000FBF71CFF0C2209213046FBF717FF0C22F1
:104EB0000A213046FBF712FF0C220B213046FBF78C
:104EC0000DFF0C2211463046FBF708FF0C220D2186
:104ED0003046FBF703FF0C220E213046FBF7FEFEA7
:104EE0000C220F213046FBF7F9FE0C220021384638
:104EF000FBF7F4FE0C2201213846FBF7EFFE0C22F3
:104F000002213846FBF7EAFE0C2203213846FBF764
:104F1000E5FE0C2204213846FBF7E0FE0C220521B9
:104F20003846FBF7DBFE0C220B213846FBF7D6FE9A
:104F30000C2211463846FBF7D1FE0C220D213846D3
:104F4000FBF7CCFE0C220E213846FBF7C7FE0C22E5
:104F50000F213846FBF7C2FE0C2200212046FBF74A
:104F6000BDFE0C2201212046FBF7B8FE0C220221D7
:104F70002046FBF7B3FE0C2204212046FBF7AEFED1
:104F80000C2205212046FBF7A9FE0C220821204611
:104F9000FBF7A4FE0C220F212046FBF79FFEFC042A
:104FA00041F6D910C4F840011948C4F8480100235B
:104FB0001A460121184604F5A07400F02BF84FF4AE
:104FC000FA7000F0FFFF00231A460221184600F095
:104FD00021F8002308220321184600F01BF80022C4
:104FE00040F233230421104600F014F840F2B4508C
:104FF0006061BDE8FC8100003838024000080240D2
:10500000000C024000100240001402400018024050
:105010006155110130B5C0F1040501200024A840FC
:10502000084340EA421040EA43214FF02040C0F8D4
:1050300050114FF4001204E0641C944201D301208B
:1050400030BDD0F858118906F6D4002030BD0000DC
:10505000F0B50F4C256845F0010525600C4E002584
:105060000836356026680B4F3E402660271D0A4EE5
:105070003E60266826F480262660054C0C342560A8
:1050800000F00CF8BDE8F04000210846FFF700BD35
:1050900000380240FFFFF6FE10300024F0B5304D1E
:1050A000064600242F68204647F480372F6041F6DB
:1050B000FF7701E0641CA4B2D5F800C05FEA8C3C25
:1050C00001D4BC42F6D3BC4201D10120F0BD244C36
:1050D0004034276847F080572760224C276847F400
:1050E000404727601E4C0834276847F41447276060
:1050F0002F6827F080772F6041EA86111A4E5208F8
:1051000006EB0242114341EA0361221F41F4800190
:105110001160296841F08071296029688901FCD5F6
:1051200012490A6842F480720A600A6842F4007206
:105130000A600A6842F480620A600A6842F0050266
:105140000A60216821F003012160216841F0020119
:1051500021602168C1F381010229FAD1F0BD00006C
:1051600000380240007000400000FFFF003C024099
:105170002DE9FF4F83B00E46DDE910A94E490746E1
:105180004FF47840DDF8508008604CA01024CDE941
:1051900000404B4D9346A0216B882A882820FFF7BA
:1051A00042F848A0CDE900406B882A88A0217820E9
:1051B000FFF739F844A0CDE900406B882A88B42174
:1051C0002820FFF730F841A0CDE900406B882A88FD
:1051D000B4217820FFF727F83DA0CDE900406B8887
:1051E0002A88C8212820FFF71EF83AA0CDE9004000
:1051F0006B882A88C8217820FFF715F836A0CDE9FA
:1052000000406B882A88DC212820FFF70CF833A0A7
:10521000CDE900406B882A88DC217820FFF703F86D
:105220002FA0CDE900406B882A88F0212820FEF7C6
:10523000FAFF04233A46A02140200094FEF7B8FF6D
:1052400004233246A02190200094FEF7B1FF0423EE
:105250005A46B42140200094FEF7AAFF042300948C
:10526000B4219020069AFEF7A3FF04235246C821DA
:1052700040200094FEF79CFF04234A46C82190205A
:105280000094FEF795FF04230094DC214020129A3D
:10529000FEF78EFF04230094DC219020139AFEF782
:1052A00087FF03234246F02160200094FEF780FF31
:1052B00007B0BDE8F08F00000C00002078313A0004
:1052C0002401002079313A0078323A0079323A00EC
:1052D00078333A0079333A0078343A0079343A0036
:1052E0006661632069733A002DE9F04F00242DEDCB
:1052F0000C8B89B025461F20FE4E4FF6FF7730609D
:10530000FD4807603846FCF7E3F84FF47848384624
:10531000C6F80080FCF7DCF8F84800273760016821
:105320004FF0100ACDE900A128216423A0220846ED
:10533000FEF779FF14214246084600F0A3FAF04830
:1053400080F820709FEDEF0A80ED090A9FEDEECB0B
:105350009FEDEFDB9FEDF0BBF14E80464FF0900BE1
:10536000A0F10409D8F8041047460120884797F8AF
:1053700020000121B1EB901F46D120F0400087F8BA
:10538000200005A8BA8920F8242000EB8400641CC2
:105390000025F98AE4B2B8464180012C06D0022CDF
:1053A00011D0032C1ED0042C2ED13CE014214FF63A
:1053B000FF72084600F066FA30884FF478421438DD
:1053C00080B214211EE030884FF6FF72143880B28C
:1053D000142100F057FA70884FF47842143881B2E3
:1053E00014200FE070884FF6FF72143881B2142039
:1053F00000F048FA70884FF47842143881B230884F
:10540000143880B200F03EFA0A2000F0C1FD6D1C95
:10541000ADB2B5F57A7FA5D900F06CFA09B0BDEC54
:105420000C8BBDE8F08FBDF81400BDF81810411AC0
:1054300000D54942BDF81600BDF81A20801A00D5E3
:10544000404249434043084401F0E9F841EC100B65
:1054500000F0E0FC51EC100B01F0B4F884B2BDF8A0
:105460001C00BDF82010411A00D54942BDF81E00AD
:10547000BDF82220801A00D54042494340430844E9
:1054800001F0CDF841EC100B00F0C4FC51EC100B16
:1054900001F098F800EE104A87B2F8EE400A00EEEC
:1054A000107AB8EE401A80EE810A10EE100A01F070
:1054B000FBFBB0EE4C9AF0EE6C9A41EC180B53ECFF
:1054C000192B01F0BFF85BD3B0EE4DAAF0EE6DAA38
:1054D00053EC1A2B51EC180B01F0EEF950D3ECB34E
:1054E000E7B3BDF81400BDF81C10411A00D54942BD
:1054F000BDF81600BDF81E20801A00D54042494371
:105500004043084401F08BF841EC100B00F082FCA2
:1055100051EC100B01F056F884B2BDF81800BDF83C
:105520002010411A00D54942BDF81A00BDF82220CA
:10553000801A00D5404249434043084401F06FF8C7
:1055400041EC100B00F066FC51EC100B01F03AF846
:1055500000EE104A80B2F8EE400A00E010E000EEE3
:10556000100AB8EE401A80EE810A10EE100A01F01F
:105570009BFB41EC180B53EC192B01F063F831D273
:1055800070880024143881B230884FF6FF721438C6
:1055900080B200F077F914214FF47842084600F009
:1055A00071F953EC1B2B51EC180B01F087F801F04B
:1055B00009F880B2BDF82220BDF82030BDF81E10D9
:1055C000CDE90320CDE90113BDF81C000090BDF822
:1055D0001A30BDF81820BDF81610BDF81400FFF7FA
:1055E000C7FDBFE653EC1A2B51EC180B01F064F920
:1055F000C6D3BDF81800BDF81C10411A00D54942A9
:10560000BDF81A00BDF81E20801A00D5404249435B
:105610004043084401F003F841EC100B00F0FAFBA2
:1056200051EC100B00F0CEFF84B2BDF81400BDF8B1
:105630002010411A00D54942BDF81600BDF82220BD
:10564000801A00D5404249434043084400F0E7FF38
:1056500041EC100B00F0DEFB51EC100B00F0B2FF40
:1056600000EE104A80B2F8EE400A00EE100AB8EEE2
:10567000401A80EE810A10EE100A01F015FB41EC91
:10568000180B53EC192B00F0DDFFB1D353EC1A2BA0
:1056900051EC180B01F010F9AAD3BDF81820BDF891
:1056A0001410F6EE001A501A00EE100A3088114459
:1056B000B8EEC01AA0F1280300EE103A4746B8EE43
:1056C000C00AC0EE010A00EE101AB8EE401A00EE51
:1056D000100AB8EE400AC8ED090A00EEC10A20EE31
:1056E000210ABDEEC00A10EE101AA8F82C10BDF861
:1056F0001E3017E00C00002010000020E0B400086D
:105700002400002000000000666666666666EE3FC4
:10571000CDCCCCCCCCCCF03F0000000000005940F8
:1057200024010020BDF81620FDEEE00A991A00EED3
:10573000101A71881A44B8EEC01AA1F1280400EEBC
:10574000104AB8EEC02A82EE010A01EE102AB8EE25
:10575000412A01EE101AB8EE411A87ED0A0A00EE4E
:10576000421A21EE211ABDEEC11A11EE102AFA8555
:1057700010EE902A002A00DA5242022A08DCBDEE1E
:10578000C00A10EE102A002A00DA5242022A2CDD4A
:1057900014391438002489B280B24FF6FF7200F039
:1057A00071F814214FF47842084600F06BF81CA100
:1057B000CDE900A1738832881A212820FEF733FD35
:1057C00097F8300048B1002087F8300038B189F8E8
:1057D00000B0D02189F80110C4E50120F4E7D02100
:1057E00089F8001089F801B0BCE512481F214FF676
:1057F000FF7401602046FBF76BFE0FA1CDE900A10D
:10580000738832886E212320FEF70DFD4FF47A70E5
:1058100000F0BEFB00F012FA2046FBF759FEFDE552
:105820005450204E65656420726561646A757374B6
:10583000210000000C000020546F75636820536342
:105840007265656E2041646A757374204F4B210048
:1058500070B506460A480C4602603046FBF722FF48
:10586000751CA8B22146FBF71DFF641CA1B230468F
:10587000FBF718FFA1B2A8B2BDE87040FBF712BF5A
:105880000C0000202DE9F041044619480D460B4656
:10589000026004F10D0082B2193880B2FBF7B6FE47
:1058A00005F10D0083B2193881B222461046FBF78C
:1058B000ADFE6E1C04F10108B1B21FFA88F0FBF7CF
:1058C000F1FEB1B2661EB0B2FBF7ECFE6F1EB9B2CC
:1058D0001FFA88F0FBF7E6FEB9B2B0B2FBF7E2FEC2
:1058E00029462046BDE8F0410622FBF7F3BE000042
:1058F0000C00002010B535202DED028BFAF7DFFEED
:105900000A2803D00020BDEC028B10BD0421282002
:10591000FAF7C0FE00EE100A9FED178A174CB8EE9A
:10592000C00A04212C20C0EE080AC4ED090AFAF7C7
:10593000B1FE00EE100A02213020B8EEC00AC0EE1F
:10594000080AC4ED0A0AFAF7A5FEA0850221322052
:10595000FAF7A0FEE0853420FAF7B1FE9023211F6C
:1059600084F83000D02210B10B704A7001E00A7048
:105970004B700120C7E7000020BCBE4C2400002073
:105980007CB5414D414CA888A0F5AA4110394CD0B6
:10599000A0F58641423948D0A0F5C851633957D0A7
:1059A000A0F5E041843953D06E3151D038480168B8
:1059B00041F040010160016841F08001016001682F
:1059C00041F48071016000250124CDE900542B468B
:1059D0002A4608212F48FBF791F92F4ECDE90054B4
:1059E00000231A4680213046FBF788F90325CDE9CC
:1059F0000054002301224FF484712848FBF77EF9FC
:105A0000CDE900540023012240213046FBF776F90E
:105A10001E491631A1F10A0000F0BEF8FAF738FE6F
:105A2000FFF768FF18B300207CBDFBF7A7F968B14A
:105A3000FFF736F81A48606014F8300FA97940F083
:105A4000800001F0010108432070ECE71548F2E7FF
:105A5000FAF7E6FF1448606094F83000A97940F046
:105A6000800001F00101084384F83000DBE74FF6C5
:105A7000FF70FBF72DFDFFF737FC00F0DFF8FFF7B5
:105A800039FF01207CBD00002401002024000020FB
:105A90003038024000180240001C02400020024042
:105AA000A54B0008090F00085D0B00082DE9F05F09
:105AB00000251E4F2C462E46C7F89852DFF87080FE
:105AC000C8F88C52C8F8A05207F5267700F052F9B2
:105AD000062000F077FA3E60012000F073FA4FF0E4
