:020000040800F2
:100000003809002061020008B75E0008FF270008D9
:10001000B55E0008C90700087973000800000000F9
:10002000000000000000000000000000B9620008AD
:10003000950A000800000000D16100084163000833
:100040007B0200087B0200087B0200087B0200089C
:100050007B0200087B0200087B0200087B0200088C
:100060007B0200087B0200087B0200087B0200087C
:100070007B0200087B0200087B0200087B0200086C
:100080007B0200087B0200087B0200087B0200085C
:100090007B0200087B0200087B0200087B0200084C
:1000A0007B0200087B0200087B0200087B0200083C
:1000B0007B0200087B0200087B0200087B0200082C
:1000C0007B0200087B0200087B0200087B0200081C
:1000D0007B0200080D7300087B0200087B02000809
:1000E0007B0200087B0200087B0200087B020008FC
:1000F0007B0200087B0200087B0200087B020008EC
:100100007B0200087B0200087B0200087B020008DB
:100110007B0200087B0200087B0200087B020008CB
:100120007B0200087B0200087B0200087B020008BB
:100130007B0200087B0200087B0200087B020008AB
:100140007B0200087B0200087B0200087B0200089B
:100150007B0200087B0200087B0200087B0200088B
:100160007B0200087B0200087B0200087B0200087B
:100170007B0200087B0200087B02000800000000F0
:100180007B0200087B0200087B0200087B0200085B
:100190007B0200087B0200087B0200087B0200084B
:1001A0007B0200087B0200087B02000800F002F8D6
:1001B00000F047F80AA090E8000C82448344AAF1BA
:1001C0000107DA4501D100F03CF8AFF2090EBAE8B8
:1001D0000F0013F0010F18BFFB1A43F0010318477B
:1001E000D4C80000F4C80000103A24BF78C878C111
:1001F000FAD8520724BF30C830C144BF04680C602D
:10020000704700000023002400250026103A28BF74
:1002100078C1FBD8520728BF30C148BF0B60704778
:10022000642900F0A980782900F0E280732900F0A9
:10023000F781002070471FB507F0CBFF1FBD10B539
:1002400010BD00F027FA1146FFF7F5FF07F03AFA64
:1002500000F045FA03B4FFF7F2FF03BC07F0CAF859
:100260000948804709480047FEE7FEE7FEE7FEE74A
:10027000FEE7FEE7FEE7FEE7FEE7FEE70448054986
:10028000054A064B7047000045630008AD010008B1
:1002900038030020380900203805002038050020E8
:1002A000704700000FB4044910B503AA029800F08B
:1002B000BBF910BC5DF814FB200000202DE9F041D3
:1002C0000E460446002020622046E168884730B38D
:1002D000252805D0D4E901219047206A401CF2E787
:1002E000E168204600278847050018D0A5F14100A5
:1002F000192802D820354FF4006732462946204697
:100300002760FFF78DFF40B1012804D0F61D26F0CD
:1003100007060836D8E7361DD6E72846DAE7206A0A
:10032000BDE8F08170B50C460546012A05D0287855
:10033000800600D5EA69002302E0012305E05B1C8A
:10034000934202D2E05C0028F9D1A869E618C01AED
:10035000A861286A184428622846AFF3008004E0A8
:10036000D5E9012114F8010B9047B442F8D328468F
:10037000AFF3008070BD00002DE9F0410646002477
:1003800010687529314616A510D0AFF300800028FB
:1003900002DA404213A507E031688A0701D512A5A9
:1003A00002E0490704D511A5012401E0AFF3008064
:1003B00000210A2206F1240709E0B0FBF2FCB0FBA1
:1003C000F2F302FB1C00303078541846491C002818
:1003D000F3D123462A463046BDE8F04100F0B5B8D7
:1003E000000000002D0000002B0000002000000095
:1003F00070B504460D4621461068AFF30080218891
:10040000090502D50F4A7A4402E00E4A7A440E32B8
:10041000002104F1240305E000F00F060009965DB9
:100420005E54491C0028F7D120780023000704D52A
:10043000702D02D009B1022311322046BDE8704070
:1004400000F083B806C6000010B5203AC0F00B805B
:10045000B1E81850203AA0E81850B1E81850A0E8C8
:100460001850BFF4F5AF5FEA027C24BFB1E8185022
:10047000A0E8185044BF18C918C0BDE810405FEA92
:10048000827C24BF51F8043B40F8043B08BF70470E
:10049000D20728BF31F8023B48BF11F8012B28BF13
:1004A00020F8023B48BF00F8012B70474FF0013C99
:1004B00050F8042B51F8043B9A4221D1A2EB0C03D3
:1004C000934313EACC1317D150F8042B51F8043B93
:1004D0009A4215D1A2EB0C03934313EACC130BD130
:1004E00050F8042B51F8043B9A4209D1A2EB0C03BB
:1004F000934313EACC13DBD04FF00000704700BFEA
:10050000D01A01BAB1FA81F101F0180122FA01F012
:10051000CB40C1F12001DBB2C0B2C01A2CFA01F30A
:10052000D11A914311EAC311E6D170477047704761
:100530007047704710B500F089F8006810BD10B51D
:10054000044600F083F8046010BD2DE9F0470D4625
:1005500099469246044600F124080168880604D5AD
:10056000E06921F01001216000E00120A84201DDD6
:10057000471B00E00027A1697A1902EB0900081A5D
:10058000A0612078C00602D42046AFF30080002688
:1005900008E0D4E901211AF806009047206A401CBF
:1005A000761C20624E45F4DB2078C0060AD5204632
:1005B000AFF3008006E0D4E9012130209047206AA3
:1005C000401C2062381EA7F10107F4DC07E0D4E9E3
:1005D000012118F805009047206A401C2062281E5F
:1005E000A5F10105F3DC2046AFF30080207800067A
:1005F00002D50220BDE8F0870120FBE710B5436972
:1006000013B1AFF3008001E0FFF78CFE012010BDB5
:10061000127800F124010A7000224A700122EDE7ED
:1006200011684FF0FF32E9E7074B70B50D467B4488
:1006300000F015F80446284600F024F810B14FF0F9
:10064000FF3070BD204670BD076F00000048704746
:10065000D802002001694A1C02610878704700B581
:100660008FB0CDE901310021059105497944CDE9EB
:10067000031011466846FFF721FE0FB000BD0000D1
:10068000E5FFFFFF007B00F08000704700487047E7
:10069000D80200207546FFF7F9FFAE46050069460F
:1006A000534620F00700854618B020B5FFF7E6FD59
:1006B000BDE820404FF000064FF000074FF0000863
:1006C0004FF0000B21F00701AC46ACE8C009ACE8E4
:1006D000C009ACE8C009ACE8C0098D46704710B548
:1006E0000446AFF300802046BDE81040FFF7B2BDDE
:1006F00002F0A6B82DE9F0410D460146002004465F
:100700004E1908E00702301B401E80B200F007F8C7
:10071000641C3844E4B2AC42F4D3BDE8F08110B5B7
:10072000044602F035F9200AA02101EB4000C0B2D6
:1007300002F0FEF802F06EF9E0B202F0F9F802F011
:1007400069F902F025F9A12002F0F2F802F062F94D
:10075000002002F0B9F8044602F03AF9204610BD34
:100760002DE9F04116460D460746002409E0E00059
:1007700025FA00F0C1B2381980B200F006F8641C06
:10078000E4B2B442F3D3BDE8F08170B50D4604463F
:1007900002F0FEF8200AA02101EB4000C0B202F0F6
:1007A000C7F802F037F9E0B202F0C2F802F032F90D
:1007B000284602F0BDF802F02DF902F009F9BDE873
:1007C00070400A2006F090BEFEE7000070B50E4CA7
:1007D0000025C4F898520D48016821F0C00101605D
:1007E000016841F0400101600948C0F88C520220C4
:1007F00004F5267406F086FE01202060022006F033
:1008000081FE256070BD0000008043420020024050
:1008100000004442154810B5016886B041F08001DF
:100820000160016801F080010591016841F4807167
:1008300001600068012400F4807005904020CDE93B
:1008400000040320CDE902406946094800F0AAFDF2
:10085000082000906946074800F0A4FD0648C0F84B
:100860008C420648C0F8984206B010BD30380240AD
:10087000001C02400020024000004442008043422D
:1008800070B50E4C0026C4F898620D48016821F03E
:10089000C0010160016841F0400101600948012583
:1008A000C0F88C52022004F5267406F02BFE256059
:1008B000022006F027FE266070BD00000080434243
:1008C00000200240000044422DE9F04782461948CA
:1008D0000024016821F0C0010160016801601E2050
:1008E00006F010FE0025144EDFF850902F464FF012
:1008F0000108C6F89872022006F004FEC6F8988235
:100900006006040ED9F80C0208B1641CE4B202209F
:1009100006F0F8FD6D1CEDB2082DEAD3BAF1000F18
:1009200004D0FFF753FF2046BDE8F087FFF7A8FF8C
:10093000F9E70000002002400080434200004442EA
:100940002DE9F04705461548016821F0C001016016
:10095000016841F040010160114E0027C6F898720D
:10096000DFF840803C464FF00109E909C8F88C12D5
:100970006806050E022006F0C5FDC6F89892022012
:1009800006F0C0FDC6F89872022006F0BBFD641C9C
:10099000E4B2082CE9D3BDE8F08700000020024053
:1009A000008043420000444270B50F48016821F0C6
:1009B000C0010160016841F0400101600B4E01205F
:1009C000C6F88C020A4DC5F898021E2005F526755A
:1009D00006F5237606F096FD00243460022006F02A
:1009E00091FD2C6070BD00000020024000004442D8
:1009F0000080434270B50F48016821F0C0010160DA
:100A0000016841F0400101600B4E0020C6F89802D9
:100A10000A4DC5F88C021E2005F5237506F52676CD
:100A200006F070FD01243460022006F06BFD2C609E
:100A300070BD00000020024000804342000044429C
:100A400070B511480024016821F0C00101600168FF
:100A500001600E4D0120C5F88C020D4EC6F89802BB
:100A600007E0641CE4B2FA2C03D9FFF7C3FF0120AE
:100A700070BD022006F046FDD5F80C020028F0D12A
:100A8000C6F8980270BD00000020024000004442F9
:100A9000008043427047000070B5B3F5804F05D029
:100AA0006FF0704140F82210002070BD50F82230E5
:100AB000084C2340D1E9004544EA05148D688E892D
:100AC0002D0245EA064589692C430C431C4340F836
:100AD0002240E9E70000F0CFF0B50C6850F8245050
:100AE000194A1540D1E90123D1E903671A433E436E
:100AF00032434E6932438E693243CE6932430E6AC5
:100B000032434E6A32438E6A3243CE6A3243CE6BF0
:100B100032430E6B32434E6B32432A43082B01D1D2
:100B200042F0400240F824204A6BB2F5801F08D101
:100B30000A6832B14FF480720A61044902681143B5
:100B400001600020F0BD00008000E0FF0001100007
:100B5000F0B500EB820253688E8903F04044D1E97E
:100B6000003543EA05138D682D0245EA06452B43FF
:100B70000E8A0D4D05EB065633430E7D6F0107EBD4
:100B8000066633438E693343234353600268D202BF
:100B900007D54268098A22F4700205EB015111431E
:100BA00041600020F0BD00000000F0FF30B5D1E949
:100BB00001231A43D1E9033423431A434B690D68D7
:100BC0001A438B691A43D1E90734012D496A056834
:100BD0006FF30E0505D01A4322430A432A430260ED
:100BE00008E0234329430B43416803606FF30E0180
:100BF0000A434260002030BD426942EA410141613E
:100C000000207047F8B514460546D1E900021043AC
:100C10008A686FF01F03C96803EB421242EA412160
:100C200008430090286100F0B5FC064609E0601C0E
:100C300007D024B100F0AEFC801BA04201D90320F4
:100C4000F8BDA8698006F2D40020F8BDF0B56FF0B9
:100C50000F05D1E9003405EB04145B1E2E0123437C
:100C60008C682F0306EB04244FEA054C23430D8ABE
:100C70008E8ACC68097E4FF07F4E07EB05450CEB62
:100C800006560EEB0161012A0CD082683F1107EB7A
:100C9000043423432B43334302F070420B4313438A
:100CA00083600FE0C2682B430B4302F070428168FF
:100CB000134301F070422103A1F5805131431143E8
:100CC000C36081600020F0BD70B5364888B0002454
:100CD000016841F080010160016801F08001069126
:100CE000016841F480710160006801A900F480701E
:100CF00006908020012581E83100032004902A48D5
:100D000000F050FB2802CDE9010501A9274800F0B9
:100D100049FBFFF77FFD264EC6F8A042142006F5DA
:100D2000287606F0E1FB3560322006F0DDFB8DF819
:100D3000004001226946002000F00AF901226946BC
:100D4000A42000F005F916208DF800000122694664
:100D5000802000F0FDF80C208DF80000012269468B
:100D6000882000F0F5F802226946A12000F028F85A
:100D70009DF80000302803D19DF80110032908D008
:100D80009DF80110012904D0022902D0012008B0E9
:100D900070BDC9B201EB002106A0FFF783FA002065
:100DA000F5E7000030380240001C024000200240FD
:100DB000000044424354502049443A25780D0A002B
:100DC0002DE9F04115460F460446FFF7EDFD702072
:100DD000FFF7B6FDFFF734FEE0B2FFF7B1FDFFF716
:100DE0002FFEFFF7E1FD7120FFF7AAFDFFF728FEB8
:100DF00000246E1E09E0B44201D0012000E0002072
:100E0000FFF762FD3855641CE4B2AC42F3D3BDE891
:100E1000F041FFF7EFBD00002DE9F143484F0024FA
:100E20004FF00A09387882B0401CC0B2B0FBF9F22A
:100E300009FB1201434DA046387009B10A2864D25B
:100E4000012202A90220FFF7BBFF9DF8080001075D
:100E50005BD000F00F00062857D2FF218140C84325
:100E600040F0C00085F820004FF00108002695F8FA
:100E7000201008FA04F001423AD0334804226946AF
:100E800030F81400FFF79CFF95F830009DF8001033
:100E9000C0079DF8010001F00F010ED000EB012109
:100EA00005EB4400C1829DF802209DF8031002F07A
:100EB0000F0201EB0221818110E000EB01202349A8
:100EC0000988091A05EB440081819DF802209DF8EC
:100ED000031002F00F0201EB0221C1829DF8000015
:100EE0000821B1EB101F03D005EB4400C6828681B8
:100EF000641CE4B2052CBAD3A9894FF0010819B9D2
:100F0000E88A08B98DF808603E709DF80800C006B0
:100F10000ED195F82000010602D520F0800005E0F2
:100F20004FF6FF71A981E98200F0E00085F820000A
:100F30003878F02801D987F800904046BDE8FE8354
:100F4000380000204000002036C90008CC010020F5
:100F50002DE9F04115460E4604460027FFF724FD13
:100F60007020FFF7EDFCFFF76BFDE0B2FFF7E8FC48
:100F7000FFF766FD002408E0305DFFF7E1FCFFF7B6
:100F80005FFD070003D1641CE4B2AC42F4D3FFF769
:100F900031FD3846BDE8F0812DE9F0433F4889B086
:100FA0000024016841F080010160016801F08001C6
:100FB0000791016841F4807101600068802600F4A7
:100FC0008070079001AA012503270096DFF8D090D2
:100FD00082E8B0006946484600F0E4F92802CDE90D
:100FE000000569462F4800F0DDF9FFF713FCDFF834
:100FF000B880C8F8A0420A2006F076FAC8F8A052D5
:101000000A2006F071FACDE90064CDE9024769468D
:10101000484600F0C7F9642006F066FA042205A9E4
:1010200048F2401000F058F88DF8184005A91FA0AC
:10103000FFF738F920A105A8FFF738FA18B1012009
:1010400009B0BDE8F08302208DF8140048F2400595
:10105000012205A9284600F07BF9012205A9E81D17
:1010600000F03AF89DF8141060290BD214A0FFF795
:1010700019F918488088A0F5AA41103902D1012039
:1010800000F040F90A2006F02FFA8DF814400122F2
:1010900005A9284600F05CF90020D1E7303802406D
:1010A000001C0240002002400000444243545020F3
:1010B00049443A25730D0A003931343700000000E5
:1010C00044656661756C74205665723A25640D0A34
:1010D00000000000CC0100202DE9F04115460F462C
:1010E0000446FFF761FC2820FFF72AFCFFF7A8FC65
:1010F000200AFFF725FCFFF7A3FCE0B2FFF720FC76
:10110000FFF79EFCFFF750FC2920FFF719FCFFF7C3
:1011100097FC00246E1E09E0B44201D0012000E0DB
:101120000020FFF7D1FB3855641CE4B2AC42F3D386
:10113000BDE8F041FFF75EBC2DE9F14F6D4E002494
:101140004FF00A0B307882B0401CC0B2B0FBFBF20B
:101150000BFB1201684DA146307009B10A2873D209
:1011600048F24E17012202A93846FFF7B5FF9DF855
:1011700008004FF0000801060AD500F00F0006280D
:1011800006D28DF80480012201A9384600F0E0F86B
:101190009DF80800010757D000F00F01062953D22F
:1011A000FF2088408DF80400C04395F820A040F04F
:1011B000C00085F82000A889A882E88A4F4FE883FC
:1011C0004FF0010995F8201009FA04F001424ED0C1
:1011D0004B480422694630F81400FFF77DFFB888B9
:1011E000A0F5AA41103904D0A0F58641423916D0A5
:1011F0003DE095F83000C00715D09DF800009DF83F
:10120000011000EB012105EB4400C1829DF80210A2
:101210009DF8032001EB0221C1F5487126E095F805
:101220003000C00711D09DF800009DF8011000EBC0
:10123000012105EB440081819DF802109DF80320F7
:1012400001EB0221C18212E02CE09DF800009DF824
:10125000011000EB012105EB4400C1829DF8021052
:101260009DF8032001EB0221C1F588718181641C86
:10127000E4B2052CA6D3A9893A884FF00109284683
:10128000914203D8C18A7A88914209D99DF8081001
:1012900001F00F0101290CD9C1898181018BE982FB
:1012A00086F800809DF8080000F08F0080280AD0A2
:1012B00018E0818A8181C18BC18280218DF808105C
:1012C00085F820A0EEE795F82000010602D520F071
:1012D000800005E04FF6FF71A981E98200F0E0008F
:1012E00085F820003078F02801D986F800B048460B
:1012F000BDE8FE8F3900002040000020CC01002016
:10130000F8C9000808B500218DF800108DF801001B
:101310000E489DF80020435C491C1A44C9B28DF860
:101320000020B829F5D3D0B2C043401C8DF800008E
:10133000B822064948F2470000F00AF8022269463E
:1013400048F2FF0000F004F8002008BD40C9000882
:101350002DE9F04115460E4604460027FFF724FB11
:101360002820FFF7EDFAFFF76BFB200AFFF7E8FAFA
:10137000FFF766FBE0B2FFF7E3FAFFF761FB00243B
:1013800008E0305DFFF7DCFAFFF75AFB070003D1F6
:10139000641CE4B2AC42F4D3FFF72CFB3846BDE842
:1013A000F08100002DE9F84FDFF8A091002209F14B
:1013B000040A0AF1040B4FF00F080BF1040E01268A
:1013C0000B6896403340B34271D14C68022C01D077
:1013D000122C11D1D40800EB84073D6A5407E40EA7
:1013E00008FA04FC25EA0C05D1F810C00CFA04FC3C
:1013F0004CEA050CC7F820C007685400032591F893
:1014000004C0A5400CF0030CAF430CFA04FC4CEAFA
:10141000070CC0F800C04F68012F05D0022F03D081
:10142000112F01D0122F11D18768D1F80CC0AF4312
:101430000CFA04FC4CEA070CC0F808C04768B74334
:101440000E79C6F3001696403E434660C668AE432A
:101450008D68A5403543C5604C68E4006FD53C4CB1
:10146000256845F480452560246822F0030504F4CE
:1014700080440094374C2E19D6F808789407250F2D
:1014800008FA05F4A743344CA04201D100242EE011
:10149000324CA04201D1012429E0314CA04201D1BB
:1014A000022424E02F4CA04202D103241FE046E096
:1014B0002D4CA04201D1042419E02C4CA04201D1B2
:1014C000052414E02A4CA04201D106240FE0294C47
:1014D000A04201D107240AE0274CA04201D10824F0
:1014E00005E0264CA04201D1092400E00A24AC40CA
:1014F0003C43C6F80848D9F800404D464E689C4326
:10150000F60300D51C432C60DAF8004055464E68BF
:101510009C43B60300D51C432C60DBF800405D46BD
:101520004E689C43F60200D51C432C60DEF8004058
:1015300075464E689C43B60200D51C432C60521C75
:10154000102AFFF43CAFBDE8F88F0000003C0140DA
:1015500044380240003001400000024000040240D4
:1015600000080240000C024000100240001402403B
:1015700000180240001C02400020024000240240EB
:101580000069084000D0012070470AB181617047AE
:101590000904FBE7014800687047000014000020C0
:1015A00002480168491C01607047000014000020D7
:1015B0000B4810B5016841F400710160016841F405
:1015C00080610160016841F480710160052000F0D4
:1015D000BFF90F2000F006F800F08AF9002010BDD6
:1015E000003C024010B5044600F060FC4FF47A71F4
:1015F000B0FBF1F000F094FF00222146501E00F0F5
:1016000087F9002010BD2DE9F041044690F8A000B4
:1016100015460F4601281DD0012684F8A06002203F
:1016200084F8A10005EB850000EBC50004EB800009
:1016300034223830FEF708FF2A463946204604F0A7
:1016400067FB2068466284F8A160002084F8A0004F
:10165000BDE8F0810220FBE770B5040004D094F8E7
:10166000A100002510B106E0012070BD84F8A05053
:10167000204600F06FF8022084F8A10020688169FC
:1016800021F070418161D4E901100143D4E90302E2
:101690001043014320688269114381612068826898
:1016A0002B490A408260A08A020420688368A669E8
:1016B0003343134383602068C2680A40C260A08B32
:1016C00002042068C368266A33431343C36020685A
:1016D00002690A400261A08C020420680369A66ABC
:1016E000334313430361206842690A404261A08D7D
:1016F000010420684269236B1A430A43426194F84B
:101700003500020294F8360001042068C36A03F031
:101710007F43C3622068C36A94F834601143334343
:101720000B43C3622068416B41F0040141632068B0
:10173000416B41F0020141632068816941F0010180
:101740008161C4F8A450012084F8A100002070BD7C
:1017500000F800F030B5364887B00025016841F048
:1017600080610160006800F08060059030481438A6
:10177000016841F400010160016801F40001059174
:10178000016841F002010160016801F00201059168
:10179000016841F020010160016801F0200105911C
:1017A000016841F040010160016801F040010591CC
:1017B000016841F080010160016801F0800105913C
:1017C000016841F4807101600068032400F48070B6
:1017D0000590202000900120CDE902040190694687
:1017E0001448FFF7DFFD4FF4806000900220CDE940
:1017F00001050E20CDE9034069460F48FFF7D2FDF1
:101800004FF40C60009069460C48FFF7CBFD4FF495
:101810007E40009069460A48FFF7C4FD40F2F76039
:10182000009069460748FFF7BDFD07B030BD0000D6
:1018300044380240000402400014024000180240F4
:10184000001C02400020024070B5044690F8A00041
:101850000E46012820D0012584F8A050022084F8EB
:10186000A10003EB830000EBC30004EB800141F80F
:10187000386F886A3044C1E90102C86A1044C86000
:101880001A46204604F044FA2068456284F8A150C4
:10189000002084F8A00070BD022070BD2DE9F04149
:1018A000044690F8A0000F4601281FD0012584F8B7
:1018B000A050022084F8A10003EB830000EBC300DA
:1018C00004EB80010026E1E90E672046C1E90262CF
:1018D000C1E90A721A4604F01BFA2068456284F8CE
:1018E000A15084F8A0600020BDE8F0810220FBE751
:1018F00008B50020009008BD00F01F0201219140B2
:101900004009800000F1E020C0F80011704700009D
:10191000F0B40E4B1B68C3F30223C3F10704042C7D
:1019200000D904241D1D072D01D2002300E0DB1E79
:10193000012606FA04F56D1E0D409D409E40761E60
:10194000164045EA0601F0BC04F0B6BA0CED00E022
:10195000064A00F0070110684FF6FF03184040EAFE
:101960000120034908431060704700000CED00E0BF
:101970000000FA052DE9F8431D48016841F0805147
:1019800001600068012700F080500090380490FA50
:10199000A0F0DFF86080B0FA80F048F82070FFF720
:1019A000F9FD04464FF47A75134E04E0FFF7F2FD9B
:1019B000001BA84213D87068C003F7D54FF400305D
:1019C00090FAA0F0B0FA80F048F82070FFF7E2FD3E
:1019D000044607E0FFF7DEFD001BA84202D9032002
:1019E000BDE8F88370688003F4D50020F8E70000B4
:1019F0004038024000000E42007000402DE9F84FD0
:101A000004460068DFF878829E4DC10747F6C07A29
:101A10004FF0E0464FF0010B4FF0000901D1800775
:101A20004BD59949C1F86890FFF7B4FD074604E02B
:101A3000FFF7B0FDC01B64287ED828680001F7D4EA
:101A400020789249C0070DD09AFAAAF26068B2FADB
:101A500082F2904096FAA6F3A268B3FA83F39A4012
:101A6000104308602078800718D5086896FAA6F217
:101A700000F0E040B2FA82F2D0406268237B92012B
:101A800042EA036242EA00700860D8F80010E26996
:101A900021F01F01521E1143C8F800107A49C1F805
:101AA00068B0FFF777FD074604E0FFF773FDC01B42
:101AB000642841D828680001F7D52068410701D47F
:101AC000000776D57049C1F87090FFF763FD0746AF
:101AD00004E0FFF75FFDC01B64282DD82868C043D1
:101AE0008000F6D520786A4F40074FF0706C29D5FA
:101AF000386896FAA6F100F0E040B1FA81F1C840EA
:101B00009AFAAAF22169B2FA82F291409CFAACF3F5
:101B10006269B3FA83F39A40114396FAA6F2B2FAD5
:101B200082F2904001433960D8F800106FF0FF0353
:101B300021F4F851226A00E079E003EB022211431C
:101B4000C8F800102078000723D538689CFAACF15B
:101B500000F07060B1FA81F1C8409AFAAAF22169E6
:101B6000B2FA82F291409CFAACF2B2FA82F2904060
:101B7000014396FAA6F2A069B2FA82F290400143BC
:101B80003960D8F80010626A21F440311143C8F876
:101B900000103D49C1F870B0FFF7FCFC064604E0B8
:101BA000FFF7F8FC801B642841D82868C0438000F8
:101BB000F6D42078800651D532484F46403001682F
:101BC00041F0805101600068324E00F0805000907A
:101BD000306840F480703060FFF7DCFC054604E0BC
:101BE000FFF7D8FC401B642821D83068C005F7D522
:101BF000264E143E3068218D00F4407001F440718F
:101C000088422BD03068244920F44070C1F800B0DD
:101C10000F603060800710D5FFF7BCFC054641F22D
:101C2000883707E0FFF7B6FC401BB84202D9032013
:101C3000BDE8F88F30688007F4D5A06A1149C0F379
:101C400001220831032A13D0086820F4F810086034
:101C50003068218DC1F30B01084330602078C00645
:101C600004D50E4994F82C00C1F8E0010020DFE70C
:101C70000A680B4B22F4F812184002430A60E7E7A7
:101C80008C3802400038024000004742843802404D
:101C90008838024000700040400E47420010474222
:101CA000FFFCFF0F2DE9F05FDFF8F8A104460F46B7
:101CB000DAF80000DFF8F08100F00F02C8B27A49CC
:101CC000814641F2883608F10808BA4261D20246DC
:101CD0008AF80020DAF8000000F00F00B8427DD149
:101CE0002078800707D5D8F80020A36822F0F002FA
:101CF0001A43C8F800202078C0072DD0606801285A
:101D00001AD002281BD0032819D009688907002996
:101D100064DAD8F80010474621F003010143C8F8FF
:101D20000010FFF737FC0546606801280FD0022835
:101D300018D003281CD027E009688903E7E7096861
:101D40008901E4E7FFF726FC401BB04258D8386809
:101D5000C0F381000128F5D188E0FFF71BFC401B90
:101D6000B0424DD83868C0F381000228F5D17DE03B
:101D70003868FFF70FFC401BB042F9D940E0FFF78D
:101D800009FC401BB0423BD8386810F00C0FF6D16C
:101D90006CE02078800707D5D8F80020A36822F0EF
:101DA000F0021A43C8F800202078C0074CD06068C1
:101DB000012828D0022829D0032827D009688907BC
:101DC000002949DAD8F8002022F003020243C8F8BB
:101DD0000020FFF7DFFB0546606800E03CE00128DB
:101DE0001DD0022829D0032838D0B3464646306893
:101DF00010F00C0F28D0FFF7CDFB411B5945F6D949
:101E00000320BDE8F09F09688903D9E709688901C3
:101E1000D6E7FFF7BFFB411B594502D9F0E7B346B0
:101E200046463068C0F381000128F2D10CE0FFF78C
:101E3000B1FB411B594502D9E2E7B346464630683B
:101E4000C0F381000228F2D18AF80090DAF800008D
:101E500000F00F00B84209D00120D2E744462068C4
:101E6000FFF798FB401BB042F9D9C9E7207840073B
:101E700007D5D8F80010E26821F4E0511143C8F802
:101E800000102078000708D5D8F80010226921F446
:101E9000604141EAC201C8F800100F20FFF7A2FB21
:101EA0000020AEE7003C02400038024010B500F0D0
:101EB00043F808490968F02292FAA2F201F0F00111
:101EC000B2FA82F2D140044A515CC840034908602A
:101ED00010BD000008380240E68100080000002024
:101EE00010B5FFF7E3FF074909684FF4E05292FA93
:101EF000A2F201F4E051B2FA82F2D140024A515CFE
:101F0000C84010BD08380240E681000810B5FFF750
:101F1000CDFF074909684FF4604292FAA2F201F43A
:101F20006041B2FA82F2D140024A515CC84010BD11
:101F300008380240E681000830B51948006810F002
:101F40000C01184812D0184C04290ED008290DD1C4
:101F5000134A121F1168136801F03F015D0247F632
:101F6000C07304D5B4FBF1F003E0204630BDB0FBF4
:101F7000F1F01168194093FAA3F3B3FA83F3D9404F
:101F8000484311684FF4403292FAA2F201F4403112
:101F9000B2FA82F2D140491C4900B0FBF1F030BDE9
:101FA000083802400024F40040787D012DE9F84F04
:101FB00004460078DFF8FCA2BF4DC0074FF00006D2
:101FC00048D0DAF800105046C1F38101012908D049
:101FD0000068C0F3810002280AD1281D0068400271
:101FE00006D52868800335D56068002873D031E0B5
:101FF000DFF8C49209F1020989F80060FFF7CAFA14
:10200000074641F2883804E0FFF7C4FAC11B414596
:102010007AD828688003F7D4207989F800006068AE
:1020200060B1FFF7B7FA074604E0FFF7B3FAC11B48
:102030004145EDD828688003F7D50BE0FFF7AAFAF1
:10204000074604E0FFF7A6FAC11B4145E0D828681F
:102050008003F7D42078DFF86492800744D5DAF85B
:102060000010504611F00C0F4FF0F80809D000682E
:10207000C0F3810002280BD18E48001F0068400287
:1020800006D42868800714D5E068012823D110E021
:10209000E068D0B10120C9F80000FFF77BFA0746DD
:1020A00004E0FFF777FAC01B6428B1D828688007DE
:1020B000F7D5286898FAA8F22169B2FA82F220F0DE
:1020C000F8009140084328600EE0C9F80060FFF76F
:1020D00061FA074605E0EAE0FFF75CFAC01B6428F6
:1020E00012D828688007F7D42078000725D5DFF8B4
:1020F000C4817348616908F16C0881B101210160F4
:10210000FFF748FA074605E07EE0FFF743FAC01BF9
:10211000642879D8D8F800008007F6D50DE006606D
:10212000FFF738FA074604E0FFF734FAC01B6428CB
:102130006AD8D8F800008007F6D42078400753D535
:102140005C483830016841F0805101600068DFF878
:10215000748100F080500090D8F8001041F4807134
:10216000C8F80010FFF716FA074604E0FFF712FA66
:10217000C01B642848D8D8F80000C005F6D5DFF8A1
:1021800034B10BF1680B8BF80060FFF703FA0746D8
:1021900041F2883804E0FFF7FDF9C11B41457ED8C4
:1021A000DBF800008007F6D4207A8BF80000A068E6
:1021B00068B1FFF7EFF9074604E0FFF7EBF9C11B41
:1021C00041456CD8DBF800008007F6D50CE0FFF73E
:1021D000E1F9074604E0FFF7DDF9C11B41455ED890
:1021E000DBF800008007F6D4A069E8B3DAF8001045
:1021F000C1F3810102295AD0022806D0C9F86060D3
:10220000FFF7C8F904464DE049E04F46C9F8606061
:10221000FFF7C0F9064604E0FFF7BCF9801B64280D
:102220003DD828688001F7D4D4E90701084347F670
:10223000C07191FAA1F1626AB1FA81F18A40A16A92
:102240004FF0FF3303EB51014FF4403393FAA3F304
:10225000B3FA83F399400A4310434FF0706292FA45
:10226000A2F2B2FA82F200E01FE0E16A9140084374
:102270001049091F086001203866FFF78BF90446F2
:1022800004E0FFF787F9001B642808D8286880015C
:10229000F7D50AE0FFF77EF9001B642802D9032076
:1022A000BDE8F88F28688001F4D40020F8E7012009
:1022B000F6E70000083802400038024000004742BC
:1022C000800E47420070004070B50D46040003D0F8
:1022D00094F82C0010B107E0012070BD002084F8B4
:1022E0002D00204600F012F8022084F82C00211D59
:1022F0002068FEF75BFCD4E900022946FEF7A6FC45
:10230000012084F82C00002070BD0000304800B58A
:10231000016887B041F001010160006800F0010030
:1023200005902B480838016841F0040101600168FC
:1023300001F004010591016841F0080101600168A4
:1023400001F008010591016841F010010160016888
:1023500001F010010591016841F020010160016860
:1023600001F020010591016841F040010160006821
:10237000694600F0400005900D2000900220019079
:1023800001200290032003900C2004901148FFF7D5
:1023900009F84CF20370009069460F48FFF702F805
:1023A0004FF68370009069460C48FEF7FBFF4FF62E
:1023B0003F00009069460A48FEF7F4FF48F23710E4
:1023C000009069460748FEF7EDFF07B000BD00002A
:1023D0003838024000080240000C02400010024061
:1023E000001402400018024010B5044690F82C007A
:1023F000022809D0022084F82C002068FEF7FCFB9C
:10240000012084F82C00002010BD70B5044690F81F
:102410002C000D4602280CD0022084F82C002068E5
:10242000FEF7F0FB2868022804D0012084F82C0075
:10243000002070BD0520F9E770B515460E46040072
:1024400003D094F8490010B107E0012070BD0020CE
:1024500084F84800204600F01BF804F108012068C9
:10246000FEF73AFB3146A2682068FEF771FBD4E91B
:1024700001022946236BFEF70FFBA168206850F884
:10248000212042F0010240F82120002070BD000010
:102490001A4800B5016887B041F001010160006889
:1024A00000F00100059015480838016841F0080166
:1024B0000160016801F008010591016841F0100117
:1024C00001600068694600F0100005904EF2B3709C
:1024D00000900220019001200290032003900C2024
:1024E00004900748FEF75EFF4FF680700090694643
:1024F0000448FEF757FF07B000BD0000383802401F
:10250000000C0240001002404FF0E021042808694E
:1025100003D020F004000861704740F00400FAE79F
:1025200010B5401EB0F1807F01D3012010BD4FF0E7
:10253000E02460610F21601703F0BEFC0020A06161
:1025400007202061002010BD704738B5016804469F
:102550000868CA68C0F3000002F4807238B132B172
:10256000086848680090E06B40F00100E06308688C
:102570004A69C0F3400002F0010238B132B1086884
:1025800048680090E06B40F00400E06308684A6926
:10259000C0F3800002F0010238B132B10868486827
:1025A0000090E06B40F00200E06308684A69C0F305
:1025B000C00002F0010238B132B1086848680090EA
:1025C000E06B40F00800E0630868C968C0F34010A1
:1025D00001F0200118B111B1204604F00DFD206872
:1025E0000168C068C1F3C01100F0800019B110B1DA
:1025F000204604F00FFE21680868CA68C0F3801006
:1026000002F04002012568B162B1CA68204622F09A
:102610004002CA6094F8391032290CD080F8395041
:1026200000F0ECF8E06B002804D084F83950204624
:10263000FFF78AFF38BD222180F83910F0E770B526
:10264000040004D094F83900002510B106E0012000
:1026500070BD84F83850204600F020F8022084F83D
:1026600039002068C16821F40051C160204604F09F
:1026700017FD2068016921F49041016120684169DA
:1026800021F02A0141612068C16841F40051C16014
:10269000E563012084F83900002070BD30B50446A0
:1026A0000068204987B0884239D11F48016841F04D
:1026B00001010160006800F0010005901A48143023
:1026C000016841F0100101600068012100F0100074
:1026D00005904FF4007000900220CDE901010390B5
:1026E0000720124D049069462846FEF75BFE281528
:1026F000009069462846FEF755FE2068C16821F023
:102700004001C1602068C16841F02001C1602520FE
:10271000FFF7F2F8032211462520FFF7F9F807B07A
:1027200030BD00000010014030380240000002407F
:102730002DE9F047044690F8390099460D460128E6
:1027400001D0122857D125B31AB394F838000128C4
:1027500051D0012684F838600027E76394F83900E7
:10276000122819D0222084F83900A285E2854FF47E
:102770008058E08D4B46401EE085A0684FF0000277
:1027800040454FF02001204616D104F076FDB0B947
:1027900004E00120BDE8F0873220E4E7206900284A
:1027A0002068406803D0C1B225F8011B12E0C0F3D5
:1027B000080125F8021B0DE004F05FFD08B10320BD
:1027C000E8E7206900282068406801D000F07F0019
:1027D00005F8010BE08D0028CBD194F839003228A0
:1027E00005D084F8396084F838700020D2E71220D0
:1027F00084F83900F7E70220CCE770477047FEE71E
:1028000070B50D4C0025C4F890520C48016821F4B5
:1028100040610160016841F480610160C4F8945234
:10282000022004F5247404F06DFE012020600220D3
:1028300004F068FE256070BD00804342001C024029
:102840000E4810B5016886B041F080010160006853
:10285000012400F0800005903020CDE90004022022
:10286000CDE9024069460648FEF79CFD0548C0F8E0
:102870009442C0F8904206B010BD000030380240CB
:10288000001C02400080434270B50D4C0026C4F885
:1028900090620C48016821F440610160016841F4D4
:1028A000806101600125C4F89452022004F524746B
:1028B00004F028FE2560022004F024FE266070BD8E
:1028C00000804342001C02402DE9F0478146164833
:1028D0000024016821F44061016001680160134E29
:1028E000254627464FF00108C6F89072022004F0F2
:1028F00009FEC6F890826006040ED6F8140208B1EC
:10290000641CE4B2012004F0FDFD6D1CEDB2082D45
:10291000EAD3B9F1000F04D0FFF772FF2046BDE8FB
:10292000F087FFF7B1FFF9E7001C02400080434247
:102930002DE9F04105461448016821F44061016029
:10294000016841F480610160104E0027C6F8907262
:102950003C464FF00108E809C6F894026806050EE7
:10296000022004F0CFFDC6F89082022004F0CAFDD8
:10297000C6F89072022004F0C5FD641CE4B2082C75
:10298000E9D3BDE8F0810000001C02400080434212
:1029900070B50D48016821F440610160016841F49F
:1029A00080610160094C0120C4F89402C4F89002CF
:1029B000042004F5247404F0A5FD002565600420BE
:1029C00004F0A0FD256070BD001C02400080434261
:1029D0000E4810B5016821F440610160016841F4BE
:1029E000806101600A4C0020C4F89002C4F894028F
:1029F000042004F5247404F085FD0120206060604B
:102A0000BDE81040042004F07DBD0000001C024021
:102A10000080434270B512480024016821F44061EF
:102A20000160016801600F4D0126C5F894623046CF
:102A300004F068FDC5F89062012004F063FD07E032
:102A4000641CE4B2FA2C03D9FFF7C2FF012070BD69
:102A5000D5F814020028F3D1C5F8900270BD00002B
:102A6000001C02400080434270B51B4886B0002520
:102A7000016841F001010160016801F00101059167
:102A8000016841F004010160016801F00401059151
:102A9000016841F0800101600068032400F08000BB
:102AA000059002200126CDE90204CDE900656946C2
:102AB0000A48FEF777FC700303948DE861006946CD
:102AC0000748FEF76FFC0C20009069460548FEF7AA
:102AD00069FC06B070BD00003038024000000240C2
:102AE00000080240001C02402DE9F0470126304C4E
:102AF0007703DFF8C080DFF8C090304D01281DD08B
:102B00002078A0B108212846FEF73AFDC0B1042183
:102B10002846FEF735FD98B139464046FEF730FDB0
:102B200070B101214846FEF72BFD012808D008218D
:102B30002846FEF725FD012826D037E02670E1E77C
:102B40000A2004F0D1FC0020207008212846FEF75E
:102B500017FD80B104212846FEF712FD70B13946F9
:102B60004046FEF70DFD58B101214846FEF708FD2D
:102B7000012807D01AE00120BDE8F0870220FBE71A
:102B80000320F9E70420F7E704212846FEF7F8FCC4
:102B900001280BD139464046FEF7F2FC012805D149
:102BA00001214846FEF7ECFC00B926700020E3E75F
:102BB000240000200008024000000240001C0240E7
:102BC00070B50E490E4A064608881268002422B1E4
:102BD0003046BDE8704002F07BBE4D880021454381
:102BE000084602F0CFFC02F03BFEB1B2054801E01E
:102BF0000180641CAC42FBD370BD0000CC010020FE
:102C0000B8020020000008602DE9F05F394C3A4D11
:102C1000A071296839B102F07BFEE88A2080288BF8
:102C20006080BDE8F09F33492C232A2589884FF026
:102C3000F00949F2413A2B2645F2105B4FF4305E21
:102C40004FF448774FF4A07845F2103C4FF4F072FF
:102C500058B1A4F80080A4F80290514501D0614514
:102C600029D123816581A68139E0A4F80090A4F8D8
:102C70000280514501D0614508D123816581A6813B
:102C8000614531D1A4F8008062802DE0594508D11A
:102C9000A4F808E04FF4285060814FF42C50A08134
:102CA00006E0A1F5C85063381ED123816681A58155
:102CB0002280678018E0594508D1A4F808E04FF455
:102CC000285060814FF42C50A08106E0A1F5C85037
:102CD000633804D123816581A681278062806145A4
:102CE00002D12280A4F80280BDE8F05F002002F04B
:102CF0006DBB0000CC010020B80200202DE9FE4F82
:102D00000026A2EB000882465F1A701E35468946EF
:102D1000B8F1000F02DD4FF0010102E003D14FF0E6
:102D20000001019102E0C8F100080190002F02DDCE
:102D30004FF0010002E003D14FF00000009002E0EC
:102D4000C7F1000700904046B84501DD044600E0A9
:102D50003C46601C4FF0000B029015E01FFA89F111
:102D60001FFA8AF000F016F846443D44A64202DD00
:102D70000199361B8A44A54202DD00992D1B894426
:102D80000BF101001FFA80FB02998B45E6DDBDE8DF
:102D9000FE8F000010B5084A084C126822B1226864
:102DA000BDE8104002F0C8BD02F0ECFB02F058FD97
:102DB00003492088088010BDB802002028000020A8
:102DC000000008602DE9FC5F8046002415460320C2
:102DD0000F46A0EB450649E0781B81B208EB040AD8
:102DE00001901FFA8AF0FFF7D5FF381B81B208EB7C
:102DF000050900901FFA89F0FFF7CCFF07EB040BE1
:102E00001FFA8BF11FFA89F0FFF7C4FF07EB0509E2
:102E10001FFA89F11FFA8AF0FFF7BCFFA8EB040A3A
:102E20001FFA89F11FFA8AF0FFF7B4FFA8EB050932
:102E30001FFA8BF11FFA89F0FFF7ACFF019881B2FE
:102E40001FFA8AF0FFF7A6FF009881B21FFA89F0F7
:102E5000FFF7A0FF641C002E03DA06EB8406B61D04
:102E600004E0601B06EB80066D1E0A36AC42B3DD43
:102E7000BDE8FC9F2DE9F041044639480D46006845
:102E800020B12046BDE8F04102F056BD354E270A7C
:102E90003146B0884989A0F513434FEA1528413BD4
:102EA0000BD0A0F5A643103B07D0B3F5007311D0AB
:102EB000A0F5C853633B27D04BE0084602F0C4FCA2
:102EC000384602F0B5FCE0B202F0B2FCB08902F084
:102ED000BBFC38E0084602F0B7FC384602F0A8FC1C
:102EE0007089401C80B202F0AFFCE0B202F0A0FC9E
:102EF000B08902F0A9FC404602F09AFCB089401C5F
:102F000080B202F0A1FC21E0B07918B93088001B32
:102F1000401E84B2084602F097FC270A384602F0A9
:102F200087FCE0B202F084FC384602F081FCE0B29B
:102F300002F07EFCB08902F087FC404602F078FC8B
:102F4000E8B202F075FC404602F072FCE8B202F012
:102F50006FFC054930890880881C0280BDE8F0813B
:102F6000B8020020CC010020FEFF07602DE9F843E5
:102F70001F46144B804608981B6833B100903B46AF
:102F8000404602F0F7FCBDE8F883A2EB0802521CB1
:102F900096B20C4685B2DFF830900FE021464046ED
:102FA00002F0F0FA02F05CFC0020494602E00D80DD
:102FB000401C80B2B042FAD3641CA4B2BC42EDD92A
:102FC000E1E70000B8020020000008602DE9F04FA2
:102FD00095B002F041FEFE4D4FF0010AA5F15009F7
:102FE000A88049F2413B45F2103645F2105441F6B3
:102FF000631818B102F018FD02F08BB9F5480027EC
:10300000016841F002010160006810A900F00200AF
:1030100000902020CDE9100A0320CDE912A0EE484F
:10302000FEF7C0F94FF020414846C9F80010EB49BF
:10303000C0E901171021C9F80C70C0E90471C9F882
:1030400018700902C9F81C70C0E909718900C0E94B
:103050000B71C9F834708901C9E90E7146210B91D1
:103060000F20CDE90907CDE902070490D8480F9752
:1030700002AA09A908975038FFF7DEF9322004F0B8
:1030800033FAD32002F0E0FB02F06EF9A88002F0E0
:103090006BF9A88002F068F94FF6FF7202EA00208F
:1030A000A88002F061F9A9885F460843A880B84269
:1030B00048D0D42002F0C8FB02F056F9A88002F0F4
:1030C00053F9A88002F050F902EA0020A88002F02B
:1030D0004BF9A9880843A880B04233D04FF45A4036
:1030E00002F0B2FB02F040F9A8804FF45B4002F01E
:1030F000ABFB02F039F902EA0020A8804FF45C40F3
:1031000002F0A2FB02F030F9A9880843A880B0F5CC
:10311000004F7DD0A04215D0A12002F095FB02F017
:1031200023F9A88002F020F902EA0020A88002F02A
:103130001BF9A9880843A0F5AE41A880613901D1E7
:10314000A5F80480A988A6A0FDF7ACF8A888B84225
:103150007ED1CF2002F078FB002002F069FBC12075
:1031600002F066FB302002F063FBED2002F06CFB06
:10317000642002F05DFB032002F05AFB122002F0F3
:1031800057FB812002F054FBE82002F05DFB852014
:1031900002F04EFB102002F04BFB7A2002F048FBBD
:1031A000CB2002F051FB392002F042FB2C2002F030
:1031B0003FFB002002F03CFB342002F039FB0220F0
:1031C00002F036FBF72002F03FFB202002F030FB3C
:1031D000EA2002F039FB002002F02AFB002002F076
:1031E00027FBC02002F030FB1B2002F021FBC12096
:1031F00002F02AFB012002F01BFBC52002F024FB99
:10320000302002F015FB302002F012FBC72000E056
:10321000B7E002F019FBB72002F00AFB362002F0FB
:1032200013FB482002F004FB3A2002F00DFB55206E
:1032300002F0FEFAB12002F007FB002002F0F8FADB
:103240001A2002F0F5FAB62002F0FEFA0A2000E099
:1032500099E002F0EDFAA22002F0EAFAF22002F080
:10326000F3FA002002F0E4FA262002F0EDFA012041
:1032700002F0DEFAE02002F0E7FA0F2002F0D8FABE
:103280002A2002F0D5FA282002F0D2FA082002F013
:10329000CFFA0E2002F0CCFA082002F0C9FA54202E
:1032A00002F0C6FAA92002F0C3FA432002F0C0FAE5
:1032B0000A2002F0BDFA0F2002F0BAFA002002F054
:1032C000B7FA002002F0B4FA002002F0B1FA0020B0
:1032D00002F0AEFAE12002F0B7FA002002F0A8FAFC
:1032E000152002F0A5FA172002F0A2FA072002F03A
:1032F0009FFA112002F09CFA062002F099FA2B2086
:1033000002F096FA562002F093FA3C2002F090FA6E
:10331000052002F08DFA102002F08AFA0F2002F048
:1033200087FA3F2002F084FA3F2002F081FA0F2052
:1033300002F07EFA2B2002F087FA002002F078FAE1
:10334000002002F075FA012002F072FA3F2002F02C
:103350006FFA2A2002F078FA002002F069FA0020C1
:1033600002F066FA002002F063FAEF2002F060FA41
:10337000112002F069FA782004F0B6F8292001F053
:103380000BBFAC80DEE6B0427ED1ED2002F05CFAED
:10339000012002F04DFAFE2002F04AFAEE2002F07F
:1033A00053FADE2002F044FA212002F041FAF12023
:1033B00002F04AFA012002F03BFADF2002F044FA60
:1033C000102002F035FAC42002F03EFA8F200FE000
:1033D000CC0100203038024000040240040100A06B
:1033E000204C43442049443A25780D0A000000004F
:1033F00002F01EFAC62002F027FA002002F018FAA6
:10340000E22002F015FAE22002F012FAE22002F0C5
:103410000FFABF2002F018FAAA2002F009FAB02031
:1034200002F012FA0D2002F003FA002002F000FA76
:103430000D2002F0FDF9002002F0FAF9112002F04F
:10344000F7F9002002F0F4F9192002F0F1F9002058
:1034500002F0EEF9212002F0EBF9002002F0E8F989
:103460002D2002F0E5F9002002F0E2F93D2002F003
:10347000DFF9002002F0DCF95D2002F0D9F900202C
:1034800002F0D6F95D2000E0FEE302F0D1F9002061
:1034900002F0CEF9B12002F0D7F9802002F0C8F98D
:1034A000002002F0C5F98B2002F0C2F9002002F0E2
:1034B000BFF9962002F0BCF9002002F0B9F9B22061
:1034C00002F0C2F9002002F0B3F9002002F0B0F9D6
:1034D000022002F0ADF9002002F0AAF9032002F068
:1034E000A7F9002002F0A4F9B32002F0ADF9002002
:1034F00002F09EF9002002F09BF9002002F098F9FA
:10350000002002F095F9002002F092F9002002F06C
:103510008FF9002002F08CF9002002F089F90020D8
:1035200002F086F9002002F083F9002002F080F911
:10353000002002F07DF9002002F07AF9002002F06C
:1035400077F9002002F074F9002002F071F90020F0
:1035500002F06EF9002002F06BF9002002F068F929
:10356000002002F065F9002002F062F9002002F06C
:103570005FF9002002F05CF9002002F059F9B42054
:1035800002F062F98B2002F053F9002002F050F9AA
:10359000962002F04DF9002002F04AF9A12002F035
:1035A00047F9002002F044F9B52002F04DF902205D
:1035B00002F03EF9002002F03BF9032002F038F956
:1035C000002002F035F9042002F032F9002002F068
:1035D0002FF9B62002F038F9002002F029F9002076
:1035E00002F026F9B72002F02FF9002002F020F9AE
:1035F000002002F01DF93F2002F01AF9002002F02D
:1036000017F95E2002F014F9002002F011F964208D
:1036100002F00EF9002002F00BF98C2002F008F9FC
:10362000002002F005F9AC2002F002F9002002F0BF
:10363000FFF8DC2002F0FCF8002002F0F9F870201E
:1036400002F0F6F8002002F0F3F8902002F0F0F813
:10365000002002F0EDF8EB2002F0EAF8002002F082
:10366000E7F8DC2002F0E4F8002002F0E1F8B820EE
:1036700002F0EAF8002002F0DBF8002002F0D8F8AF
:10368000002002F0D5F8002002F0D2F8002002F06D
:10369000CFF8002002F0CCF8002002F0C9F800209A
:1036A00002F0C6F8BA2002F0CFF8242002F0C0F8E9
:1036B000002002F0BDF8002002F0BAF8002002F06D
:1036C000B7F8C12002F0C0F8202002F0B1F80020C5
:1036D00002F0AEF8542002F0ABF8002002F0A8F897
:1036E000FF2002F0A5F8002002F0A2F8C22002F0AC
:1036F000ABF80A2002F09CF8002002F099F80420B0
:1037000002F096F8002002F093F8C32002F09CF833
:103710003C2002F08DF8002002F08AF83A2002F0F6
:1037200087F8002002F084F8392002F081F80020A8
:1037300002F07EF8372002F07BF8002002F078F8E3
:103740003C2002F075F8002002F072F8362002F0FA
:103750006FF8002002F06CF8322002F069F80020C7
:1037600002F066F82F2002F063F8002002F060F803
:103770002C2002F05DF8002002F05AF8292002F017
:1037800057F8002002F054F8262002F051F80020EB
:1037900002F04EF8242002F04BF8002002F048F826
:1037A000242002F045F8002002F042F8232002F025
:1037B0003FF8002002F03CF83C2002F039F80020ED
:1037C00002F036F8362002F033F8002002F030F82C
:1037D000322002F02DF8002002F02AF82F2002F00B
:1037E00027F8002002F024F82C2002F021F8002015
:1037F00002F01EF8292002F01BF8002002F018F851
:10380000262002F015F8002002F012F8242002F021
:103810000FF8002002F00CF8242002F009F8002034
:1038200002F006F8232002F003F8002002F000F86E
:10383000C42002F009F8622001F0FAFF002001F034
:10384000F7FF052001F0F4FF002001F0F1FF8420D4
:1038500001F0EEFF002001F0EBFFF02001F0E8FFA7
:10386000002001F0E5FF182001F0E2FF002001F048
:10387000DFFFA42001F0DCFF002001F0D9FF1820B9
:1038800001F0D6FF002001F0D3FF502001F0D0FF5F
:10389000002001F0CDFF0C2001F0CAFF002001F054
:1038A000C7FF172001F0C4FF002001F0C1FF9520E1
:1038B00001F0BEFF002001F0BBFFF32001F0B8FFD4
:1038C000002001F0B5FFE62001F0B2FF002001F07A
:1038D000AFFFC52001F0B8FF322001F0A9FF0020A2
:1038E00001F0A6FF442001F0A3FF002001F0A0FF9B
:1038F000652001F09DFF002001F09AFF762001F085
:1039000097FF002001F094FF882001F091FF002034
:1039100001F08EFFC62001F097FF202001F088FF04
:10392000002001F085FF172001F082FF002001F048
:103930007FFF012001F07CFF002001F079FFC7200C
:1039400001F082FF002001F073FF002001F070FF02
:10395000002001F06DFF002001F06AFFC82001F097
:1039600073FF002001F064FF002001F061FF0020E0
:1039700001F05EFF002001F05BFFC92001F064FF51
:10398000002001F055FF002001F052FF002001F05F
:103990004FFF002001F04CFF002001F049FF002004
:1039A00001F046FF002001F043FF002001F040FF3E
:1039B000002001F03DFF002001F03AFF002001F05F
:1039C00037FF002001F034FF002001F031FF00201C
:1039D00001F02EFF002001F02BFF002001F028FF56
:1039E000E02001F031FF162001F022FF002001F05D
:1039F0001FFF1C2001F01CFF002001F019FF2120F7
:103A000001F016FF002001F013FF362001F010FF37
:103A1000002001F00DFF462001F00AFF002001F018
:103A200007FF522001F004FF002001F001FF642095
:103A300001F0FEFE002001F0FBFE7A2001F0F8FE0E
:103A4000002001F0F5FE8B2001F0F2FE002001F0D5
:103A5000EFFE992001F0ECFE002001F0E9FEA82025
:103A600001F0E6FE002001F0E3FEB92001F0E0FEE7
:103A7000002001F0DDFEC42001F0DAFE002001F09C
:103A8000D7FECA2001F0D4FE002001F0D1FED220E2
:103A900001F0CEFE002001F0CBFED92001F0C8FEDF
:103AA000002001F0C5FEE02001F0C2FE002001F080
:103AB000BFFEF32001F0BCFE002001F0B9FEE120C2
:103AC00001F0C2FE162001F0B3FE002001F0B0FEAE
:103AD0001C2001F0ADFE002001F0AAFE222001F022
:103AE000A7FE002001F0A4FE362001F0A1FE002078
:103AF00001F09EFE452001F09BFE002001F098FEA3
:103B0000522001F095FE002001F092FE642001F0A9
:103B10008FFE002001F08CFE7A2001F089FE00204B
:103B200001F086FE8B2001F083FE002001F080FE74
:103B3000992001F07DFE002001F07AFEA82001F01E
:103B400077FE002001F074FEB92001F071FE002024
:103B500001F06EFEC42001F06BFE002001F068FE53
:103B6000CA2001F065FE002001F062FED22001F0C3
:103B70005FFE002001F05CFED82001F059FE00201D
:103B800001F056FEE02001F053FE002001F050FE4F
:103B9000F32001F04DFE002001F04AFEE22001F08A
:103BA00053FE052001F044FE002001F041FE0B20F1
:103BB00001F03EFE002001F03BFE1B2001F038FE2C
:103BC000002001F035FE342001F032FE002001F02B
:103BD0002FFE442001F02CFE002001F029FE4F2092
:103BE00001F026FE002001F023FE612001F020FEFE
:103BF000002001F01DFE792001F01AFE002001F0E6
:103C000017FE882001F014FE002001F011FE97201D
:103C100001F00EFE002001F00BFEA62001F008FED0
:103C2000002001F005FEB72001F002FE002001F0A7
:103C3000FFFDC22001F0FCFD002001F0F9FDC720CE
:103C400001F0F6FD002001F0F3FDD12001F0F0FDC0
:103C5000002001F0EDFDD62001F0EAFD002001F08A
:103C6000E7FDDD2001F0E4FD002001F0E1FDF3209F
:103C700001F0DEFD002001F0DBFDE32001F0E4FDBA
:103C8000052001F0D5FD00E00AE3002001F0D0FDA1
:103C90000A2001F0CDFD002001F0CAFD1C2001F03A
:103CA000C7FD002001F0C4FD332001F0C1FD00205C
:103CB00001F0BEFD442001F0BBFD002001F0B8FD85
:103CC000502001F0B5FD002001F0B2FD622001F0AE
:103CD000AFFD002001F0ACFD782001F0A9FD00202F
:103CE00001F0A6FD882001F0A3FD002001F0A0FD59
:103CF000972001F09DFD002001F09AFDA62001F023
:103D000097FD002001F094FDB72001F091FD002007
:103D100001F08EFDC22001F08BFD002001F088FD36
:103D2000C72001F085FD002001F082FDD12001F0C7
:103D30007FFD002001F07CFDD52001F079FD002001
:103D400001F076FDDD2001F073FD002001F070FD33
:103D5000F32001F06DFD002001F06AFDE42001F088
:103D600073FD012001F064FD002001F061FD0120E0
:103D700001F05EFD002001F05BFD022001F058FD26
:103D8000002001F055FD2A2001F052FD002001F035
:103D90004FFD3C2001F04CFD002001F049FD4B207F
:103DA00001F046FD002001F043FD5D2001F040FDE3
:103DB000002001F03DFD742001F03AFD002001F0EB
:103DC00037FD842001F034FD002001F031FD932007
:103DD00001F02EFD002001F02BFDA22001F028FDB6
:103DE000002001F025FDB32001F022FD002001F0AC
:103DF0001FFDBE2001F01CFD002001F019FDC420B4
:103E000001F016FD002001F013FDCD2001F010FDA2
:103E1000002001F00DFDD32001F00AFD002001F08B
:103E200007FDDD2001F004FD002001F001FDF3207D
:103E300001F0FEFC002001F0FBFCE52001F004FD98
:103E4000002001F0F5FC002001F0F2FC002001F060
:103E5000EFFC002001F0ECFC022001F0E9FC002066
:103E600001F0E6FC292001F0E3FC002001F0E0FC79
:103E70003C2001F0DDFC002001F0DAFC4B2001F0D9
:103E8000D7FC002001F0D4FC5D2001F0D1FC002023
:103E900001F0CEFC742001F0CBFC002001F0C8FC46
:103EA000842001F0C5FC002001F0C2FC932001F049
:103EB000BFFC002001F0BCFCA22001F0B9FC0020F6
:103EC00001F0B6FCB32001F0B3FC002001F0B0FC1F
:103ED000BE2001F0ADFC002001F0AAFCC42001F0DE
:103EE000A7FC002001F0A4FCCD2001F0A1FC0020E3
:103EF00001F09EFCD32001F09BFC002001F098FC17
:103F0000DC2001F095FC002001F092FCF32001F090
:103F10008FFC002001F08CFCE62001F095FC1120C4
:103F200001F086FC002001F083FC342001F080FCCD
:103F3000002001F07DFC562001F07AFC002001F009
:103F400077FC762001F074FC002001F071FC7720F2
:103F500001F06EFC002001F06BFC662001F068FCB3
:103F6000002001F065FC882001F062FC002001F0D7
:103F70005FFC992001F05CFC002001F059FCBB20A3
:103F800001F056FC002001F053FC992001F050FC98
:103F9000002001F04DFC662001F04AFC002001F0F9
:103FA00047FC552001F044FC002001F041FC552065
:103FB00001F03EFC002001F03BFC452001F038FC04
:103FC000002001F035FC432001F032FC002001F01C
:103FD0002FFC442001F02CFC002001F029FCE720FC
:103FE00001F032FC322001F023FC002001F020FC23
:103FF000552001F01DFC002001F01AFC762001F094
:1040000017FC002001F014FC662001F011FC0020D8
:1040100001F00EFC672001F00BFC002001F008FC11
:10402000672001F005FC002001F002FC872001F070
:10403000FFFB002001F0FCFB992001F0F9FB0020C0
:1040400001F0F6FBBB2001F0F3FB002001F0F0FBD8
:10405000992001F0EDFB002001F0EAFB772001F050
:10406000E7FB002001F0E4FB442001F0E1FB00202D
:1040700001F0DEFB562001F0DBFB002001F0D8FB55
:10408000232001F0D5FB002001F0D2FB332001F00A
:10409000CFFB002001F0CCFB452001F0C9FB002044
:1040A00001F0C6FBE82001F0CFFB002001F0C0FBCF
:1040B000002001F0BDFB992001F0BAFB002001F0C7
:1040C000B7FB872001F0B4FB002001F0B1FB882092
:1040D00001F0AEFB002001F0ABFB772001F0A8FB64
:1040E000002001F0A5FB662001F0A2FB002001F0FA
:1040F0009FFB882001F09CFB002001F099FBAA2087
:1041000001F096FB002001F093FBBB2001F090FB37
:10411000002001F08DFB992001F08AFB002001F0C6
:1041200087FB662001F084FB002001F081FB552015
:1041300001F07EFB002001F07BFB552001F078FBB5
:10414000002001F075FB442001F072FB002001F01B
:104150006FFB442001F06CFB002001F069FB55204F
:1041600001F066FB002001F063FBE92001F06CFB2D
:10417000AA2001F05DFB002001F05AFB002001F0B5
:1041800057FB002001F054FB002001F05DFBAA204A
:1041900001F04EFBCF2001F057FB002001F048FB5F
:1041A000002001F045FB002001F042FB002001F05F
:1041B0003FFB002001F03CFB002001F039FB002018
:1041C00001F036FB002001F033FB002001F030FB52
:1041D000002001F02DFB002001F02AFB002001F05F
:1041E00027FB002001F024FB002001F021FB002030
:1041F00001F01EFB002001F01BFB002001F018FB6A
:10420000F02001F021FB002001F012FB502001F012
:104210000FFB002001F00CFB002001F009FB002047
:1042200001F006FBF32001F00FFB002001F000FB82
:10423000F92001F009FB062001F0FAFA102001F044
:10424000F7FA292001F0F4FA002001F0F1FA3A20FF
:1042500001F0FAFA552001F0EBFA112001F0F4FA1E
:10426000642003F041F9292001F0EEFA352001F035
:10427000EBFA002001F0DCFA512001F0E5FAFF2012
:1042800001F0D6FA532001F0DFFA2C2001F0D0FA29
:10429000552001F0D9FA822001F0CAFA2C20FDE362
:1042A000A0427DD14FF470435521184601F0E2FA47
:1042B0004FF20107AA21384601F0DCFA5221781C9E
:1042C00001F0D8FA0821B81C01F0D4FA0121F81C39
:1042D00001F0D0FA0D214FF4304001F0CBFA0D215E
:1042E0004BF2010001F0C6FA0D214BF2020001F081
:1042F000C1FA34214FF4364001F0BCFA34214BF2BC
:10430000016001F0B7FA34214BF2026001F0B2FA19
:104310000D214FF4314001F0ADFA0D214BF20110A7
:1043200001F0A8FA0D214BF2021001F0A3FA34219A
:104330004FF4374001F09EFA34214BF2017001F046
:1043400099FA34214BF2027001F094FA00214FF4F3
:10435000324001F08FFA00214BF2012001F08AFA7D
:1043600000214BF2022001F085FA24214FF438405D
:1043700001F080FA24214BF6010001F07BFA2421A0
:104380004BF6020001F076FA01214FF43F4001F0B4
:1043900071FA0F214FF4334001F06CFA0F2100E065
:1043A000FEE34BF2013001F065FA0F214BF20230CF
:1043B00001F060FA34214FF4394001F05BFA342106
:1043C0004BF6011001F056FA34214BF6021001F0C1
:1043D00051FA08214FF4354001F04CFA08214BF214
:1043E000015001F047FA08214BF2025001F042FA65
:1043F00003214FF4424001F03DFA24214FF43A40AA
:1044000001F038FA24214BF6012001F033FA24217F
:104410004BF6022001F02EFA00214FF43C4001F04F
:1044200029FA78214BF6014001F024FA00214BF6DD
:10443000024001F01FFA00214FF43D4001F01AFA4A
:1044400078214BF6015001F015FA00214BF602508D
:1044500001F010FA00214FF43E4001F00BFA642104
:104460004BF6016001F006FA00214FF4514001F0D3
:1044700001FA33214DF2011001F0FCF900214DF257
:10448000021001F0F7F934214DF2031001F0F2F9B6
:1044900000214DF2041001F0EDF93A214DF2051022
:1044A00001F0E8F900214DF2061001F0E3F94A218C
:1044B0004DF2071001F0DEF900214DF2081001F075
:1044C000D9F95C214DF2091001F0D4F900214DF227
:1044D0000A1001F0CFF981214DF20B1001F0CAF959
:1044E00000214DF20C1001F0C5F9A6214DF20D107E
:1044F00001F0C0F900214DF20E1001F0BBF9E521E9
:104500004DF20F1001F0B6F901214DF2101001F03B
:10451000B1F913214DF2111001F0ACF901214DF266
:10452000121001F0A7F954214DF2131001F0A2F975
:1045300001214DF2141001F09DF982214DF2151068
:1045400001F098F901214DF2161001F093F9CA21FA
:104550004DF2171001F08EF902214DF2181001F002
:1045600089F900214DF2191001F084F902214DF270
:104570001A1001F07FF901214DF21B1001F07AF9B8
:1045800002214DF21C1001F075F934214DF21D107D
:1045900001F070F902214DF21E1001F06BF9672154
:1045A0004DF21F1001F066F902214DF2201001F0CA
:1045B00061F984214DF2211001F05CF902214DF2E4
:1045C000221001F057F9A4214DF2231001F052F905
:1045D00002214DF2241001F04DF9B7214DF22510C2
:1045E00001F048F902214DF2261001F043F9CF21E4
:1045F0004DF2271001F03EF902214DF2281001F092
:1046000039F9DE214DF2291001F034F902214DF281
:104610002A1001F02FF9F2214DF22B1001F02AF9A6
:1046200002214DF22C1001F025F9FE214DF22D1042
:1046300001F020F903214DF22E1001F01BF9102199
:104640004DF22F1001F016F903214DF2301001F058
:1046500011F933214DF2311001F00CF903214DF223
:10466000321001F007F96D214DF2331001F002F91B
:1046700000214FF4524001F0FDF833214DF20120AA
:1046800001F0F8F800214DF2022001F0F3F8342196
:104690004DF2032001F0EEF800214DF2042001F06C
:1046A000E9F83A214DF2052001F0E4F800214DF23D
:1046B000062001F0DFF84A214DF2072001F0DAF878
:1046C00000214DF2082001F0D5F85C214DF20920BF
:1046D00001F0D0F800214DF20A2001F0CBF8812141
:1046E0004DF20B2001F0C6F800214DF20C2001F034
:1046F000C1F8A6214DF20D2001F0BCF800214DF2C9
:104700000E2001F0B7F8E5214DF20F2001F0B2F8CC
:1047100001214DF2102001F0ADF813214DF21120CE
:1047200001F0A8F801214DF2122001F0A3F8542164
:104730004DF2132001F09EF801214DF2142001F0FA
:1047400099F882214DF2152001F094F801214DF2E3
:10475000162001F08FF8CA214DF2172001F08AF8D7
:1047600002214DF2182001F085F800214DF21920A8
:1047700001F080F802214DF21A2001F07BF80121AE
:104780004DF21B2001F076F802214DF21C2001F0C1
:1047900071F834214DF21D2001F06CF802214DF228
:1047A0001E2001F067F867214DF21F2001F062F82A
:1047B00002214DF2202001F05DF884214DF22120EC
:1047C00001F058F802214DF2222001F053F8A42103
:1047D0004DF2232001F04EF802214DF2242001F089
:1047E00049F8B7214DF2252001F044F802214DF29D
:1047F000262001F03FF8CF214DF2272001F03AF8B2
:1048000002214DF2282001F035F8DE214DF2292059
:1048100001F030F802214DF22A2001F02BF8F221AC
:104820004DF22B2001F026F802214DF22C2001F050
:1048300021F8FE214DF22D2001F01CF803214DF24C
:104840002E2001F017F810214DF22F2001F012F860
:1048500003214DF2302001F00DF833214DF23120CB
:1048600001F008F803214DF2322001F003F86D2128
:104870004DF2332000F0FEFF00214FF4534000F0D2
:10488000F9FF33214DF2013000F0F4FF00214DF229
:10489000023000F0EFFF34214DF2033000F0EAFF68
:1048A00000214DF2043000F0E5FF3A214DF20530D1
:1048B00000F0E0FF00214DF2063000F0DBFF4A215E
:1048C0004DF2073000F0D6FF00214DF2083000F025
:1048D000D1FF5C214DF2093000F0CCFF00214DF2F8
:1048E0000A3000F0C7FF81214DF20B3000F0C2FF0B
:1048F00000214DF20C3000F0BDFFA6214DF20D302D
:1049000000F0B8FF00214DF20E3000F0B3FFE521BA
:104910004DF20F3000F0AEFF01214DF2103000F0EB
:10492000A9FF13214DF2113000F0A4FF01214DF237
:10493000123000F09FFF54214DF2133000F09AFF27
:1049400001214DF2143000F095FF82214DF2153017
:1049500000F090FF01214DF2163000F08BFFCA21CC
:104960004DF2173000F086FF02214DF2183000F0B2
:1049700081FF00214DF2193000F07CFF02214DF241
:104980001A3000F077FF01214DF21B3000F072FF6A
:1049900002214DF21C3000F06DFF34214DF21D302C
:1049A00000F068FF02214DF21E3000F063FF672126
:1049B0004DF21F3000F05EFF02214DF2203000F07A
:1049C00059FF84214DF2213000F054FF02214DF2B5
:1049D000223000F04FFFA4214DF2233000F04AFFB7
:1049E00002214DF2243000F045FFB7214DF2253071
:1049F00000F040FF02214DF2263000F03BFFCF21B6
:104A00004DF2273000F036FF02214DF2283000F041
:104A100031FFDE214DF2293000F02CFF02214DF252
:104A20002A3000F027FFF2214DF22B3000F022FF58
:104A300002214DF22C3000F01DFFFE214DF22D30F1
:104A400000F018FF03214DF22E3000F013FF10216B
:104A50004DF22F3000F00EFF03214DF2303000F008
:104A600009FF33214DF2313000F004FF03214DF2F4
:104A7000323000F0FFFE6D214DF2333000F0FAFECF
:104A800000214FF4544000F0F5FE33214DF2014077
:104A900000F0F0FE00214DF2024000E07CE300F067
:104AA000E9FE34214DF2034000F0E4FE00214DF216
:104AB000044000F0DFFE3A214DF2054000F0DAFE3E
:104AC00000214DF2064000F0D5FE4A214DF207408C
:104AD00000F0D0FE00214DF2084000F0CBFE5C213A
:104AE0004DF2094000F0C6FE00214DF20A4000F0F0
:104AF000C1FE81214DF20B4000F0BCFE00214DF2C1
:104B00000C4000F0B7FEA6214DF20D4000F0B2FEC1
:104B100000214DF20E4000F0ADFEE5214DF20F40B8
:104B200000F0A8FE01214DF2104000F0A3FE132179
:104B30004DF2114000F09EFE01214DF2124000F0B6
:104B400099FE54214DF2134000F094FE01214DF2E4
:104B5000144000F08FFE82214DF2154000F08AFED5
:104B600001214DF2164000F085FECA214DF217409A
:104B700000F080FE02214DF2184000F07BFE002183
:104B80004DF2194000F076FE02214DF21A4000F07D
:104B900071FE01214DF21B4000F06CFE022100E08D
:104BA000FDE24DF21C4000F065FE34214DF21D4047
:104BB00000F060FE02214DF21E4000F05BFE672116
:104BC0004DF21F4000F056FE02214DF2204000F051
:104BD00051FE84214DF2214000F04CFE02214DF2A5
:104BE000224000F047FEA4214DF2234000F042FE97
:104BF00002214DF2244000F03DFEB7214DF2254048
:104C000000F038FE02214DF2264000F033FECF21A5
:104C10004DF2274000F02EFE02214DF2284000F018
:104C200029FEDE214DF2294000F024FE02214DF242
:104C30002A4000F01FFEF2214DF22B4000F01AFE38
:104C400002214DF22C4000F015FEFE214DF22D40C8
:104C500000F010FE03214DF22E4000F00BFE10215B
:104C60004DF22F4000F006FE03214DF2304000F0DF
:104C700001FE33214DF2314000F0FCFD03214DF2E5
:104C8000324000F0F7FD6D214DF2334000F0F2FDAF
:104C900000214FF4554000F0EDFD33214DF201505D
:104CA00000F0E8FD00214DF2025000F0E3FD342158
:104CB0004DF2035000F0DEFD00214DF2045000F0F3
:104CC000D9FD3A214DF2055000F0D4FD00214DF2FE
:104CD000065000F0CFFD4A214DF2075000F0CAFD0A
:104CE00000214DF2085000F0C5FD5C214DF2095045
:104CF00000F0C0FD00214DF20A5000F0BBFD812103
:104D00004DF20B5000F0B6FD00214DF20C5000F0BA
:104D1000B1FDA6214DF20D5000F0ACFD00214DF289
:104D20000E5000F0A7FDE5214DF20F5000F0A2FD5E
:104D300001214DF2105000F09DFD13214DF2115054
:104D400000F098FD01214DF2125000F093FD542126
:104D50004DF2135000F08EFD01214DF2145000F081
:104D600089FD82214DF2155000F084FD01214DF2A4
:104D7000165000F07FFDCA214DF2175000F07AFD69
:104D800002214DF2185000F075FD00214DF219502E
:104D900000F070FD02214DF21A5000F06BFD012170
:104DA0004DF21B5000F066FD02214DF21C5000F048
:104DB00061FD34214DF21D5000F05CFD02214DF2E9
:104DC0001E5000F057FD67214DF21F5000F052FDBC
:104DD00002214DF2205000F04DFD84214DF2215072
:104DE00000F048FD02214DF2225000F043FDA421C5
:104DF0004DF2235000F03EFD02214DF2245000F010
:104E000039FDB7214DF2255000F034FD02214DF25D
:104E1000265000F02FFDCF214DF2275000F02AFD43
:104E200002214DF2285000F025FDDE214DF22950DF
:104E300000F020FD02214DF22A5000F01BFDF2216E
:104E40004DF22B5000F016FD02214DF22C5000F0D7
:104E500011FDFE214DF22D5000F00CFD03214DF20D
:104E60002E5000F007FD10214DF22F5000F002FDF2
:104E700003214DF2305000F0FDFC33214DF2315052
:104E800000F0F8FC03214DF2325000F0F3FC6D21EC
:104E90004DF2335000F0EEFC00214FF4564000F08C
:104EA000E9FC33214DF2016000F0E4FC00214DF2F9
:104EB000026000F0DFFC34214DF2036000F0DAFC08
:104EC00000214DF2046000F0D5FC3A214DF205605E
:104ED00000F0D0FC00214DF2066000F0CBFC4A212E
:104EE0004DF2076000F0C6FC00214DF2086000F0B2
:104EF000C1FC5C214DF2096000F0BCFC00214DF2C8
:104F00000A6000F0B7FC81214DF20B6000F0B2FCAA
:104F100000214DF20C6000F0ADFCA6214DF20D60B9
:104F200000F0A8FC00214DF20E6000F0A3FCE5218A
:104F30004DF20F6000F09EFC01214DF2106000F078
:104F400099FC13214DF2116000F094FC01214DF207
:104F5000126000F08FFC54214DF2136000F08AFCC7
:104F600001214DF2146000F085FC82214DF21560A4
:104F700000F080FC01214DF2166000F07BFCCA219C
:104F80004DF2176000F076FC02214DF2186000F03F
:104F900071FC00214DF2196000F06CFC02214DF211
:104FA0001A6000F067FC01214DF21B6000F062FC0A
:104FB00002214DF21C6000F05DFC34214DF21D60B9
:104FC00000F058FC02214DF21E6000F053FC6721F6
:104FD0004DF21F6000F04EFC02214DF2206000F007
:104FE00049FC84214DF2216000F044FC02214DF285
:104FF000226000F03FFCA4214DF2236000F03AFC57
:1050000002214DF2246000F035FCB7214DF22560FD
:1050100000F030FC02214DF2266000F02BFCCF2185
:105020004DF2276000F026FC02214DF2286000F0CE
:1050300021FCDE214DF2296000F01CFC02214DF222
:105040002A6000F017FCF2214DF22B6000F012FCF8
:1050500002214DF22C6000F00DFCFE214DF22D607E
:1050600000F008FC03214DF22E6000F003FC10213B
:105070004DF22F6000F0FEFB03214DF2306000F096
:10508000F9FB33214DF2316000F0F4FB03214DF2C6
:10509000326000F0EFFB6D214DF2336000F0EAFB6F
:1050A0005521184600F0E6FBAA21384600F0E2FB45
:1050B0005221781C00F0DEFB0821B81C00F0DAFB5E
:1050C0000021F81C00F0D6FBCC214FF4314000F059
:1050D000D1FB00214BF2011000F0CCFB05214FF475
:1050E000364000F0C7FB70214FF4374000F0C2FBA0
:1050F00070214BF2017000F0BDFB01214FF43840EC
:1051000000F0B8FB03214BF6010000F0B3FB0321D4
:105110004BF6020000F0AEFB03214BF6030000F05B
:10512000A9FB02214FF43C4000F0A4FB00214BF608
:10513000014000F09FFB00214BF6024000F09AFB7B
:10514000D0214FF4494000F095FB02214CF60110AC
:1051500000F090FB50214CF6021000F08BFB502128
:105160004CF6031000F086FB50214CF6041000F0C2
:1051700081FB00214FF4545000F07CFB55214FF48B
:10518000685000F077FB4FF4885000F05DFB78200A
:1051900002F0B8F94FF4245000F056FBB9E0404556
:1051A000FCD1E22000F050FB1D2000F041FB02206A
:1051B00000F03EFB042000F03BFB642002F0A2F96B
:1051C000E02000F041FB012000F032FB0A2002F059
:1051D0008BF9E02000F038FB032000F029FB0C20C5
:1051E00002F082F9012000F02FFB0A2002F07CF986
:1051F000E62000F029FB2F2000F01AFBFF2000F032
:1052000017FBFF2000F014FBB02000F01DFB202056
:1052100000F00EFB002000F00BFB032000F008FB69
:1052200040F21F3000F004FB012000F001FB40F2CF
:10523000DF1000F0FDFA002000F0FAFAB42000F0D0
:1052400003FB042000F0F4FA40F21F4000F0F0FAF3
:10525000002000F0EDFA2E2000F0EAFA002000F025
:10526000E7FA002000F0E4FA002000F0E1FA002064
:1052700000F0DEFAB62000F0E7FA022000F0D8FADB
:105280004FF4037000F0D4FA002000F0D1FA172098
:1052900000F0CEFA152000F0CBFA002000F0C8FA9A
:1052A000002000F0C5FAF02000F0CEFA032000F054
:1052B000BFFA292000F0C8FAD02000F0C5FA00207B
:1052C00000F0B6FABE2000F0BFFA052000F0B0FAF8
:1052D000FE2000F0ADFA012000F0AAFA002000F054
:1052E000A7FA002000F0A4FA002000F0A1FAB820EC
:1052F00000F0AAFA032000F09BFA012000F098FACF
:10530000BA2000F0A1FA012000F092FA642000F027
:1053100035F8A888584505D0B04203D0A04201D046
:10532000404509D1042002900490D9E9010202A964
:10533000D9F83030FBF7B0FB0020FDF765FC0549DC
:10534000C1F894A24FF6FF70FDF73AFC15B0BDE826
:10535000F08F0000008040420346012000E05843E7
:10536000491EC9B2FBD27047034808B50088ADF8A2
:105370000000BDF8000008BD0000086010B502463E
:10538000BE2000F061FA052000F052FA104602F04B
:105390006AFB9FED0C1B53EC112B02F0B3FB02F0E8
:1053A00035FB80B200F044FA012000F041FAFF2002
:1053B00000F03EFA002000F03BFABDE8104000206B
:1053C00000F036BA6666666666660440F0B56C4DF7
:1053D00000232946AA79898841F66314012A01D05D
:1053E0001AB11BE0A14202D118E0A14216D108284F
:1053F00014D2DFE800F00406080A0C0E1012062092
:105400000CE007200AE0042008E0052006E0012067
:1054100004E0002002E0032000E00220A1F5134791
:1054200045F2103245F21056413F05D0914203D06B
:10543000B14201D0A14277D1082812D2DFE800F0B2
:10544000110406080A0C0E1080230AE0402308E02D
:10545000C02306E0202304E0602302E0A02300E054
:10546000E023B14202D14FF4585000E0362091427F
:1054700005D0B14203D0A14201D043F00803194640
:1054800000F0F8F9AA88A2420AD09806288869880C
:1054900002D5884202D303E0884201D9298068807E
:1054A0006889B24241D100F0CFF9002000F0C0F984
:1054B0006889401C80B200F0C7F9002000F0B8F9FC
:1054C0006889801C80B200F0BFF92888401EC0F3B4
:1054D0000F2000F0ADF96889C01C80B200F0B4F96B
:1054E0002878401EC0B200F0A3F9A88900F0ACF9FA
:1054F000002000F09DF9A889401C80B200F0A4F9BA
:10550000002000F095F9A889801C80B200F09CF979
:105510006888401EC0F30F2000F08AF9A889C01CDB
:1055200080B200F091F922E028E000F08DF900202F
:1055300000F07EF9002000F07BF92888401EC0F3BF
:105540000F2000F075F92878401EC0B200F070F905
:10555000A88900F079F9002000F06AF9002000F035
:1055600067F96888401EC0F30F2000F061F9A87841
:10557000BDE8F040401EC0B200F05AB9F0BD0000D6
:10558000CC010020F0B53F4D0C460246060AA98822
:105590002846270A4089A1F51343413B28D0A1F5AD
:1055A000A643103B24D0A1F5C853633B2FD0A1F5EF
:1055B000AA43103B64D100F047F9304600F038F9B7
:1055C0006889401C80B200F03FF9D0B200F030F999
:1055D000A88900F039F9384600F02AF9A889401C5A
:1055E00080B200F031F9E0B2BDE8F04000F020B93F
:1055F00000F02AF9304600F01BF9D0B200F018F99B
:10560000A88900F021F9384600F012F9EBE7A979F2
:1056100029B300F019F9304600F00AF9D0B200F0D1
:1056200007F92888401EC0F30F2000F001F9287800
:10563000401EC0B200F0FCF8A88900F005F9384619
:1056400000F0F6F8E0B200F0F3F86888401EC0F30E
:105650000F2000F0EDF8A878401EC0B2C4E72988FA
:10566000891A491E8AB200F0EFF8002000F0E0F835
:10567000002000F0DDF8100A00F0DAF8D0B2D9E727
:10568000F0BD0000CC0100202DE9F84F82461F46F6
:105690000E468B46580700D0012000EBD700790852
:1056A00010FB01F0203AC0B202F0FF090025009083
:1056B00047E00C2F10D0102F12D0182F14D0202F0D
:1056C00042D1224901EBC9104FF00008445D200689
:1056D00010D51F48026811E009EB49001D4906E09A
:1056E0001D4901EB0910EFE71C4909EBC90001EB6B
:1056F0008000E9E70A9828B91548426831465046C3
:10570000FDF7B8FB6006040E1548761CB6B240885B
:10571000B04219D9A6EB0B00B84209D10AF1010039
:105720001FFA80FA0E485E46018851450CD906E002
:1057300008F1010000F0FF08B8F1080FC7D36D1C95
:10574000EDB200988542B4D3BDE8F88FB699000851
:1057500028000020F68100086A8600085A8C00089C
:10576000CC0100202DE9FF4F81B00027DDF838B0D3
:105770001D46924680463C46B9464FEA5B0627E006
:10578000281B401EC1B20A20FFF7E6FDBAFBF0F06D
:105790000A21B0FBF1F201FB120027B9691E8C420D
:1057A00001DA48B101273030C2B206FB048080B272
:1057B0005B46CDF8009006E006FB048080B25B46B5
:1057C0002022CDF800900299FFF75EFF641CE4B23E
:1057D000AC42D5D305B0BDE8F08F2DE9F84F0446B3
:1057E00000F0FF0810190D46DDE90A761FFA80FA6D
:1057F00058191FFA80F94FF0000B11E0544502D3FD
:10580000E819444685B24D450FD23B46294620460D
:10581000CDF800B0FFF738FF04EB570084B2761CD8
:105820003278A2F120005E28E8D9BDE8F88F0000A8
:1058300001B5BDF80000ADF80000BDF80000014959
:10584000088008BD0000086001B5BDF80000ADF893
:105850000000BDF800000149088008BDFEFF076098
:10586000024803490089088070470000CC010020ED
:10587000FEFF0760024A1080901C01807047000004
:10588000FEFF0760104810B5016886B041F00201C4
:1058900001600068012100F0020005900320CDE9BD
:1058A0000210CDE90001094C69462046FBF77AFD5C
:1058B000012211462046FBF768FE01220221204604
:1058C000FBF763FE06B010BD303802400004024012
:1058D00008B500900548018BC08A491E8BB2401E56
:1058E00082B20021084600F045F808BDB802002049
:1058F00000B58DB008230992049000930691684684
:10590000FCF77CF8002800D001200DB000BD00009D
:1059100010B5084B1C465875A1888AB2218889B2F7
:1059200020B1012801D1D9821A8310BDDA821983EE
:1059300010BD0000B8020020F0B50C4F94B23D46F7
:10594000DFF82CC02B68EA692D7D7E7D5CF8255040
:1059500026B103FB01004243AC52F0BD7E68301A11
:10596000401E03FB001050432C52F0BDB802002033
:10597000300000202DE9F843274EDDF82090002468
:10598000757D0DB1054606E077680D46B91A1A46D1
:105990003B1A491E5B1E306896F814C0DFF87C8005
:1059A000521B871A58F82CC0F66900FB015006FB01
:1059B00000C51B487F1EBFB2066846F4000606609D
:1059C000006800F4000000901648066826F0010602
:1059D00006604FF440360660022646630764C563DE
:1059E000591AF30303EB0242491C11434164C0F806
:1059F0003890016841F0010101605A0102E0641C25
:105A0000944202D241688907F9D5816841F00201C8
:105A10008160BDE8F8830000B8020020300000205B
:105A20003038024000B002402DE9FF4100F014F987
:105A30000126634CA0F586424FF4F07147F28405CD
:105A4000423A14D032044FF44873A84221D1C4E939
:105A50000031268166812E20A0811720E081D2208E
:105A600020821620608203214FF4C67030E04FF48C
:105A70008870C4E90010268166812820A081082052
:105A8000E081052121828203608204214FF490701D
:105A90001EE0A0F5E0454FF48061163D06D0AA1E39
:105AA00019D0A0F50042173A1AD01DE04FF4167035
:105AB000C4E9001014202081032161818C21A1817F
:105AC000E081A02020820C20608202214FF4B4707B
:105AD000FFF70EFF08E04FF4A060C4E9000303E005
