:020000040800F2
:1000000078F901208902000899570008230E00089A
:1000100065560008B9070008E768000800000000FE
:10002000000000000000000000000000F96200086D
:10003000190C0008000000005B5F00081164000854
:10004000A3020008A3020008A3020008A3020008FC
:10005000A3020008A3020008A3020008A3020008EC
:10006000A3020008A3020008A3020008A3020008DC
:10007000A3020008A3020008A3020008A3020008CC
:10008000A3020008A3020008A3020008A3020008BC
:10009000A3020008A3020008A3020008A3020008AC
:1000A000A3020008A3020008A3020008A30200089C
:1000B000A30200087D64000839650008A302000857
:1000C000A3020008A3020008A3020008A30200087C
:1000D000A3020008C9660008A3020008A3020008E2
:1000E000A3020008A3020008A3020008A30200085C
:1000F000A3020008A3020008A3020008A30200084C
:10010000A3020008A3020008A3020008A30200083B
:10011000A3020008A3020008A3020008A30200082B
:10012000A3020008A3020008A3020008A30200081B
:10013000A3020008A3020008A3020008A30200080B
:10014000A3020008A3020008A3020008A3020008FB
:10015000A3020008A3020008A3020008A3020008EB
:10016000A3020008A3020008A3020008A3020008DB
:10017000A3020008A3020008F1080008A302000877
:10018000A3020008A302000800F002F800F06DF8D6
:100190000AA090E8000C82448344AAF10107DA45E2
:1001A00001D100F062F8AFF2090EBAE80F0013F0C7
:1001B000010F18BFFB1A43F001031847E4B6000013
:1001C00004B700000A444FF0000C10F8013B13F094
:1001D000070408BF10F8014B1D1108BF10F8015BA0
:1001E000641E05D010F8016B641E01F8016BF9D193
:1001F00013F0080F1EBF10F8014BAD1C0C1B09D1EA
:100200006D1E58BF01F801CBFAD505E014F8016B5B
:1002100001F8016B6D1EF9D59142D6D370470000ED
:100220000023002400250026103A28BF78C1FBD8FF
:10023000520728BF30C148BF0B607047642900F0E7
:10024000B580752900F0B280782900F0EB80632931
:1002500000F05D82732900F06282002070471FB5B4
:1002600008F09CFA1FBD10B510BD00F073FA1146DE
:10027000FFF7F5FF06F0F8FD00F091FA03B4FFF781
:10028000F2FF03BC06F038FB0948804709480047E5
:10029000FEE7FEE7FEE7FEE7FEE7FEE7FEE7FEE736
:1002A000FEE7FEE704480549054A064B7047000093
:1002B000156400088901000878F3012078F901200D
:1002C00078F5012078F50120704700000FB404494B
:1002D00010B503AA029800F027FA10BC5DF814FBD1
:1002E000640000200FB41CB5074B06AA7B44694686
:1002F0000090059800F0E9F90020694600F0F8F94F
:100300001CBC5DF814FB00000104000070B504463D
:1003100085690068C10601D5302600E02026C007A7
:1003200007D070BDD4E9012130469047206A401CB7
:1003300020626D1EF6D570BD70B5044685690078E3
:10034000C00707D170BDD4E9012120209047206A61
:10035000401C20626D1EF6D570BD70B50C4605467A
:10036000012A05D02878800600D5EA69002302E03A
:10037000012305E05B1C934202D2E05C0028F9D126
:10038000A869E618C01AA861286A18442862284695
:10039000FFF7BCFF04E0D5E9012114F8010B9047F9
:1003A000B442F8D32846FFF7C7FF70BD2DE9F041EE
:1003B0000646002410687529314616A510D0AFF303
:1003C0000080002802DA404213A507E031688A075E
:1003D00001D512A502E0490704D511A5012401E0C9
:1003E000AFF3008000210A2206F1240709E0B0FBE8
:1003F000F2FCB0FBF2F302FB1C00303078541846DC
:10040000491C0028F3D123462A463046BDE8F04176
:1004100000F0FCB8000000002D0000002B000000E0
:100420002000000070B504460D4621461068AFF369
:1004300000802188090502D50F4A7A4402E00E4A5D
:100440007A440E32002104F1240305E000F00F0687
:100450000009965D5E54491C0028F7D120780023DE
:10046000000704D5702D02D009B1022311322046B5
:10047000BDE8704000F0CAB865B000002DE9F05F3B
:10048000894604464FF0000ADFF874B1FB44C0F817
:1004900020A02046E1688847002874D0252806D08F
:1004A000D4E901219047206A401C2062F1E7002630
:1004B0005F462046E16888472028054607DB312D46
:1004C00005D2781910F8200C08B10643F1E7B007FF
:1004D00001D526F00406C4F81CA00027C4F818A013
:1004E0002A2D09D0284606F000FA38B304EB870815
:1004F000303DC8F8185019E059F8041B204604EBA9
:1005000087029161E1688847012F054618D1E069AB
:10051000002820DA26F020061DE0D8F8180000EBAD
:10052000800005EB40003038C8F818002046E1682C
:100530008847054606F0D9F90028EED1012F0AD0E8
:100540002E2D08D12046E16888477F1C0546022FE2
:1005500046F02006C4DBA069002803DA404246F0DA
:100560000106A061F00701D026F010066C2D0BD01B
:10057000682D09D04C2D39D06A2D35D0742D35D049
:100580007A2D33D016E038E0E1682F4620468847C0
:10059000B842054609D16C2F26D04FF48060E1683F
:1005A000064320468847054604E06C2F1AD04FF4D6
:1005B000807006430DB3A5F14100192802D82035FB
:1005C00046F400664A462946204626604E46FFF716
:1005D00035FE80B101280BD0F61D26F0070000F192
:1005E000080956E74020E4E78020D8E70020D6E756
:1005F00006F104094DE7284652E7206ABDE8F09F5E
:100600003BB0000070477047704770472DE9F047D6
:100610000D4699469246044600F124080168880672
:1006200004D5E06921F01001216000E00120A8421A
:1006300001DD471B00E00027A1697A1902EB0900E0
:10064000081AA0612078C00602D42046FFF75EFE9B
:10065000002608E0D4E901211AF806009047206A34
:10066000401C761C20624E45F4DB2078C0060AD57B
:100670002046FFF74BFE06E0D4E9012130209047E9
:10068000206A401C2062381EA7F10107F4DC07E055
:10069000D4E9012118F805009047206A401C206227
:1006A000281EA5F10105F3DC2046FFF745FE207862
:1006B000000602D50220BDE8F0870120FBE700001C
:1006C00001694A1C02610878704700B58FB0CDE916
:1006D00001310021059105497944CDE90310114606
:1006E0006846FFF7CBFE0FB000BD0000E5FFFFFF3F
:1006F0000A6802F8010B0A60704710B5436913B12C
:10070000AFF3008001E0FFF728FE012010BD127852
:1007100000F124010A7000224A700122EDE71168FD
:100720004FF0FF32E9E70000074B70B50D467B4400
:10073000FFF7CBFF0446284600F008F810B14FF051
:10074000FF3070BD204670BDDB620000007B00F012
:1007500080007047754600F02BF8AE4605006946EC
:10076000534620F00700854618B020B5FFF79AFDE4
:10077000BDE820404FF000064FF000074FF00008A2
:100780004FF0000B21F00701AC46ACE8C009ACE823
:10079000C009ACE8C009ACE8C0098D46704710B587
:1007A0000446AFF300802046BDE81040FFF766BD69
:1007B0000048704718F3012000BFFEE770B50446FB
:1007C0000E46154600F078F800200B490880488155
:1007D0008881B00108816001888000204880E8019C
:1007E000C880084600F0B4F8012000F007F80120A6
:1007F00000F01CF870BD000042F2012030B1074942
:10080000096841F00101054A116005E003490968E2
:1008100021F00101014A11607047000000000550FD
:1008200001494861704700000000055030B1074998
:10083000096841F48041054A116005E003490968EF
:1008400021F48041014A116070470000000005500A
:10085000F0B58FB004460D4616461F4601218805A7
:1008600005F07CFB124800F0EFF800BF104800F0E4
:1008700097F90028FAD14FF0007000900D480190D0
:100880000294002003900495059006974FF4805041
:10089000079008960011099040020A9000200D90E0
:1008A0000E906946024800F089F90FB0F0BD0000D3
:1008B0002864024028000550002005490860C860EF
:1008C0001F20486100208861C86108624862704743
:1008D00000000550014600200022044B1B6903EA7A
:1008E00001020AB1012000E000207047000005501D
:1008F00010B50120FFF7EEFF012811D106F094F8A2
:100900000120FFF78DFF0748006808B9012000E0CB
:1009100000200449086004480078401C024908701F
:1009200010BD0000A88242425D00002029B1074AA4
:10093000D2680243054BDA6006E0044AD268C3433A
:100940009BB21A40014BDA6070470000000005506E
:1009500000210E4A126844F201039A430B4B1A60BD
:100960001A46116840F6F2729143028843881A438E
:1009700083881A43C3881A4303891A4343891A4355
:1009800083891A431143014A1160704700000550E2
:100990002DE9F04104460D4616461F4600F034F896
:1009A0004FF6FF7000F0C6FA3B4632462946204615
:1009B00004F03AFC3B4632460021042005F0B2F92F
:1009C0000021084604F05CFB04F018FE01210448F5
:1009D00000F02EF80120FFF711FFBDE8F0810000C4
:1009E0002864024010B50021084604F049FB04F0D9
:1009F00005FE0121034800F01BF80120FFF7FEFE71
:100A000010BD00002864024010B50020FFF7F6FE7C
:100A100000BF0548006800F001000028F9D100215E
:100A2000024800F005F810BD00000550286402409F
:100A300021B1026842F00102026003E0026822F084
:100A40000102026070470000016821F001010160AD
:100A50000021016041608160C1600161212141612B
:100A60004A49884204D13D21484A103A91608CE0BD
:100A700046491831884205D14FF47461434A103A0F
:100A8000916082E041493031884205D14FF47411C0
:100A90003E4A103A916078E03C494831884205D19D
:100AA0004FF07461394A103A91606EE03749603115
:100AB000884204D13649354A103AD16065E033495D
:100AC0007831884204D13349304A103AD1605CE031
:100AD0002E499031884204D12F492C4A103AD160D6
:100AE00053E02A49A831884205D14FF03D51274AA9
:100AF000103AD16049E02949884204D13D21274A72
:100B0000083A116041E025491831884205D14FF477
:100B10007461224A083A116037E020493031884236
:100B200005D14FF474111D4A083A11602DE01B499C
:100B30004831884205D14FF07461184A083A116073
:100B400023E016496031884204D11149134A121F2B
:100B500011601AE011497831884204D10D490F4AD9
:100B6000121F116011E00D499031884204D10A49E9
:100B70000A4A121F116008E00849A831884204D1CE
:100B80004FF03D51054A121F11607047106002403E
:100B90003D000020400F002000003D201064024076
:100BA000014600200A6802F001020AB1012000E0BB
:100BB000002070470146486880B2704710B5002297
:100BC0000268134B1A40CC680B6823434C692343DB
:100BD0008C692343CC6923430C6A23434C6A234327
:100BE0008C6A23434C6B23438C6B23431A43026070
:100BF000426922F00702D1E90B3423431A434261D0
:100C00000B6943604B6883608B68C36010BD000054
:100C10003F801CF0416070477047000051B1820076
:100C2000A2F1C042126842F001038200A2F1C04268
:100C3000136009E08200A2F1C0421268034B1A401F
:100C40008300A3F1C0431A6070470000FEFF0F004D
:100C5000D0E901121143C26811430269114342698C
:100C6000114382691143C2691143026A1143426A06
:100C70001143826A1143C26A1143026B1143026835
:100C80009200A2F1C0421160816808290BD101686D
:100C90008900A1F1C041096841F040020168890062
:100CA000A1F1C0410A60416B0968426B526841EA98
:100CB0000211426B926841EA0221426B928941EA39
:100CC0000241426B128A41EA0251426B127D41EAB3
:100CD0000261426B926911430268521C9200A2F1B8
:100CE000C0421160C16AB1F5804F1BD1816B0968A8
:100CF000826B526841EA0211826B926841EA0221DA
:100D0000826B128A41EA0251826B127D41EA0261D2
:100D1000826B9269114302689200A2F1C042C2F84C
:100D2000041107E06FF0704201688900A1F1C04131
:100D3000C1F804217047F0B50A46002100230024C1
:100D400000BF3DE0012505FA01F3156805EA03043B
:100D50009C4234D105684F000326BE40B543056070
:100D600015794E00B5400668354305601579012DAB
:100D700002D01579022D16D185684F000326BE409A
:100D8000B543856055794E00B5408668354385602A
:100D9000456801268E40B5434560456896798E408A
:100DA000B6B235434560C5684F000326BE40B54323
:100DB000C560D5794E00B540C6683543C560491C4D
:100DC0001029BFD3F0BDF0B5002300244D07ED0E70
:100DD00002FA05F3CE1000F1200555F826504E0713
:100DE000F70E0F26BE40B543CF1000F1200646F89F
:100DF0002750CE1000F1200555F8265045EA03048F
:100E0000CE1000F1200545F82640F0BD0246002036
:100E100013690B400BB1012000E0002070470183F3
:100E2000704700BFFEE700001CB50121112005F04E
:100E300095F81C20009000208DF8040003208DF808
:100E4000050001208DF8070069460648FFF773FF8B
:100E50000120009002208DF8070069460248FFF744
:100E60006AFF1CBD001002400000024010B504469D
:100E700014B101202C4908702B480078002837D085
:100E800010212A48FFF7C2FF78B108212748FFF751
:100E9000BDFF50B104212548FFF7B8FF28B101215B
:100EA0002348FFF7B3FF012822D10A2005F046FDB1
:100EB00000201D49087010211C48FFF7A7FF08B942
:100EC000012010BD08211948FFF7A0FF08B9022032
:100ED000F7E704211548FFF799FF08B90320F0E769
:100EE00001211348FFF792FF01281BD10420E8E7F6
:100EF00010210E48FFF78AFF012813D108210B4863
:100F0000FFF784FF01280DD104210848FFF77EFF79
:100F1000012807D101210648FFF778FF10B9012009
:100F2000014908700020CCE75C000020001002405E
:100F30000000024070B50446002617480588408826
:100F400045431548808846F60401884216D1124868
:100F50008079012812D100200F4988712A20488108
:100F60002B2088810021084604F08AF801200A49D4
:100F700088712B2048812A20888103E000210846BF
:100F800004F07EF804F03AFB002602E003480480F7
:100F9000761CAE42FAD370BD34F201208000006CA2
:100FA00010B50446002C66D16C498871F020088089
:100FB0004FF4A07048800846808849F24131884249
:100FC0000BD06648808846F60401884205D0634805
:100FD000808845F2103188421AD12C205F4908815F
:100FE0002A2048812B2088810846808846F6040103
:100FF000884205D05948808845F21031884206D190
:101000004FF4A070554908804FF4F0704880A1E07B
:101010005248808845F21051884210D14FF4305028
:101020004E4908814FF4285048814FF42C50888154
:101030004FF4F07008804FF4487048808AE04748C9
:10104000808841F6631188420DD12C2043490881E4
:101050002B2048812A2088814FF4F07008804FF4BB
:101060004870488076E022203C4908812020488151
:10107000212088816EE00120384988714FF4A070EA
:101080000880F02048800846808849F24131884233
:1010900005D03248808845F21031884207D12C2093
:1010A0002E4908812A2048812B2088813FE02B4847
:1010B000808846F60401884207D12C202749088100
:1010C0002B2048812A20888131E02448808845F2FD
:1010D0001051884210D14FF43050204908814FF40C
:1010E000285048814FF42C5088814FF44870088074
:1010F0004FF4F07048801AE01848808841F6631178
:1011000088420DD12C20154908812A2048812B20A6
:1011100088814FF4487008804FF4F070488006E0F2
:1011200022200E49088121204881202088810B48F7
:10113000808846F60401884205D00848808845F238
:101140001031884206D14FF4F070044908804FF402
:10115000A0704880002003F01DFE10BD34F2012075
:1011600070B504460D4616465B48808849F2413109
:10117000884205D05848808845F21031884214D101
:101180005549488904F02EFA201204F01FFAE0B203
:1011900004F01CFA5049888904F024FA281204F05B
:1011A00015FAE8B204F012FA8CE04B48808845F258
:1011B0001051884220D14849488904F013FA20127E
:1011C00004F004FA44494989491C88B204F00AFA37
:1011D000E0B204F0FBF94049888904F003FA2812D0
:1011E00004F0F4F93C498989491C88B204F0FAF901
:1011F000E8B204F0EBF965E03748808841F6631106
:10120000884228D13448807920B933480088401E6C
:10121000001B84B23049488904F0E4F9201204F03C
:10122000D5F9E0B204F0D2F9201204F0CFF9E0B21F
:1012300004F0CCF92849888904F0D4F9281204F084
:10124000C5F9E8B204F0C2F9281204F0BFF9E8B217
:1012500004F0BCF936E02048808846F60401884254
:101260001DD11D488079012804D11B480088401EEB
:10127000001B84B21849488904F0B4F9201204F024
:10128000A5F9E0B204F0A2F91349888904F0AAF99B
:10129000281204F09BF9E8B204F098F912E00E4825
:1012A0008079012804D10C480088401E001B84B2BC
:1012B00009494889214604F0ABF90749888929463C
:1012C00004F0A6F904480089044908804FF0D8408A
:1012D000A0F8806070BD000034F201207E00006C38
:1012E0002DE9FC4F05460E4617469846DDF82C9032
:1012F000002001902748808846F60401884229D1C1
:1013000024488079012825D1AB46354621480088FC
:10131000C01B401E86B247461E480088A0EB0B004B
:10132000401E1FFA80F800201A4988712A2048813F
:101330002B20888143463A4631462846CDF8009016
:10134000FFF7CEFF0120134988712B2048812A2006
:1013500088811DE0781B401C80B20190344615E066
:101360002146284603F08CFE04F048F94FF0000AAD
:1013700007E04FF0D840A0F880900AF101001FFA72
:1013800080FA01988245F4DB601C84B24445E7DDB5
:10139000BDE8FC8F34F2012000B5A1B00020209000
:1013A00001217A2004F0DAFD0121084604F0F6FD5F
:1013B0004FF400401E9001208DF87C0000208DF835
:1013C0007E0002208DF87D0001208DF87F001EA98F
:1013D000FE48FFF7B0FC4CF233701E9002208DF8EF
:1013E0007C0000208DF87E0003208DF87D00012018
:1013F0008DF87F001EA9F648FFF79DFC4FF6807020
:101400001E9002208DF87C0000208DF87E000320C5
:101410008DF87D0001208DF87F001EA9ED48FFF7B3
:101420008AFC4FF480501E9002208DF87C00002032
:101430008DF87E0003208DF87D0001208DF87F005F
:101440001EA9E548FFF777FC4FF480501E9002205C
:101450008DF87C0000208DF87E0003208DF87D0043
:1014600001208DF87F001EA9DC48FFF764FC0C22E8
:101470000021D748FFF7A7FC0C220121D448FFF731
:10148000A2FC0C220421D248FFF79DFC0C2205216E
:10149000CF48FFF798FC0C220821CD48FFF793FCBA
:1014A0000C220921CA48FFF78EFC0C220A21C848E9
:1014B000FFF789FC0C220E21C548FFF784FC0C22A3
:1014C0000F21C348FFF77FFC0C220721C148FFF71B
:1014D0007AFC0C220821BF48FFF775FC0C22092179
:1014E000BC48FFF770FC0C220A21BA48FFF76BFCDE
:1014F0000C220B21B748FFF766FC0C221146B548B9
:10150000FFF761FC0C220D21B248FFF75CFC0C22B6
:101510000E21B048FFF757FC0C220F21AD48FFF712
:1015200052FC0C221146AC48FFF74DFC0C22114630
:10153000AA48FFF748FC0F200890002009903C20A3
:101540000A9000200B900C900D900E9009200190B5
:10155000002002900820039000200490059006903F
:10156000079006200F9000201090119010201290EC
:101570000020139015901490169017904FF48050FF
:101580001890002019904FF480401A9000201B9072
:1015900008A81C9001A81D900FA8FFF759FB012176
:1015A0000620FFF73BFB322005F0C8F9012100209F
:1015B00004F02EF8322005F0C1F9002003F0AEFB54
:1015C0008749888008468088FF280ADB084680888B
:1015D0004FF6FF71884204D081488088B0F5134FE0
:1015E0007ED1D32003F0FEFF03F08EFB7C49888080
:1015F00003F08AFB7A49888003F086FB784988806B
:10160000084680884FF6FF7101EA002074498880FF
:1016100003F07AFB7249898808437149888008463B
:10162000808849F2413188425AD0BF2003F0DAFF66
:1016300003F06AFB6A49888003F066FB684988808A
:1016400003F062FB6649888003F05EFB6449888092
:10165000084680884FF6FF7101EA002060498880C3
:1016600003F052FB5E49898808435D49888008463B
:10167000808846F6040188427AD0D42003F0B2FF75
:1016800003F042FB5649888003F03EFB54498880B2
:1016900003F03AFB52498880084680884FF6FF7174
:1016A00001EA00204E49888003F02EFB4C498988CE
:1016B00008434B4988800846808845F210318842AB
:1016C00056D04FF45A4003F08DFF03F01DFB444900
:1016D00088804FF45B4003F085FF03F015FB00E0CA
:1016E00046E03F498880084680884FF6FF7101EA4E
:1016F00000203B4988804FF45C4003F073FF03F007
:1017000003FB374989880843354988800846808823
:10171000B0F5004F02D145F21050888030488088E3
:1017200045F21051884223D0A12003F05BFF03F063
:10173000EBFA2B49888003F0E7FA294988800846AC
:1017400080884FF6FF7101EA00202549888003F068
:10175000DBFA234989880843214988800846808824
:1017600045F26171884203D141F663101C498880BB
:101770001B48808849F24131884211D0184880883E
:1017800045F2103188420BD01548808845F210513F
:10179000884205D01248808841F6631188422DD1D5
:1017A0001048006820F00F004FF02041C1F81C01E4
:1017B0000846D0F81C0120F47060C1F81C010846EE
:1017C000D0F81C0140F003000EE0000000040240CD
:1017D000000C0240001002400014024000180240B9
:1017E00034F201201C0100A0C1F81C010846D0F809
:1017F0001C0140F40070C1F81C0128E0FE488088FC
:1018000046F60401884205D0FB4880884CF2055119
:1018100088421CD1F948006820F00F004FF02041A9
:10182000C1F81C010846D0F81C0120F47060C1F812
:101830001C010846D0F81C0140F00A00C1F81C0148
:101840000846D0F81C0140F44060C1F81C01EA4889
:101850008188EBA0FEF73AFDE748808849F24131E4
:1018600088427CD1CF2003F0BDFE002003F0AEFE05
:10187000C12003F0ABFE302003F0A8FEED2003F002
:10188000B1FE642003F0A2FE032003F09FFE1220AD
:1018900003F09CFE812003F099FEE82003F0A2FEF5
:1018A000852003F093FE102003F090FE7A2003F0D1
:1018B0008DFECB2003F096FE392003F087FE2C200E
:1018C00003F084FE002003F081FE342003F07EFE4E
:1018D000022003F07BFEF72003F084FE202003F0BB
:1018E00075FEEA2003F07EFE002003F06FFE00206C
:1018F00003F06CFEC02003F075FE1B2003F066FEB3
:10190000C12003F06FFE012003F060FEC52003F04C
:1019100069FE302003F05AFE302003F057FEC72046
:1019200003F060FEB72003F051FE362003F05AFEAC
:10193000482003F04BFE3A2003F054FE552003F0FC
:1019400045FEB12003F04EFE002003F03FFE1A20BA
:1019500003F03CFEB62003F045FE0A2000E099E0CB
:1019600003F034FEA22003F031FEF22003F03AFE31
:10197000002003F02BFE262003F034FE012003F0AC
:1019800025FEE02003F02EFE0F2003F01FFE2A208C
:1019900003F01CFE282003F019FE082003F016FEB9
:1019A0000E2003F013FE082003F010FE542003F075
:1019B0000DFEA92003F00AFE432003F007FE0A20D3
:1019C00003F004FE0F2003F001FE002003F0FEFDF3
:1019D000002003F0FBFD002003F0F8FD002003F0E1
:1019E000F5FDE12003F0FEFD002003F0EFFD1520E2
:1019F00003F0ECFD172003F0E9FD072003F0E6FDFE
:101A0000112003F0E3FD062003F0E0FD2B2003F09E
:101A1000DDFD562003F0DAFD3C2003F0D7FD052064
:101A200003F0D4FD102003F0D1FD0F2003F0CEFD14
:101A30003F2003F0CBFD3F2003F0C8FD0F2003F053
:101A4000C5FD2B2003F0CEFD002003F0BFFD0020DC
:101A500003F0BCFD012003F0B9FD3F2003F0B6FD0B
:101A60002A2003F0BFFD002003F0B0FD002003F0AA
:101A7000ADFD002003F0AAFDEF2003F0A7FD11202B
:101A800003F0B0FD782004F059FF292003F0AAFDEF
:101A900003F02AB95848808846F6040188427CD170
:101AA000112003F09FFD142004F048FFD02003F024
:101AB00099FD072003F08AFD422003F087FD1D20D9
:101AC00003F084FDD12003F08DFD002003F07EFDA6
:101AD0001A2003F07BFD092003F078FDD22003F0EB
:101AE00081FD012003F072FD222003F06FFDC02074
:101AF00003F078FD102003F069FD3B2003F066FD44
:101B0000002003F063FD022003F060FD112003F0CC
:101B10005DFDC52003F066FD032003F057FDC820DE
:101B200003F060FD002003F051FD252003F04EFD81
:101B3000212003F04BFD052003F048FD002003F0B9
:101B400045FD0A2003F042FD652003F03FFD2520FE
:101B500003F03CFD772003F039FD502003F036FD03
:101B60000F2003F033FD002003F030FDF82003F0D8
:101B700039FD012003F02AFDFE2003F033FD002093
:101B800003F024FD022003F021FD202003F02AFDB4
:101B9000362003F027FD082000E039E003F016FDB1
:101BA0003A2003F01FFD552003F010FD2B2003F019
:101BB00019FD002003F00AFD002003F007FD0120BD
:101BC00003F004FD3F2003F001FD2A2003F00AFD8D
:101BD000002003F0FBFC002003F0F8FC012003F0E0
:101BE000F5FCDF2003F0F2FC782004F0A7FE2920AA
:101BF00003F0F8FC4CE7000034F201201C0100A0C7
:101C0000204C43442049443A25780D0A0000000046
:101C1000FE48808845F21031884240F07C87ED20F4
:101C200003F0E0FC012003F0D1FCFE2003F0CEFC29
:101C3000EE2003F0D7FCDE2003F0C8FC212003F0E7
:101C4000C5FCF12003F0CEFC012003F0BFFCDF2037
:101C500003F0C8FC102003F0B9FCC42003F0C2FC60
:101C60008F2003F0B3FCC62003F0BCFC002003F07F
:101C7000ADFCE22003F0AAFCE22003F0A7FCE22086
:101C800003F0A4FCBF2003F0ADFCAA2003F09EFCEF
:101C9000B02003F0A7FC0D2003F098FC002003F017
:101CA00095FC0D2003F092FC002003F08FFC112026
:101CB00003F08CFC002003F089FC192003F086FC63
:101CC000002003F083FC212003F080FC002003F0BF
:101CD0007DFC2D2003F07AFC002003F077FC3D20F2
:101CE00003F074FC002003F071FC5D2003F06EFC37
:101CF000002003F06BFC5D2003F068FC002003F083
:101D000065FCB12003F06EFC802003F05FFC002036
:101D100003F05CFC8B2003F059FC002003F056FC20
:101D2000962003F053FC002003F050FCB22003F097
:101D300059FC002003F04AFC002003F047FC02207D
:101D400003F044FC002003F041FC032003F03EFCC0
:101D5000002003F03BFCB32003F044FC002003F020
:101D600035FC002003F032FC002003F02FFC0020A3
:101D700003F02CFC002003F029FC002003F026FCDB
:101D8000002003F023FC002003F020FC002003F0DF
:101D90001DFC002003F01AFC002003F017FC0020BB
:101DA00003F014FC002003F011FC002003F00EFCF3
:101DB000002003F00BFC002003F008FC002003F0DF
:101DC00005FC002003F002FC002003F0FFFB0020D4
:101DD00003F0FCFB002003F0F9FB002003F0F6FB0E
:101DE000002003F0F3FB002003F0F0FBB42003F02D
:101DF000F9FB8B2003F0EAFB002003F0E7FB9620C1
:101E000003F0E4FB002003F0E1FBA12003F0DEFB84
:101E1000002003F0DBFBB52003F0E4FB022003F01D
:101E2000D5FB002003F0D2FB032003F0CFFB002002
:101E300003F0CCFB042003F0C9FB002003F0C6FB39
:101E4000B62003F0CFFB002003F0C0FB002003F01E
:101E5000BDFBB72003F0C6FB002003F0B7FB00205A
:101E600003F0B4FB3F2003F0B1FB002003F0AEFB16
:101E70005E2003F0ABFB002003F0A8FB642003F01E
:101E8000A5FB002003F0A2FB8C2003F09FFB0020A9
:101E900003F09CFBAC2003F099FB002003F096FBC1
:101EA000DC2003F093FB002003F090FB702003F094
:101EB0008DFB002003F08AFB902003F087FB0020BD
:101EC00003F084FBEB2003F081FB002003F07EFB9A
:101ED000DC2003F07BFB002003F078FBB82003F04C
:101EE00081FB002003F072FB002003F06FFB002059
:101EF00003F06CFB002003F069FB002003F066FB9D
:101F0000002003F063FB002003F060FB002003F0DF
:101F10005DFBBA2003F066FB242003F057FB002092
:101F200003F054FB002003F051FB002003F04EFBB4
:101F3000C12003F057FB202003F048FB002003F0F2
:101F400045FB542003F042FB002003F03FFBFF2041
:101F500003F03CFB002003F039FBC22003F042FBFE
:101F60000A2003F033FB002003F030FB042003F0D1
:101F70002DFB002003F02AFBC32003F033FB3C20A1
:101F800003F024FB002003F021FB3A2003F01EFBAA
:101F9000002003F01BFB392003F018FB002003F0A6
:101FA00015FB372003F012FB002003F00FFB3C2051
:101FB00003F00CFB002003F009FB362003F006FBC6
:101FC000002003F003FB322003F000FB002003F0AD
:101FD000FDFA2F2003F0FAFA002003F0F7FA2C2084
:101FE00003F0F4FA002003F0F1FA292003F0EEFAEE
:101FF000002003F0EBFA262003F0E8FA002003F0BB
:10200000E5FA242003F0E2FA002001E034F2012096
:1020100003F0DCFA242003F0D9FA002003F0D6FA0A
:10202000232003F0D3FA002003F0D0FA3C2003F081
:10203000CDFA002003F0CAFA362003F0C7FA0020D8
:1020400003F0C4FA322003F0C1FA002003F0BEFA14
:102050002F2003F0BBFA002003F0B8FA2C2003F085
:10206000B5FA002003F0B2FA292003F0AFFA0020FD
:1020700003F0ACFA262003F0A9FA002003F0A6FA38
:10208000242003F0A3FA002003F0A0FA242003F098
:102090009DFA002003F09AFA232003F097FA00201B
:1020A00003F094FAC42003F09DFA622003F08EFA44
:1020B000002003F08BFA052003F088FA002003F0DB
:1020C00085FA842003F082FA002003F07FFAF020E2
:1020D00003F07CFA002003F079FA182003F076FA76
:1020E000002003F073FAA42003F070FA002003F03C
:1020F0006DFA182003F06AFA002003F067FA502006
:1021000003F064FA002003F061FA0C2003F05EFA99
:10211000002003F05BFA172003F058FA002003F0C8
:1021200055FA952003F052FA002003F04FFAF320FD
:1021300003F04CFA002003F049FAE62003F046FAD7
:10214000002003F043FAC52003F04CFA322003F0DC
:102150003DFA002003F03AFA442003F037FA002059
:1021600003F034FA652003F031FA002003F02EFA70
:10217000762003F02BFA002003F028FA882003F0E1
:1021800025FA002003F022FAC62003F02BFA2020C3
:1021900003F01CFA002003F019FA172003F016FAD6
:1021A000002003F013FA012003F010FA002003F0DE
:1021B0000DFAC72003F016FA002003F007FA0020FA
:1021C00003F004FA002003F001FA002003F0FEF906
:1021D000C82003F007FA002003F0F8F9002003F00C
:1021E000F5F9002003F0F2F9002003F0EFF9C9201F
:1021F00003F0F8F9002003F0E9F9002003F0E6F914
:10220000002003F0E3F9002003F0E0F9002003F0E0
:10221000DDF9002003F0DAF9002003F0D7F90020FF
:1022200003F0D4F9002003F0D1F9002003F0CEF937
:10223000002003F0CBF9002003F0C8F9002003F0E0
:10224000C5F9002003F0C2F9002003F0BFF9002017
:1022500003F0BCF9E02003F0C5F9162003F0B6F94D
:10226000002003F0B3F91C2003F0B0F9002003F0C4
:10227000ADF9212003F0AAF9002003F0A7F93620D8
:1022800003F0A4F9002003F0A1F9462003F09EF921
:10229000002003F09BF9522003F098F9002003F08E
:1022A00095F9642003F092F9002003F08FF97A2069
:1022B00003F08CF9002003F089F98B2003F086F9F4
:1022C000002003F083F9992003F080F9002003F047
:1022D0007DF9A82003F07AF9002003F077F9B920FE
:1022E00003F074F9002003F071F9C42003F06EF9D3
:1022F000002003F06BF9CA2003F068F9002003F016
:1023000065F9D22003F062F9002003F05FF9D920CB
:1023100003F05CF9002003F059F9E02003F056F9CE
:10232000002003F053F9F32003F050F9002003F0EC
:102330004DF9E12003F056F9162003F047F900208B
:1023400003F044F91C2003F041F9002003F03EF9AA
:10235000222003F03BF9002003F038F9362003F087
:1023600035F9002003F032F9452003F02FF9002061
:1023700003F02CF9522003F029F9002003F026F98C
:10238000642003F023F9002003F020F97A2003F001
:102390001DF9002003F01AF98B2003F017F9002033
:1023A00003F014F9992003F011F9002003F00EF95D
:1023B000A82003F00BF9002003F008F9B92003F07E
:1023C00005F9002003F002F9C42003F0FFF8002013
:1023D00003F0FCF8CA2003F0F9F8002003F0F6F847
:1023E000D22003F0F3F8002003F0F0F8D82003F037
:1023F000EDF8002003F0EAF8E02003F0E7F8002011
:1024000003F0E4F8F32003F0E1F8002003F0DEF835
:10241000E22003F0E7F8052003F0D8F8002003F0ED
:10242000D5F80B2003F0D2F8002003F0CFF81B20E2
:1024300003F0CCF8002003F0C9F8342003F0C6F80C
:10244000002003F0C3F8442003F0C0F8002003F09C
:10245000BDF84F2003F0BAF8002003F0B7F8612070
:1024600003F0B4F8002003F0B1F8792003F0AEF8DF
:10247000002003F0ABF8882003F0A8F8002003F058
:10248000A5F8972003F0A2F8002003F09FF8A620FB
:1024900003F09CF8002003F099F8B72003F096F8B9
:1024A000002003F093F8C22003F090F8002003F01E
:1024B0008DF8C72003F08AF8002003F087F8D120B8
:1024C00003F084F8002003F081F8D62003F07EF8B2
:1024D000002003F07BF8DD2003F078F8002003F003
:1024E00075F8F32003F072F8002003F06FF8E32092
:1024F00003F078F8052003F069F8002003F066F88F
:102500000A2003F063F8002003F060F81C2003F0B9
:102510005DF8002003F05AF8332003F057F800204C
:1025200003F054F8442003F051F8002003F04EF873
:10253000502003F04BF8002003F048F8622003F02D
:1025400045F8002003F042F8782003F03FF800201F
:1025500003F03CF8882003F039F8002003F036F847
:10256000972003F033F8002003F030F8A62003F0A2
:102570002DF8002003F02AF8B72003F027F80020F8
:1025800003F024F8C22003F021F8002003F01EF825
:10259000C72003F01BF8002003F018F8D12003F047
:1025A00015F8002003F012F8D52003F00FF80020F2
:1025B00003F00CF8DD2003F009F8002003F006F822
:1025C000F32003F003F8002003F000F8E42003F008
:1025D00009F8012002F0FAFF002002F0F7FF0120C5
:1025E00002F0F4FF002002F0F1FF022002F0EEFF03
:1025F000002002F0EBFF2A2002F0E8FF002002F0AA
:10260000E5FF3C2002F0E2FF002002F0DFFF4B205C
:1026100002F0DCFF002002F0D9FF5D2002F0D6FFBF
:10262000002002F0D3FF742002F0D0FF002002F05F
:10263000CDFF842002F0CAFF002002F0C7FF9320E4
:1026400002F0C4FF002002F0C1FFA22002F0BEFF92
:10265000002002F0BBFFB32002F0B8FF002002F020
:10266000B5FFBE2002F0B2FF002002F0AFFFC42091
:1026700002F0ACFF002002F0A9FFCD2002F0A6FF7F
:10268000002002F0A3FFD32002F0A0FF002002F000
:102690009DFFDD2002F09AFF002002F097FFF3205B
:1026A00002F094FF002002F091FFE52002F09AFF73
:1026B000002002F08BFF002002F088FF002002F0D3
:1026C00085FF002002F082FF022002F07FFF002041
:1026D00002F07CFF292002F079FF002002F076FF53
:1026E0003C2002F073FF002002F070FF4B2002F04C
:1026F0006DFF002002F06AFF5D2002F067FF0020FE
:1027000002F064FF742002F061FF002002F05EFF1F
:10271000842002F05BFF002002F058FF932002F0BB
:1027200055FF002002F052FFA22002F04FFF0020D0
:1027300002F04CFFB32002F049FF002002F046FFF8
:10274000BE2002F043FF002002F040FFC42002F050
:102750003DFF002002F03AFFCD2002F037FF0020BD
:1027600002F034FFD32002F031FF002002F02EFFF0
:10277000DC2002F02BFF002002F028FFF32002F003
:1027800025FF002002F022FFE62002F02BFF11209F
:1027900002F01CFF002002F019FF342002F016FFA7
:1027A000002002F013FF562002F010FF002002F07C
:1027B0000DFF762002F00AFF002002F007FF7720CD
:1027C00002F004FF002002F001FF662002F0FEFE8E
:1027D000002002F0FBFE882002F0F8FE002002F04C
:1027E000F5FE992002F0F2FE002002F0EFFEBB2081
:1027F00002F0ECFE002002F0E9FE992002F0E6FE75
:10280000002002F0E3FE662002F0E0FE002002F06D
:10281000DDFE552002F0DAFE002002F0D7FE552042
:1028200002F0D4FE002002F0D1FE452002F0CEFEE0
:10283000002002F0CBFE432002F0C8FE002002F090
:10284000C5FE442002F0C2FE002002F0BFFEE720D9
:1028500002F0C8FE322002F0B9FE002002F0B6FEFF
:10286000552002F0B3FE002002F0B0FE762002F008
:10287000ADFE002002F0AAFE662002F0A7FE0020B6
:1028800002F0A4FE672002F0A1FE002002F09EFEEE
:10289000672002F09BFE002002F098FE872002F0E5
:1028A00095FE002002F092FE992002F08FFE00209B
:1028B00002F08CFEBB2002F089FE002002F086FEB2
:1028C000992002F083FE002002F080FE772002F0C3
:1028D0007DFE002002F07AFE442002F077FE002008
:1028E00002F074FE562002F071FE002002F06EFE2F
:1028F000232002F06BFE002002F068FE332002F07D
:1029000065FE002002F062FE452002F05FFE00201E
:1029100002F05CFEE82002F065FE002002F056FEA8
:10292000002002F053FE992002F050FE002002F039
:102930004DFE872002F04AFE002002F047FE88206C
:1029400002F044FE002002F041FE772002F03EFE3D
:10295000002002F03BFE662002F038FE002002F06C
:1029600035FE882002F032FE002002F02FFEAA2061
:1029700002F02CFE002002F029FEBB2002F026FE11
:10298000002002F023FE992002F020FE002002F039
:102990001DFE662002F01AFE002002F017FE5520F0
:1029A00002F014FE002002F011FE552002F00EFE8F
:1029B000002002F00BFE442002F008FE002002F08E
:1029C00005FE442002F002FE002002F0FFFD55202B
:1029D00002F0FCFD002002F0F9FDE92002F002FE09
:1029E000AA2002F0F3FD002002F0F0FD002002F02A
:1029F000EDFD002002F0EAFD002002F0F3FDAA2028
:102A000002F0E4FDCF2002F0EDFD002002F0DEFD3B
:102A1000002002F0DBFD002002F0D8FD002002F0D3
:102A2000D5FD002002F0D2FD002002F0CFFD0020F5
:102A300002F0CCFD002002F0C9FD002002F0C6FD2E
:102A4000002002F0C3FD002002F0C0FD002002F0D3
:102A5000BDFD002002F0BAFD002002F0B7FD00200D
:102A600002F0B4FD002002F0B1FD002002F0AEFD46
:102A7000F02002F0B7FD002002F0A8FD502002F087
:102A8000A5FD002002F0A2FD002002F09FFD002025
:102A900002F09CFDF32002F0A5FD002002F096FD5F
:102AA000F92002F09FFD062002F090FD102002F0B8
:102AB0008DFD292002F08AFD002002F087FD3A20DA
:102AC00002F090FD552002F081FD112002F08AFDF8
:102AD000642003F033FF292002F084FD352002F04A
:102AE00081FD002002F072FD512002F07BFDFF20ED
:102AF00002F06CFD532002F075FD2C2002F066FD03
:102B0000552002F06FFD822002F060FD2C2002F0C3
:102B100069FD02F0E9B8FE48808845F2105188420C
:102B20007ED155214FF4704002F072FDAA214FF280
:102B3000010002F06DFD52214FF2020002F068FD2B
:102B400008214FF2030002F063FD01214FF204005F
:102B500002F05EFD0D214FF4304002F059FD0D21D1
:102B60004BF2010002F054FD0D214BF2020002F085
:102B70004FFD34214FF4364002F04AFD34214BF230
:102B8000016002F045FD34214BF2026002F040FD8D
:102B90000D214FF4314002F03BFD0D214BF20110AD
:102BA00002F036FD0D214BF2021002F031FD34210E
:102BB0004FF4374002F02CFD34214BF2017002F04B
:102BC00027FD34214BF2027002F022FD00214FF468
:102BD000324002F01DFD00214BF2012002F018FDF1
:102BE00000214BF2022002F013FD24214FF4384063
:102BF00002F00EFD24214BF6010002F009FD242114
:102C00004BF6020002F004FD01214FF43F4002F0B8
:102C1000FFFC0F214FF4334002F0FAFC0F2100E0DB
:102C2000FEE34BF2013002F0F3FC0F214BF20230D5
:102C300002F0EEFC34214FF4394002F0E9FC34217B
:102C40004BF6011002F0E4FC34214BF6021002F0C6
:102C5000DFFC08214FF4354002F0DAFC08214BF28A
:102C6000015002F0D5FC08214BF2025002F0D0FCDA
:102C700003214FF4424002F0CBFC24214FF43A40B0
:102C800002F0C6FC24214BF6012002F0C1FC2421F5
:102C90004BF6022002F0BCFC00214FF43C4002F055
:102CA000B7FC78214BF6014002F0B2FC00214BF654
:102CB000024002F0ADFC00214FF43D4002F0A8FCC0
:102CC00078214BF6015002F0A3FC00214BF6025094
:102CD00002F09EFC00214FF43E4002F099FC64217A
:102CE0004BF6016002F094FC00214FF4514002F0D9
:102CF0008FFC33214DF2011002F08AFC00214DF2CD
:102D0000021002F085FC34214DF2031002F080FC29
:102D100000214DF2041002F07BFC3A214DF2051027
:102D200002F076FC00214DF2061002F071FC4A21FF
:102D30004DF2071002F06CFC00214DF2081002F079
:102D400067FC5C214DF2091002F062FC00214DF29B
:102D50000A1002F05DFC81214DF20B1002F058FCCC
:102D600000214DF20C1002F053FCA6214DF20D1083
:102D700002F04EFC00214DF20E1002F049FCE5215C
:102D80004DF20F1002F044FC01214DF2101002F040
:102D90003FFC13214DF2111002F03AFC01214DF2DB
:102DA000121002F035FC54214DF2131002F030FCE9
:102DB00001214DF2141002F02BFC82214DF215106E
:102DC00002F026FC01214DF2161002F021FCCA216E
:102DD0004DF2171002F01CFC02214DF2181002F007
:102DE00017FC00214DF2191002F012FC02214DF2E5
:102DF0001A1002F00DFC01214DF21B1002F008FC2C
:102E000002214DF21C1002F003FC34214DF21D1082
:102E100002F0FEFB02214DF21E1002F0F9FB6721C9
:102E20004DF21F1002F0F4FB02214DF2201002F0CF
:102E3000EFFB84214DF2211002F0EAFB02214DF25A
:102E4000221002F0E5FBA4214DF2231002F0E0FB7A
:102E500002214DF2241002F0DBFBB7214DF22510C8
:102E600002F0D6FB02214DF2261002F0D1FBCF2159
:102E70004DF2271002F0CCFB02214DF2281002F097
:102E8000C7FBDE214DF2291002F0C2FB02214DF2F8
:102E90002A1002F0BDFBF2214DF22B1002F0B8FB1C
:102EA00002214DF22C1002F0B3FBFE214DF22D1049
:102EB00002F0AEFB03214DF22E1002F0A9FB10210F
:102EC0004DF22F1002F0A4FB03214DF2301002F05E
:102ED0009FFB33214DF2311002F09AFB03214DF29A
:102EE000321002F095FB6D214DF2331002F090FB91
:102EF00000214FF4524002F08BFB33214DF20120B0
:102F000002F086FB00214DF2022002F081FB01E07D
:102F100034F2012034214DF2032002F079FB00212C
:102F20004DF2042002F074FB3A214DF2052002F02C
:102F30006FFB00214DF2062002F06AFB4A214DF2A0
:102F4000072002F065FB00214DF2082002F060FB33
:102F50005C214DF2092002F05BFB00214DF20A20BA
:102F600002F056FB81214DF20B2002F051FB0021B3
:102F70004DF20C2002F04CFBA6214DF20D2002F088
:102F800047FB00214DF20E2002F042FBE5214DF2FD
:102F90000F2002F03DFB01214DF2102002F038FB22
:102FA00013214DF2112002F033FB01214DF21220CA
:102FB00002F02EFB54214DF2132002F029FB0121D7
:102FC0004DF2142002F024FB82214DF2152002F074
:102FD0001FFB01214DF2162002F01AFBCA214DF20F
:102FE000172002F015FB02214DF2182002F010FB11
:102FF00000214DF2192002F00BFB02214DF21A20A4
:1030000002F006FB01214DF21B2002F001FB022120
:103010004DF21C2002F0FCFA34214DF21D2002F08A
:10302000F7FA02214DF21E2002F0F2FA67214DF26A
:103030001F2002F0EDFA02214DF2202002F0E8FA02
:1030400084214DF2212002F0E3FA02214DF22220E8
:1030500002F0DEFAA4214DF2232002F0D9FA022177
:103060004DF2242002F0D4FAB7214DF2252002F0CF
:10307000CFFA02214DF2262002F0CAFACF214DF2FA
:10308000272002F0C5FA02214DF2282002F0C0FAF2
:10309000DE214DF2292002F0BBFA02214DF22A2056
:1030A00002F0B6FAF2214DF22B2002F0B1FA022121
:1030B0004DF22C2002F0ACFAFE214DF22D2002F050
:1030C000A7FA03214DF22E2002F0A2FA10214DF2B0
:1030D0002F2002F09DFA03214DF2302002F098FAE1
:1030E00033214DF2312002F093FA03214DF23220C8
:1030F00002F08EFA6D214DF2332002F089FA0021A0
:103100004FF4534002F084FA33214DF2013002F0C3
:103110007FFA00214DF2023002F07AFA34214DF2AA
:10312000033002F075FA00214DF2043002F070FA1B
:103130003A214DF2053002F06BFA00214DF20630D3
:1031400002F066FA4A214DF2073002F061FA0021DE
:103150004DF2083002F05CFA5C214DF2093002F0C9
:1031600057FA00214DF20A3002F052FA81214DF255
:103170000B3002F04DFA00214DF20C3002F048FA0B
:10318000A6214DF20D3002F043FA00214DF20E302F
:1031900002F03EFAE5214DF20F3002F039FA01213A
:1031A0004DF2103002F034FA13214DF2113002F0DA
:1031B0002FFA01214DF2123002F02AFA54214DF279
:1031C000133002F025FA01214DF2143002F020FAFA
:1031D00082214DF2153002F01BFA01214DF216301A
:1031E00002F016FACA214DF2173002F011FA02214C
:1031F0004DF2183002F00CFA00214DF2193002F0B5
:1032000007FA02214DF21A3002F002FA01214DF2C2
:103210001B3002F0FDF902214DF21C3002F0F8F9EA
:1032200034214DF21D3002F0F3F902214DF21E302F
:1032300002F0EEF967214DF21F3002F0E9F90221A8
:103240004DF2203002F0E4F984214DF2213002F0F9
:10325000DFF902214DF2223002F0DAF9A4214DF219
:10326000233002F0D5F902214DF2243002F0D0F9DA
:10327000B7214DF2253002F0CBF902214DF2263074
:1032800002F0C6F9CF214DF2273002F0C1F9022138
:103290004DF2283002F0BCF9DE214DF2293002F067
:1032A000B7F902214DF22A3002F0B2F9F2214DF2C3
:1032B0002B3002F0ADF902214DF22C3002F0A8F9CA
:1032C000FE214DF22D3002F0A3F903214DF22E30F4
:1032D00002F09EF910214DF22F3002F099F90321EE
:1032E0004DF2303002F094F933214DF2313002F0DA
:1032F0008FF903214DF2323002F08AF96D214DF23F
:10330000333002F085F900214FF4544002F080F987
:1033100033214DF2014002F07BF900214DF20240D1
:1033200002F076F934214DF2034002F071F90021E8
:103330004DF2044002F06CF93A214DF2054002F0E2
:1033400067F900214DF2064002F062F94A214DF280
:10335000074002F05DF900214DF2084002F058F9F3
:103360005C214DF2094002F053F900214DF20A4070
:1033700002F04EF981214DF20B4002F049F9002193
:103380004DF20C4002F044F9A6214DF20D4002F03E
:103390003FF900214DF20E4002F03AF9E5214DF2DD
:1033A0000F4002F035F901214DF2104002F030F9E2
:1033B00013214DF2114002F02BF901214DF2124080
:1033C00002F026F954214DF2134002F021F90121B7
:1033D0004DF2144002F01CF982214DF2154002F02A
:1033E00017F901214DF2164002F012F9CA214DF2EF
:1033F000174002F00DF902214DF2184002F008F9D1
:1034000000214DF2194002F003F902214DF21A4059
:1034100002F0FEF801214DF21B4002F0F9F800E045
:1034200004E302214DF21C4002F0F2F834214DF287
:103430001D4002F0EDF802214DF21E4002F0E8F8C6
:1034400067214DF21F4002F0E3F802214DF22040C7
:1034500002F0DEF884214DF2214002F0D9F8022179
:103460004DF2224002F0D4F8A4214DF2234002F0A4
:10347000CFF802214DF2244002F0CAF8B7214DF2F4
:10348000254002F0C5F802214DF2264002F0C0F8B6
:10349000CF214DF2274002F0BBF802214DF2284027
:1034A00002F0B6F8DE214DF2294002F0B1F8022117
:1034B0004DF22A4002F0ACF8F2214DF22B4002F01E
:1034C000A7F802214DF22C4002F0A2F8FE214DF2A5
:1034D0002D4002F09DF803214DF22E4002F098F8A5
:1034E00010214DF22F4002F093F803214DF23040AD
:1034F00002F08EF833214DF2314002F089F80321B9
:103500004DF2324002F084F86D214DF2334002F06A
:103510007FF800214FF4554002F07AF833214DF244
:10352000015002F075F800214DF2025002F070F8DF
:1035300034214DF2035002F06BF800214DF204509B
:1035400002F066F83A214DF2055002F061F80021D0
:103550004DF2065002F05CF84A214DF2075002F09D
:1035600057F800214DF2085002F052F85C214DF25C
:10357000095002F04DF800214DF20A5002F048F8CF
:1035800081214DF20B5002F043F800214DF20C5016
:1035900002F03EF8A6214DF20D5002F039F800215C
:1035A0004DF20E5002F034F8E5214DF20F5002F0CA
:1035B0002FF801214DF2105002F02AF813214DF29C
:1035C000115002F025F801214DF2125002F020F8BE
:1035D00054214DF2135002F01BF801214DF214500A
:1035E00002F016F882214DF2155002F011F8012177
:1035F0004DF2165002F00CF8CA214DF2175002F0AD
:1036000007F802214DF2185002F002F800214DF2A5
:10361000195001F0FDFF02214DF21A5001F0F8FFA0
:1036200001214DF21B5001F0F3FF02214DF21C501D
:1036300001F0EEFF34214DF21D5001F0E9FF0221AF
:103640004DF21E5001F0E4FF67214DF21F5001F0D2
:10365000DFFF02214DF2205001F0DAFF84214DF20C
:10366000215001F0D5FF02214DF2225001F0D0FF90
:10367000A4214DF2235001F0CBFF02214DF2245042
:1036800001F0C6FFB7214DF2255001F0C1FF022124
:103690004DF2265001F0BCFFCF214DF2275001F032
:1036A000B7FF02214DF2285001F0B2FFDE214DF2AA
:1036B000295001F0ADFF02214DF22A5001F0A8FF80
:1036C000F2214DF22B5001F0A3FF02214DF22C50BC
:1036D00001F09EFFFE214DF22D5001F099FF0321D4
:1036E0004DF22E5001F094FF10214DF22F5001F0B9
:1036F0008FFF03214DF2305001F08AFF33214DF24C
:10370000315001F085FF03214DF2325001F080FF6E
:103710006D214DF2335001F07BFF00214FF45640F4
:1037200001F076FF33214DF2016001F071FF0021BD
:103730004DF2026001F06CFF34214DF2036001F0A4
:1037400067FF00214DF2046001F062FF3A214DF263
:10375000056001F05DFF00214DF2066001F058FFA9
:103760004A214DF2076001F053FF00214DF208603D
:1037700001F04EFF5C214DF2096001F049FF00218C
:103780004DF20A6001F044FF81214DF20B6001F01F
:103790003FFF00214DF20C6001F03AFFA6214DF2EF
:1037A0000D6001F035FF00214DF20E6001F030FF99
:1037B000E5214DF20F6001F02BFF01214DF2106069
:1037C00001F026FF13214DF2116001F021FF0121CC
:1037D0004DF2126001F01CFF54214DF2136001F014
:1037E00017FF01214DF2146001F012FF82214DF20A
:1037F000156001F00DFF01214DF2166001F008FF88
:10380000CA214DF2176001F003FF02214DF218604A
:1038100001F0FEFE00214DF2196001F0F9FE0221D7
:103820004DF21A6001F0F4FE01214DF21B6001F02F
:10383000EFFE02214DF21C6001F0EAFE34214DF250
:103840001D6001F0E5FE02214DF21E6001F0E0FE78
:1038500067214DF21F6001F0DBFE02214DF2206076
:1038600001F0D6FE84214DF2216001F0D1FE02214B
:103870004DF2226001F0CCFEA4214DF2236001F054
:10388000C7FE02214DF2246001F0C2FEB7214DF2C5
:10389000256001F0BDFE02214DF2266001F0B8FE68
:1038A000CF214DF2276001F0B3FE02214DF22860D6
:1038B00001F0AEFEDE214DF2296001F0A9FE0221E9
:1038C0004DF22A6001F0A4FEF2214DF22B6001F0CE
:1038D0009FFE02214DF22C6001F09AFEFE214DF276
:1038E0002D6001F095FE03214DF22E6001F090FE57
:1038F00010214DF22F6001F08BFE03214DF230605C
:1039000001F086FE33214DF2316001F081FE03218A
:103910004DF2326001F07CFE6D214DF2336001F01A
:1039200077FE55214FF4704001F072FEAA214FF24C
:10393000010001F06DFE52214FF2020001F068FE1D
:1039400008214FF2030001F063FE00214FF2040052
:1039500001F05EFECC214FF4314001F059FE002110
:103960004BF2011001F054FE05214FF4364001F0F6
:103970004FFE70214FF4374001F04AFE70214BF2A8
:10398000017001F045FE01214FF4384001F040FE86
:1039900003214BF6010001F03BFE03214BF6020030
:1039A00001F036FE03214BF6030001F031FE022147
:1039B0004FF43C4001F02CFE00214BF6014001F099
:1039C00027FE00214BF6024001F022FED0214FF4E9
:1039D000494001F01DFE02214CF6011001F018FED5
:1039E00050214CF6021001F013FE50214CF603104A
:1039F00001F00EFE50214CF6041001F009FE0021EA
:103A00004FF4545001F004FE55214FF4685001F07A
:103A1000FFFD4FF4885001F0E5FD782002F0AAFF89
:103A20004FF4245001F0DEFD01F05EB9FE488088BD
:103A300049F2253188427DD147F6F001E52001F0B9
:103A4000E7FD4FF48071012001F0E2FD4FF4E061E9
:103A5000022001F0DDFD41F23001032001F0D8FD2C
:103A60000021042001F0D4FD40F20221082001F0E1
:103A7000CFFD0021092001F0CBFD00210A2001F03B
:103A8000C7FD00210C2001F0C3FD00210D2001F035
:103A9000BFFD00210F2001F0BBFD0021102001F02F
:103AA000B7FD0721112001F0B3FD0021122001F024
:103AB000AFFD0021132001F0ABFD0021072001F034
:103AC000A7FD41F29061102001F0A2FD40F22721F4
:103AD000112001F09DFD9D21122001F099FD4FF470
:103AE000C851132001F094FD2521292001F090FDFB
:103AF0000D212B2001F08CFD0721302001F088FDE5
:103B000040F20331312001F083FD0321322001F026
:103B10007FFD40F20621352001F07AFD0821362094
:103B200001F076FD40F20641372001F071FD4FF4BF
:103B3000417100E058E0382001F06AFD072139208A
:103B400001F066FD40F202613C2001F061FD0821B8
:103B50003D2001F05DFD0021502001F059FDEF21D5
:103B6000512001F055FD0021522001F051FD40F29D
:103B70003F11532001F04CFD4FF42741602001F02C
:103B800047FD0121612001F043FD00216A2001F081
:103B90003FFD0021802001F03BFD0021812001F04C
:103BA00037FD0021822001F033FD0021832001F048
:103BB0002FFD0021842001F02BFD0021852001F044
:103BC00027FD1021902001F023FD4FF4C0619220C9
:103BD00001F01EFD40F23311072001F019FD2221F2
:103BE000002001F015FD1FE78F48808849F2283139
:103BF00088427DD141F28F01EC2001F009FD41F2B4
:103C00003421EF2001F004FD4FF48071012001F018
:103C1000FFFC4FF4E061022001F0FAFC41F23001B8
:103C2000032001F0F5FC0021042001F0F1FC40F23A
:103C30000221082001F0ECFC0021092001F0E8FC41
:103C400000210A2001F0E4FC01210C2001F0E0FC3D
:103C500000210D2001F0DCFC00210F2001F0D8FC38
:103C60000021102001F0D4FC0721112001F0D0FC2C
:103C70000021122001F0CCFC0021132001F0C8FC2F
:103C80000121072001F0C4FC322002F057FE41F26E
:103C90009041102001F0BCFC40F22721112001F0DE
:103CA000B7FC322002F04AFE8A21122001F0B0FC5B
:103CB000322002F043FE4FF4D051132001F0A8FC53
:103CC0000621292001F0A4FC0D212B2001F0A0FCED
:103CD000322002F033FE0021202001F099FC002167
:103CE000212001F095FC322002F028FE002100E0A6
:103CF00075E0302001F08CFC40F20461312001F0CD
:103D000087FC40F20531322001F082FC0021352091
:103D100001F07EFC40F60941362001F079FC4FF4B9
:103D20000171372001F074FC40F20131382001F0BC
:103D30006FFC40F20771392001F06AFC00213C2041
:103D400001F066FC40F60A213D2001F061FC3220C2
:103D500002F0F4FD0021502001F05AFCEF21512027
:103D600001F056FC0021522001F052FC40F23F11BC
:103D7000532001F04DFC4FF42741602001F048FC36
:103D80000121612001F044FC00216A2001F040FC87
:103D90000021802001F03CFC0021812001F038FC52
:103DA0000021822001F034FC0021832001F030FC4E
:103DB0000021842001F02CFC0021852001F028FC4A
:103DC0001021902001F024FC4FF4C061922001F0FA
:103DD0001FFC40F23311072001F01AFC24E61248C0
:103DE000808849F2203188427ED10021084601F0C6
:103DF0000FFC4FF48071012001F00AFC4FF4E061E8
:103E0000022001F005FC41F23001032001F000FC2A
:103E10000021042001F0FCFB40F20221082001F007
:103E2000F7FB0021092001E034F2012001F0F0FB52
:103E300000210A2001F0ECFB01210C2001F0E8FB3D
:103E400000210D2001F0E4FB00210F2001F0E0FB38
:103E5000322002F073FD40F20111072001F0D8FB7F
:103E6000322002F06BFD4FF48651102001F0D0FBA0
:103E70000721112001F0CCFB4FF48871122001F0D2
:103E8000C7FB4FF43061132001F0C2FB0021292051
:103E900001F0BEFB44F210012B2001F0B9FB002120
:103EA000502001F0B5FBEF21512001F0B1FB0021C2
:103EB000522001F0ADFB40F23F11532001F0A8FB6E
:103EC0004FF41C51602001F0A3FB0121612001F09F
:103ED0009FFB00216A2001F09BFB0021802001F064
:103EE00097FB0021812000E030E001F091FB0021F0
:103EF000822001F08DFB0021832001F089FB00214D
:103F0000842001F085FB0021852001F081FB102138
:103F1000902001F07DFB0021922001F079FB01212E
:103F2000932001F075FB4FF48871952001F070FB30
:103F30000021972001F06CFB0021982001F068FB24
:103F400040F27311072001F063FB6DE5FE488088A5
:103F500049F2313188427DD141F21401E72001F06C
:103F600057FB4FF48071012001F052FB4FF40071B8
:103F7000022001F04DFB41F23801032001F048FB23
:103F800040F20221082001F043FB0021092001F04A
:103F90003FFB00210A2001F03BFB00210C2001F037
:103FA00037FB00210D2001F033FB00210F2001F031
:103FB0002FFB0021102001F02BFB0721112001F025
:103FC00027FB0021122001F023FB0021132001F028
:103FD0001FFBC82002F0B2FC41F29061102001F0FA
:103FE00017FB40F22721112001F012FB322002F0D2
:103FF000A5FC0C21122001F00BFB322002F09EFCEC
:104000004FF40061132001F003FB1121292001F07E
:10401000FFFA0B212B2001F0FBFA322002F08EFC7C
:104020000021202001F0F4FA40F23F11212001F09C
:10403000EFFA0021302001F0EBFA4FF483713120C8
:1040400001F0E6FA0021322001F0E2FA4FF40171AA
:10405000352000E064E001F0DBFA41F20A6136202D
:1040600001F0D6FA40F20771372001F0D1FA4FF48F
:104070008371382001F0CCFA40F20771392001F049
:10408000C7FA40F202413C2001F0C2FA40F60F416B
:104090003D2001F0BDFA0021502001F0B9FAEF21D6
:1040A000512001F0B5FA0021522001F0B1FA40F29E
:1040B0003F11532001F0ACFA4FF41C51602001F085
:1040C000A7FA0121612001F0A3FA00216A2001F082
:1040D0009FFA0021802001F09BFA0021812001F04D
:1040E00097FA0021822001F093FA0021832001F049
:1040F0008FFA0021842001F08BFA0021852001F045
:1041000087FA1021902001F083FA4FF4C0619220C9
:1041100001F07EFA40F23311072001F079FA83E4CE
:104120008948808845F2084188427DD14FF48071EA
:10413000012001F06DFA4FF4E061022001F068FA0D
:1041400041F23001032001F063FA0021042001F064
:104150005FFA40F20721082001F05AFA00210920F5
:1041600001F056FA00210A2001F052FA00210C2039
:1041700001F04EFA00210D2001F04AFA00210F2033
:1041800001F046FA142002F0D9FB41F2B061102090
:1041900001F03EFA0121112001F03AFA0121172025
:1041A00001F036FA4FF49C71122001F031FA4FF40D
:1041B0000061132001F02CFA0921292001F028FACE
:1041C00009212A2001F024FA0021A42001F020FA7C
:1041D0000021502001F01CFAEF21512001F018FAC3
:1041E0000021522001F014FA40F23F11532001F057
:1041F0000FFA4FF41C51602001F00AFA01216120EE
:1042000001F006FA00216A2001F002FA0021802064
:1042100001F0FEF90021812001F0FAF9002182204D
:1042200001F0F6F9002100E024E0832001F0F0F92C
:104230000021842001F0ECF90021852001F0E8F94B
:104240001321902001F0E4F90021922001F0E0F91F
:104250000321932001F0DCF94FF48871952001F0DF
:10426000D7F940F27311072001F0D2F9322002F0A1
:1042700065FBB8E43448808841F2055188427DD11D
:104280000021072001F0C4F9322002F057FB4FF45F
:104290008E71122001F0BCF90121A42001F0B8F9BF
:1042A0000F21082001F0B4F908210A2001F0B0F92B
:1042B00008210D2001F0ACF940F20771302001F027
:1042C000A7F90721312001F0A3F940F20361322060
:1042D00001F09EF94FF4E061332001F099F940F2CA
:1042E0000221342001F094F90221352001F090F9E7
:1042F00041F60F71362001F08BF940F2077137203B
:1043000001F086F90021382001F082F900213920DE
:1043100001F07EF940F207713A2001F079F90021AD
:104320003B2001F075F907213C2001F071F90021D3
:104330003D2001F06DF9322002F000FB0121072041
:1043400001F066F9012101E034F20120172001F0AB
:104350005FF9322002F0F2FA4FF4BD51102001F063
:1043600057F940F21721112001F052F94FF48F71E3
:10437000122001F04DF94FF4706100E098E0132035
:1043800001F046F900212A2001F042F90A212920F2
:1043900001F03EF94FF49F71122001F039F900212C
:1043A000502001F035F9EF21512001F031F90021C1
:1043B000522001F02DF940F23F11532001F028F96D
:1043C0004FF41C51602001F023F90121612001F01C
:1043D0001FF900216A2001F01BF90021802001F063
:1043E00017F90021812001F013F90021822001F04A
:1043F0000FF90021832001F00BF90021842001F046
:1044000007F90021852001F003F91321902001F024
:10441000FFF84FF44071922001F0FAF80521932043
:1044200001F0F6F80021952001F0F2F80021972024
:1044300001F0EEF80021982001F0EAF84FF48071C5
:10444000012001F0E5F84FF4E061022001F0E0F80E
:1044500041F23801032001F0DBF80021042001F0D3
:10446000D7F800210C2001F0D3F800210F2001F033
:10447000CFF80021202001F0CBF80021212001F00D
:10448000C7F82121072001F0C3F8142002F056FAE2
:104490006121072001F0BCF8142002F04FFA40F22D
:1044A0007311072001F0B4F8142002F047FA95E4E4
:1044B000FE4880884BF2055188427CD10021084695
:1044C00001F0A6F80021084601F0A2F800210846F4
:1044D00001F09EF80021084601F09AF80121A4207D
:1044E00001F096F8142002F029FA4FF41C516020D4
:1044F00001F08EF840F20221082001F089F84FF413
:104500000571302001F084F843F21571312001F07B
:104510007FF840F20461322001F07AF840F616612B
:10452000332001F075F842F21121342001F070F8C7
:104530004FF4A851352001F06BF848F207513620AE
:1045400001F066F841F20741372001F061F841F2CD
:104550000341382001F05CF82021392001F058F89F
:104560001A21902001F054F80021102001F050F899
:104570000721112001F04CF80021122001F048F829
:104580000021132001F044F8142002F0D7F94FF471
:10459000E661102001F03CF840F23711112001F0E3
:1045A00037F8142002F0CAF94FF4DC71122001F040
:1045B0002FF8142000E085E002F0C0F94FF470619C
:1045C000132001F025F880212A2001F021F848214C
:1045D000292001F01DF8142002F0B0F94FF4807189
:1045E000012001F015F84FF4E061022001F010F80D
:1045F00041F23801032001F00BF840F202210820BB
:1046000001F006F800210A2001F002F800210C2038
:1046100000F0FEFF00210D2000F0FAFF30210E20F7
:1046200000F0F6FF0021502000F0F2FFEF215120B2
:1046300000F0EEFF0021522000F0EAFF40F23F11AF
:10464000532000F0E5FF4FF41C51602000F0E0FF24
:104650000121612000F0DCFF00216A2000F0D8FF7A
:104660001121902000F0D4FF4FF4C061922000F09F
:10467000CFFF40F20241932000F0CAFF02219420B4
:1046800000F0C6FF142002F059F90121072000F0C4
:10469000BFFF142002F052F96121072000F0B8FF9B
:1046A00040F27311072000F0B3FF0021202000F03A
:1046B000AFFF0021212000F0ABFF2221002000F0FD
:1046C000A7FF11E3794880884CF2055188427CD1DC
:1046D0000021084600F09CFF0021084600F098FFEA
:1046E000142002F02BF90021084600F091FF002170
:1046F000084600F08DFF0021084600F089FF0021E8
:10470000084600F085FF0121A42000F081FF14205D
:1047100002F014F94FF41C51602000F079FF40F6CC
:104720000601082000F074FF40F20371302000F011
:104730006FFF0121312000F06BFF0421322000F0D7
:1047400067FF4FF48171332000F062FF4FF4407136
:10475000342000F05DFF40F20311352000F058FFD7
:104760001F21362000F054FF40F20371372000F083
:104770004FFF0121382000F04BFF0421392000F0C9
:1047800047FF1521902000F043FF4FF48261102075
:1047900000F03EFF40F24721112000F039FF4FF4B6
:1047A000DE71122000F034FF4FF46061132000F03E
:1047B0002FFF782002F0C2F84FF48071012000F042
:1047C00027FF4FF40071022000E052E000F020FFCC
:1047D00041F23001032000F01BFF08210A2000F005
:1047E00017FF00210C2000F013FF20210E2000F005
:1047F0000FFF00210F2000F00BFF0021202000F010
:1048000007FF0021212000F003FF3D212A2000F0B6
:10481000FFFE142002F092F82D21292000F0F8FE6E
:104820000021502000F0F4FE4DF2EF01512000F085
:10483000EFFE0021522000F0EBFE40F23F1153202A
:1048400000F0E6FE0021612000F0E2FE00216A2077
:1048500000F0DEFE4FF44071922000F0D9FE0521F9
:10486000932000F0D5FE4FF48071072000F0D0FEB9
:104870003AE20E48808844F2315188427ED10121CB
:10488000002000F0C5FE0A2002F058F841F228612D
:10489000102000F0BDFE0E21122000F0B9FE40F6FF
:1048A0003921132000F0B4FE0A2001E034F2012087
:1048B00002F044F84021112000F0AAFE50211520FA
:1048C00000F0A6FE0A2002F039F81E21122000F0A6
:1048D0009FFE0A2002F032F84FF4B151102000F090
:1048E00097FE42F63921132000F092FE0A2002F0D2
:1048F00025F84FF48071012000F08AFE4FF44071DA
:10490000022000F085FE41F23801032000F080FE15
:1049100040F20221082000F07BFE08210A2000F06E
:1049200077FE0021302000F073FE40F2024131207A
:1049300000F06EFE4FF48371322000F069FE40F209
:104940000351332000F064FE4FF48271342000F0F4
:104950005FFE40F20131352000F05AFE40F207714F
:10496000362000F055FE40F20531372000F050FEB1
:104970004FF40271382000F04BFE00E03EE040F6BC
:104980000B71392000F044FE0221412000F040FE6E
:104990004FF41C51602000F03BFE0121612000F02B
:1049A00037FE4FF40471902000F032FE4FF4857111
:1049B000922000F02DFE0421932000F029FE4FF4F8
:1049C0008071A02000F024FE0121072000F020FECD
:1049D0002121072000F01CFE2321072000F018FEF3
:1049E0003321072000F014FE40F23311072000F0BD
:1049F0000FFE0021A02000F00BFE75E1C04880886A
:104A000044F2355188427CD13021152000F000FE5F
:104A100010219A2000F0FCFD2021112000F0F8FD6B
:104A200043F22841102000F0F3FD0221122000F093
:104A3000EFFD41F23801132000F0EAFD282001F0DB
:104A40007DFF1221084600F0E3FD282001F076FFEB
:104A500043F22041102000F0DBFD43F23801132027
:104A600000F0D6FD462001F069FF0021302000F063
:104A7000CFFD40F20241312000F0CAFD40F2073183
:104A8000322000F0C5FD4FF44171332000F0C0FD2D
:104A90000421342000F0BCFD40F20141352000F03B
:104AA000B7FD40F20771362000F0B2FD40F205314B
:104AB000372000F0ADFD4FF4C261382000F0A8FDB2
:104AC0004FF4C261392000F0A3FD4FF48071012042
:104AD00000F09EFD4FF44071022000F099FD41F27C
:104AE0003001032000F094FD40F60801082000F09A
:104AF0008FFD08210A2000F08BFD4FF41C5160202F
:104B000000E033E000F084FD0121612000F080FD31
:104B10004FF49F71902000F07BFD4FF48071922044
:104B200000F076FD4FF48071932000F071FD4FF49A
:104B30004051A02000F06CFD1021A32000F068FD82
:104B40000121072000F064FD2121072000F060FD15
:104B50002321072000F05CFD3321072000F058FDE1
:104B600040F23311072000F053FDBDE06448808817
:104B700041F663118842F8D1E22000F033FD1D2098
:104B800000F024FD022000F021FD042000F01EFDB5
:104B9000642001F0EFFEE02000F024FD012000F091
:104BA00015FD0A2001F0CAFEE02000F01BFD0320E5
:104BB00000F00CFD0C2001F0C1FE012000F012FD00
:104BC0000A2001F0BBFEE62000F00CFD2F2000F0D3
:104BD000FDFCFF2000F0FAFCFF2000F0F7FCB02005
:104BE00000F000FD202000F0F1FC002000F0EEFCC1
:104BF000032000F0EBFC40F21F3000F0E7FC012046
:104C000000F0E4FC40F2DF1000F0E0FC002000F0D7
:104C1000DDFCB42000F0E6FC042000F0D7FC40F2FC
:104C20001F4000F0D3FC002000F0D0FC2E2000F04C
:104C3000CDFC002000F0CAFC002000F0C7FC0020E2
:104C400000F0C4FC002000F0C1FCB62000F0CAFC5B
:104C5000022000F0BBFC4FF4037000F0B7FC002012
:104C600000F0B4FC172000F0B1FC152000F0AEFC01
:104C7000002000F0ABFC002000F0A8FCF02000F0C9
:104C8000B1FC032000F0A2FC292000F0ABFCD020F6
:104C900000F0A8FC002000F099FCBE2000F0A2FC6F
:104CA000052000F093FCFE2000F090FC012000F0B5
:104CB0008DFC002000F08AFC002000F087FC002022
:104CC00000F084FCB82000F08DFC032000F07EFC96
:104CD000012000F07BFCBA2000F084FC012000F0F1
:104CE00075FC642000F026F80020FCF759F901203B
:104CF000044908604FF6FF70FCF71CF921B000BDB5
:104D000034F20120BC82404208B50348008800907C
:104D1000BDF8000008BD00008000006C10B504461E
:104D2000204600F05FFC052001F024FEFFF7ECFFB9
:104D300010BD000070B52DED048B0446BE2000F0C0
:104D400051FC052000F042FC204603F016FC41EC2B
:104D5000190B9FED0E0B53EC102B03F021FC41ECD3
:104D6000180B03F0DDFB85B2284600F02FFC012074
:104D700000F02CFCFF2000F029FC002000F026FCB5
:104D8000002000F023FCBDEC048B70BD66666666F7
:104D900066660440F0B5054600240027B7488079D0
:104DA00001280BD1B548808846F60401884205D019
:104DB000B248808841F66311884208D1AF488079B3
:104DC000F0B9AE48808841F66311884218D1082DA9
:104DD00015D2DFE805F00406080A0C0E10120625AD
:104DE0000DE007250BE0042509E0052507E0012576
:104DF00005E0002503E0032501E0022500BF00BF18
:104E00009E48808849F24131884217D09B4880886B
:104E100046F60401884211D09848808845F2103146
:104E200088420BD09548808845F21051884205D0C1
:104E30009248808841F6631188427DD1082D1CD2AA
:104E4000DFE805F00406090C0F12151800BF14E086
:104E500044F0800411E044F040040EE044F0C0044B
:104E60000BE044F0200408E044F0600405E044F066
:104E7000A00402E044F0E00400BF00BF7F48808847
:104E800045F21051884202D14FF4585700E03627BE
:104E90007A48808845F2103188420DD07748808862
:104EA00045F21051884207D07448808841F663115A
:104EB000884201D044F008047048808846F6040116
:104EC000884201D144F002042146384600F0A0FB9C
:104ED0006A48808841F6631188421DD004F02000A2
:104EE00068B16648008865494988884214DA634891
:104EF0000688408861490880084646800CE05F4883
:104F000000885E494988884206DD5C4806884088FA
:104F10005A490880084646805848808845F2105112
:104F2000884254D15549488900F05CFB002000F0CC
:104F30004DFB5249498900E078E0491C88B200F0F5
:104F400051FB002000F042FB4C494989891C88B282
:104F500000F048FB49490988491EC1F30F2000F0C1
:104F600035FB46494989C91C88B200F03BFB4349DF
:104F70000978491EC8B200F029FB4049888900F031
:104F800031FB002000F022FB3C498989491C88B292
:104F900000F028FB002000F019FB38498989891CA2
:104FA00088B200F01FFB35494988491EC1F30F2024
:104FB00000F00CFB31498989C91C88B200F012FB52
:104FC0002E498978491EC8B200F000FB55E02B49F4
:104FD000488900F007FB002000F0F8FA002000F0FC
:104FE000F5FA26490988491EC1F30F2000F0EEFAB0
:104FF00022490978491EC8B200F0E8FA1F49888999
:1050000000F0F0FA002000F0E1FA002000F0DEFAF3
:105010001A494988491EC1F30F2000F0D7FA1749F1
:105020008978491EC8B200F0D1FA26E0082D1CD2BA
:10503000DFE805F004070A0D0F12151844F03004DC
:1050400013E044F0100410E044F020040DE000BF31
:105050000BE044F0380408E044F0280405E044F094
:10506000180402E044F0080400BF00BF032744F422
:1050700080542146384600F0CBFAF0BD34F20120CE
:1050800030B504460D466748808849F24131884270
:1050900005D06448808845F21031884214D16149B6
:1050A000488900F09FFA201200F090FAE0B200F078
:1050B0008DFA5C49888900F095FA281200F086FA8A
:1050C000E8B200F083FAABE05648808846F6040167
:1050D00088421DD153488079012804D15148008865
:1050E000401E001B84B24F49488900F07BFA201211
:1050F00000F06CFAE0B200F069FA4A49888900F0E1
:1051000071FA281200F062FAE8B200F05FFA87E064
:105110004448808841F66311884247D141488079EC
:10512000A8B940480088401E001B84B23D49488908
:1051300000F058FA002000F049FA002000F046FA8A
:10514000201200F043FAE0B200F040FA16E03549D0
:10515000488900F047FA201200F038FAE0B200F077
:1051600035FA30490988491EC1F30F2000F02EFAA4
:105170002C490978491EC8B200F028FA29498889C3
:1051800000F030FA281200F021FAE8B200F01EFA1E
:1051900024494988491EC1F30F2000F017FA21491C
:1051A0008978491EC8B200F011FA39E01D4880889C
:1051B00045F21051884220D11A49488900F012FA6C
:1051C000201200F003FA17494989491C88B200F0FF
:1051D00009FAE0B200F0FAF91249888900F002FAFF
:1051E000281200F0F3F90F498989491C88B200F0B0
:1051F000F9F9E8B200F0EAF912E00A4880790128EA
:1052000004D108480088401E001B84B20549488923
:10521000214600F0FDF903498889294600F0F8F994
:1052200030BD000034F201202DE9F04F86B0044675
:105230000D469046994604EB0800401E86B205EBE9
:105240000900401E87B27C48808849F2413188427B
:1052500015D07948808845F2103188420FD07648C1
:10526000808846F60401884209D073488079012875
:1052700026D17148808841F66311884220D16E4959
:10528000488900F0AFF9201200F0A0F9E0B200F078
:105290009DF9301200F09AF9F0B200F097F96649E2
:1052A000888900F09FF9281200F090F9E8B200F028
:1052B0008DF9381200F08AF9F8B200F087F9B8E0F9
:1052C0005D48808841F66311884234D15A4800888D
:1052D000A0EB0800001B84B205EB0900401E1FFA7A
:1052E00080F95549488900F07DF9201200F06EF9E7
:1052F000E0B200F06BF904EB0801491EC1F30F2086
:1053000000F064F904EB0801491EC8B200F05EF930
:105310004949888900F066F9281200F057F9E8B287
:1053200000F054F94FEA292000F050F909F0FF008D
:1053300000F04CF97DE04048808845F210518842E9
:1053400044D13D49488900F04DF9201200F03EF962
:1053500039494989491C88B200F044F9E0B200F0AB
:1053600035F935494989891C88B200F03BF930127A
:1053700000F02CF930494989C91C88B200F032F993
:10538000F0B200F023F92C49888900F02BF928129B
:1053900000F01CF928498989491C88B200F022F9DB
:1053A000E8B200F013F924498989891C88B200F019
:1053B00019F9381200F00AF91F498989C91C88B205
:1053C00000F010F9F8B200F001F932E01A488079E3
:1053D00001280ED1AA46BB4617480088801B401EF4
:1053E00080B2019014480088001B401E80B20090DB
:1053F00003E0A246B3460195009750200590512046
:10540000049052200390532002905146059800F0DA
:10541000FFF85946049800F0FBF80199039800F052
:10542000F7F80099029800F0F3F829462046FFF7B4
:1054300027FE06B0BDE8F08F34F201202DE9F84FC9
:1054400080460E4617461C46B3462046E31704EB3B
:105450005373DB1021464FEAE47C04EB5C7C4FEA9B
:10546000EC0CA4EBCC0CBCF1000F02D04FF0010C03
:1054700001E04FF0000C6344224604EBD27C4FEA7B
:105480006C0C03FB0CF3DBB20093A7F12000C7B256
:10549000002556E00C2C07D107EB47002B4901EB08
:1054A000800010F8059013E0102C05D1284800EB7F
:1054B000071010F805900BE0182C07D107EBC70078
:1054C000244901EB800010F8059001E0BDE8F88F59
:1054D0004FF0000A2FE009F0800030B11E4802882A
:1054E00031464046FBF73CFE07E00A9828B91B48C6
:1054F000028831464046FBF733FE4FEA49604FEAE7
:105500001069701C86B216484088B04200DCDDE7A6
:10551000A6EB0B00A0420AD15E4608F101001FFA7B
:1055200080F80F480088404500DCCFE706E00AF12C
:10553000010000F0FF0ABAF1080FCCDB00BF681CC5
:10554000C5B200988542A5DB00BFBFE7D68700083B
:105550004A8C00083A920008580000205A000020A7
:1055600034F201202DE9F84704460D46904699464D
:10557000DDE9096704F0FF0A08EB04001FFA80F870
:1055800009EB05001FFA80F916E0444502DB54469A
:10559000A81985B24D4500DB14E0002000903A7850
:1055A000334629462046FFF749FF304606EBD071C7
:1055B00004EB61018CB27F1C38787E2802DC3878DD
:1055C0002028E2DA00BFBDE8F887000001B5BDF889
:1055D00000000090BDF800000149088008BD0000EF
:1055E0008000006C01B5BDF800000090BDF800001F
:1055F0000149088008BD00007E00006C0248008957
:10560000024908807047000034F201207E00006CDF
:10561000034A10804FF0D842A2F880107047000073
:105620007E00006C1CB50121202000F097FC4FF497
:10563000C060009001208DF8040000208DF8060065
:1056400003208DF8050001208DF807006946044805
:10565000FBF771FB4FF4C0610148FBF7E0FB1CBD99
:105660000014024000BFFEE70EB50121172000F034
:1056700075FC0121084600F081FC502001900220B9
:105680008DF8080000208DF80A0003208DF809002D
:1056900001208DF80B0001A93A48FBF74CFBC02014
:1056A000019001A93848FBF746FB4FF43C6001909C
:1056B00001A93648FBF73FFB6020019001A934485F
:1056C000FBF739FB0D2204212E48FBF77CFB0D2252
:1056D00006212C48FBF777FB0D2207212A48FBF710
:1056E00072FB0D2206212948FBF76DFB0D220721D5
:1056F0002648FBF768FB0D2208212448FBF763FBD3
:105700000D2209212148FBF75EFB0D220B211F48CA
:10571000FBF759FB0D2206211B48FBF754FB0D221A
:1057200005211B48FBF74FFB0D2206211848FBF70C
:105730004AFBFBF7C1F800201649088048818881A0
:10574000088120208880002048808020C88008466A
:10575000FBF7FEF801210846FBF7E8F80120FBF70C
:1057600065F84E208DF8000002208DF8010003201E
:105770008DF8020001208DF80300684600F00EF855
:105780000EBD00000000024000040240000802407C
:105790000010024042F201207047000070B5002165
:1057A00000230F22C4781CB3174C246804F4E0646F
:1057B000C4F5E064C4F30721C1F10404E3B20A4173
:1057C00044789C40E1B28478144021430C07210EB8
:1057D0000E4C05786155047804F01F050124AC4097
:1057E00005786D11AD0005F1E025C5F8004109E02F
:1057F000047804F01F050124AC40054D06787611AD
:1058000045F8264070BD00000CED00E000E400E02B
:1058100080E100E002490143024A11607047000044
:105820000000FA050CED00E070B50446042C03DA24
:10583000C4F10400C5B201E0201FC5B2032143F248
:10584000122000F06CFB2807010E45F2875000F093
:1058500066FB042C05DA092145F2885000F05FFB55
:1058600004E0012145F2885000F059FB132143F276
:10587000122000F054FBA32143F2122000F04FFB52
:1058800070BD000070B50546032143F2122000F000
:1058900046FB1C2145F2813000F041FB5A2145F2C4
:1058A000823000F03CFB062145F2833000F037FBEC
:1058B00000240CE005EB4502104B03EB4202115DA6
:1058C00045F28432A01800F02AFB601CC4B2062CFA
:1058D000F0DB982145F28B3000F021FB012145F2ED
:1058E0008A3000F01CFB132143F2122000F017FB5A
:1058F000A32143F2122000F012FB70BD64B4000833
:1059000070B5044600252026072C1AD2DFE804F0E3
:1059100004080C191013160014200546064610E062
:105920001820054606460CE01C200546064608E001
:105930001025242605E01825282602E01C252C2603
:1059400000BF00BF032143F2122000F0E8FA29460D
:1059500045F2855000F0E3FA314645F2865000F0FA
:10596000DEFA132143F2122000F0D9FAA32143F208
:10597000122000F0D4FA70BD10B50446022143F2A3
:10598000160000F0CCFA022143F21C0000F0C7FA26
:105990002CB1022143F2190000F0C1FA04E0002109
:1059A00043F2190000F0BBFA10BD70B500250024C9
:1059B000012143F2230000F0B2FA082143F2220051
:1059C00000F0ADFA00BF43F2230000F0EBF905460A
:1059D000601C84B2B4F57A7F01DD022070BD052021
:1059E00000F0ACFF002DEED1012143F2230000F0C6
:1059F00096FA042143F2220000F091FA002400BF3D
:105A000043F2230000F0CEF90546601C84B2B4F5E1
:105A10007A7F01DD0220E1E7052000F08FFF002DF5
:105A2000EED10020DAE7000070B54FF400458F2674
:105A300020214FF4405000F072FA002408E027487B
:105A4000015D284600F06BFA681C85B2601C84B2C8
:105A500040F6ED708442F2D3002143F2220000F0C0
:105A60005EFA002143F2230000F059FA002143F2CC
:105A7000240000F054FA002143F2250000F04FFA10
:105A8000002143F2260000F04AFA002143F22700E9
:105A900000F045FA002143F2280000F040FA7F218F
:105AA00043F2290000F03BFA00214FF4405000F08F
:105AB00036FA002400BF43F2290000F073F90646CD
:105AC000052000F03BFF601C84B2B4F57A7F01DD55
:105AD000012070BD702EEED10020FAE72AA4000844
