:020000040800F2
:10000000E0ED01208902000897020008990200082B
:100010009B0200089D0200089F02000800000000EB
:10002000000000000000000000000000A102000825
:10003000A302000800000000A5020008A7020008B3
:10004000A9020008A9020008A9020008A9020008E4
:10005000A9020008A9020008A9020008A9020008D4
:10006000A9020008A9020008A9020008A9020008C4
:10007000A9020008A9020008A9020008A9020008B4
:10008000A9020008A9020008A9020008A9020008A4
:10009000A9020008A9020008A9020008A902000894
:1000A000A9020008A9020008A9020008A902000884
:1000B000A9020008B185000865860008A9020008A9
:1000C000A9020008A9020008A9020008A902000864
:1000D000A9020008D5870008A9020008A9020008A3
:1000E000A9020008A9020008A9020008A902000844
:1000F000A9020008A9020008A9020008A902000834
:10010000A9020008716A0008A1860008A902000877
:10011000A9020008A9020008A9020008A902000813
:10012000A9020008FD0F0008A9020008A9020008A2
:10013000A9020008A9020008A9020008A9020008F3
:10014000A9020008A9020008A9020008A9020008E3
:10015000A9020008A9020008A9020008A9020008D3
:10016000A9020008A9020008A9020008A9020008C3
:10017000A9020008A9020008790D0008A9020008D8
:10018000A9020008A902000800F002F800F06DF8CA
:100190000AA090E8000C82448344AAF10107DA45E2
:1001A00001D100F062F8AFF2090EBAE80F0013F0C7
:1001B000010F18BFFB1A43F001031847D4FF0000DA
:1001C000F4FF00000A444FF0000C10F8013B13F05C
:1001D000070408BF10F8014B1D1108BF10F8015BA0
:1001E000641E05D010F8016B641E01F8016BF9D193
:1001F00013F0080F1EBF10F8014BAD1C0C1B09D1EA
:100200006D1E58BF01F801CBFAD505E014F8016B5B
:1002100001F8016B6D1EF9D59142D6D370470000ED
:100220000023002400250026103A28BF78C1FBD8FF
:10023000520728BF30C148BF0B607047642900F0E7
:10024000DB80752900F0D880782900F011816329BE
:1002500000F03F83732900F04483002070471FB5EE
:100260000CF07EFD1FBD10B510BD00F087FB1146E0
:10027000FFF7F5FF0AF0B4FB00F0A5FB03B4FFF7AE
:10028000F2FF03BC08F07FFC0B48016841F47001E9
:1002900001600A480047FEE7FEE7FEE7FEE7FEE7EB
:1002A000FEE7FEE7FEE7FEE7FEE70000044805493B
:1002B000034A054B7047000088ED00E08901000803
:1002C000E0E90120E0ED0120E0E90120704710B5F0
:1002D0004C1084EA530404D54042C1F1000138BFF8
:1002E000491E1B4204D55242C3F1000338BF5B1EB6
:1002F00000F0F7F914F0804F04D04042C1F1000142
:1003000038BF491E14F0004F04D05242C3F100031D
:1003100038BF5B1E10BD00000FB4044910B503AA1E
:10032000029800F0E3FA10BC5DF814FB1C000020FA
:100330000FB41CB5074B06AA7B446946009005988C
:1003400000F0A5FA0020694600F0B4FA1CBC5DF884
:1003500014FB00007905000070B50446856900684B
:10036000C10601D5302600E02026C00707D070BDA9
:10037000D4E9012130469047206A401C20626D1E5E
:10038000F6D570BD70B5044685690078C00707D101
:1003900070BDD4E9012120209047206A401C2062D2
:1003A0006D1EF6D570BD70B50C460546012A05D008
:1003B0002878800600D5EA69002302E0012305E0E1
:1003C0005B1C934202D2E05C0028F9D1A869E618D0
:1003D000C01AA861286A184428622846FFF7BCFFA3
:1003E00004E0D5E9012114F8010B9047B442F8D399
:1003F0002846FFF7C7FF70BD2DE9F04106460024EF
:1004000010687529314616A510D0AFF3008000287A
:1004100002DA404213A507E031688A0701D512A528
:1004200002E0490704D511A5012401E0AFF30080E3
:1004300000210A2206F1240709E0B0FBF2FCB0FB20
:10044000F2F302FB1C00303078541846491C002897
:10045000F3D123462A463046BDE8F04100F0B8B952
:10046000000000002D0000002B0000002000000014
:1004700070B504460D4621461068AFF30080218810
:10048000090502D50F4A7A4402E00E4A7A440E3238
:10049000002104F1240305E000F00F060009965D39
:1004A0005E54491C0028F7D120780023000704D5AA
:1004B000702D02D009B1022311322046BDE87040F0
:1004C00000F086B9CCF900002DE9F05F89460446BA
:1004D0004FF0000ADFF874B1FB44C0F820A02046BA
:1004E000E1688847002874D0252806D0D4E9012186
:1004F0009047206A401C2062F1E700265F462046B4
:10050000E16888472028054607DB312D05D2781998
:1005100010F8200C08B10643F1E7B00701D526F02A
:100520000406C4F81CA00027C4F818A02A2D09D07E
:10053000284608F021FB38B304EB8708303DC8F8A3
:10054000185019E059F8041B204604EB870291610A
:10055000E1688847012F054618D1E069002820DAB4
:1005600026F020061DE0D8F8180000EB800005EB0F
:1005700040003038C8F818002046E1688847054632
:1005800008F0FAFA0028EED1012F0AD02E2D08D15A
:100590002046E16888477F1C0546022F46F020066A
:1005A000C4DBA069002803DA404246F00106A061DE
:1005B000F00701D026F010066C2D0BD0682D09D065
:1005C0004C2D39D06A2D35D0742D35D07A2D33D0BD
:1005D00016E038E0E1682F4620468847B8420546D5
:1005E00009D16C2F26D04FF48060E1680643204685
:1005F0008847054604E06C2F1AD04FF480700643FC
:100600000DB3A5F14100192802D8203546F4006643
:100610004A462946204626604E46FFF70FFE80B127
:1006200001280BD0F61D26F0070000F1080956E757
:100630004020E4E78020D8E70020D6E706F104094F
:100640004DE7284652E7206ABDE8F09FA2F9000076
:10065000032A40F2308010F0030C00F0158011F8EE
:10066000013BBCF1020F624498BF11F801CB00F8C6
:10067000013B38BF11F8013BA2F1040298BF00F81A
:1006800001CB38BF00F8013B11F0030300F04081BB
:10069000083AC0F0088051F8043B083A51F804CBFE
:1006A000A0E80810F5E7121D5CBF51F8043B40F8C4
:1006B000043BAFF30080D20724BF11F8013B11F8CF
:1006C00001CB48BF11F8012B24BF00F8013B00F813
:1006D00001CB48BF00F8012B704770477047704747
:1006E000704753EA020C00F069802DE9F04B4FF09F
:1006F0000006002B1FBFB3FA83F503FA05F424FAB2
:1007000005F65E4012BF1643B2FA82F502FA05F40E
:10071000C5F120051EBF22FA05FC44EA0C04203571
:1007200056EA044C4FEA144418BF641C4FF000080A
:100730004FF00009904271EB030C39D3002919BF27
:10074000B1FA81F701FA07F6B0FA80F700FA07F676
:10075000C7F120071EBF20FA07FC46EA0C06203727
:10076000B6FBF4FCA7EB0507103F07F01F0BCBF11E
:1007700020060CFA0BFB2CFA06F644BFB346002603
:10078000202FA4BF5E464FF0000B5BEA060C08BFAB
:100790004FF0010B19EB0B09ABFB027C48EB060891
:1007A000C01B06FB02CC0BFB03CC71EB0C01C1E7B9
:1007B0000B46024641464846BDE8F08B13B54FF064
:1007C00000004FF00001AFF30080BDE81C4070470F
:1007D0002DE9F0470D4699469246044600F124085B
:1007E0000168880604D5E06921F01001216000E06D
:1007F0000120A84201DD471B00E00027A1697A190A
:1008000002EB0900081AA0612078C00602D4204635
:10081000FFF7A2FD002608E0D4E901211AF806003E
:100820009047206A401C761C20624E45F4DB2078FD
:10083000C0060AD52046FFF78FFD06E0D4E9012166
:1008400030209047206A401C2062381EA7F1010723
:10085000F4DC07E0D4E9012118F805009047206A8C
:10086000401C2062281EA5F10105F3DC2046FFF79D
:1008700089FD2078000602D50220BDE8F08701201E
:10088000FBE7000001694A1C02610878704700B567
:100890008FB0CDE901310021059105497944CDE9B9
:1008A000031011466846FFF70FFE0FB000BD0000B1
:1008B000E5FFFFFF0A6802F8010B0A60704710B5F8
:1008C000436913B1AFF3008001E0FFF76CFD012035
:1008D00010BD127800F124010A7000224A70012232
:1008E000EDE711684FF0FF32E9E70000074B70B504
:1008F0000D467B44FFF7CBFF0446284600F03AF84C
:1009000010B14FF0FF3070BD204670BD339D000028
:1009100010B5203AC0F00B80B1E81850203AA0E89A
:100920001850B1E81850A0E81850BFF4F5AF5FEACE
:10093000027C24BFB1E81850A0E8185044BF18C981
:1009400018C0BDE810405FEA827C24BF51F8043B28
:1009500040F8043B08BF7047D20728BF31F8023B7C
:1009600048BF11F8012B28BF20F8023B48BF00F810
:10097000012B7047007B00F080007047754600F047
:100980002BF8AE4605006946534620F00700854621
:1009900018B020B5FFF78AFCBDE820404FF00006F4
:1009A0004FF000074FF000084FF0000B21F0070157
:1009B000AC46ACE8C009ACE8C009ACE8C009ACE89A
:1009C000C0098D46704710B50446AFF3008020463D
:1009D000BDE81040FFF752BC0048704780E9012095
:1009E0001CB50A48006840F0200008490860022051
:1009F000032100230122CDE90010C101044800F0C9
:100A000017FD0020034908601CBD0000303802407B
:100A100000140240A082424200224FF4803105E0DF
:100A20000A48006800F0800000B103E0081EA1F150
:100A30000101F5D100BF09B90320704740F2FF5012
:100A4000024B1B1D18601046F7E70000342C0140D4
:100A5000024605E01548016801F0450000B100E0DC
:100A6000F8E700BF01F0040028B104200F4B1B1D64
:100A700018600320704701F0010020B101200B4BEA
:100A80001B1D1860F6E7094824380068904201D021
:100A90001020EFE740F2FF50044B1B1D1860034885
:100AA0002038006808231840C0B2E3E7342C014026
:100AB00010B500204FF4803205E0164B196801F0A4
:100AC000450303B103E0131EA2F10102F5D100BFFB
:100AD00012B101F004034BB103200E4B1B1D1B6828
:100AE00043F004030B4C241D236010BD01F00103EF
:100AF00043B10120074B1B1D1B6843F00103054C4C
:100B0000241D236040F2FF53024C241D236000BFCC
:100B1000EBE70000342C014005E00E48016801F0CD
:100B2000450000B100E0F8E700BF01F0040048B163
:100B30000848001D006840F00400064A121D1060BD
:100B40000320704740F2FF50024A121D106000203F
:100B5000F7E70000342C014070B503460C46002531
:100B600005E02448026802F0450000B100E0F8E723
:100B700000BF02F0040048B11E48001D006840F0AC
:100B800004001C4E361D3060032070BD02F00100D1
:100B900048B11848001D006840F00100154E361D90
:100BA00030600120F1E7134824380068984201D0F2
:100BB0001020EAE740F2FF500E4E361D30600D481F
:100BC0002038016801F4604018B9080C20802846DC
:100BD000DBE701F4005008B11320D6E701F48040B0
:100BE00008B11020D1E701F4004008B10F20CCE794
:100BF0002846CAE7342C014010B500204FF480325B
:100C000005E0134B196801F0450303B103E0131E1F
:100C1000A2F10102F5D100BF12B101F004034BB102
:100C200003200B4B1B1D1B6843F00403084C241DC1
:100C3000236010BD01F0400343B10020044B1B1D95
:100C40001B6843F04003024C241D236000BFF0E703
:100C5000342C014010B500230D4C236023461B6843
:100C600043EA4013236023461B6843EA8113236051
:100C700023461B6843EAC213236023461B6843F4E0
:100C80008043236023461B6843F00103236010BDAB
:100C9000000005502DE9F04105460C4616461F465A
:100CA000DDF818803148006840F480002F49086062
:100CB00000BF2F48006800F001000028F9D12C483F
:100CC0002038006840F474602949203908602120E8
:100CD0002749143108602748254908310860081D54
:100CE0000560001D0460081F0660002020490860A0
:100CF0000846006808600846006840F48070086094
:100D00000846006808600846006840EA88200860D5
:100D10000846006840F4805008600846006840EAD1
:100D2000473008600846006840F400300860084614
:100D3000006808600846006808600846006840F0DF
:100D4000007008607CB10846006840F480200860AC
:100D50000846006840F01000086002233922032191
:100D6000184605F04FF9BDE8F08100003038024028
:100D7000286402402800055010B50D48006900F0B5
:100D80000100A0B109F05EFD0948406940F0010092
:100D9000074948610748006808B9012000E00020C1
:100DA0000449086004480078401C0349087010BDDD
:100DB00000000550A8824242280000201CB5594876
:100DC000006840F00100574908600846006840F09C
:100DD000020008600846006840F004000860084609
:100DE000006840F010000860081D006840F0010035
:100DF000091D08600120032100230222CDE9001013
:100E00005021494800F014FB012003210023022255
:100E1000CDE90010C021454800F00AFB0120032164
:100E200000230222CDE900104FF43C61404800F05D
:100E3000FFFA0120032100230222CDE900106021E6
:100E40003C4800F0F5FA0D220421374800F0D0FAB2
:100E50000D220621344800F0CBFA0D220721334839
:100E600000F0C6FA0D220621314800F0C1FA0D2229
:100E700007212F4800F0BCFA0D2208212C4800F071
:100E8000B7FA0D2209212A4800F0B2FA0D220B21EF
:100E9000274800F0ADFA0D220621244800F0A8FAF8
:100EA0000D220521234800F0A3FA0D220621214836
:100EB00000F09EFA002020490860C8601F204861A9
:100EC00000208861C86108624862084600680860BE
:100ED0000846006808600846006808600846006820
:100EE00040F0200008600846006808600846006876
:100EF00040F0800008600846006808600846006806
:100F000008600846C06840F00100C86008460068F4
:100F100040F48040086002234E221946184605F02E
:100F200071F81CBD3038024000000240000402404D
:100F30000008024000100240000005502DE9F04179
:100F400004460D4616461F4600F040F84FF6FF7067
:100F500000F028FC3B4632462946204604F034FE89
:100F60003B4632460021042005F01EFB00210846C6
:100F700004F056FD05F012F80648006840F0010044
:100F8000044908600448006840F001000249086014
:100F9000BDE8F081286402400000055010B5002132
:100FA000084604F03DFD04F0F9FF0648006840F0F3
:100FB0000100044908600448006840F0010002494B
:100FC000086010BD28640240000005500948006810
:100FD00020F001000749086000BF0648006800F0E3
:100FE00001000028F9D10448006820F001000249FE
:100FF00008607047000005502864024010B508489A
:10100000006800F4006050B105480830006840F402
:10101000006003490831086002480068804710BD3D
:10102000006402402C0000201CB59448006840F089
:1010300078009249086091480830006840F001004B
:101040008E49083108600C220A218D4800F0D0F941
:101050000120032100230222CDE900104FF6337155
:10106000884800F0E5F90120032100230222CDE9A0
:1010700000104FF68371844800F0DAF90120032153
:1010800000230222CDE900104FF23F017F4800F01B
:10109000CFF90120032100230222CDE9001040F204
:1010A0003F41774800F0C4F90C220021754800F058
:1010B0009FF90C220121734800F09AF90C220421B7
:1010C000704800F095F90C2205216E4800F090F967
:1010D0000C2208216B4800F08BF90C220921694889
:1010E00000F086F90C220A21664800F081F90C22F2
:1010F0000B21644800F07CF90C221146614800F095
:1011000077F90C220D215F4800F072F90C220E21B4
:101110005C4800F06DF90C220F215A4800F068F984
:101120000C220021584800F063F90C220121564896
:1011300000F05EF90C220721534800F059F90C2207
:101140000821514800F054F90C2209214E4800F0C2
:101150004FF90C220A214C4800F04AF90C220B21CD
:10116000494800F045F90C221146474800F040F983
:101170000C220D21444800F03BF90C220E2142487C
:1011800000F036F90C220F213F4800F031F90C2213
:1011900000213E4800F02CF90C2201213B4800F0D0
:1011A00027F90C220221394800F022F90C220321F0
:1011B000364800F01DF90C220421344800F018F9DB
:1011C0000C220521314800F013F90C2211462F485A
:1011D00000F00EF90C220D212C4800F009F90C2228
:1011E0000E212A4800F004F90C220F21274800F0B4
:1011F000FFF80C220021224800F0FAF80C2201210D
:101200001F4800F0F5F80C2202211D4800F0F0F80C
:101210000C2203211A4800F0EBF80C220421184894
:1012200000F0E6F80C220521154800F0E1F8002056
:101230004FF020410861486115490860C8060069FF
:1012400040F48050C90608610846006940F010006B
:1012500008610846406940F40060486108464069FA
:1012600048610846406948616FF07040C1F8140158
:101270000846006940F0010008611CBD303802409A
:1012800000180240000C024000100240001402400E
:10129000140100A0FCB507460D46002600240020DE
:1012A0000090019008220121102005F0E5FB10209C
:1012B000FFF7CEFB04460CB12046FCBD3A040121E9
:1012C000372005F0D9FB3720FFF7C2FB04460CB1ED
:1012D0002046F2E7012303220821101F05F0E2FB5C
:1012E00000220121332005F0C7FB3320FFF7B0FBBC
:1012F00004460CB12046E0E70DE03C48006800F4ED
:10130000001040B139484C3000684DF82600761C7A
:10131000022E00D306E03548006840F22A610840FA
:101320000028EAD000BF3148006800F0080048B14A
:101330002E48001D006840F008002C49091D086077
:101340000420BAE72948006800F0020048B12748A5
:10135000001D006840F002002449091D08600220B9
:10136000ABE72248006800F0200048B11F48001D8C
:10137000006840F020001D49091D086006209CE718
:101380001A48006800F4007048B11848001D006851
:1013900040F400701549091D086007208DE740F2F0
:1013A000FF501249091D086000980006009901F4D9
:1013B0007F4140EA0120009901F47F0140EA1120B9
:1013C000009940EA1160686001980006019901F4F3
:1013D0007F4140EA0120019901F47F0140EA112098
:1013E000019940EA11602860204666E7342C0140EC
:1013F00030B5CC1000F1200353F824304C07E50E33
:101400000F24AC40A343CD1000F1200444F8253054
:10141000CC1000F1200353F824304C07E40E02FAFC
:1014200004F42343CD1000F1200444F8253030BDEE
:101430002DE9F0470C46DDE90867002100258C46C0
:1014400000BF60E04FF0010808FA01F504EA050C5E
:10145000AC4557D1D0F800804FEA410A4FF003095C
:1014600009FA0AF928EA0908C0F80080D0F80080D3
:101470004FEA410902FA09F948EA0908C0F8008070
:10148000012A01D0022A27D1D0F808804FEA410A68
:101490004FF0030909FA0AF928EA0908C0F8088098
:1014A000D0F808804FEA410906FA09F948EA090824
:1014B000C0F80880D0F804904FF0010808FA01F84D
:1014C00029EA0809C0F80490D0F8048003FA01F969
:1014D00048EA0908C0F80480D0F80C804FEA410AB5
:1014E0004FF0030909FA0AF928EA0908C0F80C8044
:1014F000D0F80C804FEA410907FA09F948EA0908CF
:10150000C0F80C80491C10299CD3BDE8F08700006E
:101510002DE9F05F82460F4614462046E21704EBA1
:101520005272D2102146E31704EB5373DB10A4EB85
:10153000C3030BB1012300E000231A44624302F00D
:10154000FF099AF800600AF1010082460578812EB1
:1015500005DB402D03DBFF2D01D0FF2E0DD14FF019
:10156000000B06E0002007F8010B0BF1010000F072
:10157000FF0BCB45F6DBBDE8F09F7F2D03DAA5F12D
:101580004000C5B202E0A5F14100C5B2A6F181005C
:10159000C6B2BE2010FB065000FB09F80C2C04D08C
:1015A000102C0CD0182C1ED113E01048D0F80900D4
:1015B00000EB08014A46384607F0B8F913E00B483B
:1015C000D0F8110000EB08014A46384607F0AEF9A2
:1015D00009E00648D0F8190000EB08014A463846F1
:1015E00007F0A4F900BF00BF00BFC4E75CE9012019
:1015F00072B6704762B670471CB504460020019071
:10160000009022480088020401210D2005F034FAE0
:101610001F480068009002E01D4800680090009894
:1016200000F045000028F7D0009800F0010048B114
:101630001748001D006840F001001549091D0860A9
:1016400001201CBD009800F0040048B11048001DA6
:10165000006840F004000E49091D08600320F0E70F
:101660000B48243800680D2801D01020E9E740F22B
:10167000FF500749091D086005482038006801909F
:101680000198C0F3432020700020DAE740000020DA
:10169000342C01401CB51048006840F001000E4990
:1016A00008600846006840F0100008600120002132
:1016B0000B460A46CDE900101C210848FFF7B8FE8A
:1016C000022000210B460A46CDE900100121044802
:1016D000FFF7AEFE1CBD0000303802400010024093
:1016E0000000024010B5044614B1012023490870DF
:1016F0002248007858B32248006858B12048001F9B
:10170000006838B11E480838006818B11D480068E4
:1017100001281CD10A2007F0F9FD002017490870A4
:101720001748006808B9012010BD1548001F00685F
:1017300008B90220F8E712480838006808B9032001
:10174000F2E710480068012815D10420ECE70C48A6
:10175000006801280FD10A48001F006801280AD13B
:10176000074808380068012805D10648006810B904
:101770000120024908700020D6E700002600002062
:10178000100242420002404230B5014601F01F04FF
:10179000C1F34513CA0AE50205EB43151544A8B287
:1017A00030BD000070B50446002617480588408803
:1017B00045431548808846F60401884216D11248F0
:1017C0008079012812D100200F4988712A20488190
:1017D0002B2088810021084604F022F901200A49C3
:1017E00088712B2048812A20888103E00021084647
:1017F00004F016F904F0D2FB002602E0034804804E
:10180000761CAE42FAD370BDF80200208000006C56
:1018100010B50446002C66D16C498871F020088010
:101820004FF4A07048800846808849F241318842D0
:101830000BD06648808846F60401884205D063488C
:10184000808845F2103188421AD12C205F490881E6
:101850002A2048812B2088810846808846F604018A
:10186000884205D05948808845F21031884206D117
:101870004FF4A070554908804FF4F0704880A1E003
:101880005248808845F21051884210D14FF43050B0
:101890004E4908814FF4285048814FF42C508881DC
:1018A0004FF4F07008804FF4487048808AE0474851
:1018B000808841F6631188420DD12C20434908816C
:1018C0002B2048812A2088814FF4F07008804FF443
:1018D0004870488076E022203C49088120204881D9
:1018E000212088816EE00120384988714FF4A07072
:1018F0000880F02048800846808849F241318842BB
:1019000005D03248808845F21031884207D12C201A
:101910002E4908812A2048812B2088813FE02B48CE
:10192000808846F60401884207D12C202749088187
:101930002B2048812A20888131E02448808845F284
:101940001051884210D14FF43050204908814FF493
:10195000285048814FF42C5088814FF448700880FB
:101960004FF4F07048801AE01848808841F66311FF
:1019700088420DD12C20154908812A2048812B202E
:1019800088814FF4487008804FF4F070488006E07A
:1019900022200E49088121204881202088810B487F
:1019A000808846F60401884205D00848808845F2C0
:1019B0001031884206D14FF4F070044908804FF48A
:1019C000A0704880002003F0B5FE10BDF802002092
:1019D00070B504460D4616465B48808849F2413191
:1019E000884205D05848808845F21031884214D189
:1019F0005549488904F0C6FA201204F0B7FAE0B25B
:101A000004F0B4FA5049888904F0BCFA281204F0B2
:101A1000ADFAE8B204F0AAFA8CE04B48808845F2AF
:101A20001051884220D14849488904F0ABFA20126D
:101A300004F09CFA44494989491C88B204F0A2FA8E
:101A4000E0B204F093FA4049888904F09BFA281226
:101A500004F08CFA3C498989491C88B204F092FA56
:101A6000E8B204F083FA65E03748808841F66311F4
:101A7000884228D13448807920B933480088401EF4
:101A8000001B84B23049488904F07CFA201204F02B
:101A90006DFAE0B204F06AFA201204F067FAE0B2DC
:101AA00004F064FA2849888904F06CFA281204F0DA
:101AB0005DFAE8B204F05AFA281204F057FAE8B2D4
:101AC00004F054FA36E02048808846F60401884243
:101AD0001DD11D488079012804D11B480088401E73
:101AE000001B84B21849488904F04CFA201204F013
:101AF0003DFAE0B204F03AFA1349888904F042FA58
:101B0000281204F033FAE8B204F030FA12E00E487A
:101B10008079012804D10C480088401E001B84B243
:101B200009494889214604F043FA0749888929462A
:101B300004F03EFA04480089044908804FF0D84078
:101B4000A0F8806070BD0000F80200207E00006CEC
:101B50002DE9FC4F05460E4617469846DDF82C90B9
:101B6000002001902748808846F60401884229D148
:101B700024488079012825D1AB4635462148008884
:101B8000C01B401E86B247461E480088A0EB0B00D3
:101B9000401E1FFA80F800201A4988712A204881C7
:101BA0002B20888143463A4631462846CDF800909E
:101BB000FFF7CEFF0120134988712B2048812A208E
:101BC00088811DE0781B401C80B20190344615E0EE
:101BD0002146284603F024FF04F0E0F94FF0000A04
:101BE00007E04FF0D840A0F880900AF101001FFAFA
:101BF00080FA01988245F4DB601C84B24445E7DD3D
:101C0000BDE8FC8FF80200201CB5FE48006840F0DB
:101C10007800FC4908600846006840F0020008604F
:101C2000F8480830006840F00100F64908310860C3
:101C30000120022100230246CDE90010C103F24831
:101C4000FFF7F6FB0120032100230222CDE900105B
:101C50004CF23371ED48FFF7EBFB01200321002329
:101C60000222CDE900104FF68071E948FFF7E0FB52
:101C70000120032100230222CDE900100103E548E1
:101C8000FFF7D6FB0120032100230222CDE900103B
:101C90000103E148FFF7CCFB0C220021DB48FFF7F2
:101CA000A7FB0C220121D948FFF7A2FB0C2204213B
:101CB000D648FFF79DFB0C220521D448FFF798FB7F
:101CC0000C220821D148FFF793FB0C220921CF48B1
:101CD000FFF78EFB0C220A21CC48FFF789FB0C2270
:101CE0000E21CA48FFF784FB0C220F21C748FFF7DB
:101CF0007FFB0C220721C648FFF77AFB0C22082144
:101D0000C348FFF775FB0C220921C148FFF770FBA0
:101D10000C220A21BE48FFF76BFB0C220B21BC48AA
:101D2000FFF766FB0C221146B948FFF761FB0C2256
:101D30000D21B748FFF75CFB0C220E21B448FFF7DA
:101D400057FB0C220F21B248FFF752FB0C22114621
:101D5000B048FFF74DFB0C221146AF48FFF748FB98
:101D600000204FF020418861C861AC4908604FF005
:101D70002040806940F480504FF02041886108463F
:101D8000806940F4804088610846806940F0100016
:101D900088610846C069C8610846C06940F00F0004
:101DA000C8610846C06940F47050C8619B4800682B
:101DB000C1F81C010846D0F81C0140F00900C1F828
:101DC0001C010846D0F81C0140F40060C1F81C0159
:101DD0000846806940F001008861322007F096FAD9
:101DE0000121002004F0E4F8322007F08FFA0020EF
:101DF00003F064FC8A49888008468088FF280ADB53
:101E0000084680884FF6FF71884204D08448808855
:101E1000B0F5134F7ED1D32004F0B4F803F08EFB5D
:101E20007F49888003F08AFB7D49888003F086FB28
:101E30007B498880084680884FF6FF7101EA0020C0
:101E40007749888003F07AFB75498988084374498B
:101E500088800846808849F2413188425AD0BF20A4
:101E600004F090F803F06AFB6D49888003F066FB8C
:101E70006B49888003F062FB6949888003F05EFB50
:101E800067498880084680884FF6FF7101EA002084
:101E90006349888003F052FB61498988084360499F
:101EA00088800846808846F6040188427AD0D4208B
:101EB00004F068F803F042FB5949888003F03EFBC8
:101EC0005749888003F03AFB554988800846808846
:101ED0004FF6FF7101EA00205149888003F02EFB84
:101EE0004F49898808434E4988800846808845F2D2
:101EF0001031884256D04FF45A4004F043F803F0B2
:101F00001DFB474988804FF45B4004F03BF803F029
:101F100015FB00E046E042498880084680884FF67D
:101F2000FF7101EA00203E4988804FF45C4004F0D4
:101F300029F803F003FB3A49898808433849888027
:101F400008468088B0F5004F02D145F210508880D5
:101F50003348808845F21051884223D0A12004F0F4
:101F600011F803F0EBFA2E49888003F0E7FA2C49C8
:101F70008880084680884FF6FF7101EA00202849D2
:101F8000888003F0DBFA2649898808432449888041
:101F90000846808845F26171884203D141F663109A
:101FA0001F4988801E48808849F24131884211D0FB
:101FB0001B48808845F2103188420BD01848808831
:101FC00045F21051884205D01548808841F66311CA
:101FD00088422ED11148006820F00F004FF02041B8
:101FE000C1F81C010846D0F81C0120F47060C1F84B
:101FF0001C010846D0F81C0140F00300C1F81C0188
:1020000008460FE03038024000040240000C024055
:102010000010024000140240001802401C0100A001
:10202000F8020020D0F81C0140F40070C1F81C0137
:1020300028E0FE48808846F60401884205D0FB4827
:1020400080884CF2055188421CD1F948006820F084
:102050000F004FF02041C1F81C010846D0F81C01C8
:1020600020F47060C1F81C010846D0F81C0140F053
:102070000A00C1F81C010846D0F81C0140F4406079
:10208000C1F81C01E9488188EAA0FEF745F9E74854
:10209000808849F2413188427ED1CF2003F072FF1F
:1020A000002003F063FFC12003F060FF302003F045
:1020B0005DFFED2003F066FF642003F057FF03206F
:1020C00003F054FF122003F051FF812003F04EFF74
:1020D000E82003F057FF852003F048FF102003F0AD
:1020E00045FF7A2003F042FFCB2003F04BFF39205D
:1020F00003F03CFF2C2003F039FF002003F036FFF3
:10210000342003F033FF022003F030FFF72003F008
:1021100039FF202003F02AFFEA2003F033FF0020DC
:1021200003F024FF002003F021FFC02003F02AFF6A
:102130001B2003F01BFFC12003F024FF012003F04C
:1021400015FFC52003F01EFF302003F00FFF3020E5
:1021500003F00CFFC72003F015FFB72003F006FFC4
:10216000362003F00FFF482003F000FF3A2003F071
:1021700009FF552003F0FAFEB12003F003FF002011
:1021800003F0F4FE1A2003F0F1FEB62003F0FAFE8D
:102190000A2003F0EBFE00E097E0A22003F0E6FE49
:1021A000F22003F0EFFE002003F0E0FE262003F013
:1021B000E9FE012003F0DAFEE02003F0E3FE0F2049
:1021C00003F0D4FE2A2003F0D1FE282003F0CEFE37
:1021D000082003F0CBFE0E2003F0C8FE082003F019
:1021E000C5FE542003F0C2FEA92003F0BFFE432029
:1021F00003F0BCFE0A2003F0B9FE0F2003F0B6FE88
:10220000002003F0B3FE002003F0B0FE002003F036
:10221000ADFE002003F0AAFEE12003F0B3FE002093
:1022200003F0A4FE152003F0A1FE172003F09EFE8C
:10223000072003F09BFE112003F098FE062003F018
:1022400095FE2B2003F092FE562003F08FFE3C20DB
:1022500003F08CFE052003F089FE102003F086FEBB
:102260000F2003F083FE3F2003F080FE3F2003F0A9
:102270007DFE0F2003F07AFE2B2003F083FE00206A
:1022800003F074FE002003F071FE012003F06EFEE7
:102290003F2003F06BFE2A2003F074FE002003F0C1
:1022A00065FE002003F062FE002003F05FFEEF20D9
:1022B00003F05CFE112003F065FE782007F026F89D
:1022C000292003F05FFE03F029B95848808846F6BC
:1022D000040188427ED1112003F054FE142007F03F
:1022E00015F8D02003F04EFE072003F03FFE4220F9
:1022F00003F03CFE1D2003F039FED12003F042FE26
:10230000002003F033FE1A2003F030FE092003F012
:102310002DFED22003F036FE012003F027FE2220FE
:1023200003F024FEC02003F02DFE102003F01EFE5B
:102330003B2003F01BFE002003F018FE022003F0F8
:1023400015FE112003F012FEC52003F01BFE032032
:1023500003F00CFEC82003F015FE002003F006FE7B
:10236000252003F003FE212003F000FE052003F0EA
:10237000FDFD002003F0FAFD0A2003F0F7FD6520C3
:1023800003F0F4FD252003F0F1FD772003F0EEFDCE
:10239000502003F0EBFD0F2003F0E8FD002003F0D8
:1023A000E5FDF82003F0EEFD012003F0DFFDFE2047
:1023B00003F0E8FD002003F0D9FD022003F0D6FD74
:1023C000202003F0DFFD362003F0DCFD082003F0C1
:1023D000CDFD00E036E03A2003F0D4FD552003F0B7
:1023E000C5FD2B2003F0CEFD002003F0BFFD002033
:1023F00003F0BCFD012003F0B9FD3F2003F0B6FD62
:102400002A2003F0BFFD002003F0B0FD002003F000
:10241000ADFD012003F0AAFDDF2003F0A7FD782029
:1024200006F074FF292003F0ADFD4CE7F802002010
:102430001C0100A0204C43442049443A25780D0A51
:1024400000000000FE48808845F21031884240F0CC
:102450007C87ED2003F096FD012003F087FDFE2030
:1024600003F084FDEE2003F08DFDDE2003F07EFD01
:10247000212003F07BFDF12003F084FD012003F017
:1024800075FDDF2003F07EFD102003F06FFDC420FA
:1024900003F078FD8F2003F069FDC62003F072FD84
:1024A000002003F063FDE22003F060FDE22003F072
:1024B0005DFDE22003F05AFDBF2003F063FDAA207A
:1024C00003F054FDB02003F05DFD0D2003F04EFD40
:1024D000002003F04BFD0D2003F048FD002003F029
:1024E00045FD112003F042FD002003F03FFD1920BF
:1024F00003F03CFD002003F039FD212003F036FD00
:10250000002003F033FD2D2003F030FD002003F008
:102510002DFD3D2003F02AFD002003F027FD5D2066
:1025200003F024FD002003F021FD5D2003F01EFDDB
:10253000002003F01BFDB12003F024FD802003F0F8
:1025400015FD002003F012FD8B2003F00FFD00208D
:1025500003F00CFD962003F009FD002003F006FDBA
:10256000B22003F00FFD002003F000FD002003F077
:10257000FDFC022003F0FAFC002003F0F7FC03202E
:1025800003F0F4FC002003F0F1FCB32003F0FAFCAC
:10259000002003F0EBFC002003F0E8FC002003F037
:1025A000E5FC002003F0E2FC002003F0DFFC00204B
:1025B00003F0DCFC002003F0D9FC002003F0D6FC83
:1025C000002003F0D3FC002003F0D0FC002003F037
:1025D000CDFC002003F0CAFC002003F0C7FC002063
:1025E00003F0C4FC002003F0C1FC002003F0BEFC9B
:1025F000002003F0BBFC002003F0B8FC002003F037
:10260000B5FC002003F0B2FC002003F0AFFC00207A
:1026100003F0ACFC002003F0A9FC002003F0A6FCB2
:10262000B42003F0AFFC8B2003F0A0FC002003F0EB
:102630009DFC962003F09AFC002003F097FCA1205B
:1026400003F094FC002003F091FCB52003F09AFC09
:10265000022003F08BFC002003F088FC032003F031
:1026600085FC002003F082FC042003F07FFC0020A6
:1026700003F07CFCB62003F085FC002003F076FC20
:10268000002003F073FCB72003F07CFC002003F073
:102690006DFC002003F06AFC3F2003F067FC002083
:1026A00003F064FC5E2003F061FC002003F05EFC9C
:1026B000642003F05BFC002003F058FC8C2003F046
:1026C00055FC002003F052FCAC2003F04FFC00202E
:1026D00003F04CFCDC2003F049FC002003F046FC36
:1026E000702003F043FC002003F040FC902003F036
:1026F0003DFC002003F03AFCEB2003F037FC002007
:1027000003F034FCDC2003F031FC002003F02EFC4D
:10271000B82003F037FC002003F028FC002003F071
:1027200025FC002003F022FC002003F01FFC002009
:1027300003F01CFC002003F019FC002003F016FC41
:10274000002003F013FCBA2003F01CFC242003F04B
:102750000DFC002003F00AFC002003F007FC002021
:1027600003F004FCC12003F00DFC202003F0FEFB6D
:10277000002003F0FBFB542003F0F8FB002003F0E3
:10278000F5FBFF2003F0F2FB002003F0EFFBC2207B
:1027900003F0F8FB0A2003F0E9FB002003F0E6FB5E
:1027A000042003F0E3FB002003F0E0FBC32003F070
:1027B000E9FB3C2003F0DAFB002003F0D7FB3A20D2
:1027C00003F0D4FB002003F0D1FB392003F0CEFB53
:1027D000002003F0CBFB372003F0C8FB002003F000
:1027E000C5FB3C2003F0C2FB002003F0BFFB3620FA
:1027F00003F0BCFB002003F0B9FB322003F0B6FB72
:10280000002003F0B3FB2F2003F0B0FB002003F007
:10281000ADFB2C2003F0AAFB002003F0A7FB29202E
:1028200003F0A4FB002003F0A1FB262003F09EFB95
:10283000002003F09BFB242003F098FB002001E024
:10284000F802002003F092FB242003F08FFB00200D
:1028500003F08CFB232003F089FB002003F086FBB0
:102860003C2003F083FB002003F080FB362003F0C4
:102870007DFB002003F07AFB322003F077FB002081
:1028800003F074FB2F2003F071FB002003F06EFBBC
:102890002C2003F06BFB002003F068FB292003F0E1
:1028A00065FB002003F062FB262003F05FFB0020A5
:1028B00003F05CFB242003F059FB002003F056FBDF
:1028C000242003F053FB002003F050FB232003F0EF
:1028D0004DFB002003F04AFBC42003F053FB6220B1
:1028E00003F044FB002003F041FB052003F03EFB16
:1028F000002003F03BFB842003F038FB002003F0B2
:1029000035FBF02003F032FB002003F02FFB1820F2
:1029100003F02CFB002003F029FBA42003F026FB8E
:10292000002003F023FB182003F020FB002003F01D
:102930001DFB502003F01AFB002003F017FB0C20B6
:1029400003F014FB002003F011FB172003F00EFB33
:10295000002003F00BFB952003F008FB002003F0A0
:1029600005FBF32003F002FB002003F0FFFAE62052
:1029700003F0FCFA002003F0F9FAC52003F002FB93
:10298000322003F0F3FA002003F0F0FA442003F0C1
:10299000EDFA002003F0EAFA652003F0E7FA0020E0
:1029A00003F0E4FA762003F0E1FA002003F0DEFA07
:1029B000882003F0DBFA002003F0D8FAC62003F0E9
:1029C000E1FA202003F0D2FA002003F0CFFA17201A
:1029D00003F0CCFA002003F0C9FA012003F0C6FA94
:1029E000002003F0C3FAC72003F0CCFA002003F064
:1029F000BDFA002003F0BAFA002003F0B7FA002075
:102A000003F0B4FAC82003F0BDFA002003F0AEFAD8
:102A1000002003F0ABFA002003F0A8FA002003F036
:102A2000A5FAC92003F0AEFA002003F09FFA0020B7
:102A300003F09CFA002003F099FA002003F096FAC4
:102A4000002003F093FA002003F090FA002003F036
:102A50008DFA002003F08AFA002003F087FA0020A4
:102A600003F084FA002003F081FA002003F07EFADC
:102A7000002003F07BFA002003F078FA002003F036
:102A800075FA002003F072FAE02003F07BFA1620BA
:102A900003F06CFA002003F069FA1C2003F066FAD8
:102AA000002003F063FA212003F060FA002003F015
:102AB0005DFA362003F05AFA002003F057FA462058
:102AC00003F054FA002003F051FA522003F04EFABA
:102AD000002003F04BFA642003F048FA002003F0D2
:102AE00045FA7A2003F042FA002003F03FFA8B20E7
:102AF00003F03CFA002003F039FA992003F036FA8B
:102B0000002003F033FAA82003F030FA002003F08D
:102B10002DFAB92003F02AFA002003F027FAC42086
:102B200003F024FA002003F021FACA2003F01EFA71
:102B3000002003F01BFAD22003F018FA002003F063
:102B400015FAD92003F012FA002003F00FFAE02062
:102B500003F00CFA002003F009FAF32003F006FA60
:102B6000002003F003FAE12003F00CFA162003F032
:102B7000FDF9002003F0FAF91C2003F0F7F900201A
:102B800003F0F4F9222003F0F1F9002003F0EEF94C
:102B9000362003F0EBF9002003F0E8F9452003F0BC
:102BA000E5F9002003F0E2F9522003F0DFF90020FC
:102BB00003F0DCF9642003F0D9F9002003F0D6F922
:102BC0007A2003F0D3F9002003F0D0F98B2003F032
:102BD000CDF9002003F0CAF9992003F0C7F90020CD
:102BE00003F0C4F9A82003F0C1F9002003F0BEF9F6
:102BF000B92003F0BBF9002003F0B8F9C42003F0BA
:102C0000B5F9002003F0B2F9CA2003F0AFF90020B3
:102C100003F0ACF9D22003F0A9F9002003F0A6F9E3
:102C2000D82003F0A3F9002003F0A0F9E02003F07E
:102C30009DF9002003F09AF9F32003F097F90020A2
:102C400003F094F9E22003F09DF9052003F08EF9DA
:102C5000002003F08BF90B2003F088F9002003F02B
:102C600085F91B2003F082F9002003F07FF934205E
:102C700003F07CF9002003F079F9442003F076F9A1
:102C8000002003F073F94F2003F070F9002003F0E7
:102C90006DF9612003F06AF9002003F067F97920EB
:102CA00003F064F9002003F061F9882003F05EF975
:102CB000002003F05BF9972003F058F9002003F09F
:102CC00055F9A62003F052F9002003F04FF9B72080
:102CD00003F04CF9002003F049F9C22003F046F953
:102CE000002003F043F9C72003F040F9002003F06F
:102CF0003DF9D12003F03AF9002003F037F9D6204E
:102D000003F034F9002003F031F9DD2003F02EF94F
:102D1000002003F02BF9F32003F028F9002003F042
:102D200025F9E32003F02EF9052003F01FF9002018
:102D300003F01CF90A2003F019F9002003F016F93A
:102D40001C2003F013F9002003F010F9332003F0E6
:102D50000DF9002003F00AF9442003F007F90020E0
:102D600003F004F9502003F001F9002003F0FEF80D
:102D7000622003F0FBF8002003F0F8F8782003F05D
:102D8000F5F8002003F0F2F8882003F0EFF80020B7
:102D900003F0ECF8972003F0E9F8002003F0E6F8E0
:102DA000A62003F0E3F8002003F0E0F8B72003F0DA
:102DB000DDF8002003F0DAF8C22003F0D7F8002095
:102DC00003F0D4F8C72003F0D1F8002003F0CEF8C8
:102DD000D12003F0CBF8002003F0C8F8D52003F091
:102DE000C5F8002003F0C2F8DD2003F0BFF8002092
:102DF00003F0BCF8F32003F0B9F8002003F0B6F8B4
:102E0000E42003F0BFF8012003F0B0F8002003F045
:102E1000ADF8012003F0AAF8002003F0A7F8022083
:102E200003F0A4F8002003F0A1F82A2003F09EF894
:102E3000002003F09BF83C2003F098F8002003F0FA
:102E400095F84B2003F092F8002003F08FF85D20F6
:102E500003F08CF8002003F089F8742003F086F862
:102E6000002003F083F8842003F080F8002003F0B2
:102E70007DF8932003F07AF8002003F077F8A22081
:102E800003F074F8002003F071F8B32003F06EF83B
:102E9000002003F06BF8BE2003F068F8002003F078
:102EA00065F8C42003F062F8002003F05FF8CD203D
:102EB00003F05CF8002003F059F8D32003F056F833
:102EC000002003F053F8DD2003F050F8002003F059
:102ED0004DF8F32003F04AF8002003F047F8E5200E
:102EE00003F050F8002003F041F8002003F03EF812
:102EF000002003F03BF8002003F038F8022003F034
:102F000035F8002003F032F8292003F02FF80020D4
:102F100003F02CF83C2003F029F8002003F026F8F9
:102F20004B2003F023F8002003F020F85D2003F08D
:102F30001DF8002003F01AF8742003F017F80020A1
:102F400003F014F8842003F011F8002003F00EF8C9
:102F5000932003F00BF8002003F008F8A22003F000
:102F600005F8002003F002F8B32002F0FFFF002074
:102F700002F0FCFFBE2002F0F9FF002002F0F6FF95
:102F8000C42002F0F3FF002002F0F0FFCD2002F099
:102F9000EDFF002002F0EAFFD32002F0E7FF00205F
:102FA00002F0E4FFDC2002F0E1FF002002F0DEFF8F
:102FB000F32002F0DBFF002002F0D8FFE62002F051
:102FC000E1FF112002F0D2FF002002F0CFFF3420F9
:102FD00002F0CCFF002002F0C9FF562002F0C6FF2D
:102FE000002002F0C3FF762002F0C0FF002002F0B4
:102FF000BDFF772002F0BAFF002002F0B7FF662085
:1030000002F0B4FF002002F0B1FF882002F0AEFF12
:10301000002002F0ABFF992002F0A8FF002002F090
:10302000A5FFBB2002F0A2FF002002F09FFF992025
:1030300002F09CFF002002F099FF662002F096FF4C
:10304000002002F093FF552002F090FF002002F0D4
:103050008DFF552002F08AFF002002F087FF4520F7
:1030600002F084FF002002F081FF432002F07EFF87
:10307000002002F07BFF442002F078FF002002F0E5
:1030800075FFE72002F07EFF322002F06FFF002084
:1030900002F06CFF552002F069FF002002F066FF8D
:1030A000762002F063FF002002F060FF662002F04D
:1030B0005DFF002002F05AFF672002F057FF00205A
:1030C00002F054FF672002F051FF002002F04EFF93
:1030D000872002F04BFF002002F048FF992002F009
:1030E00045FF002002F042FFBB2002F03FFF00201E
:1030F00002F03CFF992002F039FF002002F036FF79
:10310000772002F033FF002002F030FF442002F06D
:103110002DFF002002F02AFF562002F027FF00209A
:1031200002F024FF232002F021FF002002F01EFF06
:10313000332002F01BFF002002F018FF452002F0B0
:1031400015FF002002F012FFE82002F01BFF002014
:1031500002F00CFF002002F009FF992002F006FFA8
:10316000002002F003FF872002F000FF002002F0A1
:10317000FDFE882002F0FAFE002002F0F7FE772024
:1031800002F0F4FE002002F0F1FE662002F0EEFEF6
:10319000002002F0EBFE882002F0E8FE002002F0A2
:1031A000E5FEAA2002F0E2FE002002F0DFFEBB20D6
:1031B00002F0DCFE002002F0D9FE992002F0D6FEDB
:1031C000002002F0D3FE662002F0D0FE002002F0C4
:1031D000CDFE552002F0CAFE002002F0C7FE5520A9
:1031E00002F0C4FE002002F0C1FE442002F0BEFE48
:1031F000002002F0BBFE442002F0B8FE002002F0E6
:10320000B5FE552002F0B2FE002002F0AFFEE9202C
:1032100002F0B8FEAA2002F0A9FE002002F0A6FEED
:10322000002002F0A3FE002002F0A0FE002002F029
:10323000A9FEAA2002F09AFECF2002F0A3FE0020F1
:1032400002F094FE002002F091FE002002F08EFEBB
:10325000002002F08BFE002002F088FE002002F029
:1032600085FE002002F082FE002002F07FFE00209A
:1032700002F07CFE002002F079FE002002F076FED3
:10328000002002F073FE002002F070FE002002F029
:103290006DFE002002F06AFE002002F067FE0020B2
:1032A00002F064FEF02002F06DFE002002F05EFEEF
:1032B000502002F05BFE002002F058FE002002F0D9
:1032C00055FE002002F052FEF32002F05BFE0020CB
:1032D00002F04CFEF92002F055FE062002F046FEF8
:1032E000102002F043FE292002F040FE002002F0F0
:1032F0003DFE3A2002F046FE552002F037FE112036
:1033000002F040FE642006F001F8292002F03AFEA7
:10331000352002F037FE002002F028FE512002F096
:1033200031FEFF2002F022FE532002F02BFE2C2063
:1033300002F01CFE552002F025FE822002F016FE4F
:103340002C2002F01FFE02F0E9B8FE48808845F20A
:10335000105188427ED155214FF4704002F028FE72
:10336000AA214FF2010002F023FE52214FF2020087
:1033700002F01EFE08214FF2030002F019FE0121A7
:103380004FF2040002F014FE0D214FF4304002F021
:103390000FFE0D214BF2010002F00AFE0D214BF24F
:1033A000020002F005FE34214FF4364002F000FE28
:1033B00034214BF2016002F0FBFD34214BF202603C
:1033C00002F0F6FD0D214FF4314002F0F1FD0D2128
:1033D0004BF2011002F0ECFD0D214BF2021002F055
:1033E000E7FD34214FF4374002F0E2FD34214BF287
:1033F000017002F0DDFD34214BF2027002F0D8FDC5
:1034000000214FF4324002F0D3FD00214BF20120A5
:1034100002F0CEFD00214BF2022002F0C9FD242172
:103420004FF4384002F0C4FD24214BF6010002F0B5
:10343000BFFD24214BF6020002F0BAFD01214FF43A
:103440003F4002F0B5FD0F214FF4334002F0B0FDD4
:103450000F2100E0FEE34BF2013002F0A9FD0F2145
:103460004BF2023002F0A4FD34214FF4394002F057
:103470009FFD34214BF6011002F09AFD34214BF6EA
:10348000021002F095FD08214FF4354002F090FD46
:1034900008214BF2015002F08BFD08214BF2025043
:1034A00002F086FD03214FF4424002F081FD242109
:1034B0004FF43A4002F07CFD24214BF6012002F04B
:1034C00077FD24214BF6022002F072FD00214FF41B
:1034D0003C4002F06DFD78214BF6014002F068FDA2
:1034E00000214BF6024002F063FD00214FF43D4005
:1034F00002F05EFD78214BF6015002F059FD0021EB
:103500004BF6025002F054FD00214FF43E4002F011
:103510004FFD64214BF6016002F04AFD00214FF49B
:10352000514002F045FD33214DF2011002F040FD03
:1035300000214DF2021002F03BFD34214DF2031048
:1035400002F036FD00214DF2041002F031FD3A2167
:103550004DF2051002F02CFD00214DF2061002F094
:1035600027FD4A214DF2071002F022FD00214DF205
:10357000081002F01DFD5C214DF2091002F018FD4B
:1035800000214DF20A1002F013FD81214DF20B10C3
:1035900002F00EFD00214DF20C1002F009FDA621F3
:1035A0004DF20D1002F004FD00214DF20E1002F05C
:1035B000FFFCE5214DF20F1002F0FAFC01214DF263
:1035C000101002F0F5FC13214DF2111002F0F0FC86
:1035D00001214DF2121002F0EBFC54214DF21310B8
:1035E00002F0E6FC01214DF2141002F0E1FC822110
:1035F0004DF2151002F0DCFC01214DF2161002F024
:10360000D7FCCA214DF2171002F0D2FC02214DF274
:10361000181002F0CDFC00214DF2191002F0C8FC88
:1036200002214DF21A1002F0C3FC01214DF21B10D1
:1036300002F0BEFC02214DF21C1002F0B9FC342154
:103640004DF21D1002F0B4FC02214DF21E1002F0EA
:10365000AFFC67214DF21F1002F0AAFC02214DF2CF
:10366000201002F0A5FC84214DF2211002F0A0FCF4
:1036700002214DF2221002F09BFCA4214DF22310F6
:1036800002F096FC02214DF2241002F091FCB721C9
:103690004DF2251002F08CFC02214DF2261002F0B2
:1036A00087FCCF214DF2271002F082FC02214DF25F
:1036B000281002F07DFCDE214DF2291002F078FC8A
:1036C00002214DF22A1002F073FCF2214DF22B1070
:1036D00002F06EFC02214DF22C1002F069FCFE217A
:1036E0004DF22D1002F064FC03214DF22E1002F079
:1036F0005FFC10214DF22F1002F05AFC03214DF215
:10370000301002F055FC33214DF2311002F050FC24
:1037100003214DF2321002F04BFC6D214DF23310BB
:1037200002F046FC00214FF4524002F041FC3321EC
:103730004DF2012002F03CFC00214DF2022002F08B
:1037400037FC01E0F802002034214DF2032002F0A2
:103750002FFC00214DF2042002F02AFC3A214DF208
:10376000052002F025FC00214DF2062002F020FC8D
:103770004A214DF2072002F01BFC00214DF20820E7
:1037800002F016FC5C214DF2092002F011FC002130
:103790004DF20A2002F00CFC81214DF20B2002F0C8
:1037A00007FC00214DF20C2002F002FCA6214DF294
:1037B0000D2002F0FDFB00214DF20E2002F0F8FB7F
:1037C000E5214DF20F2002F0F3FB01214DF2102014
:1037D00002F0EEFB13214DF2112002F0E9FB012172
:1037E0004DF2122002F0E4FB54214DF2132002F0BE
:1037F000DFFB01214DF2142002F0DAFB82214DF2B1
:10380000152002F0D5FB01214DF2162002F0D0FB6D
:10381000CA214DF2172002F0CBFB02214DF21820F5
:1038200002F0C6FB00214DF2192002F0C1FB02217B
:103830004DF21A2002F0BCFB01214DF21B2002F0D8
:10384000B7FB02214DF21C2002F0B2FB34214DF2F5
:103850001D2002F0ADFB02214DF21E2002F0A8FB5C
:1038600067214DF21F2002F0A3FB02214DF2202020
:1038700002F09EFB84214DF2212002F099FB0221EF
:103880004DF2222002F094FBA4214DF2232002F0FD
:103890008FFB02214DF2242002F08AFBB7214DF26A
:1038A000252002F085FB02214DF2262002F080FB4C
:1038B000CF214DF2272002F07BFB02214DF2282080
:1038C00002F076FBDE214DF2292002F071FB02218D
:1038D0004DF22A2002F06CFBF2214DF22B2002F077
:1038E00067FB02214DF22C2002F062FBFE214DF21B
:1038F0002D2002F05DFB03214DF22E2002F058FB3B
:1039000010214DF22F2002F053FB03214DF2302005
:1039100002F04EFB33214DF2312002F049FB03212E
:103920004DF2322002F044FB6D214DF2332002F0C3
:103930003FFB00214FF4534002F03AFB33214DF29C
:10394000013002F035FB00214DF2023002F030FB75
:1039500034214DF2033002F02BFB00214DF20430F4
:1039600002F026FB3A214DF2053002F021FB002146
:103970004DF2063002F01CFB4A214DF2073002F0F6
:1039800017FB00214DF2083002F012FB5C214DF2D2
:10399000093002F00DFB00214DF20A3002F008FB65
:1039A00081214DF20B3002F003FB00214DF20C306F
:1039B00002F0FEFAA6214DF20D3002F0F9FA0021D4
:1039C0004DF20E3002F0F4FAE5214DF20F3002F024
:1039D000EFFA01214DF2103002F0EAFA13214DF214
:1039E000113002F0E5FA01214DF2123002F0E0FA56
:1039F00054214DF2133002F0DBFA01214DF2143064
:103A000002F0D6FA82214DF2153002F0D1FA0121EE
:103A10004DF2163002F0CCFACA214DF2173002F006
:103A2000C7FA02214DF2183002F0C2FA00214DF21D
:103A3000193002F0BDFA02214DF21A3002F0B8FA44
:103A400001214DF21B3002F0B3FA02214DF21C307D
:103A500002F0AEFA34214DF21D3002F0A9FA022133
:103A60004DF21E3002F0A4FA67214DF21F3002F031
:103A70009FFA02214DF2203002F09AFA84214DF291
:103A8000213002F095FA02214DF2223002F090FA34
:103A9000A4214DF2233002F08BFA02214DF22430A2
:103AA00002F086FAB7214DF2253002F081FA0221A8
:103AB0004DF2263002F07CFACF214DF2273002F091
:103AC00077FA02214DF2283002F072FADE214DF22F
:103AD000293002F06DFA02214DF22A3002F068FA24
:103AE000F2214DF22B3002F063FA02214DF22C301C
:103AF00002F05EFAFE214DF22D3002F059FA032158
:103B00004DF22E3002F054FA10214DF22F3002F017
:103B10004FFA03214DF2303002F04AFA33214DF2D0
:103B2000313002F045FA03214DF2323002F040FA12
:103B30006D214DF2333002F03BFA00214FF4544036
:103B400002F036FA33214DF2014002F031FA002141
:103B50004DF2024002F02CFA34214DF2034002F003
:103B600027FA00214DF2044002F022FA3A214DF2E8
:103B7000054002F01DFA00214DF2064002F018FA4D
:103B80004A214DF2074002F013FA00214DF208409D
:103B900002F00EFA5C214DF2094002F009FA002110
:103BA0004DF20A4002F004FA81214DF20B4002F07E
:103BB000FFF900214DF20C4002F0FAF9A6214DF276
:103BC0000D4002F0F5F900214DF20E4002F0F0F93F
:103BD000E5214DF20F4002F0EBF901214DF21040CA
:103BE00002F0E6F913214DF2114002F0E1F9012152
:103BF0004DF2124002F0DCF954214DF2134002F074
:103C0000D7F901214DF2144002F0D2F982214DF290
:103C1000154002F0CDF901214DF2164002F0C8F92D
:103C2000CA214DF2174002F0C3F902214DF21840AB
:103C300002F0BEF900214DF2194002F0B9F902215B
:103C40004DF21A4002F0B4F901214DF21B4002F08E
:103C5000AFF900E004E302214DF21C4002F0A8F9A4
:103C600034214DF21D4002F0A3F902214DF21E4015
:103C700002F09EF967214DF21F4002F099F90221EE
:103C80004DF2204002F094F984214DF2214002F0DF
:103C90008FF902214DF2224002F08AF9A4214DF25F
:103CA000234002F085F902214DF2244002F080F910
:103CB000B7214DF2254002F07BF902214DF226405A
:103CC00002F076F9CF214DF2274002F071F902217E
:103CD0004DF2284002F06CF9DE214DF2294002F04D
:103CE00067F902214DF22A4002F062F9F2214DF209
:103CF0002B4002F05DF902214DF22C4002F058F900
:103D0000FE214DF22D4002F053F903214DF22E40D9
:103D100002F04EF910214DF22F4002F049F9032133
:103D20004DF2304002F044F933214DF2314002F0BF
:103D30003FF903214DF2324002F03AF96D214DF284
:103D4000334002F035F900214FF4554002F030F9CC
:103D500033214DF2015002F02BF900214DF20250B7
:103D600002F026F934214DF2035002F021F900212E
:103D70004DF2045002F01CF93A214DF2055002F0C8
:103D800017F900214DF2065002F012F94A214DF2C6
:103D9000075002F00DF900214DF2085002F008F929
:103DA0005C214DF2095002F003F900214DF20A5056
:103DB00002F0FEF881214DF20B5002F0F9F80021DB
:103DC0004DF20C5002F0F4F8A6214DF20D5002F025
:103DD000EFF800214DF20E5002F0EAF8E5214DF225
:103DE0000F5002F0E5F801214DF2105002F0E0F81A
:103DF00013214DF2115002F0DBF801214DF2125067
:103E000002F0D6F854214DF2135002F0D1F80121FE
:103E10004DF2145002F0CCF882214DF2155002F010
:103E2000C7F801214DF2165002F0C2F8CA214DF236
:103E3000175002F0BDF802214DF2185002F0B8F808
:103E400000214DF2195002F0B3F802214DF21A5040
:103E500002F0AEF801214DF21B5002F0A9F8022148
:103E60004DF21C5002F0A4F834214DF21D5002F026
:103E70009FF802214DF21E5002F09AF867214DF290
:103E80001F5002F095F802214DF2205002F090F8F8
:103E900084214DF2215002F08BF802214DF2225084
:103EA00002F086F8A4214DF2235002F081F802219D
:103EB0004DF2245002F07CF8B7214DF2255002F06B
:103EC00077F802214DF2265002F072F8CF214DF220
:103ED000275002F06DF802214DF2285002F068F8E8
:103EE000DE214DF2295002F063F802214DF22A50F2
:103EF00002F05EF8F2214DF22B5002F059F8022147
:103F00004DF22C5002F054F8FE214DF22D5002F0EB
:103F10004FF803214DF22E5002F04AF810214DF2D5
:103F20002F5002F045F803214DF2305002F040F8D6
:103F300033214DF2315002F03BF803214DF2325063
:103F400002F036F86D214DF2335002F031F80021C5
:103F50004FF4564002F02CF833214DF2016002F08C
:103F600027F800214DF2026002F022F834214DF2D0
:103F7000036002F01DF800214DF2046002F018F811
:103F80003A214DF2056002F013F800214DF206606F
:103F900002F00EF84A214DF2076002F009F8002104
:103FA0004DF2086002F004F85C214DF2096001F066
:103FB000FFFF00214DF20A6001F0FAFF81214DF26E
:103FC0000B6001F0F5FF00214DF20C6001F0F0FFF5
:103FD000A6214DF20D6001F0EBFF00214DF20E60C5
:103FE00001F0E6FFE5214DF20F6001F0E1FF012154
:103FF0004DF2106001F0DCFF13214DF2116001F071
:10400000D7FF01214DF2126001F0D2FF54214DF291
:10401000136001F0CDFF01214DF2146001F0C8FFE3
:1040200082214DF2156001F0C3FF01214DF21660AF
:1040300001F0BEFFCA214DF2176001F0B9FF022165
:104040004DF2186001F0B4FF00214DF2196001F04B
:10405000AFFF02214DF21A6001F0AAFF01214DF2DB
:104060001B6001F0A5FF02214DF21C6001F0A0FFD2
:1040700034214DF21D6001F09BFF02214DF21E60C4
:1040800001F096FF67214DF21F6001F091FF0221C0
:104090004DF2206001F08CFF84214DF2216001F08F
:1040A00087FF02214DF2226001F082FFA4214DF230
:1040B000236001F07DFF02214DF2246001F078FFC2
:1040C000B7214DF2256001F073FF02214DF2266009
:1040D00001F06EFFCF214DF2276001F069FF022150
:1040E0004DF2286001F064FFDE214DF2296001F0FD
:1040F0005FFF02214DF22A6001F05AFFF2214DF2DA
:104100002B6001F055FF02214DF22C6001F050FFB1
:10411000FE214DF22D6001F04BFF03214DF22E6088
:1041200001F046FF10214DF22F6001F041FF032105
:104130004DF2306001F03CFF33214DF2316001F06F
:1041400037FF03214DF2326001F032FF6D214DF255
:10415000336001F02DFF55214FF4704001F028FF2E
:10416000AA214FF2010001F023FF52214FF2020079
:1041700001F01EFF08214FF2030001F019FF00219A
:104180004FF2040001F014FFCC214FF4314001F054
:104190000FFF00214BF2011001F00AFF05214FF43F
:1041A000364001F005FF70214FF4374001F000FF69
:1041B00070214BF2017001F0FBFE01214FF43840F9
:1041C00001F0F6FE03214BF6010001F0F1FE0321A0
:1041D0004BF6020001F0ECFE03214BF6030001F068
:1041E000E7FE02214FF43C4001F0E2FE00214BF6D5
:1041F000014001F0DDFE00214BF6024001F0D8FE47
:10420000D0214FF4494001F0D3FE02214CF60110B9
:1042100001F0CEFE50214CF6021001F0C9FE5021F3
:104220004CF6031001F0C4FE50214CF6041001F0CE
:10423000BFFE00214FF4545001F0BAFE55214FF457
:10424000685001F0B5FE4FF4885001F09BFE7820D5
:1042500005F078F84FF4245001F094FE01F05EB9B7
:10426000FE48808849F2253188427DD147F6F00129
:10427000E52001F09DFE4FF48071012001F098FED1
:104280004FF4E061022001F093FE41F2300103207F
:1042900001F08EFE0021042001F08AFE40F202218E
:1042A000082001F085FE0021092001F081FE002197
:1042B0000A2001F07DFE00210C2001F079FE002192
:1042C0000D2001F075FE00210F2001F071FE00218C
:1042D000102001F06DFE0721112001F069FE002180
:1042E000122001F065FE0021132001F061FE002183
:1042F000072001F05DFE41F29061102001F058FEB0
:1043000040F22721112001F053FE9D21122001F0DF
:104310004FFE4FF4C851132001F04AFE25212920F9
:1043200001F046FE0D212B2001F042FE0721302036
:1043300001F03EFE40F20331312001F039FE03214D
:10434000322001F035FE40F20621352001F030FE2A
:104350000821362001F02CFE40F20641372001F002
:1043600027FE4FF4417100E058E0382001F020FEB4
:104370000721392001F01CFE40F202613C2001F0CF
:1043800017FE08213D2001F013FE0021502001F00E
:104390000FFEEF21512001F00BFE0021522001F011
:1043A00007FE40F23F11532001F002FE4FF4274177
:1043B000602001F0FDFD0121612001F0F9FD0021E7
:1043C0006A2001F0F5FD0021802001F0F1FD0021BF
:1043D000812001F0EDFD0021822001F0E9FD0021A6
:1043E000832001F0E5FD0021842001F0E1FD0021A2
:1043F000852001F0DDFD1021902001F0D9FD4FF462
:10440000C061922001F0D4FD40F23311072001F089
:10441000CFFD2221002001F0CBFD1FE78F488088CF
:1044200049F2283188427DD141F28F01EC2001F020
:10443000BFFD41F23421EF2001F0BAFD4FF480714D
:10444000012001F0B5FD4FF4E061022001F0B0FD64
:1044500041F23001032001F0ABFD0021042001F006
:10446000A7FD40F20221082001F0A2FD0021092051
:1044700001F09EFD00210A2001F09AFD01210C208F
:1044800001F096FD00210D2001F092FD00210F208A
:1044900001F08EFD0021102001F08AFD072111207E
:1044A00001F086FD0021122001F082FD0021132081
:1044B00001F07EFD0121072001F07AFD322004F099
:1044C00025FF41F29041102001F072FD40F22721BA
:1044D000112001F06DFD322004F018FF8A21122016
:1044E00001F066FD322004F011FF4FF4D05113208B
:1044F00001F05EFD0621292001F05AFD0D212B203F
:1045000001F056FD322004F001FF0021202001F0CF
:104510004FFD0021212001F04BFD322004F0F6FE7A
:10452000002100E075E0302001F042FD40F204611E
:10453000312001F03DFD40F20531322001F038FD1F
:104540000021352001F034FD40F60941362001F00C
:104550002FFD4FF40171372001F02AFD40F20131A7
:10456000382001F025FD40F20771392001F020FDCF
:1045700000213C2001F01CFD40F60A213D2001F005
:1045800017FD322004F0C2FE0021502001F010FD82
:10459000EF21512001F00CFD0021522001F008FD17
:1045A00040F23F11532001F003FD4FF427416020FA
:1045B00001F0FEFC0121612001F0FAFC00216A20DB
:1045C00001F0F6FC0021802001F0F2FC00218120A6
:1045D00001F0EEFC0021822001F0EAFC00218320A2
:1045E00001F0E6FC0021842001F0E2FC002185209E
:1045F00001F0DEFC1021902001F0DAFC4FF4C061E4
:10460000922001F0D5FC40F23311072001F0D0FCDC
:1046100024E61248808849F2203188427ED1002168
:10462000084601F0C5FC4FF48071012001F0C0FC88
:104630004FF4E061022001F0BBFC41F230010320A5
:1046400001F0B6FC0021042001F0B2FC40F202218E
:10465000082001F0ADFC0021092001E0F802002053
:1046600001F0A6FC00210A2001F0A2FC01210C208F
:1046700001F09EFC00210D2001F09AFC00210F208A
:1046800001F096FC322004F041FE40F201110720B7
:1046900001F08EFC322004F039FE4FF486511020D8
:1046A00001F086FC0721112001F082FC4FF4887193
:1046B000122001F07DFC4FF43061132001F078FCF2
:1046C0000021292001F074FC44F210012B2001F09C
:1046D0006FFC0021502001F06BFCEF21512001F014
:1046E00067FC0021522001F063FC40F23F1153208F
:1046F00001F05EFC4FF41C51602001F059FC0121D7
:10470000612001F055FC00216A2001F051FC0021DC
:10471000802001F04DFC0021812000E030E001F01C
:1047200047FC0021822001F043FC0021832001F09E
:104730003FFC0021842001F03BFC0021852001F09A
:1047400037FC1021902001F033FC0021922001F071
:104750002FFC0121932001F02BFC4FF48871952050
:1047600001F026FC0021972001F022FC0021982076
:1047700001F01EFC40F27311072001F019FC6DE5F9
:10478000FE48808849F2313188427DD141F21401DE
:10479000E72001F00DFC4FF48071012001F008FCCE
:1047A0004FF40071022001F003FC41F238010320B4
:1047B00001F0FEFB40F20221082001F0F9FB00218C
:1047C000092001F0F5FB00210A2001F0F1FB002196
:1047D0000C2001F0EDFB00210D2001F0E9FB002190
:1047E0000F2001F0E5FB0021102001F0E1FB072183
:1047F000112001F0DDFB0021122001F0D9FB002186
:10480000132001F0D5FBC82004F080FD41F2906137
:10481000102001F0CDFB40F22721112001F0C8FB50
:10482000322004F073FD0C21122001F0C1FB322074
:1048300004F06CFD4FF40061132001F0B9FB11216D
:10484000292001F0B5FB0B212B2001F0B1FB322018
:1048500004F05CFD0021202001F0AAFB40F23F1192
:10486000212001F0A5FB0021302001F0A1FB4FF435
:104870008371312001F09CFB0021322001F098FB74
:104880004FF40171352000E064E001F091FB41F24A
:104890000A61362001F08CFB40F20771372001F0ED
:1048A00087FB4FF48371382001F082FB40F20771DF
:1048B000392001F07DFB40F202413C2001F078FB01
:1048C00040F60F413D2001F073FB0021502001F024
:1048D0006FFBEF21512001F06BFB0021522001F012
:1048E00067FB40F23F11532001F062FB4FF41C5173
:1048F000602001F05DFB0121612001F059FB0021E6
:104900006A2001F055FB0021802001F051FB0021BD
:10491000812001F04DFB0021822001F049FB0021A4
:10492000832001F045FB0021842001F041FB0021A0
:10493000852001F03DFB1021902001F039FB4FF460
:10494000C061922001F034FB40F23311072001F0E6
:104950002FFB83E48948808845F2084188427DD155
:104960004FF48071012001F023FB4FF4E06102203D
:1049700001F01EFB41F23001032001F019FB002180
:10498000042001F015FB40F20721082001F010FB84
:104990000021092001F00CFB00210A2001F008FB96
:1049A00000210C2001F004FB00210D2001F000FB90
:1049B00000210F2001F0FCFA142004F0A7FC41F2C2
:1049C000B061102001F0F4FA0121112001F0F0FA99
:1049D0000121172001F0ECFA4FF49C71122001F034
:1049E000E7FA4FF40061132001F0E2FA09212920CF
:1049F00001F0DEFA09212A2001F0DAFA0021A420D0
:104A000001F0D6FA0021502001F0D2FAEF21512016
:104A100001F0CEFA0021522001F0CAFA40F23F1113
:104A2000532001F0C5FA4FF41C51602001F0C0FA88
:104A30000121612001F0BCFA00216A2001F0B8FADE
:104A40000021802001F0B4FA0021812001F0B0FAA9
:104A50000021822001F0ACFA002100E024E0832054
:104A600001F0A6FA0021842001F0A2FA002185209D
:104A700001F09EFA1321902001F09AFA0021922071
:104A800001F096FA0321932001F092FA4FF4887115
:104A9000952001F08DFA40F27311072001F088FA99
:104AA000322004F033FCB8E43448808841F20551E8
:104AB00088427DD10021072001F07AFA322004F0EB
:104AC00025FC4FF48E71122001F072FA0121A4200E
:104AD00001F06EFA0F21082001F06AFA08210A207D
:104AE00001F066FA08210D2001F062FA40F2077128
:104AF000302001F05DFA0721312001F059FA40F22F
:104B00000361322001F054FA4FF4E061332001F0E8
:104B10004FFA40F20221342001F04AFA02213520F6
:104B200001F046FA41F60F71362001F041FA40F2E9
:104B30000771372001F03CFA0021382001F038FAE3
:104B40000021392001F034FA40F207713A2001F0D7
:104B50002FFA00213B2001F02BFA07213C2001F025
:104B600027FA00213D2001F023FA322004F0CEFB89
:104B70000121072001F01CFA012101E0F8020020C8
:104B8000172001F015FA322004F0C0FB4FF4BD519C
:104B9000102001F00DFA40F21721112001F008FA5F
:104BA0004FF48F71122001F003FA4FF4706100E0AE
:104BB00098E0132001F0FCF900212A2001F0F8F917
:104BC0000A21292001F0F4F94FF49F71122001F01D
:104BD000EFF90021502001F0EBF9EF21512001F015
:104BE000E7F90021522001F0E3F940F23F11532090
:104BF00001F0DEF94FF41C51602001F0D9F90121D8
:104C0000612001F0D5F900216A2001F0D1F90021DD
:104C1000802001F0CDF90021812001F0C9F90021A7
:104C2000822001F0C5F90021832001F0C1F90021A3
:104C3000842001F0BDF90021852001F0B9F913218C
:104C4000902001F0B5F94FF44071922001F0B0F9D5
:104C50000521932001F0ACF90021952001F0A8F97D
:104C60000021972001F0A4F90021982001F0A0F97B
:104C70004FF48071012001F09BF94FF4E0610220B4
:104C800001F096F941F23801032001F091F9002179
:104C9000042001F08DF900210C2001F089F9002198
:104CA0000F2001F085F90021202001F081F9002179
:104CB000212001F07DF92121072001F079F914204C
:104CC00004F024FB6121072001F072F9142004F0A4
:104CD0001DFB40F27311072001F06AF9142004F063
:104CE00015FB95E4FE4880884BF2055188427CD143
:104CF0000021084601F05CF90021084601F058F94E
:104D00000021084601F054F90021084601F050F94D
:104D10000121A42001F04CF9142004F0F7FA4FF41B
:104D20001C51602001F044F940F20221082001F0FA
:104D30003FF94FF40571302001F03AF943F2157153
:104D4000312001F035F940F20461322001F030F9F0
:104D500040F61661332001F02BF942F21121342084
:104D600001F026F94FF4A851352001F021F948F25D
:104D70000751362001F01CF941F20741372001F0BC
:104D800017F941F20341382001F012F920213920AE
:104D900001F00EF91A21902001F00AF900211020EB
:104DA00001F006F90721112001F002F9002112207B
:104DB00001F0FEF80021132001F0FAF8142004F0AD
:104DC000A5FA4FF4E661102001F0F2F840F2371135
:104DD000112001F0EDF8142004F098FA4FF4DC7182
:104DE000122001F0E5F8142000E085E004F08EFACE
:104DF0004FF47061132001F0DBF880212A2001F0CC
:104E0000D7F84821292001F0D3F8142004F07EFAC5
:104E10004FF48071012001F0CBF84FF4E0610220E3
:104E200001F0C6F841F23801032001F0C1F840F268
:104E30000221082001F0BCF800210A2001F0B8F896
:104E400000210C2001F0B4F800210D2001F0B0F891
:104E500030210E2001F0ACF80021502001F0A8F81C
:104E6000EF21512001F0A4F80021522001F0A0F818
:104E700040F23F11532001F09BF84FF41C51602089
:104E800001F096F80121612001F092F800216A20DA
:104E900001F08EF81121902001F08AF84FF4C061E2
:104EA000922001F085F840F20241932001F080F851
:104EB0000221942001F07CF8142004F027FA01214B
:104EC000072001F075F8142004F020FA6121072072
:104ED00001F06EF840F27311072001F069F800212B
:104EE000202001F065F80021212001F061F8222145
:104EF000002001F05DF811E3794880884CF20551FB
:104F000088427CD10021084601F052F80021084671
:104F100001F04EF8142004F0F9F90021084601F0E0
:104F200047F80021084601F043F80021084601F047
:104F30003FF80021084601F03BF80121A42001F0D0
:104F400037F8142004F0E2F94FF41C51602001F00E
:104F50002FF840F60601082001F02AF840F203710C
:104F6000302001F025F80121312001F021F8042141
:104F7000322001F01DF84FF48171332001F018F850
:104F80004FF44071342001F013F840F20311352042
:104F900001F00EF81F21362001F00AF840F20371EB
:104FA000372001F005F80121382001F001F8042133
:104FB000392000F0FDFF1521902000F0F9FF4FF49B
:104FC0008261102000F0F4FF40F24721112000F030
:104FD000EFFF4FF4DE71122000F0EAFF4FF4606142
:104FE000132000F0E5FF782004F090F94FF4807171
:104FF000012000F0DDFF4FF40071022000E052E0DC
:1050000000F0D6FF41F23001032000F0D1FF08216B
:105010000A2000F0CDFF00210C2000F0C9FF202164
:105020000E2000F0C5FF00210F2000F0C1FF00217D
:10503000202000F0BDFF0021212000F0B9FF3D211C
:105040002A2000F0B5FF142004F060F92D2129205A
:1050500000F0AEFF0021502000F0AAFF4DF2EF015A
:10506000512000F0A5FF0021522000F0A1FF40F2E6
:105070003F11532000F09CFF0021612000F098FFB9
:1050800000216A2000F094FF4FF44071922000F05C
:105090008FFF0521932000F08BFF4FF480710720D4
:1050A00000F086FF3AE20E48808844F2315188428F
:1050B0007ED10121002000F07BFF0A2004F026F9B8
:1050C00041F22861102000F073FF0E21122000F041
:1050D0006FFF40F63921132000F06AFF0A2001E03B
:1050E000F802002004F012F94021112000F060FFC6
:1050F0005021152000F05CFF0A2004F007F91E2162
:10510000122000F055FF0A2004F000F94FF4B151CD
:10511000102000F04DFF42F63921132000F048FF27
:105120000A2004F0F3F84FF48071012000F040FFF2
:105130004FF44071022000F03BFF41F238010320A0
:1051400000F036FF40F20221082000F031FF082174
:105150000A2000F02DFF0021302000F029FF40F24E
:105160000241312000F024FF4FF48371322000F01F
:105170001FFF40F20351332000F01AFF4FF48271F9
:10518000342000F015FF40F20131352000F010FF0F
:1051900040F20771362000F00BFF40F20531372056
:1051A00000F006FF4FF40271382000F001FF00E02C
:1051B0003EE040F60B71392000F0FAFE022141205A
:1051C00000F0F6FE4FF41C51602000F0F1FE0121CA
:1051D000612000F0EDFE4FF40471902000F0E8FE35
:1051E0004FF48571922000F0E3FE0421932000F03B
:1051F000DFFE4FF48071A02000F0DAFE01210720CD
:1052000000F0D6FE2121072000F0D2FE2321072046
:1052100000F0CEFE3321072000F0CAFE40F2331129
:10522000072000F0C5FE0021A02000F0C1FE75E1BE
:10523000C048808844F2355188427CD13021152005
:1052400000F0B6FE10219A2000F0B2FE20211120BD
:1052500000F0AEFE43F22841102000F0A9FE02212A
:10526000122000F0A5FE41F23801132000F0A0FE4C
:10527000282004F04BF81221084600F099FE28205F
:1052800004F044F843F22041102000F091FE43F274
:105290003801132000F08CFE462004F037F800217E
:1052A000302000F085FE40F20241312000F080FE07
:1052B00040F20731322000F07BFE4FF44171332081
:1052C00000F076FE0421342000F072FE40F201412D
:1052D000352000F06DFE40F20771362000F068FEC8
:1052E00040F20531372000F063FE4FF4C2613820F0
:1052F00000F05EFE4FF4C261392000F059FE4FF419
:105300008071012000F054FE4FF44071022000F043
:105310004FFE41F23001032000F04AFE40F6080142
:10532000082000F045FE08210A2000F041FE4FF45D
:105330001C51602000E033E000F03AFE01216120C2
:1053400000F036FE4FF49F71902000F031FE4FF4D4
:105350008071922000F02CFE4FF48071932000F0B9
:1053600027FE4FF44051A02000F022FE1021A32080
:1053700000F01EFE0121072000F01AFE2121072067
:1053800000F016FE2321072000F012FE3321072033
:1053900000F00EFE40F23311072000F009FEBDE0E0
:1053A0006448808841F663118842F8D1E22000F019
:1053B000E9FD1D2000F0DAFD022000F0D7FD0420F9
:1053C00000F0D4FD642003F0BDFFE02000F0DAFD22
:1053D000012000F0CBFD0A2003F098FFE02000F050
:1053E000D1FD032000F0C2FD0C2003F08FFF01204F
:1053F00000F0C8FD0A2003F089FFE62000F0C2FD9E
:105400002F2000F0B3FDFF2000F0B0FDFF2000F0E2
:10541000ADFDB02000F0B6FD202000F0A7FD00207B
:1054200000F0A4FD032000F0A1FD40F21F3000F0C9
:105430009DFD012000F09AFD40F2DF1000F096FD86
:10544000002000F093FDB42000F09CFD042000F04B
:105450008DFD40F21F4000F089FD002000F086FD28
:105460002E2000F083FD002000F080FD002000F0E1
:105470007DFD002000F07AFD002000F077FDB620D1
:1054800000F080FD022000F071FD4FF4037000F089
:105490006DFD002000F06AFD172000F067FD15206B
:1054A00000F064FD002000F061FD002000F05EFDD2
:1054B000F02000F067FD032000F058FD292000F0E7
:1054C00061FDD02000F05EFD002000F04FFDBE2009
:1054D00000F058FD052000F049FDFE2000F046FDDB
:1054E000012000F043FD002000F040FD002000F00E
:1054F0003DFD002000F03AFDB82000F043FD032000
:1055000000F034FD012000F031FDBA2000F03AFD3A
:10551000012000F02BFD642000F0DCF80020FCF7F7
:1055200077F90120044908604FF6FF70FCF73AF95B
:105530001CBD0000F8020020BC82404208B50348B0
:1055400000880090BDF8000008BD00008000006CDD
:105550002DE9F04105460E4600240027A046564896
:105560000088A84203DD54484088B04202DC002095
:10557000BDE8F0813146284600F052FA4E48808856
:1055800049F24131884211D04B48808846F60401E7
:1055900088420BD04848808845F21031884205D0B7
:1055A0004548808841F66311884203D12E2000F0DF
:1055B000E9FC0DE04048808845F21051884204D152
:1055C0004FF4385000F0DEFC02E0222000F0DAFC5C
:1055D0003948808849F22031884202D1022005F002
:1055E000BFFEFFF7ABFF04463348808841F66311E6
:1055F000884201D12046BBE7022005F0B1FEFFF74B
:105600009DFF04462C48808849F2413188420BD0E6
:105610002948808845F21031884205D02648808884
:1056200045F2105188420AD1022005F099FEFFF799
:1056300085FF8046E7B24FF6FF7000EA07271E4855
:10564000808849F22531884216D01B48808844F270
:105650003551884210D018488088091F88420BD0E5
:10566000154880884BF20551884205D01248808841
:105670004CF20551884201D1204679E70E488088D6
:1056800049F2413188420BD00B48808845F21031F5
:10569000884205D00848808845F21051884207D1D9
:1056A000E012C002B91240EA411040EAE8205FE788
:1056B0002046FCF769F85BE7F802002010B50446C5
:1056C000204600F05FFC052003F03CFEFFF736FFAC
:1056D00010BD000070B52DED048B0446BE2000F017
:1056E00051FC052000F042FC204607F028FA41EC6E
:1056F000190B9FED0E0B53EC102B07F033FA41EC16
:10570000180B07F0EFF985B2284600F02FFC0120B6
:1057100000F02CFCFF2000F029FC002000F026FC0B
:10572000002000F023FCBDEC048B70BD666666664D
:1057300066660440F0B5054600240027B748807926
:1057400001280BD1B548808846F60401884205D06F
:10575000B248808841F66311884208D1AF48807909
:10576000F0B9AE48808841F66311884218D1082DFF
:1057700015D2DFE805F00406080A0C0E1012062503
:105780000DE007250BE0042509E0052507E00125CC
:1057900005E0002503E0032501E0022500BF00BF6E
:1057A0009E48808849F24131884217D09B488088C2
:1057B00046F60401884211D09848808845F210319D
:1057C00088420BD09548808845F21051884205D018
:1057D0009248808841F6631188427DD1082D1CD201
:1057E000DFE805F00406090C0F12151800BF14E0DD
:1057F00044F0800411E044F040040EE044F0C004A2
:105800000BE044F0200408E044F0600405E044F0BC
:10581000A00402E044F0E00400BF00BF7F4880889D
:1058200045F21051884202D14FF4585700E0362714
:105830007A48808845F2103188420DD077488088B8
:1058400045F21051884207D07448808841F66311B0
:10585000884201D044F008047048808846F604016C
:10586000884201D144F002042146384600F0A0FBF2
:105870006A48808841F6631188421DD004F02000F8
:1058800068B16648008865494988884214DA6348E7
:105890000688408861490880084646800CE05F48D9
:1058A00000885E494988884206DD5C480688408851
:1058B0005A490880084646805848808845F2105169
:1058C000884254D15549488900F05CFB002000F023
:1058D0004DFB5249498900E078E0491C88B200F04C
:1058E00051FB002000F042FB4C494989891C88B2D9
:1058F00000F048FB49490988491EC1F30F2000F018
:1059000035FB46494989C91C88B200F03BFB434935
:105910000978491EC8B200F029FB4049888900F087
:1059200031FB002000F022FB3C498989491C88B2E8
:1059300000F028FB002000F019FB38498989891CF8
:1059400088B200F01FFB35494988491EC1F30F207A
:1059500000F00CFB31498989C91C88B200F012FBA8
:105960002E498978491EC8B200F000FB55E02B494A
:10597000488900F007FB002000F0F8FA002000F052
:10598000F5FA26490988491EC1F30F2000F0EEFA06
:1059900022490978491EC8B200F0E8FA1F498889EF
:1059A00000F0F0FA002000F0E1FA002000F0DEFA4A
:1059B0001A494988491EC1F30F2000F0D7FA174948
:1059C0008978491EC8B200F0D1FA26E0082D1CD211
:1059D000DFE805F004070A0D0F12151844F0300433
:1059E00013E044F0100410E044F020040DE000BF88
:1059F0000BE044F0380408E044F0280405E044F0EB
:105A0000180402E044F0080400BF00BF032744F478
:105A100080542146384600F0CBFAF0BDF802002051
:105A200030B504460D466748808849F241318842C6
:105A300005D06448808845F21031884214D161490C
:105A4000488900F09FFA201200F090FAE0B200F0CE
:105A50008DFA5C49888900F095FA281200F086FAE0
:105A6000E8B200F083FAABE05648808846F60401BD
:105A700088421DD153488079012804D151480088BB
:105A8000401E001B84B24F49488900F07BFA201267
:105A900000F06CFAE0B200F069FA4A49888900F037
:105AA00071FA281200F062FAE8B200F05FFA87E0BB
:105AB0004448808841F66311884247D14148807943
:105AC000A8B940480088401E001B84B23D4948895F
:105AD00000F058FA002000F049FA002000F046FAE1
