:020000040800F2
:1000000060F70120890200089B0200089D02000899
:100010009F020008A1020008A302000800000000DF
:10002000000000000000000000000000A502000821
:10003000A702000800000000A9020008AB020008A7
:10004000AD020008AD020008AD020008AD020008D4
:10005000AD020008AD020008AD020008AD020008C4
:10006000AD020008AD020008AD020008AD020008B4
:10007000AD020008AD020008AD020008AD020008A4
:10008000AD020008AD020008AD020008AD02000894
:10009000AD020008AD020008AD020008AD02000884
:1000A000AD020008AD020008AD020008AD02000874
:1000B000AD020008F5610008A9620008AD02000861
:1000C000AD020008AD020008AD020008AD02000854
:1000D000AD02000819640008AD020008AD02000876
:1000E000AD020008AD020008AD020008AD02000834
:1000F000AD020008AD020008AD020008AD02000824
:10010000AD020008AD020008E5620008AD0200087B
:10011000AD020008AD020008AD020008AD02000803
:10012000AD020008AD020008AD020008AD020008F3
:10013000AD020008AD020008AD020008AD020008E3
:10014000AD020008AD020008AD020008AD020008D3
:10015000AD020008AD020008AD020008AD020008C3
:10016000AD020008AD020008AD020008AD020008B3
:10017000AD020008AD020008B1080008AD02000899
:10018000AD020008AD02000800F002F800F06DF8C2
:100190000AA090E8000C82448344AAF10107DA45E2
:1001A00001D100F062F8AFF2090EBAE80F0013F0C7
:1001B000010F18BFFB1A43F0010318478CB300006E
:1001C000ACB300000A444FF0000C10F8013B13F0F0
:1001D000070408BF10F8014B1D1108BF10F8015BA0
:1001E000641E05D010F8016B641E01F8016BF9D193
:1001F00013F0080F1EBF10F8014BAD1C0C1B09D1EA
:100200006D1E58BF01F801CBFAD505E014F8016B5B
:1002100001F8016B6D1EF9D59142D6D370470000ED
:100220000023002400250026103A28BF78C1FBD8FF
:10023000520728BF30C148BF0B607047642900F0E7
:10024000BB80752900F0B880782900F0F18063291F
:1002500000F06382732900F06882002070471FB5A8
:1002600008F0F0F81FBD10B510BD00F079FA114686
:10027000FFF7F5FF06F0C0FB00F097FA03B4FFF7B5
:10028000F2FF03BC06F00FF90C48016841F470015D
:1002900001600B4880470B480047FEE7FEE7FEE79A
:1002A000FEE7FEE7FEE7FEE7FEE7FEE7FEE700000B
:1002B00005480649044A064B7047000088ED00E0F7
:1002C000350B00088901000860F3012060F7012068
:1002D00060F30120704700000FB4044910B503AA71
:1002E000029800F027FA10BC5DF814FB5C000020B7
:1002F0000FB41CB5074B06AA7B44694600900598CD
:1003000000F0E9F90020694600F0F8F91CBC5DF83E
:1003100014FB00000104000070B504468569006804
:10032000C10601D5302600E02026C00707D070BDE9
:10033000D4E9012130469047206A401C20626D1E9E
:10034000F6D570BD70B5044685690078C00707D141
:1003500070BDD4E9012120209047206A401C206212
:100360006D1EF6D570BD70B50C460546012A05D048
:100370002878800600D5EA69002302E0012305E021
:100380005B1C934202D2E05C0028F9D1A869E61810
:10039000C01AA861286A184428622846FFF7BCFFE3
:1003A00004E0D5E9012114F8010B9047B442F8D3D9
:1003B0002846FFF7C7FF70BD2DE9F041064600242F
:1003C00010687529314616A510D0AFF300800028BB
:1003D00002DA404213A507E031688A0701D512A569
:1003E00002E0490704D511A5012401E0AFF3008024
:1003F00000210A2206F1240709E0B0FBF2FCB0FB61
:10040000F2F302FB1C00303078541846491C0028D7
:10041000F3D123462A463046BDE8F04100F0FCB84F
:10042000000000002D0000002B0000002000000054
:1004300070B504460D4621461068AFF30080218850
:10044000090502D50F4A7A4402E00E4A7A440E3278
:10045000002104F1240305E000F00F060009965D79
:100460005E54491C0028F7D120780023000704D5EA
:10047000702D02D009B1022311322046BDE8704030
:1004800000F0CAB801AD00002DE9F05F89460446CE
:100490004FF0000ADFF874B1FB44C0F820A02046FA
:1004A000E1688847002874D0252806D0D4E90121C6
:1004B0009047206A401C2062F1E700265F462046F4
:1004C000E16888472028054607DB312D05D27819D9
:1004D00010F8200C08B10643F1E7B00701D526F06B
:1004E0000406C4F81CA00027C4F818A02A2D09D0BF
:1004F000284605F0D1FF38B304EB8708303DC8F833
:10050000185019E059F8041B204604EB870291614A
:10051000E1688847012F054618D1E069002820DAF4
:1005200026F020061DE0D8F8180000EB800005EB4F
:1005300040003038C8F818002046E1688847054672
:1005400005F0AAFF0028EED1012F0AD02E2D08D1E8
:100550002046E16888477F1C0546022F46F02006AA
:10056000C4DBA069002803DA404246F00106A0611E
:10057000F00701D026F010066C2D0BD0682D09D0A5
:100580004C2D39D06A2D35D0742D35D07A2D33D0FD
:1005900016E038E0E1682F4620468847B842054615
:1005A00009D16C2F26D04FF48060E16806432046C5
:1005B0008847054604E06C2F1AD04FF4807006433C
:1005C0000DB3A5F14100192802D8203546F4006684
:1005D0004A462946204626604E46FFF72FFE80B148
:1005E00001280BD0F61D26F0070000F1080956E798
:1005F0004020E4E78020D8E70020D6E706F1040990
:100600004DE7284652E7206ABDE8F09FD7AC0000CE
:1006100070477047704770472DE9F0470D4699467F
:100620009246044600F124080168880604D5E06972
:1006300021F01001216000E00120A84201DD471BEC
:1006400000E00027A1697A1902EB0900081AA061ED
:100650002078C00602D42046FFF75EFE002608E0A0
:10066000D4E901211AF806009047206A401C761C44
:1006700020624E45F4DB2078C0060AD52046FFF7FD
:100680004BFE06E0D4E9012130209047206A401C4F
:100690002062381EA7F10107F4DC07E0D4E901214C
:1006A00018F805009047206A401C2062281EA5F11A
:1006B0000105F3DC2046FFF745FE2078000602D551
:1006C0000220BDE8F0870120FBE7000001694A1C19
:1006D00002610878704700B58FB0CDE90131002183
:1006E000059105497944CDE9031011466846FFF7A5
:1006F000CBFE0FB000BD0000E5FFFFFF0A6802F867
:10070000010B0A60704710B5436913B1AFF3008065
:1007100001E0FFF728FE012010BD127800F124014E
:100720000A7000224A700122EDE711684FF0FF3293
:10073000E9E70000074B70B50D467B44FFF7CBFFA0
:100740000446284600F008F810B14FF0FF3070BDA5
:10075000204670BD5F5E0000007B00F080007047A7
:10076000754600F02BF8AE4605006946534620F06A
:100770000700854618B020B5FFF79AFDBDE8204078
:100780004FF000064FF000074FF000084FF0000B4D
:1007900021F00701AC46ACE8C009ACE8C009ACE800
:1007A000C009ACE8C0098D46704710B50446AFF3E8
:1007B00000802046BDE81040FFF760BD004870474C
:1007C00000F3012010B500230D4C236023461B6865
:1007D00043EA4013236023461B6843EA81132360E6
:1007E00023461B6843EAC213236023461B6843F475
:1007F0008043236023461B6843F00103236010BD40
:100800000000055030B5274C246844F48004254D81
:100810002C6000BF244C246804F00104002CF9D1A2
:10082000214C203C246844F474641F4D203D2C600E
:1008300021241D4D14352C601C4C1B4D08352C609B
:100840002C1D20602C1F21600024174D2C602C468D
:1008500024682C602C46246844F480742C602C4658
:1008600024682C602C46246844EA83242C602C469F
:10087000246844F480542C602C46246844EA4234B2
:100880002C602C46246844F400342C602C462468E8
:100890002C602C4624682C602C46246844F000749C
:1008A0002C6030BD303802402864024028000550DA
:1008B00010B50D48006900F00100A0B105F07CFE04
:1008C0000948406940F0010007494861074800684D
:1008D00008B9012000E000200449086004480078BD
:1008E000401C0349087010BD00000550A882424218
:1008F000670000201CB55948006840F001005749C6
:1009000008600846006840F0020008600846006879
:1009100040F0040008600846006840F010000860DD
:10092000081D006840F00100091D08600120032136
:1009300000230222CDE900105021494800F050FA6E
:100940000120032100230222CDE90010C0214548E7
:1009500000F046FA0120032100230222CDE9001015
:100960004FF43C61404800F03BFA01200321002392
:100970000222CDE9001060213C4800F031FA0D223E
:100980000421374800F00CFA0D220621344800F00B
:1009900007FA0D220721334800F002FA0D22062142
:1009A000314800F0FDF90D2207212F4800F0F8F939
:1009B0000D2208212C4800F0F3F90D2209212A48C4
:1009C00000F0EEF90D220B21274800F0E9F90D2285
:1009D0000621244800F0E4F90D220521234800F007
:1009E000DFF90D220621214800F0DAF90020204924
:1009F0000860C8601F20486100208861C8610862E3
:100A000048620846006808600846006808600846B2
:100A1000006808600846006840F02000086008464A
:100A2000006808600846006840F0800008600846DA
:100A3000006808600846006808600846C06840F022
:100A40000100C8600846006840F480400860022346
:100A50004E220321184604F027FE1CBD3038024008
:100A60000000024000040240000802400010024062
:100A7000000005502DE9F04104460D4616461F467C
:100A800000F040F84FF6FF7000F094FA3B46324613
:100A90002946204604F0EAFB3B463246002104206A
:100AA00005F0D4F80021084604F00CFB04F0C8FD62
:100AB0000648006840F001000449086004480068E6
:100AC00040F0010002490860BDE8F081286402405E
:100AD0000000055010B50021084604F0F3FA04F0B8
:100AE000AFFD0648006840F0010004490860044872
:100AF000006840F001000249086010BD286402400F
:100B0000000005500948006820F00100074908600E
:100B100000BF0648006800F001000028F9D1044831
:100B2000006820F00100024908607047000005508D
:100B3000286402401CB59448006840F0780092494F
:100B4000086091480830006840F001008E49083183
:100B500008600C220A218D4800F022F901200321AF
:100B600000230222CDE900104FF63371884800F0CF
:100B700037F90120032100230222CDE900104FF6AE
:100B80008371844800F02CF9012003210023022204
:100B9000CDE900104FF23F017F4800F021F901201C
:100BA000032100230222CDE9001040F23F417748A3
:100BB00000F016F90C220021754800F0F1F80C2223
:100BC0000121734800F0ECF80C220421704800F079
:100BD000E7F80C2205216E4800F0E2F80C2208210B
:100BE0006B4800F0DDF80C220921694800F0D8F8C4
:100BF0000C220A21664800F0D3F80C220B2164482D
:100C000000F0CEF80C221146614800F0C9F80C2221
:100C10000D215F4800F0C4F80C220E215C4800F062
:100C2000BFF80C220F215A4800F0BAF80C2200211C
:100C3000584800F0B5F80C220121564800F0B0F8F1
:100C40000C220721534800F0ABF80C220821514830
:100C500000F0A6F80C2209214E4800F0A1F80C2261
:100C60000A214C4800F09CF80C220B21494800F066
:100C700097F80C221146474800F092F80C220D21FB
:100C8000444800F08DF80C220E21424800F088F80C
:100C90000C220F213F4800F083F80C2200213E482F
:100CA00000F07EF80C2201213B4800F079F80C227C
:100CB0000221394800F074F80C220321364800F074
:100CC0006FF80C220421344800F06AF80C22052148
:100CD000314800F065F80C2211462F4800F060F80A
:100CE0000C220D212C4800F05BF80C220E212A4822
:100CF00000F056F80C220F21274800F051F80C2282
:100D00000021224800F04CF80C2201211F4800F07D
:100D100047F80C2202211D4800F042F80C22032162
:100D20001A4800F03DF80C220421184800F038F869
:100D30000C220521154800F033F800204FF0204127
:100D40000861486115490860C806006940F4805090
:100D5000C90608610846006940F0100008610846AD
:100D6000406940F4006048610846406948610846AF
:100D7000406948616FF07040C1F81401084600698D
:100D800040F0010008611CBD3038024000180240EC
:100D9000000C02400010024000140240140100A0A8
:100DA00030B5CC1000F1200353F824304C07E50E89
:100DB0000F24AC40A343CD1000F1200444F82530AB
:100DC000CC1000F1200353F824304C07E40E02FA53
:100DD00004F42343CD1000F1200444F8253030BD45
:100DE0002DE9F0470C46DDE90867002100258C4617
:100DF00000BF60E04FF0010808FA01F504EA050CB5
:100E0000AC4557D1D0F800804FEA410A4FF00309B2
:100E100009FA0AF928EA0908C0F80080D0F8008029
:100E20004FEA410902FA09F948EA0908C0F80080C6
:100E3000012A01D0022A27D1D0F808804FEA410ABE
:100E40004FF0030909FA0AF928EA0908C0F80880EE
:100E5000D0F808804FEA410906FA09F948EA09087A
:100E6000C0F80880D0F804904FF0010808FA01F8A3
:100E700029EA0809C0F80490D0F8048003FA01F9BF
:100E800048EA0908C0F80480D0F80C804FEA410A0B
:100E90004FF0030909FA0AF928EA0908C0F80C809A
:100EA000D0F80C804FEA410907FA09F948EA090825
:100EB000C0F80C80491C10299CD3BDE8F0870000C5
:100EC0001CB51048006840F001000E490860084653
:100ED000006840F010000860012000210B460A461F
:100EE000CDE900101C210848FFF77AFF02200021FD
:100EF0000B460A46CDE9001001210448FFF770FFB8
:100F00001CBD0000303802400010024000000240CA
:100F100010B5044614B10120234908702248007816
:100F200058B32248006858B12048001F006838B103
:100F30001E480838006818B11D48006801281CD1F7
:100F40000A2005F0D3FA00201749087017480068F6
:100F500008B9012010BD1548001F006808B902201B
:100F6000F8E712480838006808B90320F2E710488B
:100F70000068012815D10420ECE70C48006801281E
:100F80000FD10A48001F006801280AD10748083815
:100F90000068012805D10648006810B901200249FF
:100FA00008700020D6E700006600002010024242D0
:100FB0000002404270B50446002617480588408864
:100FC00045431548808846F60401884216D11248E8
:100FD0008079012812D100200F4988712A20488188
:100FE0002B2088810021084604F06CF801200A4972
:100FF00088712B2048812A20888103E0002108463F
:1010000004F060F804F01CFB002602E003480480B2
:10101000761CAE42FAD370BDF0F201208000006C65
:1010200010B50446002C66D16C498871F020088008
:101030004FF4A07048800846808849F241318842C8
:101040000BD06648808846F60401884205D0634884
:10105000808845F2103188421AD12C205F490881DE
:101060002A2048812B2088810846808846F6040182
:10107000884205D05948808845F21031884206D10F
:101080004FF4A070554908804FF4F0704880A1E0FB
:101090005248808845F21051884210D14FF43050A8
:1010A0004E4908814FF4285048814FF42C508881D4
:1010B0004FF4F07008804FF4487048808AE0474849
:1010C000808841F6631188420DD12C204349088164
:1010D0002B2048812A2088814FF4F07008804FF43B
:1010E0004870488076E022203C49088120204881D1
:1010F000212088816EE00120384988714FF4A0706A
:101100000880F02048800846808849F241318842B2
:1011100005D03248808845F21031884207D12C2012
:101120002E4908812A2048812B2088813FE02B48C6
:10113000808846F60401884207D12C20274908817F
:101140002B2048812A20888131E02448808845F27C
:101150001051884210D14FF43050204908814FF48B
:10116000285048814FF42C5088814FF448700880F3
:101170004FF4F07048801AE01848808841F66311F7
:1011800088420DD12C20154908812A2048812B2026
:1011900088814FF4487008804FF4F070488006E072
:1011A00022200E49088121204881202088810B4877
:1011B000808846F60401884205D00848808845F2B8
:1011C0001031884206D14FF4F070044908804FF482
:1011D000A0704880002003F0FFFD10BDF0F2012058
:1011E00070B504460D4616465B48808849F2413189
:1011F000884205D05848808845F21031884214D181
:101200005549488904F010FA201204F001FAE0B2BE
:1012100004F0FEF95049888904F006FA281204F017
:10122000F7F9E8B204F0F4F98CE04B48808845F215
:101230001051884220D14849488904F0F5F920121C
:1012400004F0E6F944494989491C88B204F0ECF9F4
:10125000E0B204F0DDF94049888904F0E5F928128C
:1012600004F0D6F93C498989491C88B204F0DCF9BC
:10127000E8B204F0CDF965E03748808841F66311A3
:10128000884228D13448807920B933480088401EEC
:10129000001B84B23049488904F0C6F9201204F0DA
:1012A000B7F9E0B204F0B4F9201204F0B1F9E0B2F9
:1012B00004F0AEF92849888904F0B6F9281204F040
:1012C000A7F9E8B204F0A4F9281204F0A1F9E8B2F1
:1012D00004F09EF936E02048808846F604018842F2
:1012E0001DD11D488079012804D11B480088401E6B
:1012F000001B84B21849488904F096F9201204F0C2
:1013000087F9E0B204F084F91349888904F08CF974
:10131000281204F07DF9E8B204F07AF912E00E48E0
:101320008079012804D10C480088401E001B84B23B
:1013300009494889214604F08DF9074988892946D9
:1013400004F088F904480089044908804FF0D84027
:10135000A0F8806070BD0000F0F201207E00006CFB
:101360002DE9FC4F05460E4617469846DDF82C90B1
:10137000002001902748808846F60401884229D140
:1013800024488079012825D1AB463546214800887C
:10139000C01B401E86B247461E480088A0EB0B00CB
:1013A000401E1FFA80F800201A4988712A204881BF
:1013B0002B20888143463A4631462846CDF8009096
:1013C000FFF7CEFF0120134988712B2048812A2086
:1013D00088811DE0781B401C80B20190344615E0E6
:1013E0002146284603F06EFE04F02AF94FF0000A69
:1013F00007E04FF0D840A0F880900AF101001FFAF2
:1014000080FA01988245F4DB601C84B24445E7DD34
:10141000BDE8FC8FF0F201201CB5FE48006840F0EA
:101420007800FC4908600846006840F00200086047
:10143000F8480830006840F00100F64908310860BB
:101440000120022100230246CDE90010C103F24829
:10145000FFF7C6FC0120032100230222CDE9001082
:101460004CF23371ED48FFF7BBFC01200321002350
:101470000222CDE900104FF68071E948FFF7B0FC79
:101480000120032100230222CDE900100103E548D9
:10149000FFF7A6FC0120032100230222CDE9001062
:1014A0000103E148FFF79CFC0C220021DB48FFF719
:1014B00077FC0C220121D948FFF772FC0C22042191
:1014C000D648FFF76DFC0C220521D448FFF768FCD5
:1014D0000C220821D148FFF763FC0C220921CF48D8
:1014E000FFF75EFC0C220A21CC48FFF759FC0C22C6
:1014F0000E21CA48FFF754FC0C220F21C748FFF702
:101500004FFC0C220721C648FFF74AFC0C22082199
:10151000C348FFF745FC0C220921C148FFF740FCF6
:101520000C220A21BE48FFF73BFC0C220B21BC48D1
:10153000FFF736FC0C221146B948FFF731FC0C22AC
:101540000D21B748FFF72CFC0C220E21B448FFF701
:1015500027FC0C220F21B248FFF722FC0C22114677
:10156000B048FFF71DFC0C221146AF48FFF718FCEE
:1015700000204FF020418861C861AC4908604FF0FD
:101580002040806940F480504FF020418861084637
:10159000806940F4804088610846806940F010000E
:1015A00088610846C069C8610846C06940F00F00FC
:1015B000C8610846C06940F47050C8619B48006823
:1015C000C1F81C010846D0F81C0140F00900C1F820
:1015D0001C010846D0F81C0140F40060C1F81C0151
:1015E0000846806940F001008861322004F07EFFE7
:1015F0000121002004F02EF8322004F077FF0020B3
:1016000003F0AEFB8A49888008468088FF280ADB01
:10161000084680884FF6FF71884204D0844880884D
:10162000B0F5134F7ED1D32003F0FEFF03F08EFB05
:101630007F49888003F08AFB7D49888003F086FB20
:101640007B498880084680884FF6FF7101EA0020B8
:101650007749888003F07AFB754989880843744983
:1016600088800846808849F2413188425AD0BF209C
:1016700003F0DAFF03F06AFB6D49888003F066FB34
:101680006B49888003F062FB6949888003F05EFB48
:1016900067498880084680884FF6FF7101EA00207C
:1016A0006349888003F052FB614989880843604997
:1016B00088800846808846F6040188427AD0D42083
:1016C00003F0B2FF03F042FB5949888003F03EFB70
:1016D0005749888003F03AFB55498880084680883E
:1016E0004FF6FF7101EA00205149888003F02EFB7C
:1016F0004F49898808434E4988800846808845F2CA
:101700001031884256D04FF45A4003F08DFF03F059
:101710001DFB474988804FF45B4003F085FF03F0D1
:1017200015FB00E046E042498880084680884FF675
:10173000FF7101EA00203E4988804FF45C4003F0CD
:1017400073FF03F003FB3A498988084338498880CE
:1017500008468088B0F5004F02D145F210508880CD
:101760003348808845F21051884223D0A12003F0ED
:101770005BFF03F0EBFA2E49888003F0E7FA2C496F
:101780008880084680884FF6FF7101EA00202849CA
:10179000888003F0DBFA2649898808432449888039
:1017A0000846808845F26171884203D141F6631092
:1017B0001F4988801E48808849F24131884211D0F3
:1017C0001B48808845F2103188420BD01848808829
:1017D00045F21051884205D01548808841F66311C2
:1017E00088422ED11148006820F00F004FF02041B0
:1017F000C1F81C010846D0F81C0120F47060C1F843
:101800001C010846D0F81C0140F00300C1F81C017F
:1018100008460FE03038024000040240000C02404D
:101820000010024000140240001802401C0100A0F9
:10183000F0F20120D0F81C0140F40070C1F81C0146
:1018400028E0FE48808846F60401884205D0FB481F
:1018500080884CF2055188421CD1F948006820F07C
:101860000F004FF02041C1F81C010846D0F81C01C0
:1018700020F47060C1F81C010846D0F81C0140F04B
:101880000A00C1F81C010846D0F81C0140F4406071
:10189000C1F81C01E9488188EAA0FEF71DFDE74870
:1018A000808849F2413188427ED1CF2003F0BCFECE
:1018B000002003F0ADFEC12003F0AAFE302003F0AB
:1018C000A7FEED2003F0B0FE642003F0A1FE03208C
:1018D00003F09EFE122003F09BFE812003F098FE91
:1018E000E82003F0A1FE852003F092FE102003F013
:1018F0008FFE7A2003F08CFECB2003F095FE39207A
:1019000003F086FE2C2003F083FE002003F080FE0F
:10191000342003F07DFE022003F07AFEF72003F06E
:1019200083FE202003F074FEEA2003F07DFE0020F9
:1019300003F06EFE002003F06BFEC02003F074FE87
:101940001B2003F065FEC12003F06EFE012003F0B2
:101950005FFEC52003F068FE302003F059FE302002
:1019600003F056FEC72003F05FFEB72003F050FEE1
:10197000362003F059FE482003F04AFE3A2003F0D7
:1019800053FE552003F044FEB12003F04DFE00202D
:1019900003F03EFE1A2003F03BFEB62003F044FEA7
:1019A0000A2003F035FE00E097E0A22003F030FEAD
:1019B000F22003F039FE002003F02AFE262003F077
:1019C00033FE012003F024FEE02003F02DFE0F2063
:1019D00003F01EFE2A2003F01BFE282003F018FE51
:1019E000082003F015FE0E2003F012FE082003F07D
:1019F0000FFE542003F00CFEA92003F009FE432043
:101A000003F006FE0A2003F003FE0F2003F000FEA1
:101A1000002003F0FDFD002003F0FAFD002003F09C
:101A2000F7FD002003F0F4FDE12003F0FDFD0020B0
:101A300003F0EEFD152003F0EBFD172003F0E8FDA9
:101A4000072003F0E5FD112003F0E2FD062003F07E
:101A5000DFFD2B2003F0DCFD562003F0D9FD3C20F8
:101A600003F0D6FD052003F0D3FD102003F0D0FDD8
:101A70000F2003F0CDFD3F2003F0CAFD3F2003F00F
:101A8000C7FD0F2003F0C4FD2B2003F0CDFD002087
:101A900003F0BEFD002003F0BBFD012003F0B8FD04
:101AA0003F2003F0B5FD2A2003F0BEFD002003F027
:101AB000AFFD002003F0ACFD002003F0A9FDEF20F6
:101AC00003F0A6FD112003F0AFFD782004F00EFD19
:101AD000292003F0A9FD03F029B95848808846F66B
:101AE000040188427ED1112003F09EFD142004F0F1
:101AF000FDFCD02003F098FD072003F089FD422073
:101B000003F086FD1D2003F083FDD12003F08CFD42
:101B1000002003F07DFD1A2003F07AFD092003F078
:101B200077FDD22003F080FD012003F071FD22201B
:101B300003F06EFDC02003F077FD102003F068FD78
:101B40003B2003F065FD002003F062FD022003F05E
:101B50005FFD112003F05CFDC52003F065FD03204F
:101B600003F056FDC82003F05FFD002003F050FD98
:101B7000252003F04DFD212003F04AFD052003F050
:101B800047FD002003F044FD0A2003F041FD6520DD
:101B900003F03EFD252003F03BFD772003F038FDE8
:101BA000502003F035FD0F2003F032FD002003F03C
:101BB0002FFDF82003F038FD012003F029FDFE2061
:101BC00003F032FD002003F023FD022003F020FD8E
:101BD000202003F029FD362003F026FD082003F025
:101BE00017FD00E036E03A2003F01EFD552003F01B
:101BF0000FFD2B2003F018FD002003F009FD00204D
:101C000003F006FD012003F003FD3F2003F000FD7B
:101C10002A2003F009FD002003F0FAFC002003F065
:101C2000F7FC012003F0F4FCDF2003F0F1FC782046
:101C300004F05CFC292003F0F7FC4CE7F0F20120F3
:101C40001C0100A0204C43442049443A25780D0A49
:101C500000000000FE48808845F21031884240F0C4
:101C60007C87ED2003F0E0FC012003F0D1FCFE2096
:101C700003F0CEFCEE2003F0D7FCDE2003F0C8FC1E
:101C8000212003F0C5FCF12003F0CEFC012003F07D
:101C9000BFFCDF2003F0C8FC102003F0B9FCC42017
:101CA00003F0C2FC8F2003F0B3FCC62003F0BCFCA1
:101CB000002003F0ADFCE22003F0AAFCE22003F0D8
:101CC000A7FCE22003F0A4FCBF2003F0ADFCAA2097
:101CD00003F09EFCB02003F0A7FC0D2003F098FC5D
:101CE000002003F095FC0D2003F092FC002003F08F
:101CF0008FFC112003F08CFC002003F089FC1920DC
:101D000003F086FC002003F083FC212003F080FC1C
:101D1000002003F07DFC2D2003F07AFC002003F06E
:101D200077FC3D2003F074FC002003F071FC5D2083
:101D300003F06EFC002003F06BFC5D2003F068FCF8
:101D4000002003F065FCB12003F06EFC802003F05E
:101D50005FFC002003F05CFC8B2003F059FC0020AA
:101D600003F056FC962003F053FC002003F050FCD7
:101D7000B22003F059FC002003F04AFC002003F0DD
:101D800047FC022003F044FC002003F041FC032048
:101D900003F03EFC002003F03BFCB32003F044FCC6
:101DA000002003F035FC002003F032FC002003F09B
:101DB0002FFC002003F02CFC002003F029FC002065
:101DC00003F026FC002003F023FC002003F020FC9D
:101DD000002003F01DFC002003F01AFC002003F09B
:101DE00017FC002003F014FC002003F011FC00207D
:101DF00003F00EFC002003F00BFC002003F008FCB5
:101E0000002003F005FC002003F002FC002003F09A
:101E1000FFFB002003F0FCFB002003F0F9FB002097
:101E200003F0F6FB002003F0F3FB002003F0F0FBCF
:101E3000B42003F0F9FB8B2003F0EAFB002003F051
:101E4000E7FB962003F0E4FB002003F0E1FBA12078
:101E500003F0DEFB002003F0DBFBB52003F0E4FB26
:101E6000022003F0D5FB002003F0D2FB032003F097
:101E7000CFFB002003F0CCFB042003F0C9FB0020C3
:101E800003F0C6FBB62003F0CFFB002003F0C0FB3D
:101E9000002003F0BDFBB72003F0C6FB002003F0D9
:101EA000B7FB002003F0B4FB3F2003F0B1FB0020A0
:101EB00003F0AEFB5E2003F0ABFB002003F0A8FBB9
:101EC000642003F0A5FB002003F0A2FB8C2003F0AC
:101ED0009FFB002003F09CFBAC2003F099FB00204B
:101EE00003F096FBDC2003F093FB002003F090FB53
:101EF000702003F08DFB002003F08AFB902003F09C
:101F000087FB002003F084FBEB2003F081FB002023
:101F100003F07EFBDC2003F07BFB002003F078FB6A
:101F2000B82003F081FB002003F072FB002003F0D7
:101F30006FFB002003F06CFB002003F069FB002026
:101F400003F066FB002003F063FB002003F060FB5E
:101F5000002003F05DFBBA2003F066FB242003F0B1
:101F600057FB002003F054FB002003F051FB00203E
:101F700003F04EFBC12003F057FB202003F048FB89
:101F8000002003F045FB542003F042FB002003F047
:101F90003FFBFF2003F03CFB002003F039FBC22095
:101FA00003F042FB0A2003F033FB002003F030FB78
:101FB000042003F02DFB002003F02AFBC32003F0D4
:101FC00033FB3C2003F024FB002003F021FB3A20EC
:101FD00003F01EFB002003F01BFB392003F018FB6D
:101FE000002003F015FB372003F012FB002003F064
:101FF0000FFB3C2003F00CFB002003F009FB362014
:1020000003F006FB002003F003FB322003F000FB8B
:10201000002003F0FDFA2F2003F0FAFA002003F06D
:10202000F7FA2C2003F0F4FA002003F0F1FA29204B
:1020300003F0EEFA002003F0EBFA262003F0E8FAB2
:10204000002003F0E5FA242003F0E2FA002001E08A
:10205000F0F2012003F0DCFA242003F0D9FA00208A
:1020600003F0D6FA232003F0D3FA002003F0D0FACD
:102070003C2003F0CDFA002003F0CAFA362003F02A
:10208000C7FA002003F0C4FA322003F0C1FA00209E
:1020900003F0BEFA2F2003F0BBFA002003F0B8FAD9
:1020A0002C2003F0B5FA002003F0B2FA292003F047
:1020B000AFFA002003F0ACFA262003F0A9FA0020C2
:1020C00003F0A6FA242003F0A3FA002003F0A0FAFC
:1020D000242003F09DFA002003F09AFA232003F055
:1020E00097FA002003F094FAC42003F09DFA6220CE
:1020F00003F08EFA002003F08BFA052003F088FA33
:10210000002003F085FA842003F082FA002003F017
:102110007FFAF02003F07CFA002003F079FA18200F
:1021200003F076FA002003F073FAA42003F070FAAB
:10213000002003F06DFA182003F06AFA002003F083
:1021400067FA502003F064FA002003F061FA0C20D3
:1021500003F05EFA002003F05BFA172003F058FA50
:10216000002003F055FA952003F052FA002003F006
:102170004FFAF32003F04CFA002003F049FAE6206E
:1021800003F046FA002003F043FAC52003F04CFAAE
:10219000322003F03DFA002003F03AFA442003F025
:1021A00037FA002003F034FA652003F031FA0020FA
:1021B00003F02EFA762003F02BFA002003F028FA21
:1021C000882003F025FA002003F022FAC62003F04D
:1021D0002BFA202003F01CFA002003F019FA172034
:1021E00003F016FA002003F013FA012003F010FAAE
:1021F000002003F00DFAC72003F016FA002003F0C8
:1022000007FA002003F004FA002003F001FA00208E
:1022100003F0FEF9C82003F007FA002003F0F8F9F4
:10222000002003F0F5F9002003F0F2F9002003F09C
:10223000EFF9C92003F0F8F9002003F0E9F90020D4
:1022400003F0E6F9002003F0E3F9002003F0E0F9E1
:10225000002003F0DDF9002003F0DAF9002003F09C
:10226000D7F9002003F0D4F9002003F0D1F90020C1
:1022700003F0CEF9002003F0CBF9002003F0C8F9F9
:10228000002003F0C5F9002003F0C2F9002003F09C
:10229000BFF9002003F0BCF9E02003F0C5F91620D7
:1022A00003F0B6F9002003F0B3F91C2003F0B0F9F5
:1022B000002003F0ADF9212003F0AAF9002003F07B
:1022C000A7F9362003F0A4F9002003F0A1F9462075
:1022D00003F09EF9002003F09BF9522003F098F9D7
:1022E000002003F095F9642003F092F9002003F038
:1022F0008FF97A2003F08CF9002003F089F98B2004
:1023000003F086F9002003F083F9992003F080F9A7
:10231000002003F07DF9A82003F07AF9002003F0F3
:1023200077F9B92003F074F9002003F071F9C420A3
:1023300003F06EF9002003F06BF9CA2003F068F98E
:10234000002003F065F9D22003F062F9002003F0C9
:102350005FF9D92003F05CF9002003F059F9E0207F
:1023600003F056F9002003F053F9F32003F050F97D
:10237000002003F04DF9E12003F056F9162003F098
:1023800047F9002003F044F91C2003F041F9002034
:1023900003F03EF9222003F03BF9002003F038F966
:1023A000362003F035F9002003F032F9452003F020
:1023B0002FF9002003F02CF9522003F029F9002016
:1023C00003F026F9642003F023F9002003F020F93C
:1023D0007A2003F01DF9002003F01AF98B2003F096
:1023E00017F9002003F014F9992003F011F90020E7
:1023F00003F00EF9A82003F00BF9002003F008F910
:10240000B92003F005F9002003F002F9C42003F01D
:10241000FFF8002003F0FCF8CA2003F0F9F80020D0
:1024200003F0F6F8D22003F0F3F8002003F0F0F800
:10243000D82003F0EDF8002003F0EAF8E02003F0E4
:10244000E7F8002003F0E4F8F32003F0E1F80020BF
:1024500003F0DEF8E22003F0E7F8052003F0D8F8F7
:10246000002003F0D5F80B2003F0D2F8002003F091
:10247000CFF81B2003F0CCF8002003F0C9F834207B
:1024800003F0C6F8002003F0C3F8442003F0C0F8BE
:10249000002003F0BDF84F2003F0BAF8002003F04D
:1024A000B7F8612003F0B4F8002003F0B1F8792008
:1024B00003F0AEF8002003F0ABF8882003F0A8F892
:1024C000002003F0A5F8972003F0A2F8002003F005
:1024D0009FF8A62003F09CF8002003F099F8B7209D
:1024E00003F096F8002003F093F8C22003F090F870
:1024F000002003F08DF8C72003F08AF8002003F0D5
:1025000087F8D12003F084F8002003F081F8D6206A
:1025100003F07EF8002003F07BF8DD2003F078F86C
:10252000002003F075F8F32003F072F8002003F0A8
:102530006FF8E32003F078F8052003F069F8002035
:1025400003F066F80A2003F063F8002003F060F857
:102550001C2003F05DF8002003F05AF8332003F04C
:1025600057F8002003F054F8442003F051F80020FD
:1025700003F04EF8502003F04BF8002003F048F829
:10258000622003F045F8002003F042F8782003F0C1
:102590003FF8002003F03CF8882003F039F80020D1
:1025A00003F036F8972003F033F8002003F030F8FA
:1025B000A62003F02DF8002003F02AF8B72003F03E
:1025C00027F8002003F024F8C22003F021F80020AF
:1025D00003F01EF8C72003F01BF8002003F018F8E2
:1025E000D12003F015F8002003F012F8D52003F0F5
:1025F0000FF8002003F00CF8DD2003F009F80020AC
:1026000003F006F8F32003F003F8002003F000F8CD
:10261000E42003F009F8012002F0FAFF002002F0A4
:10262000F7FF012002F0F4FF002002F0F1FF02208A
:1026300002F0EEFF002002F0EBFF2A2002F0E8FF9C
:10264000002002F0E5FF3C2002F0E2FF002002F053
:10265000DFFF4B2002F0DCFF002002F0D9FF5D20FD
:1026600002F0D6FF002002F0D3FF742002F0D0FF6A
:10267000002002F0CDFF842002F0CAFF002002F00B
:10268000C7FF932002F0C4FF002002F0C1FFA22088
:1026900002F0BEFF002002F0BBFFB32002F0B8FF43
:1026A000002002F0B5FFBE2002F0B2FF002002F0D1
:1026B000AFFFC42002F0ACFF002002F0A9FFCD2044
:1026C00002F0A6FF002002F0A3FFD32002F0A0FF3B
:1026D000002002F09DFFDD2002F09AFF002002F0B2
:1026E00097FFF32002F094FF002002F091FFE52015
:1026F00002F09AFF002002F08BFF002002F088FF1A
:10270000002002F085FF002002F082FF022002F08C
:102710007FFF002002F07CFF292002F079FF0020DB
:1027200002F076FF3C2002F073FF002002F070FF01
:102730004B2002F06DFF002002F06AFF5D2002F0E6
:1027400067FF002002F064FF742002F061FF0020A8
:1027500002F05EFF842002F05BFF002002F058FFD1
:10276000932002F055FF002002F052FFA22002F059
:102770004FFF002002F04CFFB32002F049FF002081
:1027800002F046FFBE2002F043FF002002F040FFAF
:10279000C42002F03DFF002002F03AFFCD2002F0FD
:1027A00037FF002002F034FFD32002F031FF002079
:1027B00002F02EFFDC2002F02BFF002002F028FFA9
:1027C000F32002F025FF002002F022FFE62002F0B5
:1027D0002BFF112002F01CFF002002F019FF342013
:1027E00002F016FF002002F013FF562002F010FF47
:1027F000002002F00DFF762002F00AFF002002F018
:1028000007FF772002F004FF002002F001FF66209E
:1028100002F0FEFE002002F0FBFE882002F0F8FE2F
:10282000002002F0F5FE992002F0F2FE002002F0F6
:10283000EFFEBB2002F0ECFE002002F0E9FE992042
:1028400002F0E6FE002002F0E3FE662002F0E0FE69
:10285000002002F0DDFE552002F0DAFE002002F03A
:10286000D7FE552002F0D4FE002002F0D1FE452014
:1028700002F0CEFE002002F0CBFE432002F0C8FEA4
:10288000002002F0C5FE442002F0C2FE002002F04B
:10289000BFFEE72002F0C8FE322002F0B9FE0020A1
:1028A00002F0B6FE552002F0B3FE002002F0B0FEAA
:1028B000762002F0ADFE002002F0AAFE662002F0B3
:1028C000A7FE002002F0A4FE672002F0A1FE002077
:1028D00002F09EFE672002F09BFE002002F098FEB0
:1028E000872002F095FE002002F092FE992002F06F
:1028F0008FFE002002F08CFEBB2002F089FE00203B
:1029000002F086FE992002F083FE002002F080FE95
:10291000772002F07DFE002002F07AFE442002F0D3
:1029200077FE002002F074FE562002F071FE0020B7
:1029300002F06EFE232002F06BFE002002F068FE23
:10294000332002F065FE002002F062FE452002F016
:102950005FFE002002F05CFEE82002F065FE002031
:1029600002F056FE002002F053FE992002F050FEC5
:10297000002002F04DFE872002F04AFE002002F007
:1029800047FE882002F044FE002002F041FE77203E
:1029900002F03EFE002002F03BFE662002F038FE10
:1029A000002002F035FE882002F032FE002002F006
:1029B0002FFEAA2002F02CFE002002F029FEBB20F0
:1029C00002F026FE002002F023FE992002F020FEF5
:1029D000002002F01DFE662002F01AFE002002F028
:1029E00017FE552002F014FE002002F011FE5520C3
:1029F00002F00EFE002002F00BFE442002F008FE62
:102A0000002002F005FE442002F002FE002002F049
:102A1000FFFD552002F0FCFD002002F0F9FDE92049
:102A200002F002FEAA2002F0F3FD002002F0F0FD09
:102A3000002002F0EDFD002002F0EAFD002002F08F
:102A4000F3FDAA2002F0E4FDCF2002F0EDFD00200E
:102A500002F0DEFD002002F0DBFD002002F0D8FDD8
:102A6000002002F0D5FD002002F0D2FD002002F08F
:102A7000CFFD002002F0CCFD002002F0C9FD0020B7
:102A800002F0C6FD002002F0C3FD002002F0C0FDF0
:102A9000002002F0BDFD002002F0BAFD002002F08F
:102AA000B7FD002002F0B4FD002002F0B1FD0020CF
:102AB00002F0AEFDF02002F0B7FD002002F0A8FD0C
:102AC000502002F0A5FD002002F0A2FD002002F03F
:102AD0009FFD002002F09CFDF32002F0A5FD0020E8
:102AE00002F096FDF92002F09FFD062002F090FD15
:102AF000102002F08DFD292002F08AFD002002F056
:102B000087FD3A2002F090FD552002F081FD112052
:102B100002F08AFD642003F0E9FC292002F084FD24
:102B2000352002F081FD002002F072FD512002F0FC
:102B30007BFDFF2002F06CFD532002F075FD2C2080
:102B400002F066FD552002F06FFD822002F060FD6C
:102B50002C2002F069FD02F0E9B8FE48808845F2B9
:102B6000105188427ED155214FF4704002F072FD21
:102B7000AA214FF2010002F06DFD52214FF2020036
:102B800002F068FD08214FF2030002F063FD01210D
:102B90004FF2040002F05EFD0D214FF4304002F0D0
:102BA00059FD0D214BF2010002F054FD0D214BF2B5
:102BB000020002F04FFD34214FF4364002F04AFD8E
:102BC00034214BF2016002F045FD34214BF20260EA
:102BD00002F040FD0D214FF4314002F03BFD0D218C
:102BE0004BF2011002F036FD0D214BF2021002F003
:102BF00031FD34214FF4374002F02CFD34214BF2EB
:102C0000017002F027FD34214BF2027002F022FD28
:102C100000214FF4324002F01DFD00214BF2012053
:102C200002F018FD00214BF2022002F013FD2421D6
:102C30004FF4384002F00EFD24214BF6010002F063
:102C400009FD24214BF6020002F004FD01214FF49E
:102C50003F4002F0FFFC0F214FF4334002F0FAFC3A
:102C60000F2100E0FEE34BF2013002F0F3FC0F21F4
:102C70004BF2023002F0EEFC34214FF4394002F006
:102C8000E9FC34214BF6011002F0E4FC34214BF650
:102C9000021002F0DFFC08214FF4354002F0DAFCAC
:102CA00008214BF2015002F0D5FC08214BF20250F2
:102CB00002F0D0FC03214FF4424002F0CBFC24216F
:102CC0004FF43A4002F0C6FC24214BF6012002F0FA
:102CD000C1FC24214BF6022002F0BCFC00214FF481
:102CE0003C4002F0B7FC78214BF6014002F0B2FC08
:102CF00000214BF6024002F0ADFC00214FF43D40B4
:102D000002F0A8FC78214BF6015002F0A3FC002150
:102D10004BF6025002F09EFC00214FF43E4002F0C0
:102D200099FC64214BF6016002F094FC00214FF401
:102D3000514002F08FFC33214DF2011002F08AFC69
:102D400000214DF2021002F085FC34214DF20310F7
:102D500002F080FC00214DF2041002F07BFC3A21CD
:102D60004DF2051002F076FC00214DF2061002F043
:102D700071FC4A214DF2071002F06CFC00214DF26B
:102D8000081002F067FC5C214DF2091002F062FCB1
:102D900000214DF20A1002F05DFC81214DF20B1072
:102DA00002F058FC00214DF20C1002F053FCA62159
:102DB0004DF20D1002F04EFC00214DF20E1002F00B
:102DC00049FCE5214DF20F1002F044FC01214DF2C7
:102DD000101002F03FFC13214DF2111002F03AFCEA
:102DE00001214DF2121002F035FC54214DF2131066
:102DF00002F030FC01214DF2141002F02BFC822174
:102E00004DF2151002F026FC01214DF2161002F0D1
:102E100021FCCA214DF2171002F01CFC02214DF2D8
:102E2000181002F017FC00214DF2191002F012FCEC
:102E300002214DF21A1002F00DFC01214DF21B107F
:102E400002F008FC02214DF21C1002F003FC3421B8
:102E50004DF21D1002F0FEFB02214DF21E1002F099
:102E6000F9FB67214DF21F1002F0F4FB02214DF235
:102E7000201002F0EFFB84214DF2211002F0EAFB5A
:102E800002214DF2221002F0E5FBA4214DF22310A5
:102E900002F0E0FB02214DF2241002F0DBFBB7212F
:102EA0004DF2251002F0D6FB02214DF2261002F061
:102EB000D1FBCF214DF2271002F0CCFB02214DF2C5
:102EC000281002F0C7FBDE214DF2291002F0C2FBF0
:102ED00002214DF22A1002F0BDFBF2214DF22B101F
:102EE00002F0B8FB02214DF22C1002F0B3FBFE21E0
:102EF0004DF22D1002F0AEFB03214DF22E1002F028
:102F0000A9FB10214DF22F1002F0A4FB03214DF27A
:102F1000301002F09FFB33214DF2311002F09AFB8A
:102F200003214DF2321002F095FB6D214DF233106A
:102F300002F090FB00214FF4524002F08BFB332152
:102F40004DF2012002F086FB00214DF2022002F03A
:102F500081FB01E0F0F2012034214DF2032002F068
:102F600079FB00214DF2042002F074FB3A214DF26E
:102F7000052002F06FFB00214DF2062002F06AFBF3
:102F80004A214DF2072002F065FB00214DF2082096
:102F900002F060FB5C214DF2092002F05BFB002196
:102FA0004DF20A2002F056FB81214DF20B2002F077
:102FB00051FB00214DF20C2002F04CFBA6214DF2FA
:102FC0000D2002F047FB00214DF20E2002F042FBE3
:102FD000E5214DF20F2002F03DFB01214DF21020C2
:102FE00002F038FB13214DF2112002F033FB0121D6
:102FF0004DF2122002F02EFB54214DF2132002F06C
:1030000029FB01214DF2142002F024FB82214DF214
:10301000152002F01FFB01214DF2162002F01AFBD1
:10302000CA214DF2172002F015FB02214DF21820A3
:1030300002F010FB00214DF2192002F00BFB0221DF
:103040004DF21A2002F006FB01214DF21B2002F086
:1030500001FB02214DF21C2002F0FCFA34214DF25A
:103060001D2002F0F7FA02214DF21E2002F0F2FAC2
:1030700067214DF21F2002F0EDFA02214DF22020CF
:1030800002F0E8FA84214DF2212002F0E3FA022155
:103090004DF2222002F0DEFAA4214DF2232002F0AC
:1030A000D9FA02214DF2242002F0D4FAB7214DF2D0
:1030B000252002F0CFFA02214DF2262002F0CAFAB2
:1030C000CF214DF2272002F0C5FA02214DF228202F
:1030D00002F0C0FADE214DF2292002F0BBFA0221F3
:1030E0004DF22A2002F0B6FAF2214DF22B2002F026
:1030F000B1FA02214DF22C2002F0ACFAFE214DF281
:103100002D2002F0A7FA03214DF22E2002F0A2FAA0
:1031100010214DF22F2002F09DFA03214DF23020B4
:1031200002F098FA33214DF2312002F093FA032194
:103130004DF2322002F08EFA6D214DF2332002F072
:1031400089FA00214FF4534002F084FA33214DF202
:10315000013002F07FFA00214DF2023002F07AFADB
:1031600034214DF2033002F075FA00214DF20430A3
:1031700002F070FA3A214DF2053002F06BFA0021AC
:103180004DF2063002F066FA4A214DF2073002F0A5
:1031900061FA00214DF2083002F05CFA5C214DF238
:1031A000093002F057FA00214DF20A3002F052FACB
:1031B00081214DF20B3002F04DFA00214DF20C301E
:1031C00002F048FAA6214DF20D3002F043FA002138
:1031D0004DF20E3002F03EFAE5214DF20F3002F0D2
:1031E00039FA01214DF2103002F034FA13214DF278
:1031F000113002F02FFA01214DF2123002F02AFABA
:1032000054214DF2133002F025FA01214DF2143011
:1032100002F020FA82214DF2153002F01BFA012152
:103220004DF2163002F016FACA214DF2173002F0B4
:1032300011FA02214DF2183002F00CFA00214DF281
:10324000193002F007FA02214DF21A3002F002FAA8
:1032500001214DF21B3002F0FDF902214DF21C302C
:1032600002F0F8F934214DF21D3002F0F3F9022199
:103270004DF21E3002F0EEF967214DF21F3002F0E0
:10328000E9F902214DF2203002F0E4F984214DF2F7
:10329000213002F0DFF902214DF2223002F0DAF99A
:1032A000A4214DF2233002F0D5F902214DF2243051
:1032B00002F0D0F9B7214DF2253002F0CBF902210E
:1032C0004DF2263002F0C6F9CF214DF2273002F040
:1032D000C1F902214DF2283002F0BCF9DE214DF295
:1032E000293002F0B7F902214DF22A3002F0B2F98A
:1032F000F2214DF22B3002F0ADF902214DF22C30CB
:1033000002F0A8F9FE214DF22D3002F0A3F90321BD
:103310004DF22E3002F09EF910214DF22F3002F0C6
:1033200099F903214DF2303002F094F933214DF236
:10333000313002F08FF903214DF2323002F08AF978
:103340006D214DF2333002F085F900214FF45440E5
:1033500002F080F933214DF2014002F07BF90021A7
:103360004DF2024002F076F934214DF2034002F0B2
:1033700071F900214DF2044002F06CF93A214DF24E
:10338000054002F067F900214DF2064002F062F9B3
:103390004A214DF2074002F05DF900214DF208404C
:1033A00002F058F95C214DF2094002F053F9002176
:1033B0004DF20A4002F04EF981214DF20B4002F02D
:1033C00049F900214DF20C4002F044F9A6214DF2DA
:1033D0000D4002F03FF900214DF20E4002F03AF9A3
:1033E000E5214DF20F4002F035F901214DF2104078
:1033F00002F030F913214DF2114002F02BF90121B6
:103400004DF2124002F026F954214DF2134002F021
:1034100021F901214DF2144002F01CF982214DF2F4
:10342000154002F017F901214DF2164002F012F991
:10343000CA214DF2174002F00DF902214DF2184059
:1034400002F008F900214DF2194002F003F90221BF
:103450004DF21A4002F0FEF801214DF21B4002F03D
:10346000F9F800E004E302214DF21C4002F0F2F80A
:1034700034214DF21D4002F0EDF802214DF21E40C4
:1034800002F0E8F867214DF21F4002F0E3F8022154
:103490004DF2204002F0DEF884214DF2214002F08E
:1034A000D9F802214DF2224002F0D4F8A4214DF2C5
:1034B000234002F0CFF802214DF2244002F0CAF876
:1034C000B7214DF2254002F0C5F802214DF2264009
:1034D00002F0C0F8CF214DF2274002F0BBF80221E4
:1034E0004DF2284002F0B6F8DE214DF2294002F0FC
:1034F000B1F802214DF22A4002F0ACF8F2214DF26F
:103500002B4002F0A7F802214DF22C4002F0A2F865
:10351000FE214DF22D4002F09DF803214DF22E4088
:1035200002F098F810214DF22F4002F093F8032199
:103530004DF2304002F08EF833214DF2314002F06E
:1035400089F803214DF2324002F084F86D214DF2EA
:10355000334002F07FF800214FF4554002F07AF832
:1035600033214DF2015002F075F800214DF2025066
:1035700002F070F834214DF2035002F06BF8002194
:103580004DF2045002F066F83A214DF2055002F077
:1035900061F800214DF2065002F05CF84A214DF22C
:1035A000075002F057F800214DF2085002F052F88F
:1035B0005C214DF2095002F04DF800214DF20A5005
:1035C00002F048F881214DF20B5002F043F800213F
:1035D0004DF20C5002F03EF8A6214DF20D5002F0D3
:1035E00039F800214DF20E5002F034F8E5214DF289
:1035F0000F5002F02FF801214DF2105002F02AF87E
:1036000013214DF2115002F025F801214DF2125014
:1036100002F020F854214DF2135002F01BF8012162
:103620004DF2145002F016F882214DF2155002F0BE
:1036300011F801214DF2165002F00CF8CA214DF29A
:10364000175002F007F802214DF2185002F002F86C
:1036500000214DF2195001F0FDFF02214DF21A50E8
:1036600001F0F8FF01214DF21B5001F0F3FF0221A0
:103670004DF21C5001F0EEFF34214DF21D5001F0CF
:10368000E9FF02214DF21E5001F0E4FF67214DF2E7
:103690001F5001F0DFFF02214DF2205001F0DAFF50
:1036A00084214DF2215001F0D5FF02214DF222502C
:1036B00001F0D0FFA4214DF2235001F0CBFF0221F5
:1036C0004DF2245001F0C6FFB7214DF2255001F014
:1036D000C1FF02214DF2265001F0BCFFCF214DF277
:1036E000275001F0B7FF02214DF2285001F0B2FF40
:1036F000DE214DF2295001F0ADFF02214DF22A509A
:1037000001F0A8FFF2214DF22B5001F0A3FF02219E
:103710004DF22C5001F09EFFFE214DF22D5001F094
:1037200099FF03214DF22E5001F094FF10214DF22C
:103730002F5001F08FFF03214DF2305001F08AFF2E
:1037400033214DF2315001F085FF03214DF232500B
:1037500001F080FF6D214DF2335001F07BFF00211D
:103760004FF4564001F076FF33214DF2016001F035
:1037700071FF00214DF2026001F06CFF34214DF227
:10378000036001F067FF00214DF2046001F062FF69
:103790003A214DF2056001F05DFF00214DF2066017
:1037A00001F058FF4A214DF2076001F053FF00215C
:1037B0004DF2086001F04EFF5C214DF2096001F00E
:1037C00049FF00214DF20A6001F044FF81214DF2D2
:1037D0000B6001F03FFF00214DF20C6001F03AFF59
:1037E000A6214DF20D6001F035FF00214DF20E6073
:1037F00001F030FFE5214DF20F6001F02BFF0121B8
:103800004DF2106001F026FF13214DF2116001F01E
:1038100021FF01214DF2126001F01CFF54214DF2F5
:10382000136001F017FF01214DF2146001F012FF47
:1038300082214DF2156001F00DFF01214DF216605D
:1038400001F008FFCA214DF2176001F003FF0221C9
:103850004DF2186001F0FEFE00214DF2196001F0FA
:10386000F9FE02214DF21A6001F0F4FE01214DF241
:103870001B6001F0EFFE02214DF21C6001F0EAFE38
:1038800034214DF21D6001F0E5FE02214DF21E6073
:1038900001F0E0FE67214DF21F6001F0DBFE022126
:1038A0004DF2206001F0D6FE84214DF2216001F03E
:1038B000D1FE02214DF2226001F0CCFEA4214DF296
:1038C000236001F0C7FE02214DF2246001F0C2FE28
:1038D000B7214DF2256001F0BDFE02214DF22660B8
:1038E00001F0B8FECF214DF2276001F0B3FE0221B6
:1038F0004DF2286001F0AEFEDE214DF2296001F0AC
:10390000A9FE02214DF22A6001F0A4FEF2214DF23F
:103910002B6001F09FFE02214DF22C6001F09AFE17
:10392000FE214DF22D6001F095FE03214DF22E6037
:1039300001F090FE10214DF22F6001F08BFE03216B
:103940004DF2306001F086FE33214DF2316001F01E
:1039500081FE03214DF2326001F07CFE6D214DF2BB
:10396000336001F077FE55214FF4704001F072FE94
:10397000AA214FF2010001F06DFE52214FF2020028
:1039800001F068FE08214FF2030001F063FE002100
:103990004FF2040001F05EFECC214FF4314001F003
:1039A00059FE00214BF2011001F054FE05214FF4A5
:1039B000364001F04FFE70214FF4374001F04AFECF
:1039C00070214BF2017001F045FE01214FF43840A7
:1039D00001F040FE03214BF6010001F03BFE032104
:1039E0004BF6020001F036FE03214BF6030001F016
:1039F00031FE02214FF43C4001F02CFE00214BF639
:103A0000014001F027FE00214BF6024001F022FEAA
:103A1000D0214FF4494001F01DFE02214CF6011067
:103A200001F018FE50214CF6021001F013FE502157
:103A30004CF6031001F00EFE50214CF6041001F07C
:103A400009FE00214FF4545001F004FE55214FF4BB
:103A5000685001F0FFFD4FF4885001F0E5FD78203B
:103A600002F060FD4FF4245001F0DEFD01F05EB97C
:103A7000FE48808849F2253188427DD147F6F00121
:103A8000E52001F0E7FD4FF48071012001F0E2FD37
:103A90004FF4E061022001F0DDFD41F2300103202E
:103AA00001F0D8FD0021042001F0D4FD40F20221F4
:103AB000082001F0CFFD0021092001F0CBFD0021FD
:103AC0000A2001F0C7FD00210C2001F0C3FD0021F8
:103AD0000D2001F0BFFD00210F2001F0BBFD0021F2
:103AE000102001F0B7FD0721112001F0B3FD0021E6
:103AF000122001F0AFFD0021132001F0ABFD0021E9
:103B0000072001F0A7FD41F29061102001F0A2FD15
:103B100040F22721112001F09DFD9D21122001F08E
:103B200099FD4FF4C851132001F094FD252129205F
:103B300001F090FD0D212B2001F08CFD072130209C
:103B400001F088FD40F20331312001F083FD0321B3
:103B5000322001F07FFD40F20621352001F07AFD90
:103B60000821362001F076FD40F20641372001F0B1
:103B700071FD4FF4417100E058E0382001F06AFD1A
:103B80000721392001F066FD40F202613C2001F07E
:103B900061FD08213D2001F05DFD0021502001F074
:103BA00059FDEF21512001F055FD0021522001F077
:103BB00051FD40F23F11532001F04CFD4FF42741DD
:103BC000602001F047FD0121612001F043FD00214B
:103BD0006A2001F03FFD0021802001F03BFD002123
:103BE000812001F037FD0021822001F033FD00210A
:103BF000832001F02FFD0021842001F02BFD002106
:103C0000852001F027FD1021902001F023FD4FF4C5
:103C1000C061922001F01EFD40F23311072001F037
:103C200019FD2221002001F015FD1FE78F48808833
:103C300049F2283188427DD141F28F01EC2001F018
:103C400009FD41F23421EF2001F004FD4FF48071B1
:103C5000012001F0FFFC4FF4E061022001F0FAFCCA
:103C600041F23001032001F0F5FC0021042001F0B5
:103C7000F1FC40F20221082001F0ECFC00210920B7
:103C800001F0E8FC00210A2001F0E4FC01210C20F5
:103C900001F0E0FC00210D2001F0DCFC00210F20F0
:103CA00001F0D8FC0021102001F0D4FC07211120E4
:103CB00001F0D0FC0021122001F0CCFC00211320E7
:103CC00001F0C8FC0121072001F0C4FC322002F001
:103CD0000DFC41F29041102001F0BCFC40F2272184
:103CE000112001F0B7FC322002F000FC8A211220E2
:103CF00001F0B0FC322002F0F9FB4FF4D051132058
:103D000001F0A8FC0621292001F0A4FC0D212B20A4
:103D100001F0A0FC322002F0E9FB0021202001F09C
:103D200099FC0021212001F095FC322002F0DEFBFD
:103D3000002100E075E0302001F08CFC40F20461CD
:103D4000312001F087FC40F20531322001F082FC85
:103D50000021352001F07EFC40F60941362001F0BB
:103D600079FC4FF40171372001F074FC40F201310D
:103D7000382001F06FFC40F20771392001F06AFC35
:103D800000213C2001F066FC40F60A213D2001F0B4
:103D900061FC322002F0AAFB0021502001F05AFC05
:103DA000EF21512001F056FC0021522001F052FC7D
:103DB00040F23F11532001F04DFC4FF427416020A9
:103DC00001F048FC0121612001F044FC00216A203F
:103DD00001F040FC0021802001F03CFC002181200A
:103DE00001F038FC0021822001F034FC0021832006
:103DF00001F030FC0021842001F02CFC0021852002
:103E000001F028FC1021902001F024FC4FF4C06147
:103E1000922001F01FFC40F23311072001F01AFC40
:103E200024E61248808849F2203188427ED1002160
:103E3000084601F00FFC4FF48071012001F00AFCEC
:103E40004FF4E061022001F005FC41F23001032053
:103E500001F000FC0021042001F0FCFB40F20221F3
:103E6000082001F0F7FB0021092001E0F0F2012019
:103E700001F0F0FB00210A2001F0ECFB01210C20F5
:103E800001F0E8FB00210D2001F0E4FB00210F20F0
:103E900001F0E0FB322002F029FB40F20111072083
:103EA00001F0D8FB322002F021FB4FF486511020A4
:103EB00001F0D0FB0721112001F0CCFB4FF48871F9
:103EC000122001F0C7FB4FF43061132001F0C2FB58
:103ED0000021292001F0BEFB44F210012B2001F04B
:103EE000B9FB0021502001F0B5FBEF21512001F07A
:103EF000B1FB0021522001F0ADFB40F23F115320F5
:103F000001F0A8FB4FF41C51602001F0A3FB01213C
:103F1000612001F09FFB00216A2001F09BFB002142
:103F2000802001F097FB0021812000E030E001F0CB
:103F300091FB0021822001F08DFB0021832001F004
:103F400089FB0021842001F085FB0021852001F000
:103F500081FB1021902001F07DFB0021922001F0D7
:103F600079FB0121932001F075FB4FF488719520B6
:103F700001F070FB0021972001F06CFB00219820DC
:103F800001F068FB40F27311072001F063FB6DE55F
:103F9000FE48808849F2313188427DD141F21401D6
:103FA000E72001F057FB4FF48071012001F052FB34
:103FB0004FF40071022001F04DFB41F23801032063
:103FC00001F048FB40F20221082001F043FB0021F0
:103FD000092001F03FFB00210A2001F03BFB0021FA
:103FE0000C2001F037FB00210D2001F033FB0021F4
:103FF0000F2001F02FFB0021102001F02BFB0721E7
:10400000112001F027FB0021122001F023FB0021E9
:10401000132001F01FFBC82002F068FA41F2906102
:10402000102001F017FB40F22721112001F012FBB4
:10403000322002F05BFA0C21122001F00BFB32203F
:1040400002F054FA4FF40061132001F003FB112138
:10405000292001F0FFFA0B212B2001F0FBFA32207E
:1040600002F044FA0021202001F0F4FA40F23F115E
:10407000212001F0EFFA0021302001F0EBFA4FF49B
:104080008371312001F0E6FA0021322001F0E2FADA
:104090004FF40171352000E064E001F0DBFA41F2F9
:1040A0000A61362001F0D6FA40F20771372001F09C
:1040B000D1FA4FF48371382001F0CCFA40F2077145
:1040C000392001F0C7FA40F202413C2001F0C2FA67
:1040D00040F60F413D2001F0BDFA0021502001F0D3
:1040E000B9FAEF21512001F0B5FA0021522001F078
:1040F000B1FA40F23F11532001F0ACFA4FF41C51D9
:10410000602001F0A7FA0121612001F0A3FA00214B
:104110006A2001F09FFA0021802001F09BFA002123
:10412000812001F097FA0021822001F093FA00210A
:10413000832001F08FFA0021842001F08BFA002106
:10414000852001F087FA1021902001F083FA4FF4C6
:10415000C061922001F07EFA40F23311072001F095
:1041600079FA83E48948808845F2084188427DD104
:104170004FF48071012001F06DFA4FF4E0610220EC
:1041800001F068FA41F23001032001F063FA0021E6
:10419000042001F05FFA40F20721082001F05AFAEA
:1041A0000021092001F056FA00210A2001F052FAFC
:1041B00000210C2001F04EFA00210D2001F04AFAF6
:1041C00000210F2001F046FA142002F08FF941F28D
:1041D000B061102001F03EFA0121112001F03AFAFD
:1041E0000121172001F036FA4FF49C71122001F0E2
:1041F00031FA4FF40061132001F02CFA0921292033
:1042000001F028FA09212A2001F024FA0021A42033
:1042100001F020FA0021502001F01CFAEF2151207A
:1042200001F018FA0021522001F014FA40F23F1177
:10423000532001F00FFA4FF41C51602001F00AFAEC
:104240000121612001F006FA00216A2001F002FA42
:104250000021802001F0FEF90021812001F0FAF90F
:104260000021822001F0F6F9002100E024E0832003
:1042700001F0F0F90021842001F0ECF90021852003
:1042800001F0E8F91321902001F0E4F900219220D7
:1042900001F0E0F90321932001F0DCF94FF488717B
:1042A000952001F0D7F940F27311072001F0D2F9FF
:1042B000322002F01BF9B8E43448808841F20551FD
:1042C00088427DD10021072001F0C4F9322002F09C
:1042D0000DF94FF48E71122001F0BCF90121A420D8
:1042E00001F0B8F90F21082001F0B4F908210A20E3
:1042F00001F0B0F908210D2001F0ACF940F207718E
:10430000302001F0A7F90721312001F0A3F940F294
:104310000361322001F09EF94FF4E061332001F097
:1043200099F940F20221342001F094F9022135205C
:1043300001F090F941F60F71362001F08BF940F24F
:104340000771372001F086F90021382001F082F949
:104350000021392001F07EF940F207713A2001F086
:1043600079F900213B2001F075F907213C2001F08B
:1043700071F900213D2001F06DF9322002F0B6F80C
:104380000121072001F066F9012101E0F0F201208E
:10439000172001F05FF9322002F0A8F84FF4BD5168
:1043A000102001F057F940F21721112001F052F9C5
:1043B0004FF48F71122001F04DF94FF4706100E05D
:1043C00098E0132001F046F900212A2001F042F97B
:1043D0000A21292001F03EF94FF49F71122001F0CB
:1043E00039F90021502001F035F9EF21512001F079
:1043F00031F90021522001F02DF940F23F115320F4
:1044000001F028F94FF41C51602001F023F901213B
:10441000612001F01FF900216A2001F01BF9002141
:10442000802001F017F90021812001F013F900210B
:10443000822001F00FF90021832001F00BF9002107
:10444000842001F007F90021852001F003F91321F0
:10445000902001F0FFF84FF44071922001F0FAF83B
:104460000521932001F0F6F80021952001F0F2F8E3
:104470000021972001F0EEF80021982001F0EAF8E1
:104480004FF48071012001F0E5F84FF4E061022063
:1044900001F0E0F841F23801032001F0DBF80021DF
:1044A000042001F0D7F800210C2001F0D3F80021FE
:1044B0000F2001F0CFF80021202001F0CBF80021DF
:1044C000212001F0C7F82121072001F0C3F81420B2
:1044D00002F00CF86121072001F0BCF8142002F072
:1044E00005F840F27311072001F0B4F8142001F030
:1044F000FDFF95E4FE4880884BF2055188427CD14F
:104500000021084601F0A6F80021084601F0A2F8B3
:104510000021084601F09EF80021084601F09AF8B3
:104520000121A42001F096F8142001F0DFFF4FF4E0
:104530001C51602001F08EF840F20221082001F0A9
:1045400089F84FF40571302001F084F843F21571B9
:10455000312001F07FF840F20461322001F07AF856
:1045600040F61661332001F075F842F21121342033
:1045700001F070F84FF4A851352001F06BF848F2C3
:104580000751362001F066F841F20741372001F06B
:1045900061F841F20341382001F05CF82021392014
:1045A00001F058F81A21902001F054F80021102051
:1045B00001F050F80721112001F04CF800211220E1
:1045C00001F048F80021132001F044F8142001F014
:1045D0008DFF4FF4E661102001F03CF840F23711F6
:1045E000112001F037F8142001F080FF4FF4DC7146
:1045F000122001F02FF8142000E085E001F076FF92
:104600004FF47061132001F025F880212A2001F079
:1046100021F84821292001F01DF8142001F066FF3F
:104620004FF48071012001F015F84FF4E061022091
:1046300001F010F841F23801032001F00BF840F2CC
:104640000221082001F006F800210A2001F002F8FA
:1046500000210C2000F0FEFF00210D2000F0FAFFE9
:1046600030210E2000F0F6FF0021502000F0F2FF74
:10467000EF21512000F0EEFF0021522000F0EAFF70
:1046800040F23F11532000F0E5FF4FF41C51602031
:1046900000F0E0FF0121612000F0DCFF00216A2032
:1046A00000F0D8FF1121902000F0D4FF4FF4C0613A
:1046B000922000F0CFFF40F20241932000F0CAFFA9
:1046C0000221942000F0C6FF142001F00FFF012109
:1046D000072000F0BFFF142001F008FF6121072030
:1046E00000F0B8FF40F27311072000F0B3FF002183
:1046F000202000F0AFFF0021212000F0ABFF22219D
:10470000002000F0A7FF11E3794880884CF20551A2
:1047100088427CD10021084600F09CFF0021084619
:1047200000F098FF142001F0E1FE0021084600F09F
:1047300091FF0021084600F08DFF0021084600F09F
:1047400089FF0021084600F085FF0121A42000F028
:1047500081FF142001F0CAFE4FF41C51602000F0CC
:1047600079FF40F60601082000F074FF40F2037163
:10477000302000F06FFF0121312000F06BFF042199
:10478000322000F067FF4FF48171332000F062FFA8
:104790004FF44071342000F05DFF40F203113520EA
:1047A00000F058FF1F21362000F054FF40F2037143
:1047B000372000F04FFF0121382000F04BFF04218B
:1047C000392000F047FF1521902000F043FF4FF4FF
:1047D0008261102000F03EFF40F24721112000F0DE
:1047E00039FF4FF4DE71122000F034FF4FF46061A6
:1047F000132000F02FFF782001F078FE4FF4807135
:10480000012000F027FF4FF40071022000E052E089
:1048100000F020FF41F23001032000F01BFF0821CF
:104820000A2000F017FF00210C2000F013FF2021C8
:104830000E2000F00FFF00210F2000F00BFF0021E1
:10484000202000F007FF0021212000F003FF3D2180
:104850002A2000F0FFFE142001F048FE2D2129201F
:1048600000F0F8FE0021502000F0F4FE4DF2EF01C0
:10487000512000F0EFFE0021522000F0EBFE40F24C
:104880003F11532000F0E6FE0021612000F0E2FE1F
:1048900000216A2000F0DEFE4FF44071922000F00B
:1048A000D9FE0521932000F0D5FE4FF4807107203A
:1048B00000F0D0FE3AE20E48808844F2315188423E
:1048C0007ED10121002000F0C5FE0A2001F00EFE7D
:1048D00041F22861102000F0BDFE0E21122000F0F0
:1048E000B9FE40F63921132000F0B4FE0A2001E0A1
:1048F000F0F2012001F0FAFD4021112000F0AAFEA3
:104900005021152000F0A6FE0A2001F0EFFD1E2127
:10491000122000F09FFE0A2001F0E8FD4FF4B15193
:10492000102000F097FE42F63921132000F092FE8D
:104930000A2001F0DBFD4FF48071012000F08AFEB7
:104940004FF44071022000F085FE41F2380103204F
:1049500000F080FE40F20221082000F07BFE0821DA
:104960000A2000F077FE0021302000F073FE40F2B4
:104970000241312000F06EFE4FF48371322000F0CE
:1049800069FE40F20351332000F064FE4FF482715F
:10499000342000F05FFE40F20131352000F05AFE75
:1049A00040F20771362000F055FE40F20531372005
:1049B00000F050FE4FF40271382000F04BFE00E092
:1049C0003EE040F60B71392000F044FE0221412008
:1049D00000F040FE4FF41C51602000F03BFE01212E
:1049E000612000F037FE4FF40471902000F032FE99
:1049F0004FF48571922000F02DFE0421932000F0E9
:104A000029FE4FF48071A02000F024FE0121072030
:104A100000F020FE2121072000F01CFE23210720AA
:104A200000F018FE3321072000F014FE40F233118D
:104A3000072000F00FFE0021A02000F00BFE75E122
:104A4000C048808844F2355188427CD130211520FD
:104A500000F000FE10219A2000F0FCFD2021112022
:104A600000F0F8FD43F22841102000F0F3FD022190
:104A7000122000F0EFFD41F23801132000F0EAFDB2
:104A8000282001F033FD1221084600F0E3FD282024
:104A900001F02CFD43F22041102000F0DBFD43F239
:104AA0003801132000F0D6FD462001F01FFD002143
:104AB000302000F0CFFD40F20241312000F0CAFD6D
:104AC00040F20731322000F0C5FD4FF44171332030
:104AD00000F0C0FD0421342000F0BCFD40F2014193
:104AE000352000F0B7FD40F20771362000F0B2FD2E
:104AF00040F20531372000F0ADFD4FF4C26138209F
:104B000000F0A8FD4FF4C261392000F0A3FD4FF47E
:104B10008071012000F09EFD4FF44071022000F0F2
:104B200099FD41F23001032000F094FD40F60801A8
:104B3000082000F08FFD08210A2000F08BFD4FF4C3
:104B40001C51602000E033E000F084FD0121612071
:104B500000F080FD4FF49F71902000F07BFD4FF43A
:104B60008071922000F076FD4FF48071932000F068
:104B700071FD4FF44051A02000F06CFD1021A320E6
:104B800000F068FD0121072000F064FD21210720CD
:104B900000F060FD2321072000F05CFD3321072099
:104BA00000F058FD40F23311072000F053FDBDE046
:104BB0006448808841F663118842F8D1E22000F011
:104BC00033FD1D2000F024FD022000F021FD042013
:104BD00000F01EFD642001F0A5FCE02000F024FDA3
:104BE000012000F015FD0A2001F080FCE02000F01B
:104BF0001BFD032000F00CFD0C2001F077FC0120D0
:104C000000F012FD0A2001F071FCE62000F00CFD1E
:104C10002F2000F0FDFCFF2000F0FAFCFF2000F048
:104C2000F7FCB02000F000FD202000F0F1FC002097
:104C300000F0EEFC032000F0EBFC40F21F3000F02F
:104C4000E7FC012000F0E4FC40F2DF1000F0E0FCA3
:104C5000002000F0DDFCB42000F0E6FC042000F0B1
:104C6000D7FC40F21F4000F0D3FC002000F0D0FC45
:104C70002E2000F0CDFC002000F0CAFC002000F047
:104C8000C7FC002000F0C4FC002000F0C1FCB620EE
:104C900000F0CAFC022000F0BBFC4FF4037000F0EF
:104CA000B7FC002000F0B4FC172000F0B1FC152088
:104CB00000F0AEFC002000F0ABFC002000F0A8FCEF
:104CC000F02000F0B1FC032000F0A2FC292000F04D
:104CD000ABFCD02000F0A8FC002000F099FCBE2026
:104CE00000F0A2FC052000F093FCFE2000F090FCF8
:104CF000012000F08DFC002000F08AFC002000F074
:104D000087FC002000F084FCB82000F08DFC03201C
:104D100000F07EFC012000F07BFCBA2000F084FC57
:104D2000012000F075FC642000F026F80020FCF75C
:104D300077F90120044908604FF6FF70FCF73AF953
:104D40001CBD0000F0F20120BC82404208B50348BF
:104D500000880090BDF8000008BD00008000006CD5
:104D600010B50446204600F05FFC052001F0DAFB98
:104D7000FFF7ECFF10BD000070B52DED048B04466D
:104D8000BE2000F051FC052000F042FC204603F05C
:104D900048FA41EC190B9FED0E0B53EC102B03F06E
:104DA00053FA41EC180B03F00FFA85B2284600F0D5
:104DB0002FFC012000F02CFCFF2000F029FC00203B
:104DC00000F026FC002000F023FCBDEC048B70BD3D
:104DD0006666666666660440F0B5054600240027F0
:104DE000B748807901280BD1B548808846F6040180
:104DF000884205D0B248808841F66311884208D1C4
:104E0000AF488079F0B9AE48808841F66311884296
:104E100018D1082D15D2DFE805F00406080A0C0E9B
:104E2000101206250DE007250BE0042509E00525F5
:104E300007E0012505E0002503E0032501E0022548
:104E400000BF00BF9E48808849F24131884217D098
:104E50009B48808846F60401884211D09848808893
:104E600045F2103188420BD09548808845F21051A8
:104E7000884205D09248808841F6631188427DD1EE
:104E8000082D1CD2DFE805F00406090C0F121518D6
:104E900000BF14E044F0800411E044F040040EE050
:104EA00044F0C0040BE044F0200408E044F0600447
:104EB00005E044F0A00402E044F0E00400BF00BFBD
:104EC0007F48808845F21051884202D14FF45857EC
:104ED00000E036277A48808845F2103188420DD0AC
:104EE0007748808845F21051884207D074488088FE
:104EF00041F66311884201D044F00804704880886C
:104F000046F60401884201D144F0020421463846A5
:104F100000F0A0FB6A48808841F6631188421DD0EA
:104F200004F0200068B166480088654949888842D5
:104F300014DA63480688408861490880084646803C
:104F40000CE05F4800885E494988884206DD5C487D
:104F5000068840885A490880084646805848808814
:104F600045F21051884254D15549488900F05CFB04
:104F7000002000F04DFB5249498900E078E0491CCF
:104F800088B200F051FB002000F042FB4C494989F7
:104F9000891C88B200F048FB49490988491EC1F3C1
:104FA0000F2000F035FB46494989C91C88B200F042
:104FB0003BFB43490978491EC8B200F029FB404930
:104FC000888900F031FB002000F022FB3C498989F0
:104FD000491C88B200F028FB002000F019FB38497A
:104FE0008989891C88B200F01FFB35494988491E10
:104FF000C1F30F2000F00CFB31498989C91C88B22C
:1050000000F012FB2E498978491EC8B200F000FB5F
:1050100055E02B49488900F007FB002000F0F8FA22
:10502000002000F0F5FA26490988491EC1F30F2037
:1050300000F0EEFA22490978491EC8B200F0E8FAF9
:105040001F49888900F0F0FA002000F0E1FA002002
:1050500000F0DEFA1A494988491EC1F30F2000F01A
:10506000D7FA17498978491EC8B200F0D1FA26E06C
:10507000082D1CD2DFE805F004070A0D0F121518E1
:1050800044F0300413E044F0100410E044F0200435
:105090000DE000BF0BE044F0380408E044F02804C1
:1050A00005E044F0180402E044F0080400BF00BF2B
:1050B000032744F480542146384600F0CBFAF0BD73
:1050C000F0F2012030B504460D466748808849F269
:1050D0004131884205D06448808845F210318842C9
:1050E00014D16149488900F09FFA201200F090FA2B
:1050F000E0B200F08DFA5C49888900F095FA281238
:1051000000F086FAE8B200F083FAABE056488088F7
:1051100046F6040188421DD153488079012804D104
:1051200051480088401E001B84B24F49488900F056
:105130007BFA201200F06CFAE0B200F069FA4A49FA
:10514000888900F071FA281200F062FAE8B200F0E3
:105150005FFA87E04448808841F66311884247D16E
:1051600041488079A8B940480088401E001B84B29D
:105170003D49488900F058FA002000F049FA002023
:1051800000F046FA201200F043FAE0B200F040FAD4
:1051900016E03549488900F047FA201200F038FA45
:1051A000E0B200F035FA30490988491EC1F30F20FA
:1051B00000F02EFA2C490978491EC8B200F028FAEE
:1051C0002949888900F030FA281200F021FAE8B263
:1051D00000F01EFA24494988491EC1F30F2000F04F
:1051E00017FA21498978491EC8B200F011FA39E04E
:1051F0001D48808845F21051884220D11A494889BB
:1052000000F012FA201200F003FA17494989491CEC
:1052100088B200F009FAE0B200F0FAF91249888980
:1052200000F002FA281200F0F3F90F498989491CAD
:1052300088B200F0F9F9E8B200F0EAF912E00A48A1
:105240008079012804D108480088401E001B84B2E0
:1052500005494889214600F0FDF903498889294616
:1052600000F0F8F930BD0000F0F201202DE9F04F18
:1052700086B004460D469046994604EB0800401E51
:1052800086B205EB0900401E87B27C48808849F24F
:105290004131884215D07948808845F210318842E2
:1052A0000FD07648808846F60401884209D07348BA
:1052B0008079012826D17148808841F6631188429F
:1052C00020D16E49488900F0AFF9201200F0A0F912
:1052D000E0B200F09DF9301200F09AF9F0B200F05F
:1052E00097F96649888900F09FF9281200F090F933
:1052F000E8B200F08DF9381200F08AF9F8B200F047
:1053000087F9B8E05D48808841F66311884234D15E
:105310005A480088A0EB0800001B84B205EB090086
:10532000401E1FFA80F95549488900F07DF9201286
:1053300000F06EF9E0B200F06BF904EB0801491ED1
:10534000C1F30F2000F064F904EB0801491EC8B254
:1053500000F05EF94949888900F066F9281200F0EA
:1053600057F9E8B200F054F94FEA292000F050F95B
:1053700009F0FF0000F04CF97DE04048808845F2DC
:105380001051884244D13D49488900F04DF920121E
:1053900000F03EF939494989491C88B200F044F9C6
:1053A000E0B200F035F935494989891C88B200F02E
:1053B0003BF9301200F02CF930494989C91C88B2F8
:1053C00000F032F9F0B200F023F92C49888900F09E
:1053D0002BF9281200F01CF928498989491C88B248
:1053E00000F022F9E8B200F013F924498989891CF8
:1053F00088B200F019F9381200F00AF91F498989BA
:10540000C91C88B200F010F9F8B200F001F932E0DE
:105410001A48807901280ED1AA46BB461748008851
:10542000801B401E80B2019014480088001B401E63
:1054300080B2009003E0A246B34601950097502049
:105440000590512004905220039053200290514621
:10545000059800F0FFF85946049800F0FBF8019910
:10546000039800F0F7F80099029800F0F3F8294645
:105470002046FFF727FE06B0BDE8F08FF0F20120CE
:105480002DE9F84F80460E4617461C46B346204687
:10549000E31704EB5373DB1021464FEAE47C04EB83
:1054A0005C7C4FEAEC0CA4EBCC0CBCF1000F02D0FE
:1054B0004FF0010C01E04FF0000C6344224604EB76
:1054C000D27C4FEA6C0C03FB0CF3DBB20093A7F128
:1054D0002000C7B2002556E00C2C07D107EB47008F
:1054E0002B4901EB800010F8059013E0102C05D13A
:1054F000284800EB071010F805900BE0182C07D196
:1055000007EBC700244901EB800010F8059001E08B
:10551000BDE8F88F4FF0000A2FE009F0800030B1AD
:105520001E48028831464046FBF75AFE07E00A98BB
:1055300028B91B48028831464046FBF751FE4FEA26
:1055400049604FEA1069701C86B216484088B04224
:1055500000DCDDE7A6EB0B00A0420AD15E4608F1B5
:1055600001001FFA80F80F480088404500DCCFE7B3
:1055700006E00AF1010000F0FF0ABAF1080FCCDBE7
:1055800000BF681CC5B200988542A5DB00BFBFE71D
:105590007E840008F2880008E28E00086200002085
:1055A00064000020F0F201202DE9F84704460D4682
:1055B00090469946DDE9096704F0FF0A08EB04000C
:1055C0001FFA80F809EB05001FFA80F916E0444540
:1055D00002DB5446A81985B24D4500DB14E00020DB
:1055E00000903A78334629462046FFF749FF304677
:1055F00006EBD07104EB61018CB27F1C38787E28F9
:1056000002DC38782028E2DA00BFBDE8F887000025
:1056100001B5BDF800000090BDF800000149088008
:1056200008BD00008000006C01B5BDF800000090CE
:10563000BDF800000149088008BD00007E00006C34
:10564000024800890249088070470000F0F20120FA
:105650007E00006C034A10804FF0D842A2F8801000
:10566000704700007E00006C1CB50B48006840F0DD
:105670002000094908600120032100230246CDE9EA
:10568000001049020548FBF7ABFB01200449086004
:105690000449C1F8A8021CBD303802400014024081
:1056A000A4824242008042422DE9F04107468846EA
:1056B00014461D46284600F033F8C5F1040007FAE9
:1056C00000F60F20284100EA0800064306F00F0606
:1056D000E21704EBD2625211920002F1E022D2F8FA
:1056E00000212146E31704EBD3635B11A4EB431CB9
:1056F000012303FA0CF31A432046E31704EBD363A8
:105700005B119B0003F1E023C3F800210348005D17
:1057100040EA061001490855BDE8F08100E400E0C8
:105720000146072323EA01021202054B18684FF6CF
:10573000FF031840034B18431043014B1860704798
:105740000CED00E00000FA054A0A52020243014B48
:105750001A60704708ED00E070B50446042C03DAC7
:10576000C4F10400C5B201E0201FC5B2032143F219
:10577000122000F068FB2807010E45F2875000F068
:1057800062FB042C05DA092145F2885000F05BFB2E
:1057900004E0012145F2885000F055FB132143F24B
:1057A000122000F050FBA32143F2122000F04BFB2B
:1057B00070BD000070B50546032143F2122000F0D1
:1057C00042FB1C2145F2813000F03DFB5A2145F29D
:1057D000823000F038FB062145F2833000F033FBC5
:1057E00000240CE005EB4502104B03EB4202115D77
:1057F00045F28432A01800F026FB601CC4B2062CCF
:10580000F0DB982145F28B3000F01DFB012145F2C1
:105810008A3000F018FB132143F2122000F013FB32
:10582000A32143F2122000F00EFB70BD0CB1000862
:1058300070B5044600252026072C1AD2DFE804F0B4
:1058400004080C191013160014200546064610E033
:105850001820054606460CE01C200546064608E0D2
:105860001025242605E01825282602E01C252C26D4
:1058700000BF00BF032143F2122000F0E4FA2946E2
:1058800045F2855000F0DFFA314645F2865000F0CF
:10589000DAFA132143F2122000F0D5FAA32143F2E1
:1058A000122000F0D0FA70BD10B50446022143F278
:1058B000160000F0C8FA022143F21C0000F0C3FAFF
:1058C0002CB1022143F2190000F0BDFA04E00021DE
:1058D00043F2190000F0B7FA10BD70B5002500249E
:1058E000012143F2230000F0AEFA082143F2220026
:1058F00000F0A9FA00BF43F2230000F0E7F90546E3
:10590000601C84B2B4F57A7F01DD022070BD0520F1
:1059100000F0ECFD002DEED1012143F2230000F058
:1059200092FA042143F2220000F08DFA002400BF15
:1059300043F2230000F0CAF90546601C84B2B4F5B6
:105940007A7F01DD0220E1E7052000F0CFFD002D88
:10595000EED10020DAE7000070B54FF400458F2645
:1059600020214FF4405000F06EFA002408E0274850
:10597000015D284600F067FA681C85B2601C84B29D
:1059800040F6ED708442F2D3002143F2220000F091
:105990005AFA002143F2230000F055FA002143F2A5
:1059A000240000F050FA002143F2250000F04BFAE9
:1059B000002143F2260000F046FA002143F22700BE
:1059C00000F041FA002143F2280000F03CFA7F2168
:1059D00043F2290000F037FA00214FF4405000F064
:1059E00032FA002400BF43F2290000F06FF90646A6
:1059F000052000F07BFD601C84B2B4F57A7F01DDE8
:105A0000012070BD702EEED10020FAE7D2A0000870
:105A100070B50025032143F2220000F014FA11E0D2
:105A2000681C85B243F2290000F050F90446102C9E
:105A300000D108E0052000F059FDB5F57A7F01DDC1
:105A4000012070BDECE700BF0020FAE72DE9F05F10
:105A500004460D469046994626462F4604EB08001C
:105A6000401E1FFA80FA05EB0900401E1FFA80FB5A
:105A7000032143F2122000F0E6F931124FF4605096
:105A800000F0E1F9F1B243F6010000F0DCF939125F
:105A900043F6020000F0D7F9F9B243F6030000F034
:105AA000D2F94FEA2A2143F6040000F0CCF90AF0BB
:105AB000FF0143F6050000F0C6F94FEA2B2143F63B
:105AC000060000F0C0F90BF0FF0143F6070000F0FC
:105AD000BAF9132143F2122000F0B5F9A32143F2E1
