:020000040800F2
:10000000B8090220AD020008D1020008D30200089E
:1000100055550008D7020008D9020008000000006A
:10002000000000000000000000000000DB020008EB
:10003000DD02000800000000DF020008E102000805
:10004000E3020008E3020008E3020008E3020008FC
:10005000E3020008E3020008E3020008E3020008EC
:10006000E3020008E3020008E3020008E3020008DC
:10007000E3020008E3020008E3020008E3020008CC
:10008000E3020008E3020008E3020008E3020008BC
:10009000E3020008E3020008E3020008E3020008AC
:1000A000E3020008E3020008E3020008E30200089C
:1000B000E3020008E3020008E3020008E30200088C
:1000C000E3020008E3020008E3020008E30200087C
:1000D000E3020008296E0008E3020008E3020008BA
:1000E000E3020008E3020008E3020008E30200085C
:1000F000E3020008E3020008E3020008E30200084C
:10010000E3020008E3020008E3020008E30200083B
:10011000E3020008E3020008E3020008E30200082B
:10012000E3020008E3020008E3020008E30200081B
:10013000E3020008E3020008E3020008E30200080B
:10014000E3020008E3020008E3020008E3020008FB
:10015000E3020008E3020008E3020008E3020008EB
:10016000E3020008E3020008E3020008E3020008DB
:10017000E3020008E3020008E302000800000000B8
:10018000E3020008E3020008E3020008E3020008BB
:10019000E3020008E3020008E3020008E3020008AB
:1001A000E3020008E3020008E3020008E30200089B
:1001B000E3020008E3020008E3020008E30200088B
:1001C000E3020008E302000800000000E302000868
:1001D000E3020008E3020008E3020008E30200086B
:1001E000E3020008E3020008E3020008E30200085B
:1001F000E3020008E302000800F002F800F047F80C
:100200000AA090E8000C82448344AAF10107DA4571
:1002100001D100F03CF8AFF2090EBAE80F0013F07C
:10022000010F18BFFB1A43F00103184758BC000028
:1002300078BC0000103A24BF78C878C1FAD85207B9
:1002400024BF30C830C144BF04680C607047000050
:100250000023002400250026103A28BF78C1FBD8CF
:10026000520728BF30C148BF0B607047642900F0B7
:10027000B780782900F0F080732900F0C781002052
:1002800070471FB507F094F91FBD10B510BD00F001
:10029000F7F91146FFF7F5FF07F03CF800F015FA03
:1002A00003B4FFF7F2FF03BC06F031FEDFF84000B5
:1002B000016841F470010160BFF34F8FDFF8340033
:1002C000016821F040410160BFF36F8F0A48004789
:1002D000FEE7FEE7FEE7FEE7FEE7FEE7FEE7FEE7F6
:1002E000FEE7FEE705480649044A064B7047000052
:1002F00088ED00E034EF00E0F9010008B8010220C9
:10030000B8090220B8010220704700000FB4044968
:1003100010B503AA029800F07DF910BC5DF814FB3B
:10032000040002202DE9F0410E4604460020206220
:100330002046E168884730B3252805D0D4E901215B
:100340009047206A401CF2E7E16820460027884772
:10035000050018D0A5F14100192802D820354FF426
:1003600000673246294620462760FFF77FFF40B1ED
:10037000012804D0F61D26F007060836D8E7361DFA
:10038000D6E72846DAE7206ABDE8F08170B50C466A
:100390000546012A05D02878800600D5EA690023A1
:1003A00002E0012305E05B1C934202D2E05C0028DE
:1003B000F9D1A869E618C01AA861286A1844286209
:1003C0002846AFF3008004E0D5E9012114F8010BC1
:1003D0009047B442F8D32846AFF3008070BD0000C8
:1003E0002DE9F0410646002410687529314616A50E
:1003F00010D0AFF30080002802DA404213A507E0D6
:1004000031688A0701D512A502E0490704D511A574
:10041000012401E0AFF3008000210A2206F1240745
:1004200009E0B0FBF2FCB0FBF2F302FB1C00303041
:1004300078541846491C0028F3D123462A463046F2
:10044000BDE8F04100F077B8000000002D0000008A
:100450002B0000002000000070B504460D46214628
:100460001068AFF300802188090502D50F4A7A444D
:1004700002E00E4A7A440E32002104F1240305E022
:1004800000F00F060009965D5E54491C0028F7D164
:1004900020780023000704D5702D02D009B1022373
:1004A00011322046BDE8704000F045B86CB900003C
:1004B0004FF0013C50F8042B51F8043B9A4215D1FF
:1004C000A2EB0C03934313EACC130BD150F8042B8B
:1004D00051F8043B9A4209D1A2EB0C03934313EA6F
:1004E000CC13E7D04FF00000704700BFD01A01BA1C
:1004F000B1FA81F101F0180122FA01F0CB40C1F10B
:100500002001DBB2C0B2C01A2CFA01F3D11A914318
:1005100011EAC311E6D170477047704770477047C2
:1005200010B500F089F8006810BD10B5044600F061
:1005300083F8046010BD2DE9F0470D4699469246B8
:10054000044600F124080168880604D5E06921F01A
:100550001001216000E00120A84201DD471B00E0FE
:100560000027A1697A1902EB0900081AA061207816
:10057000C00602D42046AFF30080002608E0D4E98C
:1005800001211AF806009047206A401C761C206260
:100590004E45F4DB2078C0060AD52046AFF3008034
:1005A00006E0D4E9012130209047206A401C2062F7
:1005B000381EA7F10107F4DC07E0D4E9012118F89F
:1005C00005009047206A401C2062281EA5F1010505
:1005D000F3DC2046AFF300802078000602D502202D
:1005E000BDE8F0870120FBE710B5436913B1AFF315
:1005F000008001E0FFF7CAFE012010BD127800F173
:1006000024010A7000224A700122EDE711684FF0C0
:10061000FF32E9E7074B70B50D467B4400F015F853
:100620000446284600F024F810B14FF0FF3070BDAA
:10063000204670BD076B000000487047540102203F
:1006400001694A1C02610878704700B58FB0CDE996
:1006500001310021059105497944CDE90310114686
:100660006846FFF75FFE0FB000BD0000E5FFFFFF2B
:10067000007B00F080007047004870475401022062
:100680007546FFF7F9FFAE4605006946534620F070
:100690000700854618B020B5FFF724FEBDE82040CE
:1006A0004FF000064FF000074FF000084FF0000B2E
:1006B00021F00701AC46ACE8C009ACE8C009ACE8E1
:1006C000C009ACE8C0098D46704710B50446AFF3C9
:1006D00000802046BDE81040FFF7E2BD10B500F0F5
:1006E00019FF10BD2DE9F04107460C4600260025F4
:1006F00009E036023919491B491E88B200F008F892
:100700000644681CC5B2A542F3DB3046BDE8F08163
:1007100070B50446002600F0B3FF2546E11704EB50
:1007200011610912A02202EB4101C8B200F072FF70
:1007300000F0FAFFE11704EB11610912A4EB0121AB
:10074000C8B200F067FF00F0EFFF00F099FFA120B2
:1007500000F060FF00F0E8FF002000F025FF0646F3
:1007600000F0B8FF304670BD2DE9F04105460E4659
:100770001746002409E0E20026FA02F2D1B22A1953
:1007800090B200F006F8601CC4B2BC42F3DBBDE8D6
:10079000F08170B504460E4600F072FF2546E11761
:1007A00004EB11610912A02202EB4101C8B200F072
:1007B00031FF00F0B9FFE11704EB11610912A4EB5E
:1007C0000121C8B200F026FF00F0AEFF304600F075
:1007D00021FF00F0A9FF00F07DFF0A2006F04AFC8F
:1007E00070BD10B5022006F061FC10BD10B50022EE
:1007F0004021114800F07DFB1048006820F0C00047
:100800000E4908600846006840F040000860002279
:1008100008210A4800F06DFBFFF7E3FF01224021A9
:10082000054800F066FBFFF7DCFF0022402102488C
:1008300000F05FFB10BD0000001C024000200240E1
:100840001CB51548006840F0800013490860084650
:10085000006840F4807008600120032100230246F4
:10086000CDE9001040210D4800F04BFB0120032191
:1008700000230246CDE900100821094800F041FBA1
:1008800001220821064800F034FB012240210348E0
:1008900000F02FFB1CBD000030380240001C02405D
:1008A0000020024010B500224021114800F021FB39
:1008B0001048006820F0C0000E4908600846006833
:1008C00040F040000860012208210A4800F011FBB6
:1008D000FFF787FF01224021054800F00AFBFFF7E0
:1008E00080FF00224021024800F003FB10BD000001
:1008F000001C02400020024070B505460024184844
:10090000006820F0C00016490860084600680860CA
:100910001E2006F0CBFB002618E0002240211148E3
:1009200000F0E7FAFFF75DFF012240210D4800F0DB
:10093000E0FA6006040E0821094800F0D2FA08B176
:10094000601CC4B2FFF74DFF701CC6B2082EE4DB7A
:1009500015B9FFF7A7FF01E0FFF748FF204670BD7C
:1009600000200240001C024070B504461648006892
:1009700020F0C000144908600846006840F04000BC
:10098000086000224021114800F0B3FA002518E069
:10099000E20908210C4800F0ACFA6006040EFFF7EB
:1009A00020FF01224021094800F0A3FAFFF719FFB8
:1009B00000224021054800F09CFAFFF712FF681C56
:1009C000C5B2082DE4DB70BD00200240001C0240CF
:1009D00010B51248006820F0C000104908600846B1
:1009E000006840F040000860012208210B4800F038
:1009F00080FA012240210A4800F07BFA1E2006F00E
:100A000055FB00220821054800F073FAFFF7E9FEC4
:100A100000224021024800F06CFA10BD0020024084
:100A2000001C024010B51248006820F0C0001049B8
:100A300008600846006840F040000860002240213D
:100A40000C4800F056FA00220821094800F051FA3B
:100A50001E2006F02BFB01224021064800F049FA37
:100A6000FFF7BFFE01220821014800F042FA10BD45
:100A700000200240001C024010B500241648006807
:100A800020F0C00014490860084600680860012290
:100A90000821114800F02DFA012240210F4800F0F2
:100AA00028FAFFF79EFE09E0601CC4B2FA2C03DDB1
:100AB000FFF7B8FF012010BDFFF793FE082106489D
:100AC00000F00FFA0028EFD100224021034800F087
:100AD00010FA0020EFE7000000200240001C024056
:100AE00010B500BF00BF00BF00BF00BFBFF34F8FF6
:100AF00000BF00BF00BF00BF00BF00BFBFF36F8FCC
:100B000000BF00BF00BF0020114908601148006805
:100B100040F400300F49086000BF00BF00BFBFF3C2
:100B20004F8F00BF00BF00BF00BF00BF00BFBFF3BB
:100B30006F8F00BF00BF00BF00BF04F0EFFE04488E
:100B40004C30006840F0040001494C31086010BD91
:100B500050EF00E014ED00E00EB53848006840F0BA
:100B60008000364908600846006840F480700860DC
:100B7000012000210B460A46CDE9001080213048B3
:100B800000F0BFF90120032100230246CDE9001047
:100B900001022C4800F0B5F9FFF752FE00224FF495
:100BA0008071284800F0A5F9142006F063FA0122AC
:100BB0001102244800F09DF9322006F05BFA002073
:100BC0008DF80800012202A900F042F9012202A9D1
:100BD000A42000F03DF916208DF80800012202A99A
:100BE000802000F035F90C208DF80800012202A9C0
:100BF000882000F02DF9022202A9A12000F02AF895
:100C00009DF80800302803D19DF80900032807D07B
:100C10009DF80900012803D09DF8090002280AD197
:100C20009DF809009DF8082000EB022106A0FFF7BF
:100C30006DFB00200EBD0120FCE7000030380240B3
:100C4000001C0240002002404354502049443A25F1
:100C5000780D0A002DE9F04106460F461546FFF7CC
:100C6000B7FE7020FFF780FEFFF706FFF0B2FFF738
:100C70007BFEFFF701FFFFF7ABFE7120FFF774FE6D
:100C8000FFF7FAFE00240BE0691EA14201D001210A
:100C900000E000210846FFF72FFE3855601CC4B263
:100CA000AC42F1DBFFF7BEFEBDE8F08171B581B06B
:100CB0000024002662480078401C614908700846FC
:100CC00000780A2190FBF1F201FB120018B15C4898
:100CD00000780A2867DA012201A90220FFF7BAFF8B
:100CE0009DF8040000F00F0000287FD09DF804005C
:100CF00000F00F00062879DA9DF8040000F00F01DB
:100D0000FF208840C5B2E843C0B240F0C0004D4962
:100D100081F8200000245BE04A4890F8200001217F
:100D2000A1400840F0B3484931F814000422694654
:100D3000FFF790FF434890F8300000F00100C0B189
:100D40009DF801009DF8001001F00F0100EB01215A
:100D50003C48163020F814109DF803009DF802104E
:100D600001F00F0100EB012036490C3121F814008D
:100D70001EE09DF801009DF8001001F00F0100EB4E
:100D8000012032490988081A81B22E480C3020F817
:100D900014109DF803009DF8021001F00F0100EB04
:100DA000012001E012E021E02649163121F814006B
:100DB0009DF8000000F0F000802807D000212148B5
:100DC000163020F814100A3820F81410601CC4B231
:100DD000052CA1DB01261B48808920B91948C08A4F
:100DE00008B9002001900020154908709DF8040002
:100DF00000F01F00D0B9134890F8200000F08000E8
:100E000040B1104890F8200020F080000D4981F892
:100E100020000BE04FF6FF700A498881C88208461F
:100E200090F8200000F0E00081F8200004480078ED
:100E3000F02802DD0A200249087030467CBD00001F
:100E4000560002202000022008BD000824010220D4
:100E50002DE9F04105460E4617464FF00008FFF712
:100E6000B7FD7020FFF780FDFFF706FEE8B2FFF741
:100E70007BFDFFF701FE00240BE0305DFFF774FD02
:100E8000FFF7FAFD8046B8F1000F00D003E0601CC8
:100E9000C4B2BC42F1DB00BFFFF7C4FD4046BDE871
:100EA000F08130B5CC1000F1200353F824304C070A
:100EB000E50E0F24AC40A343CD1000F1200444F80C
:100EC0002530CC1000F1200353F824304C07E40EF9
:100ED00002FA04F42343CD1000F1200444F8253035
:100EE00030BD02461069084008B10120704700205B
:100EF000FCE702F001030BB1816101E00B048361A7
:100F000070472DE9F0470C46DDE908670021002510
:100F10008C4600BF60E04FF0010808FA01F504EAD2
:100F2000050CAC4557D1D0F800804FEA410A4FF08C
:100F3000030909FA0AF928EA0908C0F80080D0F87C
:100F400000804FEA410902FA09F948EA0908C0F8A5
:100F50000080012A01D0022A27D1D0F808804FEA68
:100F6000410A4FF0030909FA0AF928EA0908C0F80A
:100F70000880D0F808804FEA410906FA09F948EAE2
:100F80000908C0F80880D0F804904FF0010808FA6A
:100F900001F829EA0809C0F80490D0F8048003FA9F
:100FA00001F948EA0908C0F80480D0F80C804FEA3B
:100FB000410A4FF0030909FA0AF928EA0908C0F8BA
:100FC0000C80D0F80C804FEA410907FA09F948EA89
:100FD0000908C0F80C80491C10299CD3BDE8F08793
:100FE0001FB54148006840F080003F49086008464E
:100FF000006840F480700860012000210B460A461A
:10100000CDE9001080213948FFF77BFF0120032143
:1010100000230246CDE9001001023548FFF771FFB9
:10102000FFF70EFC00224FF480713148FFF761FF9B
:101030000A2006F01FF8012211022D48FFF759FF80
:101040000A2006F017F8002000900346024680218F
:1010500001902648FFF755FF642006F00BF80422A4
:1010600002A948F2401000F05BF800208DF80C0057
:1010700002A920A0FFF74AF921A102A8FFF718FA58
:1010800078BB02208DF80800012202A948F2400036
:1010900000F0E8F9012202A948F2470000F040F808
:1010A0009DF8080060280DDA9DF8081016A0FFF7DB
:1010B0002DF91A48808845F21051884202D101204A
:1010C00000F0A2F90A2005F0D5FF00208DF80800F5
:1010D000012202A948F2400000F0C4F9002004B047
:1010E00010BDFFE70120FAE730380240001C024043
:1010F000002002404354502049443A25730D0A0011
:10110000393134370000000044656661756C742025
:101110005665723A25640D0A000000002401022081
:101120002DE9F04105460F461646FFF751FC2820F1
:10113000FFF71AFCFFF7A0FC2812FFF715FCFFF7DA
:101140009BFCE8B2FFF710FCFFF796FCFFF740FCB2
:101150002920FFF709FCFFF78FFC00240BE0711E2C
:10116000A14201D0012100E000210846FFF7C4FBA5
:101170003855601CC4B2B442F1DBFFF753FCBDE844
:10118000F081000071B583B0002400269A480078F1
:10119000401C99490870084600780A2190FBF1F23A
:1011A00001FB120018B1944800780A2873DA012272
:1011B00003A948F24E10FFF7B3FF9DF80C0000F0B2
:1011C000800068B19DF80C0000F00F00062807DAD7
:1011D00000200190012201A948F24E1000F042F9CE
:1011E0009DF80C0000F00F00002854D09DF80C0072
:1011F00000F00F000628D9DA9DF80C0000F00F016E
:10120000FF208840C0B201907C4890F820509DF8A3
:101210000400C043C0B240F0C000784981F820000B
:10122000084681898182C18AC183002488E073488D
:1012300090F820000121A140084000287ED070498C
:1012400031F81400042202A9FFF76AFF6D48808874
:1012500045F21051884236D1684890F8300000F0CD
:101260000100C8B19DF808009DF8091000EB0120AD
:1012700081B26248163020F814109DF80A009DF8DB
:101280000B1000EB0120C0F5487081B25B480C30B8
:1012900020F8141052E084E09DF808009DF8091031
:1012A00000EB012081B255480C3020F814109DF855
:1012B0000A009DF80B1000EB012081B24F48163058
:1012C00020F814103AE04F48808844F242318842B6
:1012D00034D14A4890F8300000F00100B0B19DF8D8
:1012E00008009DF8091000EB012081B243480C3042
:1012F00020F814109DF80A009DF80B1000EB012057
:1013000081B23E48163020F8141017E09DF808000E
:101310009DF8091000EB012081B23848163020F802
:1013200014109DF80A009DF80B1000EB0120C0F589
:10133000887081B231480C3020F81410601CC4B29F
:10134000052CFFF674AF01262C4880892D490988A9
:10135000884205DC2948C08A2A49498888421DDD1F
:101360009DF80C0000F00F0001280ADD2348C08919
:10137000224988810846008BC88200201E490870D7
:101380000FE01E48808A1D4988810846C08BC882AC
:1013900080200390084680F8205002E00020164983
:1013A00008709DF80C0000F08F0080281AD11348B7
:1013B00090F8200000F0800040B1104890F8200024
:1013C00020F080000D4981F820000BE04FF6FF70FF
:1013D0000A498881C882084690F8200000F0E000A1
:1013E00081F8200004480078F02802DD0A20024934
:1013F0000870304604B070BD570002202000022063
:10140000CABD00082401022038B50546002400208A
:101410008DF800008DF8015000BF09E09DF8000034
:101420000F49095D0844C0B28DF80000601CC4B2C9
:10143000B82CF3D39DF80000C043401CC0B28DF817
:101440000000B822064948F2470000F00BF80222DB
:10145000694648F2FF0000F005F8002038BD0000A2
:1014600012BD00082DE9F04104460E4617464FF024
:101470000008FFF7ADFA2820FFF776FAFFF7FCFA2D
:101480002012FFF771FAFFF7F7FAE0B2FFF76CFAF4
:10149000FFF7F2FA00250BE0705DFFF765FAFFF742
:1014A000EBFA8046B8F1000F00D003E0681CC5B22B
:1014B000BD42F1DB00BFFFF7B5FA4046BDE8F08161
:1014C00010B5002210211248FFF713FD10480068E4
:1014D00020F440600E4908600846006840F48060CF
:1014E0000860002220210A48FFF703FD022005F0D2
:1014F000DDFD012210210648FFF7FBFC022005F06C
:10150000D5FD002210210248FFF7F3FC10BD0000BA
:10151000001C02401CB50D48006840F080000B49DB
:1015200008600120022100230246CDE9001030218D
:101530000748FFF7E6FC012210210548FFF7D9FC18
:10154000012220210248FFF7D4FC1CBD30380240A4
:10155000001C024010B5002210211248FFF7C9FC00
:101560001048006820F440600E4908600846006892
:1015700040F480600860012220210A48FFF7B9FC8E
:10158000022005F093FD012210210648FFF7B1FC6F
:10159000022005F08BFD002210210248FFF7A9FC74
:1015A00010BD0000001C024070B50546002418481C
:1015B000006820F44060164908600846006808602A
:1015C00000261AE0002210211148FFF792FC0220A9
:1015D00005F06CFD012210210D48FFF78AFC600622
:1015E000040E20210A48FFF77CFC08B1601CC4B23D
:1015F000012005F05BFD701CC6B2082EE2DB15B9B8
:10160000FFF7A8FF01E0FFF75BFF204670BD000079
:10161000001C024070B504461848006820F4406081
:10162000164908600846006840F48060086000229F
:1016300010211248FFF75DFC00251BE0E209202184
:101640000E48FFF756FC6006040E022005F02EFD42
:10165000012210210948FFF74CFC022005F026FD6D
:10166000002210210548FFF744FC022005F01EFD72
:10167000681CC5B2082DE1DB70BD0000001C0240F3
:1016800010B51348006820F440601149086008460E
:10169000006840F480600860012220210C48FFF7B8
:1016A00028FC012210210A48FFF723FC042005F042
:1016B000FDFC002220210648FFF71BFC042005F05A
:1016C000F5FC002210210248FFF713FC10BD0000BA
:1016D000001C024010B51348006820F44060114916
:1016E00008600846006840F480600860002210210D
:1016F0000C48FFF7FEFB002220210A48FFF7F9FB08
:10170000042005F0D3FC012210210648FFF7F1FB6D
:10171000012220210348FFF7ECFB042005F0C6FC62
:1017200010BD0000001C024010B5002417480068DE
:1017300020F44060154908600846006808600122EE
:1017400020211248FFF7D5FB012005F0AFFC012254
:1017500010210E48FFF7CDFB012005F0A7FC07E0A4
:10176000601CC4B2FA2C03DDFFF7B4FF012010BDEA
:1017700020210648FFF7B5FB0028F1D100221021F7
:101780000248FFF7B6FB0020F1E70000001C024012
:101790001CB51748006840F001001549086008466C
:1017A000006840F0040008600846006840F08000CF
:1017B0000860022000210B460A46CDE900100121F5
:1017C0000C48FFF79EFB012000210B460A46CDE99D
:1017D000001041030848FFF794FB012000210B464D
:1017E0000A46CDE900100C210448FFF78AFB1CBD16
:1017F000303802400000024000080240001C024055
:1018000010B5044614B101202D4908702C48007809
:10181000002839D008212B48FFF763FB80B1042151
:101820002848FFF75EFB58B14FF400512648FFF7F8
:1018300058FB28B101212548FFF753FB012823D18C
:101840000A2005F017FC00201D49087008211D48DA
:10185000FFF747FB08B9012010BD04211948FFF725
:1018600040FB08B90220F7E74FF400511648FFF794
:1018700038FB08B90320EFE701211448FFF731FBDB
:1018800001281BD10420E7E708210E48FFF729FBB8
:10189000012813D104210B48FFF723FB01280DD1A8
:1018A00041030948FFF71DFB012807D10121074823
:1018B000FFF717FB10B90120014908700020CBE7A2
:1018C0001C000220001C02400008024000000240F0
:1018D00070B5044600260D4805880D48006818B10B
:1018E000204603F0AFF80FE0084840884543002148
:1018F000084602F0A5FE03F073F8002602E0054951
:101900000C80761CAE42FAD370BD00002401022088
:10191000340102200000086010B504465C48847160
:101920005C48006850B1204603F0EAF85948C08A84
:10193000574908805748008B488010BD002C51D172
:10194000F020534908804FF4A070488008468088F2
:1019500049F24131884205D04D48808845F2103126
:10196000884214D12C204A4908812A2048812B2002
:1019700088810846808845F21031884206D14FF4AC
:10198000A070434908804FF4F07048807BE04048E5
:10199000808845F21051884210D14FF430503C49B4
:1019A00008814FF4285048814FF42C5088814FF41F
:1019B000F07008804FF44870488064E034488088B4
:1019C00041F6631188425ED12C20314908812B20D9
:1019D00048812A2088814FF4F07008804FF44870C5
:1019E000488050E04FF4A07029490880F0204880DA
:1019F0000846808849F24131884205D024488088D1
:101A000045F21031884207D12C20214908812A2033
:101A100048812B20888129E01D48808845F210519B
:101A2000884210D14FF43050194908814FF42850A2
:101A300048814FF42C5088814FF4487008804FF44F
:101A4000F070488012E01248808841F663118842A5
:101A50000CD12C200E4908812A2048812B20888116
:101A60004FF4487008804FF4F07048800848808830
:101A700045F21031884206D14FF4F07004490880D5
:101A80004FF4A0704880002002F0A0FC00BF54E793
:101A900024010220340102202DE9FF4F85B0814648
:101AA0008A460020049003900798A0EB0905089847
:101AB000A0EB0A06CDF80890CDF804A0002D01DDBA
:101AC000012705E00DB9002702E04FF0FF376D4216
:101AD000002E02DD4FF0010806E016B94FF00008B5
:101AE00002E04FF0FF387642B54201DD2C4600E0BF
:101AF00034464FF0000B21E0019A91B2029A90B265
:101B000000F022F80498284404900398304403908D
:101B10000498A04205DD0498001B04900298384404
:101B200002900398A04205DD0398001B03900198E2
:101B3000404401900BF101001FFA80FB601C8345BB
:101B4000DADD09B0BDE8F08F70B504460D460A48ED
:101B5000006830B1094829460268204602F0E6FFD5
:101B600009E02946204602F06BFD02F039FF0348E8
:101B700000880349088070BD340102200C00022057
:101B8000000008602DE9F04706460F469046002405
:101B900045460320A0EB48093CE07A1B91B232197C
:101BA00090B2FFF7D1FF3A1B91B2721990B2FFF7D2
:101BB000CBFF3A1991B2721990B2FFF7C5FF7A19AB
:101BC00091B2321990B2FFF7BFFF7A1991B2321B6E
:101BD00090B2FFF7B9FF3A1991B2721B90B2FFF7BA
:101BE000B3FF7A1B91B2321B90B2FFF7ADFF3A1BE5
:101BF00091B2721B90B2FFF7A7FF641CB9F1000FFE
:101C000003DAA000801D814404E0601B80000A30DC
:101C100081446D1EAC42C0DDBDE8F08770B504465E
:101C20000D4616464348006828B1324629462046EC
:101C300002F07CFF70BD4048808849F24131884203
:101C400005D03D48808845F21031884214D13A4988
:101C5000488902F0B9FE201202F0AAFEE0B202F0BA
:101C6000A7FE3549888902F0AFFE281202F0A0FED7
:101C7000E8B202F09DFE54E02F48808845F21051F2
:101C8000884220D12C49488902F09EFE201202F0A1
:101C90008FFE29494989491C88B202F095FEE0B2BD
:101CA00002F086FE2449888902F08EFE281202F096
:101CB0007FFE21498989491C88B202F085FEE8B27D
:101CC00002F076FE2DE01C48808841F663118842C0
:101CD00027D11948807920B917480088401E001B79
:101CE00084B21549488902F06FFE201202F060FEAE
:101CF000E0B202F05DFE201202F05AFEE0B202F005
:101D000057FE0D49888902F05FFE281202F050FE4E
:101D1000E8B202F04DFE281202F04AFEE8B202F0EC
:101D200047FE0548008905490880891C0E8000BFD0
:101D300080E700003401022024010220FEFF07603A
:101D40002DE9F84F05460E4617469846DDF82890CF
:101D50004FF0000B1448006840B143463A46314604
:101D60002846CDF8009002F009FF1BE0781B401CCC
:101D70001FFA80FB344613E02146284602F060FC3F
:101D800002F02EFE4FF0000A06E00849A1F800908C
:101D90000AF101001FFA80FADA45F6DB601C84B212
:101DA0004445E9DDBDE8F88F3401022000000860F9
:101DB0001CB503F05FFAFE4988800846808840B170
:101DC00008468188FBA0FEF7A1FA02F07BFF02F033
:101DD00076BAFC48006840F00200FA4908600846FC
:101DE000006840F018000860F6480830006840F0CD
:101DF0000100F44908310860012002210023024655
:101E0000CDE900102021F048FFF77BF801200321E5
:101E100000230222CDE900104EF2B371EB48FFF728
:101E200070F80120032100230222CDE900104FF6B3
:101E30008071E748FFF765F80C220021E348FFF7BF
:101E400030F80C220121E148FFF72BF80C22042185
:101E5000DE48FFF726F80C220521DC48FFF721F8C1
:101E60000C220721D948FFF71CF80C220821D7487B
:101E7000FFF717F80C220921D448FFF712F80C22BB
:101E80000A21D248FFF70DF80C220D21CF48FFF7A9
:101E900008F80C220E21CD48FFF703F80C220F2181
:101EA000CA48FEF7FEFF0C220721C948FEF7F9FFDA
:101EB0000C220821C648FEF7F4FF0C220921C44871
:101EC000FEF7EFFF0C220A21C148FEF7EAFF0C22C1
:101ED0000B21BF48FEF7E5FF0C221146BC48FEF778
:101EE000E0FF0C220D21BA48FEF7DBFF0C220E2189
:101EF000B748FEF7D6FF0C220F21B548FEF7D1FFF9
:101F000000204FF0204108604860B24908604FF05F
:101F10002040006840F480504FF02041086008469F
:101F2000006840F4804008600846006840F01000F7
:101F300008600846406848600846406840F00F0066
:101F400048600846406840F4A0404860A1480068E6
:101F5000C1F804010846D0F8040140F00F00C1F8B0
:101F600004010846D0F8040140F47060C1F804018F
:101F70000846006840F001000860322005F07AF859
:101F8000D32002F021FD02F0EFF98949888002F0A8
:101F9000EBF98749888002F0E7F98549888008468F
:101FA00080884FF6FF7101EA00208149888002F0A5
:101FB000DBF97F49898808437D4988800846808805
:101FC00049F24131884278D0D42002F0FDFC02F081
:101FD000CBF97749888002F0C7F97549888002F00B
:101FE000C3F973498880084680884FF6FF7101EA7B
:101FF00000206F49888002F0B7F96D49898808434D
:102000006B4988800846808845F21031884254D058
:102010004FF45A4002F0D8FC02F0A6F964498880D7
:102020004FF45B4002F0D0FC02F09EF960498880DA
:10203000084680884FF6FF7101EA00205C498880DD
:102040004FF45C4002F0C0FC02F08EF958498988D8
:1020500008435749888008468088B0F5004F02D170
:1020600045F2105088805248808845F210518842CD
:1020700023D0A12002F0A8FC02F076F94C49888018
:1020800002F072F94A498880084680884FF6FF714D
:1020900001EA00204649888002F066F944498988AF
:1020A0000843434988800846808845F26171884228
:1020B00003D141F663103E4988803D4881883DA0A8
:1020C000FEF724F93A48808849F2413188426DD1BF
:1020D000CF2002F079FC002002F06AFCC12002F05F
:1020E00067FC302002F064FCED2002F06DFC6420FF
:1020F00002F05EFC032002F05BFC122002F058FCB0
:10210000812002F055FCE82002F05EFC852002F000
:102110004FFC102002F04CFC7A2002F049FCCB204E
:1021200002F052FC392002F043FC2C2002F040FC6B
:10213000002002F03DFC342002F03AFC022002F0C4
:1021400037FCF72002F040FC202002F031FCEA20AE
:1021500002F03AFC002002F02BFC002002F028FCE8
:10216000C02002F031FC1B2002F022FCC12002F052
:102170002BFC012002F01CFCC52002F025FC3020C5
:1021800002F016FC302002F013FCC72002F01CFC09
:10219000B72002F00DFC362002F016FC482002F0B9
:1021A00007FC3A2002F010FC552015E0BCE00000CE
:1021B00024010220204C43442049443A25780D0A4A
:1021C000000000003038024000040240000C0240D1
:1021D00000100240040100A002F0EAFBB12002F06E
:1021E000F3FB002002F0E4FB1A2002F0E1FBB62032
:1021F00002F0EAFB0A2002F0DBFBA22002F0D8FB8F
:10220000F22002F0E1FB002002F0D2FB262002F0D7
:10221000DBFB012002F0CCFBE02002F0D5FB0F201D
:1022200002F0C6FB2A2002F0C3FB282002F0C0FB0C
:10223000082002F0BDFB0E2002F0BAFB082002F0DD
:10224000B7FB542002F0B4FBA92002F0B1FB4320FD
:1022500002F0AEFB0A2002F0ABFB0F2002F0A8FB5D
:10226000002002F0A5FB002002F0A2FB002002F0FB
:102270009FFB002002F09CFBE12002F0A5FB002068
:1022800002F096FB152002F093FB172002F090FB62
:10229000072002F08DFB112002F08AFB062002F0DD
:1022A00087FB2B2002F084FB562002F081FB3C20B0
:1022B00002F07EFB052002F07BFB102002F078FB91
:1022C0000F2002F075FB3F2002F072FB3F2002F06E
:1022D0006FFB0F2002F06CFB2B2002F075FB00203F
:1022E00002F066FB002002F063FB012002F060FBBD
:1022F0003F2002F05DFB2A2002F066FB002002F086
:1023000057FB002002F054FB002002F051FBEF20AD
:1023100002F04EFB112002F057FB782004F0AAFED9
:10232000292002F051FB52E5FE48808845F2103129
:10233000884240F07C87ED2002F046FB012002F04D
:1023400037FBFE2002F034FBEE2002F03DFBDE20E6
:1023500002F02EFB212002F02BFBF12002F034FBD7
:10236000012002F025FBDF2002F02EFB102002F0FE
:102370001FFBC42002F028FB8F2002F019FBC620AF
:1023800002F022FB002002F013FBE22002F010FB1F
:10239000E22002F00DFBE22002F00AFBBF2002F077
:1023A00013FBAA2002F004FBB02002F00DFB0D206D
:1023B00002F0FEFA002002F0FBFA0D2002F0F8FA1B
:1023C000002002F0F5FA112002F0F2FA002002F0EB
:1023D000EFFA192002F0ECFA002002F0E9FA2120CD
:1023E00002F0E6FA002002F0E3FA2D2002F0E0FA13
:1023F000002002F0DDFA3D2002F0DAFA002002F0BF
:10240000D7FA5D2002F0D4FA002002F0D1FA5D2064
:1024100002F0CEFA002002F0CBFAB12002F0D4FA9A
:10242000802002F0C5FA002002F0C2FA8B2002F0F0
:10243000BFFA002002F0BCFA962002F0B9FA0020A0
:1024400002F0B6FAB22002F0BFFA002002F0B0FAB1
:10245000002002F0ADFA022002F0AAFA002002F0F9
:10246000A7FA032002F0A4FA002002F0A1FAB32098
:1024700002F0AAFA002002F09BFA002002F098FA7B
:10248000002002F095FA002002F092FA002002F0FB
:102490008FFA002002F08CFA002002F089FA002066
:1024A00002F086FA002002F083FA002002F080FA9F
:1024B000002002F07DFA002002F07AFA002002F0FB
:1024C00077FA002002F074FA002002F071FA00207E
:1024D00002F06EFA002002F06BFA002002F068FAB7
:1024E000002002F065FA002002F062FA002002F0FB
:1024F0005FFA002002F05CFA002002F059FA002096
:1025000002F056FAB42002F05FFA8B2002F050FA83
:10251000002002F04DFA962002F04AFA002002F064
:1025200047FAA12002F044FA002002F041FAB52057
:1025300002F04AFA022002F03BFA002002F038FAD8
:10254000032002F035FA002002F032FA042002F0F3
:102550002FFA002002F02CFAB62002F035FA002003
:1025600002F026FA002002F023FAB72002F02CFA3B
:10257000002002F01DFA002002F01AFA3F2002F0BB
:1025800017FA002002F014FA5E2002F011FA00207F
:1025900002F00EFA642002F00BFA002002F008FAB2
:1025A0008C2002F005FA002002F002FAAC2002F0C2
:1025B000FFF9002002F0FCF9DC2002F0F9F900201C
:1025C00002F0F6F9702002F0F3F9002002F0F0F9C1
:1025D000902002F0EDF9002002F0EAF9EB2002F081
:1025E000E7F9002002F0E4F9DC2002F0E1F9002034
:1025F00002F0DEF9B82002F0E7F9002002F0D8F985
:10260000002002F0D5F9002002F0D2F9002002F0FB
:10261000CFF9002002F0CCF9002002F0C9F9002027
:1026200002F0C6F9002002F0C3F9BA2002F0CCF99A
:10263000242002F0BDF9002002F0BAF9002002F0D7
:10264000B7F9002002F0B4F9C12002F0BDF9202052
:1026500002F0AEF9002002F0ABF9542002F0A8F924
:10266000002002F0A5F9FF2002F0A2F9002002F0FC
:102670009FF9C22002F0A8F90A2002F099F900207F
:1026800002F096F9042002F093F9002002F090F98C
:10269000C32002F099F93C2002F08AF9002002F0F0
:1026A00087F93A2002F084F9002002F081F93920FC
:1026B00002F07EF9002002F07BF9372002F078F971
:1026C000002002F075F93C2002F072F9002002F0BF
:1026D0006FF9362002F06CF9002002F069F932201F
:1026E00002F066F9002002F063F92F2002F060F991
:1026F000002002F05DF92C2002F05AF9002002F0CF
:1027000057F9292002F054F9002002F051F926204F
:1027100002F04EF9002002F04BF9242002F048F9B3
:10272000002001E02401022002F042F9242002F0FE
:102730003FF9002002F03CF9232002F039F9002093
:1027400002F036F93C2002F033F9002002F030F9B3
:10275000362002F02DF9002002F02AF9322002F092
:1027600027F9002002F024F92F2002F021F900209F
:1027700002F01EF92C2002F01BF9002002F018F9DB
:10278000292002F015F9002002F012F9262002F0AB
:102790000FF9002002F00CF9242002F009F90020C2
:1027A00002F006F9242002F003F9002002F000F9FB
:1027B000232002F0FDF8002002F0FAF8C42002F015
:1027C00003F9622002F0F4F8002002F0F1F805208D
:1027D00002F0EEF8002002F0EBF8842002F0E8F8B6
:1027E000002002F0E5F8F02002F0E2F8002002F00C
:1027F000DFF8182002F0DCF8002002F0D9F8A4205D
:1028000002F0D6F8002002F0D3F8182002F0D0F839
:10281000002002F0CDF8502002F0CAF8002002F0AB
:10282000C7F80C2002F0C4F8002002F0C1F817200D
:1028300002F0BEF8002002F0BBF8952002F0B8F8D4
:10284000002002F0B5F8F32002F0B2F8002002F008
:10285000AFF8E62002F0ACF8002002F0A9F8C5209D
:1028600002F0B2F8322002F0A3F8002002F0A0F843
:10287000442002F09DF8002002F09AF8652002F052
:1028800097F8002002F094F8762002F091F80020EA
:1028900002F08EF8882002F08BF8002002F088F811
:1028A000C62002F091F8202002F082F8002002F009
:1028B0007FF8172002F07CF8002002F079F8012060
:1028C00002F076F8002002F073F8C72002F07CF8DE
:1028D000002002F06DF8002002F06AF8002002F0FB
:1028E00067F8002002F064F8C82002F06DF80020BC
:1028F00002F05EF8002002F05BF8002002F058F8C9
:10290000002002F055F8C92002F05EF8002002F025
:102910004FF8002002F04CF8002002F049F80020A7
:1029200002F046F8002002F043F8002002F040F8E0
:10293000002002F03DF8002002F03AF8002002F0FA
:1029400037F8002002F034F8002002F031F80020BF
:1029500002F02EF8002002F02BF8002002F028F8F8
:10296000002002F025F8002002F022F8E02002F01A
:102970002BF8162002F01CF8002002F019F81C2099
:1029800002F016F8002002F013F8212002F010F8EF
:10299000002002F00DF8362002F00AF8002002F0C4
:1029A00007F8462002F004F8002002F001F8522057
:1029B00001F0FEFF002001F0FBFF642001F0F8FFB2
:1029C000002001F0F5FF7A2001F0F2FF002001F075
:1029D000EFFF8B2001F0ECFF002001F0E9FF9920D0
:1029E00001F0E6FF002001F0E3FFA82001F0E0FF86
:1029F000002001F0DDFFB92001F0DAFF002001F036
:102A0000D7FFC42001F0D4FF002001F0D1FFCA207D
:102A100001F0CEFF002001F0CBFFD22001F0C8FF73
:102A2000002001F0C5FFD92001F0C2FF002001F015
:102A3000BFFFE02001F0BCFF002001F0B9FFF32050
:102A400001F0B6FF002001F0B3FFE12001F0BCFF70
:102A5000162001F0ADFF002001F0AAFF1C2001F0BC
:102A6000A7FF002001F0A4FF222001F0A1FF002019
:102A700001F09EFF362001F09BFF002001F098FF3F
:102A8000452001F095FF002001F092FF522001F057
:102A90008FFF002001F08CFF642001F089FF0020EF
:102AA00001F086FF7A2001F083FF002001F080FF13
:102AB0008B2001F07DFF002001F07AFF992001F0CA
:102AC00077FF002001F074FFA82001F071FF0020C3
:102AD00001F06EFFB92001F06BFF002001F068FFEC
:102AE000C42001F065FF002001F062FFCA2001F060
:102AF0005FFF002001F05CFFD22001F059FF0020B1
:102B000001F056FFD82001F053FF002001F050FFE4
:102B1000E02001F04DFF002001F04AFFF32001F01A
:102B200047FF002001F044FFE22001F04DFF0520A7
:102B300001F03EFF002001F03BFF0B2001F038FFC9
:102B4000002001F035FF1B2001F032FF002001F0D2
:102B50002FFF342001F02CFF002001F029FF44203A
:102B600001F026FF002001F023FF4F2001F020FF9D
:102B7000002001F01DFF612001F01AFF002001F08C
:102B800017FF792001F014FF002001F011FF8820C9
:102B900001F00EFF002001F00BFF972001F008FF6D
:102BA000002001F005FFA62001F002FF002001F047
:102BB000FFFEB72001F0FCFE002001F0F9FEC2206C
:102BC00001F0F6FE002001F0F3FEC72001F0F0FE58
:102BD000002001F0EDFED12001F0EAFE002001F01E
:102BE000E7FED62001F0E4FE002001F0E1FEDD204A
:102BF00001F0DEFE002001F0DBFEF32001F0D8FE44
:102C0000002001F0D5FEE32001F0DEFE052001F0FA
:102C1000CFFE002001F0CCFE0A2001F0C9FE00200A
:102C200001F0C6FE1C2001F0C3FE002001F0C0FE32
:102C3000332001F0BDFE002001F0BAFE442001F077
:102C4000B7FE002001F0B4FE502001F0B1FE0020DC
:102C500001F0AEFE622001F0ABFE002001F0A8FE04
:102C6000782001F0A5FE002001F0A2FE882001F0EE
:102C70009FFE002001F09CFE972001F099FE0020AD
:102C800001F096FEA62001F093FE002001F090FED8
:102C9000B72001F08DFE002001F08AFEC22001F075
:102CA00087FE002001F084FEC72001F081FE002095
:102CB00001F07EFED12001F07BFE002001F078FEC5
:102CC000D52001F075FE002001F072FEDD2001F03C
:102CD0006FFE002001F06CFEF32001F069FE002081
:102CE00001F066FEE42001F06FFE012001F060FEBD
:102CF000002001F05DFE012001F05AFE002001F0ED
:102D000057FE022001F054FE002001F051FE2A205F
:102D100001F04EFE002001F04BFE3C2001F048FE89
:102D2000002001F045FE4B2001F042FE002001F0A2
:102D30003FFE5D2001F03CFE002001F039FE7420D2
:102D400001F036FE002001F033FE842001F030FE59
:102D5000002001F02DFE932001F02AFE002001F05A
:102D600027FEA22001F024FE002001F021FEB32066
:102D700001F01EFE002001F01BFEBE2001F018FE37
:102D8000002001F015FEC42001F012FE002001F029
:102D90000FFECD2001F00CFE002001F009FED32033
:102DA00001F006FE002001F003FEDD2001F000FE30
:102DB000002001F0FDFDF32001F0FAFD002001F0FC
:102DC000F7FDE52001F000FE002001F0F1FD0020FC
:102DD00001F0EEFD002001F0EBFD002001F0E8FD28
:102DE000022001F0E5FD002001F0E2FD292001F0C4
:102DF000DFFD002001F0DCFD3C2001F0D9FD0020CA
:102E000001F0D6FD4B2001F0D3FD002001F0D0FDF4
:102E10005D2001F0CDFD002001F0CAFD742001F01D
:102E2000C7FD002001F0C4FD842001F0C1FD002099
:102E300001F0BEFD932001F0BBFD002001F0B8FDC4
:102E4000A22001F0B5FD002001F0B2FDB32001F099
:102E5000AFFD002001F0ACFDBE2001F0A9FD002077
:102E600001F0A6FDC42001F0A3FD002001F0A0FDAB
:102E7000CD2001F09DFD002001F09AFDD32001F04E
:102E800097FD002001F094FDDC2001F091FD002071
:102E900001F08EFDF32001F08BFD002001F088FD94
:102EA000E62001F091FD112001F082FD002001F0EB
:102EB0007FFD342001F07CFD002001F079FD5620DB
:102EC00001F076FD002001F073FD762001F070FD29
:102ED000002001F06DFD772001F06AFD002001F077
:102EE00067FD662001F064FD002001F061FD88208F
:102EF00001F05EFD002001F05BFD992001F058FD1E
:102F0000002001F055FDBB2001F052FD002001F032
:102F10004FFD992001F04CFD002001F049FD662095
:102F200001F046FD002001F043FD552001F040FD79
:102F3000002001F03DFD552001F03AFD002001F098
:102F400037FD452001F034FD002001F031FD432024
:102F500001F02EFD002001F02BFD442001F028FDA2
:102F6000002001F025FDE72001F02EFD322001F0C8
:102F70001FFD002001F01CFD552001F019FD00206F
:102F800001F016FD762001F013FD002001F010FD88
:102F9000662001F00DFD002001F00AFD672001F020
:102FA00007FD002001F004FD672001F001FD002075
:102FB00001F0FEFC872001F0FBFC002001F0F8FC92
:102FC000992001F0F5FC002001F0F2FCBB2001F09B
:102FD000EFFC002001F0ECFC992001F0E9FC00205E
:102FE00001F0E6FC772001F0E3FC002001F0E0FCBA
:102FF000442001F0DDFC002001F0DAFC562001F055
:10300000D7FC002001F0D4FC232001F0D1FC0020EB
:1030100001F0CEFC332001F0CBFC002001F0C8FC15
:10302000452001F0C5FC002001F0C2FCE82001F0C1
:10303000CBFC002001F0BCFC002001F0B9FC992081
:1030400001F0B6FC002001F0B3FC872001F0B0FCD9
:10305000002001F0ADFC882001F0AAFC002001F066
:10306000A7FC772001F0A4FC002001F0A1FC662061
:1030700001F09EFC002001F09BFC882001F098FCF0
:10308000002001F095FCAA2001F092FC002001F044
:103090008FFCBB2001F08CFC002001F089FC992002
:1030A00001F086FC002001F083FC662001F080FC2A
:1030B000002001F07DFC552001F07AFC002001F099
:1030C00077FC552001F074FC002001F071FC4420D5
:1030D00001F06EFC002001F06BFC442001F068FC64
:1030E000002001F065FC552001F062FC002001F099
:1030F0005FFCE92001F068FCAA2001F059FC0020E7
:1031000001F056FC002001F053FC002001F050FCBF
:10311000002001F059FCAA2001F04AFCCF2001F068
:1031200053FC002001F044FC002001F041FC002091
:1031300001F03EFC002001F03BFC002001F038FCD7
:10314000002001F035FC002001F032FC002001F0ED
:103150002FFC002001F02CFC002001F029FC0020B5
:1031600001F026FC002001F023FC002001F020FCEF
:10317000002001F01DFC002001F01AFC002001F0ED
:1031800017FC002001F014FCF02001F01DFC0020D1
:1031900001F00EFC502001F00BFC002001F008FCB7
:1031A000002001F005FC002001F002FCF32001F0FA
:1031B0000BFC002001F0FCFBF92001F005FC0620CF
:1031C00001F0F6FB102001F0F3FB292001F0F0FBE9
:1031D000002001F0EDFB3A2001F0F6FB552001F054
:1031E000E7FB112001F0F0FB642003F043FF2920EE
:1031F00001F0EAFB352001F0E7FB002001F0D8FBED
:10320000512001F0E1FBFF2001F0D2FB532001F03F
:10321000DBFB2C2001F0CCFB552001F0D5FB8220FC
:1032200001F0C6FB2C2001F0CFFB01F048B8FE48AE
:10323000808845F2105188427ED155214FF470406C
:1032400001F0D8FBAA214FF2010001F0D3FB52217B
:103250004FF2020001F0CEFB08214FF2030001F013
:10326000C9FB01214FF2040001F0C4FB0D214FF412
:10327000304001F0BFFB0D214BF2010001F0BAFB21
:103280000D214BF2020001F0B5FB34214FF4364022
:1032900001F0B0FB34214BF2016001F0ABFB3421B3
:1032A0004BF2026001F0A6FB0D214FF4314001F01A
:1032B000A1FB0D214BF2011001F09CFB0D214BF203
:1032C000021001F097FB34214FF4374001F092FBDC
:1032D00034214BF2017001F08DFB34214BF202706E
:1032E00001F088FB00214FF4324001F083FB002104
:1032F0004BF2012001F07EFB00214BF2022001F095
:1033000079FB24214FF4384001F074FB24214BF663
:10331000010001F06FFB24214BF6020001F06AFB73
:1033200001214FF43F4001F065FB0F214FF4334082
:1033300001F060FB0F2100E0FEE34BF2013001F0F1
:1033400059FB0F214BF2023001F054FB34214FF4B2
:10335000394001F04FFB34214BF6011001F04AFBDC
:1033600034214BF6021001F045FB08214FF43540A3
:1033700001F040FB08214BF2015001F03BFB08211A
:103380004BF2025001F036FB03214FF4424001F0B2
:1033900031FB24214FF43A4001F02CFB24214BF661
:1033A000012001F027FB24214BF6022001F022FB33
:1033B00000214FF43C4001F01DFB78214BF6014009
:1033C00001F018FB00214BF6024001F013FB002135
:1033D0004FF43D4001F00EFB78214BF6015001F017
:1033E00009FB00214BF6025001F004FB00214FF4D1
:1033F0003E4001F0FFFA64214BF6016001F0FAFA59
:1034000000214FF4514001F0F5FA33214DF2011043
:1034100001F0F0FA00214DF2021001F0EBFA342134
:103420004DF2031001F0E6FA00214DF2041001F014
:10343000E1FA3A214DF2051001F0DCFA00214DF2DB
:10344000061001F0D7FA4A214DF2071001F0D2FA26
:1034500000214DF2081001F0CDFA5C214DF2091067
:1034600001F0C8FA00214DF20A1001F0C3FA8121DF
:103470004DF20B1001F0BEFA00214DF20C1001F0DC
:10348000B9FAA6214DF20D1001F0B4FA00214DF267
:103490000E1001F0AFFAE5214DF20F1001F0AAFA7B
:1034A00001214DF2101001F0A5FA13214DF2111077
:1034B00001F0A0FA01214DF2121001F09BFA542103
:1034C0004DF2131001F096FA01214DF2141001F0A3
:1034D00091FA82214DF2151001F08CFA01214DF282
:1034E000161001F087FACA214DF2171001F082FA86
:1034F00002214DF2181001F07DFA00214DF2191051
:1035000001F078FA02214DF21A1001F073FA01214C
:103510004DF21B1001F06EFA02214DF21C1001F069
:1035200069FA34214DF21D1001F064FA02214DF2C6
:103530001E1001F05FFA67214DF21F1001F05AFAD8
:1035400002214DF2201001F055FA84214DF2211094
:1035500001F050FA02214DF2221001F04BFAA421A1
:103560004DF2231001F046FA02214DF2241001F031
:1035700041FAB7214DF2251001F03CFA02214DF23B
:10358000261001F037FACF214DF2271001F032FA60
:1035900002214DF2281001F02DFADE214DF2291002
:1035A00001F028FA02214DF22A1001F023FAF2214B
:1035B0004DF22B1001F01EFA02214DF22C1001F0F9
:1035C00019FAFE214DF22D1001F014FA03214DF2EB
:1035D0002E1001F00FFA10214DF22F1001F00AFA0F
:1035E00003214DF2301001F005FA33214DF2311074
:1035F00001F000FA03214DF2321001F0FBF96D21C8
:103600004DF2331001F0F6F900214FF4524001F071
:10361000F1F933214DF2012001F0ECF900214DF2D6
:10362000022001F0E7F901E02401022034214DF2EB
:10363000032001F0DFF900214DF2042001F0DAF956
:103640003A214DF2052001F0D5F900214DF2062076
:1036500001F0D0F94A214DF2072001F0CBF9002109
:103660004DF2082001F0C6F95C214DF2092001F06D
:10367000C1F900214DF20A2001F0BCF981214DF27F
:103680000B2001F0B7F900214DF20C2001F0B2F946
:10369000A6214DF20D2001F0ADF900214DF20E20D2
:1036A00001F0A8F9E5214DF20F2001F0A3F9012165
:1036B0004DF2102001F09EF913214DF2112001F07E
:1036C00099F901214DF2122001F094F954214DF2A3
:1036D000132001F08FF901214DF2142001F08AF935
:1036E00082214DF2152001F085F901214DF21620BD
:1036F00001F080F9CA214DF2172001F07BF9022177
:103700004DF2182001F076F900214DF2192001F058
:1037100071F902214DF21A2001F06CF901214DF2EC
:103720001B2001F067F902214DF21C2001F062F923
:1037300034214DF21D2001F05DF902214DF21E20D1
:1037400001F058F967214DF21F2001F053F90221D1
:103750004DF2202001F04EF984214DF2212001F09C
:1037600049F902214DF2222001F044F9A4214DF241
:10377000232001F03FF902214DF2242001F03AF913
:10378000B7214DF2252001F035F902214DF2262016
:1037900001F030F9CF214DF2272001F02BF9022161
:1037A0004DF2282001F026F9DE214DF2292001F00A
:1037B00021F902214DF22A2001F01CF9F2214DF2EB
:1037C0002B2001F017F902214DF22C2001F012F903
:1037D000FE214DF22D2001F00DF903214DF22E2096
:1037E00001F008F910214DF22F2001F003F9032117
:1037F0004DF2302001F0FEF833214DF2312001F07E
:10380000F9F803214DF2322001F0F4F86D214DF268
:10381000332001F0EFF800214FF4534001F0EAF8B3
:1038200033214DF2013001F0E5F800214DF2023074
:1038300001F0E0F834214DF2033001F0DBF8002113
:103840004DF2043001F0D6F83A214DF2053001F086
:10385000D1F800214DF2063001F0CCF84A214DF2AA
:10386000073001F0C7F800214DF2083001F0C2F82E
:103870005C214DF2093001F0BDF800214DF20A3013
:1038800001F0B8F881214DF20B3001F0B3F80021BE
:103890004DF20C3001F0AEF8A6214DF20D3001F0E2
:1038A000A9F800214DF20E3001F0A4F8E5214DF207
:1038B0000F3001F09FF801214DF2103001F09AF81D
:1038C00013214DF2113001F095F801214DF2123023
:1038D00001F090F854214DF2133001F08BF80121E2
:1038E0004DF2143001F086F882214DF2153001F0CE
:1038F00081F801214DF2163001F07CF8CA214DF219
:10390000173001F077F802214DF2183001F072F80B
:1039100000214DF2193001F06DF802214DF21A30FC
:1039200001F068F801214DF21B3001F063F802212B
:103930004DF21C3001F05EF834214DF21D3001F0E3
:1039400059F802214DF21E3001F054F867214DF272
:103950001F3001F04FF802214DF2203001F04AF8FB
:1039600084214DF2213001F045F802214DF2223040
:1039700001F040F8A4214DF2233001F03BF8022180
:103980004DF2243001F036F8B7214DF2253001F028
:1039900031F802214DF2263001F02CF8CF214DF202
:1039A000273001F027F802214DF2283001F022F8EB
:1039B000DE214DF2293001F01DF802214DF22A30AE
:1039C00001F018F8F2214DF22B3001F013F802212A
:1039D0004DF22C3001F00EF8FE214DF22D3001F0A9
:1039E00009F803214DF22E3001F004F810214DF2B8
:1039F0002F3000F0FFFF03214DF2303000F0FAFFCE
:103A000033214DF2313000F0F5FF03214DF2323019
:103A100000F0F0FF6D214DF2333000F0EBFF00219C
:103A20004FF4544000F0E6FF33214DF2014000F026
:103A3000E1FF00214DF2024000F0DCFF34214DF2A5
:103A4000034000F0D7FF00214DF2044000F0D2FF08
:103A50003A214DF2054000F0CDFF00214DF2064025
:103A600000F0C8FF4A214DF2074000F0C3FF0021DB
:103A70004DF2084000F0BEFF5C214DF2094000F01D
:103A8000B9FF00214DF20A4000F0B4FF81214DF250
:103A90000B4000F0AFFF00214DF20C4000F0AAFFF8
:103AA000A6214DF20D4000F0A5FF00214DF20E4081
:103AB00000F0A0FFE5214DF20F4000F09BFF012137
:103AC0004DF2104000F096FF13214DF2114000F02E
:103AD00091FF01214DF2124000F08CFF54214DF274
:103AE000134000F087FF01214DF2144000F082FFE7
:103AF00082214DF2154000F07DFF01214DF216406C
:103B000000F078FFCA214DF2174000F073FF022148
:103B10004DF2184000F06EFF00214DF2194000F008
:103B200069FF02214DF21A4000F064FF01214DF2BD
:103B30001B4000F05FFF00E003E302214DF21C4058
:103B400000F058FF34214DF21D4000F053FF0221D8
:103B50004DF21E4000F04EFF67214DF21F4000F075
:103B600049FF02214DF2204000F044FF84214DF234
:103B7000214000F03FFF02214DF2224000F03AFFC9
:103B8000A4214DF2234000F035FF02214DF22440E4
:103B900000F030FFB7214DF2254000F02BFF02214D
:103BA0004DF2264000F026FFCF214DF2274000F0D5
:103BB00021FF02214DF2284000F01CFFDE214DF2D2
:103BC000294000F017FF02214DF22A4000F012FFB9
:103BD000F2214DF22B4000F00DFF02214DF22C405E
:103BE00000F008FFFE214DF22D4000F003FF0321FD
:103BF0004DF22E4000F0FEFE10214DF22F4000F05D
:103C0000F9FE03214DF2304000F0F4FE33214DF275
:103C1000314000F0EFFE03214DF2324000F0EAFEA9
:103C20006D214DF2334000F0E5FE00214FF4554088
:103C300000F0E0FE33214DF2015000F0DBFE0021E8
:103C40004DF2025000F0D6FE34214DF2035000F048
:103C5000D1FE00214DF2045000F0CCFE3A214DF28D
:103C6000055000F0C7FE00214DF2065000F0C2FEE4
:103C70004A214DF2075000F0BDFE00214DF20850E0
:103C800000F0B8FE5C214DF2095000F0B3FE0021B7
:103C90004DF20A5000F0AEFE81214DF20B5000F0C3
:103CA000A9FE00214DF20C5000F0A4FEA6214DF219
:103CB0000D5000F09FFE00214DF20E5000F09AFED4
:103CC000E5214DF20F5000F095FE01214DF210500C
:103CD00000F090FE13214DF2115000F08BFE0121F7
:103CE0004DF2125000F086FE54214DF2135000F0B8
:103CF00081FE01214DF2145000F07CFE82214DF234
:103D0000155000F077FE01214DF2165000F072FEC2
:103D1000CA214DF2175000F06DFE02214DF21850ED
:103D200000F068FE00214DF2195000F063FE022100
:103D30004DF21A5000F05EFE01214DF21B5000F0D2
:103D400059FE02214DF21C5000F054FE34214DF278
:103D50001D5000F04FFE02214DF21E5000F04AFEB1
:103D600067214DF21F5000F045FE02214DF2205018
:103D700000F040FE84214DF2215000F03BFE022174
:103D80004DF2225000F036FEA4214DF2235000F0F7
:103D900031FE02214DF2245000F02CFEB7214DF2ED
:103DA000255000F027FE02214DF2265000F022FEA1
:103DB000CF214DF2275000F01DFE02214DF2285078
:103DC00000F018FEDE214DF2295000F013FE022112
:103DD0004DF22A5000F00EFEF2214DF22B5000F071
:103DE00009FE02214DF22C5000F004FEFE214DF29E
:103DF0002D5000F0FFFD03214DF22E5000F0FAFD92
:103E000010214DF22F5000F0F5FD03214DF23050FE
:103E100000F0F0FD33214DF2315000F0EBFD0321B5
:103E20004DF2325000F0E6FD6D214DF2335000F0BE
:103E3000E1FD00214FF4564000F0DCFD33214DF24E
:103E4000016000F0D7FD00214DF2026000F0D2FDCC
:103E500034214DF2036000F0CDFD00214DF20460ED
:103E600000F0C8FD3A214DF2056000F0C3FD0021CD
:103E70004DF2066000F0BEFD4A214DF2076000F0F1
:103E8000B9FD00214DF2086000F0B4FD5C214DF257
:103E9000096000F0AFFD00214DF20A6000F0AAFDBC
:103EA00081214DF20B6000F0A5FD00214DF20C6068
:103EB00000F0A0FDA6214DF20D6000F09BFD002159
:103EC0004DF20E6000F096FDE5214DF20F6000F01E
:103ED00091FD01214DF2106000F08CFD13214DF297
:103EE000116000F087FD01214DF2126000F082FDAB
:103EF00054214DF2136000F07DFD01214DF214605C
:103F000000F078FD82214DF2156000F073FD012173
:103F10004DF2166000F06EFDCA214DF2176000F000
:103F200069FD02214DF2186000F064FD00214DF2A0
:103F3000196000F05FFD02214DF21A6000F05AFD99
:103F400001214DF21B6000F055FD02214DF21C6075
:103F500000F050FD34214DF21D6000F04BFD0221B8
:103F60004DF21E6000F046FD67214DF21F6000F02B
:103F700041FD02214DF2206000F03CFD84214DF214
:103F8000216000F037FD02214DF2226000F032FD89
:103F9000A4214DF2236000F02DFD02214DF224609A
:103FA00000F028FDB7214DF2256000F023FD02212D
:103FB0004DF2266000F01EFDCF214DF2276000F08B
:103FC00019FD02214DF2286000F014FDDE214DF2B2
:103FD000296000F00FFD02214DF22A6000F00AFD79
:103FE000F2214DF22B6000F005FD02214DF22C6014
:103FF00000F000FDFE214DF22D6000F0FBFC0321DE
:104000004DF22E6000F0F6FC10214DF22F6000F012
:10401000F1FC03214DF2306000F0ECFC33214DF255
:10402000316000F0E7FC03214DF2326000F0E2FC69
:104030006D214DF2336000F0DDFC55214FF47040EE
:1040400000F0D8FCAA214FF2010000F0D3FC52216D
:104050004FF2020000F0CEFC08214FF2030000F006
:10406000C9FC00214FF2040000F0C4FCCC214FF445
:10407000314000F0BFFC00214BF2011000F0BAFC0F
:1040800005214FF4364000F0B5FC70214FF4374065
:1040900000F0B0FC70214BF2017000F0ABFC01218C
:1040A0004FF4384000F0A6FC03214BF6010000F06D
:1040B000A1FC03214BF6020000F09CFC03214BF60F
:1040C000030000F097FC02214FF43C4000F092FC0A
:1040D00000214BF6014000F08DFC00214BF6024020
:1040E00000F088FCD0214FF4494000F083FC02210D
:1040F0004CF6011000F07EFC50214CF6021000F04E
:1041000079FC50214CF6031000F074FC50214CF661
:10411000041000F06FFC00214FF4545000F06AFCD2
:1041200055214FF4685000F065FC4FF4885000F0C2
:104130004BFC782002F0BAFF4FF4245000F044FC0E
:10414000BDE08048808841F663118842F8D1E220C2
:1041500000F03AFC1D2000F02BFC022000F028FCAF
:10416000042000F025FC642002F0A0FFE02000F015
:104170002BFC012000F01CFC0A2002F07BFFE02059
:1041800000F022FC032000F013FC0C2002F072FF70
:10419000012000F019FC0A2002F06CFFE62000F07C
:1041A00013FC2F2000F004FCFF2000F001FCFF2096
:1041B00000F0FEFBB02000F007FC202000F0F8FB30
:1041C000002000F0F5FB032000F0F2FB40F21F306E
:1041D00000F0EEFB012000F0EBFB40F2DF1000F0FE
:1041E000E7FB002000F0E4FBB42000F0EDFB04202E
:1041F00000F0DEFB40F21F4000F0DAFB002000F090
:10420000D7FB2E2000F0D4FB002000F0D1FB0020D3
:1042100000F0CEFB002000F0CBFB002000F0C8FB3C
:10422000B62000F0D1FB022000F0C2FB4FF4037077
:1042300000F0BEFB002000F0BBFB172000F0B8FB35
:10424000152000F0B5FB002000F0B2FB002000F0CC
:10425000AFFBF02000F0B8FB032000F0A9FB292001
:1042600000F0B2FBD02000F0AFFB002000F0A0FB7C
:10427000BE2000F0A9FB052000F09AFBFE2000F014
:1042800097FB012000F094FB002000F091FB002040
:1042900000F08EFB002000F08BFBB82000F094FBB8
:1042A000032000F085FB012000F082FBBA2000F023
:1042B0008BFB012000F07CFB642000F05FF82148BC
:1042C000808849F24131884211D01E48808845F2E9
:1042D000103188420BD01B48808845F2105188422B
:1042E00005D01848808841F6631188421CD11648D1
:1042F000006820F00F004FF02041C1F8040108468B
:10430000D0F8040120F47060C1F804010846D0F828
:10431000040140F00400C1F804010846D0F804018B
:1043200040F48060C1F804010020FDF7F5FA012295
:1043300020210648FCF7DDFD4FF6FF70FDF7C8FAB7
:104340001CBD000024010220040100A00004024062
:1043500010B50246012000E050430B1EA1F10104FC
:10436000E1B2F9D110BD000008B503480088009003
:10437000BDF8000008BD00000000086000B502465E
:10438000BE2000F021FB052000F012FB00EE102AF9
:10439000B8EE400B9FED0B1B20EE010BBCEEC00BEB
:1043A00010EE101A88B200F003FB012000F000FBB1
:1043B000FF2000F0FDFA002000F0FAFA002000F0E3
:1043C000F7FA00BD6666666666660440F0B50546A7
:1043D0000024002799488079012805D197488088D2
:1043E00041F66311884208D194488079F0B9934826
:1043F000808841F66311884218D1082D15D2DFE874
:1044000005F00406080A0C0E101206250DE007251B
:104410000BE0042509E0052507E0012505E000255E
:1044200003E0032501E0022500BF00BF8348808828
:1044300049F24131884211D08048808845F21031DC
:1044400088420BD07D48808845F21051884205D0C3
:104450007A48808841F6631188427DD1082D1CD2AC
:10446000DFE805F00406090C0F12151800BF14E070
:1044700044F0800411E044F040040EE044F0C00435
:104480000BE044F0200408E044F0600405E044F050
:10449000A00402E044F0E00400BF00BF6748808849
:1044A00045F21051884202D14FF4585700E03627A8
:1044B0006248808845F2103188420DD05F4880887C
:1044C00045F21051884207D05C48808841F663115C
:1044D000884201D044F008042146384600F08AFAA8
:1044E0005648808841F6631188421DD004F02000B0
:1044F00068B15248008851494988884214DA4F48C7
:10450000068840884D490880084646800CE04B48A4
:1045100000884A494988884206DD4848068840881C
:1045200046490880084646804448808845F2105134
:10453000884254D14149488900F046FA002000F0F1
:1045400037FA3E494989491C88B200F03DFA0020FB
:1045500000F02EFA394900E06FE04989891C88B2E1
:1045600000F032FA35490988491EC1F30F2000F0E6
:104570001FFA32494989C91C88B200F025FA2F492F
:104580000978491EC8B200F013FA2C49888900F056
:104590001BFA002000F00CFA28498989491C88B2CE
:1045A00000F012FA002000F003FA24498989891CDE
:1045B00088B200F009FA21494988491EC1F30F2049
:1045C00000F0F6F91D498989C91C88B200F0FCF990
:1045D0001A498978491EC8B200F0EAF92DE0174956
:1045E000488900F0F1F9002000F0E2F9002000F025
:1045F000DFF912490988491EC1F30F2000F0D8F9EC
:104600000E490978491EC8B200F0D2F90B498889D1
:1046100000F0DAF9002000F0CBF9002000F0C8F932
:1046200006494988491EC1F30F2000F0C1F903492A
:104630008978491EC8B200F0BBF9F0BD2401022000
:1046400010B502460C464B48808849F241318842F9
:1046500005D04848808845F21031884214D1454938
:10466000488900F0B1F9101200F0A2F9D0B200F0C0
:104670009FF94049888900F0A7F9201200F098F9C5
:10468000E0B200F095F973E03A48808841F6631192
:10469000884247D137488079A8B936480088401EFB
:1046A000801A82B23349488900F08EF9002000F068
:1046B0007FF9002000F07CF9101200F079F9D0B2F7
:1046C00000F076F916E02B49488900F07DF91012C8
:1046D00000F06EF9D0B200F06BF926490988491E46
:1046E000C1F30F2000F064F922490978491EC8B2CD
:1046F00000F05EF91F49888900F066F9201200F089
:1047000057F9E0B200F054F91A494988491EC1F33B
:104710000F2000F04DF917498978491EC8B200F002
:1047200047F925E01348808845F2105188421FD18F
:104730001049488900F048F9101200F039F90D4984
:104740004989491C88B200F03FF9D0B200F030F935
:104750000849888900F038F9201200F029F9054944
:104760008989491C88B200F02FF9E0B200F020F9E5
:1047700010BD0000240102202DE9F84F80460F46AD
:1047800016461C46BB462046E31704EB5373DB106A
:1047900021464FEAE47C04EB5C7C4FEAEC0CA4EB92
:1047A000CC0CBCF1000F02D04FF0010C01E04FF037
:1047B000000C6344224604EBD27C4FEA6C0C03FBF2
:1047C0000CF3DBB20093A6F12000C6B200255EE038
:1047D0000C2C07D106EB46002F4901EB800010F8A6
:1047E00005901BE0102C05D12C4800EB061010F8AA
:1047F000059013E0182C07D106EBC600284901EB01
:10480000800010F8059009E0202C05D1254800EB28
:10481000C61010F8059001E0BDE8F88F4FF0000ACF
:104820002FE009F0800030B11F4839460268404649
:10483000FDF7F4F907E00A9828B91C4839460268E0
:104840004046FDF7EBF94FEA49604FEA1069781CE2
:1048500087B217484088B84200DCDDE7A7EB0B00C1
:10486000A0420AD15F4608F101001FFA80F8104803
:104870000088404500DCCFE706E00AF1010000F0C7
:10488000FF0ABAF1080FCCDB00BF681CC5B2009864
:1048900085429DDB00BFBFE7C4750008387A000879
:1048A00028800008848D00080C00022010000220DF
:1048B000240102202DE9FF4F81B0074691461E4694
:1048C0000E9D4FF0000A002439E0301B401EC1B29B
:1048D0000A20FFF73DFDB9FBF0F00A21B0FBF1F231
:1048E00001FB1208BAF1000F16D1701EA04213DDB1
:1048F000B8F1000F0ED10020AB4605EBDB7149107B
:1049000001FB0471009088B22B4620220299FFF728
:1049100033FF12E04FF0010A0020AB4605EBDB71DC
:10492000491001FB0471009088B208F13001CAB24D
:104930002B460299FFF720FF00BF601CC4B2B442AF
:10494000C3DB05B0BDE8F08F2DE9F84F04460D46F6
:1049500090469946DDE90A6704F0FF0A08EB040077
:104960001FFA80F809EB05001FFA80F916E04445AC
:1049700002DB5446A81985B24D4500DB14E0002047
:1049800000903A78334629462046FFF7F5FE304638
:1049900006EBD07104EB61018CB27F1C38787E2865
:1049A00002DC38782028E2DA00BFBDE8F88F00008A
:1049B00001B5BDF800000090BDF800000149088075
:1049C00008BD00000000086001B5BDF800000090BF
:1049D000BDF800000149088008BD0000FEFF076027
:1049E0000248008902490880704700002401022023
:1049F000FEFF0760024A1080921C11807047000081
:104A0000FEFF07601CB50D48006840F002000B492E
:104A100008600120032100230246CDE90010084868
:104A2000FCF76FFA012202210548FCF762FA012225
:104A300011460348FCF75DFA1CBD00003038024007
:104A40000004024018B5044606480094008B401E3E
:104A500083B20448C08A401E82B20021084600F09A
:104A60008DF818BD34010220F0B503460C461546FA
:104A7000002100200022214E366826F080561F4F6C
:104A80003E6001E04E1CB1B21C4E366806F0005686
:104A90001EB141F6FF76B142F4DB41F6FF76B1423A
:104AA00001D1012029E042EA831242EA0472134E46
:104AB00088363260361D366826F440360F4F8C3704
:104AC0003E603E46366846EA05463E600B4E366816
:104AD00046F08056094F3E6001E04E1CB1B2074ED1
:104AE000366806F000561EB941F6FF76B142F4DB97
:104AF00041F6FF76B14200D10220F0BD00380240FD
:104B00000949487530B98988074AD1821146098810
:104B1000118308E0012806D103490988024AD1829D
:104B200011468988118370473401022070B5114BFA
:104B30005B7D6BB10F4BDB690E4D2D6805FB0105ED
:104B40006B430C4D2D7D0C4E56F82550EA520FE06C
:104B5000084B1D685B681B1A5B1E05FB0313054DA4
:104B6000ED696B43034D2D7D034E56F82550EA52F7
:104B700070BD000034010220140002202DE9F04F26
:104B800004460D4616464FF0000CDFF8289199F8C0
:104B90001590B9F1000F04D02046294632461F4631
:104BA00011E02846DFF80C91D9F80490A9EB06092A
:104BB000A9F101011A46DFF8FC90D9F80490A9EB9D
:104BC0000409A9F10107DFF8EC90B9F80090A2EB15
:104BD000000A0AF1010AA9EB0A091FFA89F8DFF8AD
:104BE000D49099F81490DFF8D0A05AF82990DFF803
:104BF000C4A0DAF81CA0DFF8BCB0DBF800B00BFBF7
:104C0000010B0AFB0B9EDFF8B490D9F8009049F431
:104C10000009DFF8A8A0CAF80090DFF8A490D9F83E
:104C2000009029F00109DFF898A0CAF800904FF42D
:104C30004039CAF800904FF00209CAF83490D146C2
:104C4000C9F84080C9F83CE0A7EB010909F1010966
:104C5000A2EB000A0AF1010A49EA0A49DFF860A05A
:104C6000CAF84490DDF82490CAF83890D146D9F8B3
:104C7000009049F00109CAF8009005E00CF1010C20
:104C8000BCF5001F00D308E0DFF83490D9F8049099
:104C900009F00209B9F1000FF0D000BFDFF8209051
:104CA000D9F8089049F00209DFF814A0CAF8089072
:104CB000BDE8F08F34010220140002203038024099
:104CC00000B002407FB50024002500F0D3FA05466D
:104CD000D548006840F08060D3490860D248143855
:104CE000006840F00200D0491439086008460068A6
:104CF00040F4F07008600120022100230246CDE953
:104D000000102021C948FCF7FCF8012003210023F2
:104D10000222CDE900108102C548FCF7F2F801201B
:104D2000032100230222CDE900104FF40C61C14899
:104D3000FCF7E7F80120032100230222CDE900104F
:104D40004FF47E41BC48FCF7DCF80120032100232E
:104D50000222CDE9001040F2F761B848FCF7D1F823
:104D60000E220A21B248FCF79CF80E220621B14817
:104D7000FCF797F80E220721AE48FCF792F80E22B6
:104D80000B21AC48FCF78DF80E220921AA48FCF74C
:104D900088F80E220A21A848FCF783F80E220B217E
:104DA000A548FCF77EF80E220C21A348FCF779F801
:104DB0000E220D21A048FCF774F80E2211469E48E1
:104DC000FCF76FF80E220F219B48FCF76AF80E22C1
:104DD00000219A48FCF765F80E2201219748FCF75C
:104DE00060F80E2202219548FCF75BF80E220421A0
:104DF0009248FCF756F80E2205219048FCF751F82E
:104E00000E2206218D48FCF74CF80E2207218B4814
:104E1000FCF747F80E2209218848FCF742F80E22D9
:104E20000A218648FCF73DF844F24230854218D109
:104E30004FF4F070824908604FF488704860012098
:104E400008814881282088810820C881052008829F
:104E500008204882022204214FF49070FFF704FEDC
:104E600050E047F28400854218D14FF448707449ED
:104E700008604FF4F07048600120088148812E20BE
:104E800088811720C881D2200882162048820122FA
:104E900003214FF4C670FFF7E7FD33E047F2160039
:104EA000854219D14FF48060654908604FF416704F
:104EB000486014200881032048818C2088811420B8
:104EC000C881A02008820C204882012202214FF4D0
:104ED000B470FFF7C9FD15E047F21800854207D10D
:104EE0004FF4A060564908604FF44870486009E0EC
:104EF00048F21600854205D14011514908604FF42F
:104F000016704860002400BF00BF00BF4D48046019
:104F10004B484089441E4A480089401E44EA0044E8
:104F2000484810380460464840894549C9890844C2
:104F3000441E43480089424989890844401E44EA86
:104F4000004440480C3804603D4840893C49C989C8
:104F500008443B4949680844441E39480089384997
:104F600089890844364909880844401E44EA0044B7
:104F7000344808380460324840893149C9890844B6
:104F80002F49496808442E49498A0844441E2C4840
:104F900000892B49898908442949098808442849F6
:104FA000098A0844401E44EA00442648001F046061
:104FB0000020244914310860012000F0B1F9224892
:104FC0002249086002201E49C861002007210622EC
:104FD000CDE90002CDE902101C48FF23022201683E
:104FE000002000F037F81648808880B200901448FE
:104FF000008883B200221146104600F09FF8104846
:105000000088134908800E4880884880002000F0FE
:1050100081F9012220210548FBF76BFF4FF0FF309B
:10502000FFF710FD7FBD000044380240000402403D
:105030000014024000180240001C02400020024000
:105040003401022018680140000000C01400022052
:10505000240102202DE9F04106ACF0CCE0B9DFF8E4
:1050600078C0CCF80010DFF870C0ACF1180CCCF8A8
:1050700000200CF1040CCCF8003047EA046CDFF897
:105080005880A8F11008C8F800C046EA052C08F1BD
:105090000408C8F800C01DE0DFF83CC00CF1800C2B
:1050A000CCF80010DFF830C00CF1680CCCF8002010
:1050B0000CF1040CCCF8003047EA046CDFF81880DF
:1050C00008F17008C8F800C046EA052C08F1040889
:1050D000C8F800C0BDE8F081AC680140012910D1DA
:1050E00030B9154A126842F00102134B1A6019E0F8
:1050F000114A8032126842F001020F4B80331A606D
:1051000010E079B930B90C4A126822F001020A4B5A
:105110001A6007E0084A8032126822F00102064B4A
:1051200080331A60044A603A126842F00102024B6E
:10513000603B1A6070470000846801402DE9F04729
:1051400082460F4690461E46DDF820900025BAF1B3
:10515000000F43D1B81945490968C1F30B41084410
:10516000040442480068C0F30B403844401C20430C
:105170003E497C31086008EB09003C490968C1F3ED
:105180000A010844040439480068C0F30A00404496
:10519000401C20433549803108603448883000681D
:1051A00000F007050DB904240AE0012D01D1032404
:1051B00006E0052D01D0062D01D1012400E00224D6
:1051C00006FB04F0C01C06FB04F140EA014027493D
:1051D000A4310860081DC0F8009041E0B8192349C7
:1051E0000968C1F30B410844040420480068C0F377
:1051F0000B403844401C20431C49FC31086008EB3C
:1052000009001A490968C1F30A010844040417484F
:105210000068C0F30A004044401C20431449086061
:1052200013480830006800F007050DB904240AE0AF
:10523000012D01D1032406E0052D01D0062D01D159
:10524000012400E0022406FB04F0C01C06FB04F16C
:1052500040EA0140064924310860081DC0F800906A
:1052600001215046FFF73AFFBDE8F0870C68014086
:105270000C6901401CB500242348006840F4A0706C
:1052800021490860012000210B460A46CDE90010A3
:1052900040211E48FBF735FE012000210B460A463F
:1052A000CDE9001084211A48FBF72BFE4021174856
:1052B000FBF717FE044604211548FBF712FE44EAEB
:1052C0004000C4B280211248FBF70BFE44EA800084
:1052D000C4B214B944F242301CBD012C02D147F2D1
:1052E0008400F9E7022C02D147F21600F4E7032C00
:1052F00002D147F21800EFE7042C02D148F2160061
:10530000EAE70020E8E700003038024000180240D9
:105310000020024001490875704700003401022056
:10532000012806D10749096841F00101054A1160C9
:1053300006E028B90349096821F00101014A11601A
:1053400070470000186801401CB54FF6FF70FCF76D
:10535000BFFA1F200949086009A01021CDE90010FB
:1053600008490988183988B21023C8220021FFF79C
:10537000EBFA4FF47840014908601CBD0C00022094
:1053800052535400240102200146002002E0490843
:10539000421CD0B20129FAD17047000007480068CA
:1053A00020F480300549086004487030006820F01F
:1053B00001000249703108607047000024ED00E0F0
:1053C00005200549086004487038006840F48030C2
:1053D000014970390860704794ED00E00EB5002077
:1053E00000900190032302464FF08061029058071D
:1053F00000F022F801200022CDE90020032302461C
:10540000C1040290400700F017F801200022CDE906
:1054100000200323022241060290980700F00CF8B6
:1054200000200090019003231A464FF08051029013
:10543000C80000F001F80EBD2DE9F04F05460C46FE
:1054400016461F46DDE90A9ADDF8248000239B46B4
:1054500004F01F0000B914B90120BDE8F08F204608
:10546000FFF792FF401E00F0FF0BFFF797FF0C487D
:105470000660001D056000BF43EA076300BF43EA02
:10548000884343EA494343EA0A4300BF43EA4B03E4
:1054900043F00103001D0360FFF792FF0020DCE7EB
:1054A00098ED00E02DE9F0410746884614461D4678
:1054B000284600F033F8C5F1040007FA00F60F2083
:1054C000284100EA0800064306F00F06E21704EB45
:1054D000D2625211920002F1E022D2F8002121465C
:1054E000E31704EBD3635B11A4EB431C012303FA22
:1054F0000CF31A432046E31704EBD3635B119B00C4
:1055000003F1E023C3F800210348005D40EA0610E0
:1055100001490855BDE8F08100E400E00146072399
:1055200023EA01021202054B18684FF6FF031840E8
:10553000034B18431043014B186070470CED00E01B
:105540000000FA054A0A52020243014B1A607047F2
:1055500008ED00E010B5002201210A48FBF7C9FC64
:1055600009A0FAF7D3FE4FF47A7001F083FD0CA086
:10557000FAF7CCFE4FF47A7001F07CFD00F068FC85
:1055800010BD0000000402404D656D20416363655D
:105590007373204572726F7221210D0A00000000A2
:1055A000536F6674205265736574696E672E2E2E74
:1055B0000D0A00000EB5002002902448006840F05B
:1055C0008000224908600846006840F48070086046
:1055D000012000210B460A46CDE9001080211C481D
:1055E000FBF78FFC0120032100230246CDE90010C8
:1055F00001021848FBF785FCFBF722F900224FF463
:1056000080711448FBF775FC642001F033FD012222
:1056100011021048FBF76DFC642001F02BFD012006
:1056200000F040F9012202A94FF4506000F01AF88E
:105630009DF8081008A0FAF769FE9DF80800802878
:1056400001D100200EBD0120FCE7000030380240EF
:10565000001C0240002002404354502049443A2597
:10566000780D0A002DE9F04105460F461646FBF776
:10567000AFF9B220FBF778F9FBF7FEF92812FBF738
:1056800073F9FBF7F9F9E8B2FBF76EF9FBF7F4F9F8
:10569000FBF79EF9B320FBF767F9FBF7EDF9002460
:1056A0000BE0711EA14201D0012100E0002108465B
:1056B000FBF722F93855601CC4B2B442F1DBFBF7AA
:1056C000B1F9BDE8F081000031B582B000240025B9
:1056D0006B480078401C6A490870084600780A2127
:1056E00090FBF1F201FB120018B1654800780A281E
:1056F0007EDA012202A90020FFF7B4FF9DF808001E
:1057000000F01F00002873D09DF8080000F01F0073
:1057100040F0C0005B4981F82000002478E059483F
:1057200090F820000121A140084000286ED0564981
:1057300031F81400042201A9FFF794FF514890F8B2
:10574000300000F0010080B39DF807009DF80610BE
:1057500000EB012000EE100AB8EEC00B9FED4B1BD2
:1057600020EE010BBCEEC00B10EE100A81B24548D2
:10577000163020F814109DF805009DF8041000EB79
:10578000012000EE100AB8EEC01B9FED422B9FEDEA
:10579000430B01EE420BBCEEC00B10EE100A81B2BF
:1057A00038480C3020F8141030E0FFE79DF807006F
:1057B0009DF8061000EB012000EE100AB8EEC00BB9
:1057C0009FED321B20EE010BBCEEC00B10EE100A59
:1057D00081B22C480C3020F814109DF805009DF87B
:1057E000041000EB012000EE100AB8EEC00B00E040
:1057F0001CE09FED281B20EE010BBCEEC00B10EE51
:10580000100A81B21F48163020F81410601CC4B270
:10581000052C84DB01251B48808920B91948C08AE2
:1058200008B9002002900020154908709DF8080072
:1058300000F01F00D0B9134890F8200000F080005D
:1058400040B1104890F8200020F080000D4981F808
:1058500020000BE04FF6FF700A498881C882084695
:1058600090F8200000F0E00081F820000448007863
:10587000F02802DD0A200249087028463EBD0000DB
:105880005800022020000220D4BD00087B14AE473F
:10589000E17AD43FD881734694F6D23F00000000ED
:1058A0000000894038B50446002000900CB18020EB
:1058B0000090012269464FF4506000F001F838BDB5
:1058C0002DE9F04104460E4617464FF00008FBF75D
:1058D0007FF8B220FBF748F8FBF7CEF82012FBF771
:1058E00043F8FBF7C9F8E0B2FBF73EF8FBF7C4F862
:1058F00000250BE0705DFBF737F8FBF7BDF880463D
:10590000B8F1000F00D003E0681CC5B2BD42F1DB66
:1059100000BFFBF787F84046BDE8F08110B50023D3
:10592000234C236000BF00BF00BFBFF34F8F00BFF9
:1059300000BF00BF231F1868C0F34E3100BFC0F383
:10594000C90200BF43F6E07303EA41134FF040443D
:1059500004EA82742343174C236000BF00BF131E68
:10596000A2F10102EED10B1EA1F10101E7D100BFAE
:1059700000BF00BFBFF34F8F00BF00BF00BF0C4B85
:10598000703B1B6843F48033094C703C236000BFBC
:1059900000BF00BFBFF34F8F00BF00BF00BF00BFFD
:1059A00000BF00BFBFF36F8F00BF00BF00BF10BDBF
:1059B00084ED00E060EF00E07CB5002400250026C7
:1059C000A948006840F00100A7490860A6480838C7
:1059D000006840F07C00A4490839086001200321D8
:1059E00000230222CDE900100D21A048FBF789FA1F
:1059F0000120032100230222CDE900104CF20371A3
:105A00009B48FBF77EFA0120032100230222CDE907
:105A100000104FF683719748FBF773FA01200321BA
:105A200000230222CDE900104FF63F019248FBF718
:105A300068FA0120032100230222CDE9001048F278
:105A400037118E48FBF75DFA0C2200218748FBF7DF
:105A500028FA0C2202218548FBF723FA0C220321A5
:105A60008248FBF71EFA0C2200218148FBF719FA45
:105A70000C2201217E48FBF714FA0C2208217C48F5
:105A8000FBF70FFA0C2209217948FBF70AFA0C22DE
:105A90000A217748FBF705FA0C220E217448FBF720
:105AA00000FA0C220F217248FBF7FBF90C220021AF
:105AB0007048FBF7F6F90C2201216E48FBF7F1F96B
:105AC0000C2207216B48FBF7ECF90C2208216948EE
:105AD000FBF7E7F90C2209216648FBF7E2F90C22F3
