:020000040800F2
:100000003004002045010008811300088313000814
:10001000871300088B1300088F13000800000000EE
:100020000000000000000000000000009313000822
:1000300095130008000000009713000899130008AA
:100040005F0100085F0100085F0100085F01000810
:100050005F0100085F0100085F0100085F01000800
:100060005F0100085F0100085F0100085F010008F0
:100070005F0100085F0100085F0100085F010008E0
:100080005F0100085F0100085F0100085F010008D0
:100090005F0100085F0100085F0100085F010008C0
:1000A0005F0100085F0100085F0100085F010008B0
:1000B0005F0100085F0100085F0100085F010008A0
:1000C0005F0100085F0100085F0100085F01000890
:1000D0005F0100089B130008BB1300085F010008C4
:1000E000BF1E00085F0100085F0100085F010008F3
:1000F0005F0100085F0100085F0100085F01000860
:100100005F0100085F0100085F0100085F0100084F
:100110005F0100085F0100085F0100085F0100083F
:100120005F0100085F0100085F0100085F0100082F
:10013000DFF80CD001F018FF004800474D1300080D
:10014000300400200648804706480047FEE7FEE7E7
:10015000FEE7FEE7FEE7FEE7FEE7FEE7FEE7FEE777
:1001600045020008310100080CB500200190009004
:100170006B48006840F480306949086000BF6848F7
:10018000006800F4003000900198401C0190009835
:1001900018B90198B0F5A06FF1D16148006810F46A
:1001A000003F02D00120009001E000200090009864
:1001B000012842D15B48006840F0100059490860AE
:1001C0000846006820F0030008600846006840F018
:1001D000020008605248406851494860084640683B
:1001E00048600846406840F48060486008464068BF
:1001F00020F47C1048600846406840F4E8104860ED
:100200000846006840F08070086000BF44480068FD
:1002100010F0007FFAD04248406820F003004049C7
:1002200048600846406840F00200486000BF3C4813
:10023000406800F00C000828F9D10CBD10B5FFF79C
:1002400093FF10BD10B53648006840F001003449F6
:10025000086008464068344908403149486008460B
:100260000068324908402E4908600846006820F4BA
:10027000802008600846406820F4FE0048604FF483
:100280001F008860FFF7DAFF4FF000602849086020
:1002900010BD10B5002100200022214B5B6803F047
:1002A0000C0121B1042906D0082928D107E0214BEF
:1002B000214C236027E01F4B1F4C236023E0184B89
:1002C0005B6803F47010164B5B6803F48032022302
:1002D00003EB904022B9194B4343174C23600DE0C8
:1002E0000F4B5B6813F4003F04D0144B4343124C94
:1002F000236003E00F4B43430F4C236003E00D4B9F
:100300000D4C236000BF00BF054B5B68C3F30313B4
:100310000B4CE15C084B1B68CB40074C236010BDC5
:1003200000100240002002400000FFF8FFFFF6FE30
:1003300008ED00E000127A000000002000093D00F6
:100340000400002031490143314A1160704770B503
:10035000002100230F22C4780CB32D4C246804F430
:10036000E064C4F5E064210AC1F10403CA404478A2
:1003700004FA03F18478144021430901254C0678DE
:10038000A155047804F01F050124AC4005786D11D7
:100390004FF0E02606EB8505C5F8004109E004783A
:1003A00004F01F050124AC401B4D0678761145F87A
:1003B000264070BD194A0A400243154B1B1F1A60A4
:1003C000704739B1124A121D12680243104B1B1DAF
:1003D0001A6006E00E4A121D126882430C4B1B1D68
:1003E0001A607047042808D14FF0E021096941F0F4
:1003F00004014FF0E022116107E04FF0E0210969AC
:1004000021F004014FF0E022116170470000FA056D
:100410000CED00E000E400E080E100E080FFFF1F61
:10042000002044490860091D0860091D0860091D75
:10043000086041483F4914310860704700213D4938
:100440008279002A3AD00A46126803689A430B461A
:100450001A600A1D126803689A430B1D1A6002791C
:1004600011440A6803681A430A60324A0832126863
:1004700003689A432F4B08331A601A1D12680368E9
:100480009A432C4B0C331A604279102A0ED11A1F52
:10049000126803681A43274B08331A601A1D126842
:1004A00003681A43234B0C331A600DE0214942794B
:1004B00011440A6803681A430A6005E0027911448E
:1004C0000A6803689A430A6070470021016001715D
:1004D0000C21417100218171704716491031096862
:1004E0000143144A10321160704701460020114A3E
:1004F000143212680A4201D0012000E00020704747
:100500000C49143108607047014600200022094B55
:100510001B6803EA0102074B14331B680B4202D02D
:100520000AB1012000E00020704702491431086040
:100530007047000000040140FFFF0F0010B50446A3
:10054000CA48844208D10121042000F027FB002181
:10055000042000F023FB46E0C548844208D1012175
:10056000082000F01BFB0021082000F017FB3AE0F8
:10057000C048844208D10121102000F00FFB002167
:10058000102000F00BFB2EE0BB48844208D1012173
:10059000202000F003FB0021202000F0FFFA22E0E1
:1005A000B648844208D10121402000F0F7FA00212A
:1005B000402000F0F3FA16E0B148844208D101214E
:1005C000802000F0EBFA0021802000F0E7FA0AE03A
:1005D000AC48844207D10121801500F0DFFA0021E8
:1005E000A01500F0DBFA10BD10B50121084600F09F
:1005F000D5FA0021012000F0D1FA10BD2DE9F0411B
:10060000024600250026002000230024002791F840
:1006100003C00CF00F0591F803C01CF0100F03D0BD
:1006200091F802C04CEA050591F800C0BCF1000F3A
:1006300031D0146800202BE04FF0010C0CFA00F3CD
:10064000B1F800C00CEA03069E4220D183004FF0AF
:100650000F0C0CFA03F7BC4305FA03FC4CEA040444
:1006600091F803C0BCF1280F06D14FF0010C0CFA31
:1006700000FCC2F814C00AE091F803C0BCF1480FB6
:1006800005D14FF0010C0CFA00FCC2F810C0401C60
:100690000828D1D31460B1F800C0BCF1FF0F34DDDD
:1006A000546800202EE000F1080C4FF0010808FA11
:1006B0000CF3B1F800C00CEA03069E4221D183007E
:1006C0004FF00F0C0CFA03F7BC4305FA03FC4CEA9D
:1006D000040491F803C0BCF1280F05D100F1080C07
:1006E00008FA0CF8C2F8148091F803C0BCF1480F66
:1006F00007D100F1080C4FF0010808FA0CF8C2F815
:100700001080401C0828CED35460BDE8F0814FF61D
:10071000FF710180022181700421C170704702467F
:10072000002093680B4201D0012000E000207047B8
:100730000146886880B2704702460020D3680B42A9
:1007400001D0012000E0002070470146C86880B257
:10075000704701617047416170470AB1016100E073
:1007600041617047C16070474FF480320A43826133
:100770008161826182698269704702460020424B32
:1007800018684FF68073184040EA021008433E4B49
:10079000186070473D49C8617047F0B50A460023AC
:1007A00000240021002500F00046B6F1004F02D1E0
:1007B000354EF16901E0344E7168C0F3034583B2F0
:1007C00000F44016B6F5401F08D121F070612E4E9E
:1007D000766826F070662C4F7E6012E000F480167A
:1007E000B6F5801F06D1032606FA05F4A14341F0B1
:1007F000706106E0460D360103FA06F6B14341F09A
:10080000706122B1460D360103FA06F6314300F05D
:100810000046B6F1004F02D11B4EF16101E01A4EC5
:100820007160F0BD30B500228B071C0F0F2303FA57
:1008300004F2154B08338C1053F824309343124CB8
:1008400008348D1044F8253023468C1053F824309A
:100850008C07240F00FA04F423430B4C08348D104A
:1008600044F8253030BD0A4908607047000801404F
:10087000000C01400010014000140140001801402C
:10088000001C014000200140000001400000204207
:10089000DC002042DD48006840F00100DB490860D0
:1008A00008464068DA490840D84948600846006868
:1008B000D8490840D54908600846006820F48020DF
:1008C00008600846406820F4FE0048604FF41F00AE
:1008D00088607047CD49096821F48031CB4A1160A6
:1008E0001146096821F480211160B0F5803F03D0E2
:1008F000B0F5802F0ED106E0C449096841F480317B
:10090000C24A116007E0C149096841F4A021BF4A09
:10091000116000E000BF00BF704710B50146002223
:10092000002300204A11012A02D1B84C236806E0B6
:10093000022A02D1B54C236A01E0B44C636A01F08B
:100940001F02012494401C4201D0012000E000203D
:1009500010BD38B5002000900024002500BF3120D4
:10096000FFF7DBFF05460098401C00900098B0F5AB
:10097000A06F01D0002DF2D03120FFF7CEFF08B1DB
:10098000012400E00024204638BD014600209F4A93
:10099000106820F0F80040EAC100106070479E49DE
:1009A0000860704702460020984B586820F47C107D
:1009B00042EA01031843954B586070479649086610
:1009C000704701460020914A506820F00300084318
:1009D000506070478D48406800F00C007047014639
:1009E00000208A4A506820F0F000084350607047A9
:1009F00001460020854A506820F4E06008435060BA
:100A0000704701460020814A506820F4605040EA57
:100A1000C1005060704729B17C4A527A02437B4B37
:100A20005A7204E0794A527A8243784B5A7270477C
:100A30007A490860704701460020744A506820F4E3
:100A400040400843506070470021754A11706F4A5A
:100A500082F82010012802D0042808D103E00121E7
:100A60006F4A117004E005216D4A117000E000BF6B
:100A700000BF70476B49086070476449096A0143C9
:100A8000624A11627047674944390860704730B55F
:100A900000210022002400235C4D6D6805F00C014C
:100AA00021B1042905D0082923D105E05E4D056058
:100AB00022E05D4D05601FE0544D6D6805F4701235
:100AC000524D6D6805F48034022505EB92421CB945
:100AD000564D554305600BE04C4D6D6815F4003FD5
:100AE00003D0524D5543056002E04F4D554305601C
:100AF00002E04D4D056000BF00BF444D6D6805F03C
:100B0000F00109094A4D6B5C0568DD4045603F4DC9
:100B10006D6805F4E061090A454D6B5C4568DD4090
:100B200085603A4D6D6805F46051C90A404D6B5CB3
:100B30004568DD40C560354D6D6805F44041890B61
:100B40003C4D6B5CC568B5FBF3F5056130BD29B163
:100B50002E4A526902432D4B5A6104E02B4A5269D6
:100B600082432A4B5A61704729B1284A926902434D
:100B7000264B9A6104E0254A92698243234B9A618D
:100B8000704729B1214AD2690243204BDA6104E05F
:100B90001E4AD26982431D4BDA61704729B11B4A54
:100BA000D2680243194BDA6004E0184AD2688243E3
:100BB000164BDA60704729B1144A12690243134B8D
:100BC0001A6104E0114A12698243104B1A6170479E
:100BD00014494039086070470F49C86470470B4991
:100BE000C87170470948406A40F080700749486200
:100BF000704701460020054A92680A4201D0012050
:100C000000E00020704701498872704700100240E0
:100C10000000FFF8FFFFF6FE00004242D80042420B
:100C2000201002408004424200127A0000093D0078
:100C3000140000202400002010B50446BE48844261
:100C400008D101218014FFF7A9FF0021A014FFF7AC
:100C5000A5FF16E0B948844208D101210014FFF72E
:100C6000AAFF00212014FFF7A6FF0AE0B44884423F
:100C700007D10121C013FFF79EFF0021E013FFF70A
:100C80009AFF10BD10B50022028802F441520B8871
:100C90004C8823438C882343CC8823430C892343EB
:100CA0004C8923438C892343CC8923431A430280F4
:100CB000838B4FF2FF74234083830B8A038210BD22
:100CC0002DE9F04F85B005460C464FF0000902278C
:100CD0004FF000084FF0010B0026B246A88B4FF2F0
:100CE00040010840A88302202884B5F81C90A06821
:100CF000022801D100BF38E0A08810B94FF0010BE5
:100D000001E04FF0020B8D48854200D100E000BFAA
:100D10006846FFF7BCFEDDF800A0E088B0F5007F74
:100D20000AD14FEA1A2000EB80004000A168B0FB16
:100D3000F1F0401D86B20BE04FEA4B10BAFBF0F029
:100D400000EB80004000A168B0FBF1F0401D86B2CE
:100D50000A20B6FBF0F606F00108A6EB0800C0F387
:100D60004F074FF6FF7000EA0828022F01DBFF2F24
:100D700002DD02274FF00008E08840EA080038430F
:100D80002884A088A18908436188084321880843F2
:100D900040F4006040EA0909A5F81C9005B0BDE8E0
:100DA000F08F0021018041808180C18001814181DB
:100DB0008181C1810721018270470021018041802A
:100DC0008180C1800221816000218181704721B131
:100DD000028842F04002028004E002884FF6BF73AE
:100DE0001A400280704721B1828B42F48062828374
:100DF00004E0828B4FF6FF331A408283704730B590
:100E0000002400230C110125A540ABB21AB185883E
:100E10001D43858002E085889D43858030BD1AB1E1
:100E200083880B43838002E083888B4383807047F1
:100E300081817047014688897047A1F57E42FF3A5B
:100E400004D0028842F48072028004E002884FF6E7
:100E5000FF631A400280704721B1828842F0040289
:100E6000828004E082884FF6FB731A4082807047CC
:100E700002884FF2FF731A40028002880A43028000
:100E80007047018841F480510180704721B1028888
:100E900042F40052028004E002884DF6FF731A40CB
:100EA0000280704702460020012901D0108B00E02B
:100EB000908A70470146088A7047B1F5804F04D187
:100EC000028842F48042028004E002884BF6FF73FD
:100ED0001A40028070470246002013890B4201D05D
:100EE000012000E000207047CA4302817047F0B53E
:100EF0000246002000240023002501F00F070126F0
:100F0000BE40B4B20B1101269E40B3B2968806EAE9
:100F100003051689264202D00DB1012000E0002011
:100F2000F0BD10B5002201F00F040123A3409AB2D6
:100F3000D343038110BD0000003001400038004061
:100F4000003C004010B50446FB48844209D1012111
:100F50008803FFF723FE00214FF48040FFF71EFEB9
:100F600032E0F648844209D101214804FFF723FE0C
:100F700000214FF40030FFF71EFE25E0F0488442C8
:100F800009D101218804FFF716FE00214FF48020CB
:100F9000FFF711FE18E0EB48844209D10121C80493
:100FA000FFF709FE00214FF40020FFF704FE0BE0DD
:100FB000E548844208D101210805FFF7FCFD002126
:100FC0004FF48010FFF7F7FD10BD2DE9F04786B014
:100FD00005460E460024A24600BFA1460027B08960
:100FE00000B100BF2F462C8A4CF6FF700440F088F9
:100FF00004432C82AC894EF6F3100440B08831894A
:101000000843718908430443AC81AC8A4FF6FF4022
:101010000440B0890443AC8201A8FFF738FDC648FC
:10102000874202D1DDF810A001E0DDF80CA0A8890C
:1010300010F4004F08D00AEBCA0000EB0A10316828
:101040004900B0FBF1F807E00AEBCA0000EB0A1018
:1010500031688900B0FBF1F86420B8FBF0F00401BE
:101060002009642101FB1089A88910F4004F08D0E1
:10107000322000EBC900B0FBF1F000F007000443A0
:1010800008E0322000EB09106421B0FBF1F000F021
:101090000F0004432C8106B0BDE8F0874FF41651D1
:1010A000016000218180C18001810C2141810021EA
:1010B0008181704710B502460020108A4FF2FF036D
:1010C00018400B884C8823438C882343CC882343C7
:1010D0001843108210BD0021018041808180C180B1
:1010E000704721B1828942F40052828104E08289F2
:1010F0004DF6FF731A4082817047F0B50346002415
:10110000002600250020A1F510676A3F00D100BF2E
:101110001846C1F3421401F01F06012707FA06F52D
:10112000012C01D10C3004E0022C01D1103000E080
:1011300014301AB107682F43076002E00768AF4315
:101140000760F0BD1AB1838A0B43838202E0838A71
:101150008B4383827047028A4FF6F0731A400282F3
:10116000028A0A430282704782894FF2FF731A4053
:10117000828182890A438281704721B1828942F04B
:101180000202828104E082894FF6FD731A40828157
:101190007047028A4FF6DF731A400282028A0A43BE
:1011A0000282704721B1028A42F48042028204E046
:1011B000028A4BF6FF731A4002827047C1F308029D
:1011C0008280704701468888C0F308007047818993
:1011D00041F0010181817047028BD2B20283028B00
:1011E00042EA012202837047028B02F47F420283AB
:1011F000028B0A430283704721B1828A42F02002A7
:10120000828204E0828A4FF6DF731A40828270473E
:1012100021B1828A42F01002828204E0828A4FF673
:10122000EF731A408282704721B1828A42F008022D
:10123000828204E0828A4FF6F7731A4082827047F6
:1012400021B1828942F40042828103E08289C2F3A3
:101250000E028281704721B1828A42F4006282824A
:1012600004E0828A4FF2FF731A4082827047828ABA
:101270004FF6FB731A408282828A0A438282704749
:1012800021B1828A42F00202828204E0828A4FF611
:10129000FD731A408282704702460020B1F5007F3C
:1012A00000D100BF13880B4201D0012000E00020D4
:1012B000704701F40072B2F5007F00D100BFCA434D
:1012C0000280704770B502460024002300250020EC
:1012D000A1F510666A3E00D100BFC1F3421501F0CE
:1012E0001F03012606FA03F3012D02D1968933402C
:1012F00006E0022D02D1168A334001E0968A33407F
:101300000C12012606FA04F41688344013B10CB10D
:10131000012000E0002070BD10B500220023A1F5DF
:1013200010646A3C00D100BF0A1201249440A3B2A9
:10133000DC43048010BD0000003801400044004040
:1013400000480040004C00400050004000F060F8B1
:1013500003A000F01BFE00F093FC00BFFEE70000BE
:101360000D0A20BFAACABCD4CBD0D04C44333332F0
:1013700030B2E2CAD4B3CCD0F2200D0A0000000093
:10138000704700BFFEE700BFFEE700BFFEE700BFFB
:10139000FEE7704770477047704710B540F225511F
:1013A0000E48FFF78FFF38B10C48FFF70BFFC4B2B0
:1013B00021460BA000F0EAFD10BD10B540F225510A
:1013C0000848FFF77FFF38B10648FFF7FBFEC4B2BD
:1013D000214603A000F0DAFD10BD000000380140F6
:1013E000256300000044004008B54FF4E060FEF7BC
:1013F000A9FF25208DF8000000208DF801000120B4
:101400008DF802008DF803006846FEF7A0FF08BDC6
:1014100000B585B001218803FFF7A6FB0121042058
:10142000FFF7A2FB4FF40070ADF8100018208DF804
:10143000130003208DF8120004A92648FFF7DEF8F8
:101440004FF48060ADF8100004208DF8130004A95B
:101450002048FFF7D3F84FF4E13000900020ADF8BA
:101460000400ADF80600ADF80800ADF80C000C2043
:10147000ADF80A0069461848FFF7A7FD012240F2BF
:1014800025511548FFF739FE01211348FFF729FEC2
:10149000FFF7AAFF05B000BD70B504460D46E1B2E6
:1014A0000D48FFF78BFE00BF40210B48FFF7F4FE0D
:1014B0000028F9D0204670BD10B5044600BF202199
:1014C0000548FFF7E9FE0028F9D00348FFF77AFE48
:1014D00010BD000000080140003801400CE004216C
:1014E00007E0712201E0531EDAB2002AFBDC4B1E3A
:1014F000D9B20029F5DC401E0028F0D1704710B5A4
:101500004FF40071FE48FFF724F940F6FF70FFF733
:10151000E5FF4FF40071FA48FFF71DF940F6FF7040
:10152000FFF7DCFF10BD10B54021F548FFF713F9B8
:101530008021F348FFF70FF94FF48071F048FFF76F
:101540000AF94FF40071EE48FFF705F910BD10B528
:101550004FF48071EA48FFF7FCF840F6FF70FFF7A0
:10156000BDFF4FF48071E648FFF7F5F840F6FF70D5
:10157000FFF7B4FF10BD10B54021E148FFF7E9F8CF
:101580008021DF48FFF7E5F840F6FF70FFF7A6FF80
:101590004021DB48FFF7DFF88021D948FFF7DBF86F
:1015A00040F6FF70FFF79AFF10BD10B54021D448F8
:1015B000FFF7CFF840F6FF70FFF790FF8021D0488B
:1015C000FFF7C7F840F6FF70FFF788FF4FF4807110
:1015D000CB48FFF7BEF840F6FF70FFF77FFF4FF4F0
:1015E0000071C748FFF7B5F840F6FF70FFF776FFC8
:1015F0004021C348FFF7AFF840F6FF70FFF76EFFDA
:101600008021BF48FFF7A7F840F6FF70FFF766FF9D
:101610004FF48071BA48FFF79EF840F6FF70FFF76D
:101620005DFF4FF40071B648FFF795F840F6FF7084
:10163000FFF754FF10BD10B50446062C13D2DFE8A7
:1016400004F0120306090C0FFFF7AFFF0CE0FFF7E1
:1016500092FF09E0FFF77BFF06E0FFF764FF03E07E
:10166000FFF74DFF00E000BF00BF10BD10B50446FE
:1016700000BF0221A348FFF72EFC0028F9D0214625
:10168000A048FFF7D5FB00BF01219E48FFF723FCD0
:101690000028F9D09B48FFF7CDFBC0B210BD70B554
:1016A000044610219848FFF756F84FF40051974828
:1016B000FFF751F80520FFF7D9FF2046FFF7D6FFC7
:1016C0000020FFF7D3FF054610218F48FFF741F8B0
:1016D000284670BD10B5C520FFF7E1FF10BD30B53D
:1016E00000210022002300BF0BE0002206E0C823F7
:1016F00000BF1C00A3F10103FBD1521C8242F6D3B0
:10170000491C0529F1D330BD10B54FF400417F4885
:10171000FFF71FF86420FFF7E2FF4FF400417B481A
:10172000FFF719F86420FFF7DAFF4FF4004177481C
:10173000FFF70FF86420FFF7D2FF10217248FFF780
:101740000AF86420FFF7CBFF10216F48FFF701F87C
:101750006420FFF7C4FF10BD70B505460C4610218C
:101760006948FEF7F8FF4FF400516848FEF7F3FFB1
:101770000420FFF77BFF2846FFF778FF2046FFF79E
:1017800075FF10216048FEF7E4FF70BD70B50025BD
:1017900000240BE0B220FFF782FF212801D10125B0
:1017A00006E00A20FFF79BFF601CC4B20A2CF1DBA5
:1017B00000BF284670BD10B543213520FFF7CCFF90
:1017C00009211C20FFF7C8FF2021BD20FFF7C4FF1F
:1017D00001210820FFF7C0FF0520FFF780FF00214F
:1017E0000820FFF7B9FF0520FFF779FFFFF7CEFFCD
:1017F00008B9002010BDFF21B220FFF7ADFF062180
:101800003720FFF7A9FF06213720FFF7A5FF0520A6
:10181000FFF765FF0B211C20FFF79EFF10212920F9
:10182000FFF79AFF0021BD20FFF796FF0120E1E7B7
:1018300070B59CB06422364903A800F06DFB35A159
:1018400003C9CDE901010126002441E0FFF79EFF15
:1018500008B900263EE001A8015DC120FFF77CFF2A
:101860000021C320FFF778FF04210820FFF774FF51
:101870000120FFF734FF00210820FFF76DFF012052
:10188000FFF72DFF002512E004EB840003A901EB14
:101890008000405D00B90CE004EB840003AA02EB79
:1018A0008000415D0520FFF757FF681CC5B2142D6D
:1018B000EADB00BF2946B920FFF74EFFFF21B22027
:1018C000FFF74AFF04213720FFF746FF601CC4B230
:1018D000052CBBDB00BF30461CB070BD10B5062028
:1018E000FFF7DDFE35211720FFF736FF0520FFF754
:1018F000F6FE0620FFF7D3FE032189200EE000004C
:10190000001C01400030014000080140000C014073
:10191000842100080102030405000000FFF71CFFFA
:101920000520FFF7DCFE4321CF20FFF715FF052040
:10193000FFF7D5FE0221CB20FFF70EFF0A21112071
:10194000FFF70AFFF6480078402810D100211E203A
:10195000FFF702FF0F211920FFF7FEFE18211B20C1
:10196000FFF7FAFE2C211D20FFF7F6FE0FE0002105
:101970001E20FFF7F1FE3F211920FFF7EDFE482161
:101980001B20FFF7E9FE1F211D20FFF7E5FE0520C4
:10199000FFF7A5FE0421CD20FFF7DEFE4C21172026
:1019A000FFF7DAFE0120FFF79AFE0021B920FFF7CA
:1019B000D3FE4F21CF20FFF7CFFEFF216F20FFF78F
:1019C000CBFE10BD10B50820D5490870FFF786FF83
:1019D0000021BD20FFF7C0FE48211720FFF7BCFE05
:1019E0000520FFF77CFE80213C20FFF7B5FE072194
:1019F0003E20FFF7B1FEFF213820FFF7ADFE0721A3
:101A00003A20FFF7A9FE00214020FFF7A5FE08219C
:101A10004220FFF7A1FE00214420FFF79DFE082190
:101A20004620FFF799FE0120FFF759FE10BD10B5C3
:101A3000FFF7C8FF10BD70B50024002500BF1DE0F2
:101A4000FFF7F5FF6420FFF74AFEFFF7F1FE28B924
:101A5000FFF75AFE3220FFF742FE0DE00A20FFF7A3
:101A60003EFEFFF7A8FE28B9FFF74EFE3220FFF733
:101A700036FE01E0012503E0601CC4B2052CDFDB6B
:101A800000BF284670BD08B501218020FFF76CF823
:101A90004020ADF8000003208DF8020010208DF8E2
:101AA000030069469F48FEF7A9FD8020ADF80000BD
:101AB00069469C48FEF7A2FD4FF48070ADF8000027
:101AC00069469848FEF79AFD4FF40070ADF80000A3
:101AD00069469448FEF792FD40219248FEF73BFE8E
:101AE00080219048FEF737FE4FF480718D48FEF755
:101AF00032FE4FF400718B48FEF72DFE08BD00B595
:101B000087B001210803FFF72FF801210C20FFF710
:101B10002BF84020ADF8040003208DF806001820B3
:101B20008DF8070001A98048FEF768FD8020ADF818
:101B3000040001A97C48FEF761FD2020ADF80400F7
:101B400001A97948FEF75AFD4FF40050ADF80400A2
:101B500003208DF8060010208DF8070001A97348B6
:101B6000FEF74CFD10217048FEF7F3FD0021704890
:101B7000FFF72DF90020ADF808004FF48270ADF8A2
:101B80000A000020ADF80C000220ADF80E00002085
:101B9000ADF810004FF40070ADF812002820ADF839
:101BA00014000020ADF816000720ADF8180002A9B7
:101BB0005F48FFF767F801215D48FFF708F907B0B4
:101BC00000BD1FB501210846FEF7CEFF0121082008
:101BD000FEF7CAFF4FF48050ADF8000004208DF8E6
:101BE000030003208DF8020069465048FEF706FD09
:101BF0000C210120FEF716FE4FF4805002900020C9
:101C00008DF80C000C208DF80D0001208DF80E00D1
:101C100002A8FEF713FC28208DF8040001208DF89F
:101C200005008DF806008DF8070001A8FEF78FFB70
:101C30001FBD08B501210C20FEF796FF1020ADF85E
:101C4000000003208DF8020010208DF80300694683
:101C50003548FEF7D3FC4FF40040ADF8000069466C
:101C60003248FEF7CBFC08BD10B5FFF7E2FFFFF7E7
:101C7000A8FFFFF744FFFFF706FFFFF745FD10BD84
:101C80000024FFF7F1FF2BA000F080F92CA000F05A
:101C90007DF92EA000F07AF930A000F077F932A09B
:101CA00000F074F9002033490870B1E03148007841
:101CB000102815D003DC48B101282FD104E01128E9
:101CC0002DD03128F9D100E000BF9DE00120294945
:101CD0000870FFF7B0FE10B931202649087093E074
:101CE000FFF7F8FC0446214623A000F04FF9062C2C
:101CF0007FD2DFE804F07E03070B0F7A21A000F00B
:101D000045F977E025A000F041F973E029A000F043
:101D10003DF96FE02EA000F039F96BE06FE06FE065
:101D200029000020001C014000080140000C014077
:101D30000030014031A1A2C1F7CBAEB5C60D0A00FB
:101D400032A1A2C9C1CBB80D0A00000033A1A2B0D4
:101D5000B4BCFCB4A5B7A20D0A00000034A1A2C80F
:101D6000ABC3F00D0A00000035A1A2D7B4CCAC0D76
:101D70000A000000280000200D0ACAB6B1F0C2EB2C
:101D80003A25640020C1F7CBAEB5C620D6B8C1EE67
:101D9000CAB6B1F0B3C9B9A60D0A000020C9C1CBBB
:101DA000B820D6B8C1EECAB6B1F0B3C9B9A60D0A0B
:101DB0000000000020B0B4BCFCB4A5B7A220D6B887
:101DC000C1EECAB6B1F0B3C9B9A60D0A0000000051
:101DD00020C8ABC3F020D6B8C1EECAB6B1F0B3C9C3
:101DE000B9A60D0A0000000003E03FA000F0CEF805
:101DF00000BF00BF00BF00204149087004E000BFE1
:101E000000203F49087000BF00BF2046FFF713FCC9
:101E10004CE710B500242B20FFF741FC394908702E
:101E200000212920FFF798FC00210220FFF794FCF5
:101E30003448007810F0100F19D0B220FFF72FFCB3
:101E4000212814D1BF20FFF72AFC35280FD1BA2052
:101E5000FFF725FC0446002C05DD042C03DC1020D4
:101E60002749087006E011202549087002E011207A
:101E70002349087000212B20FFF76EFC00211C2055
:101E8000FFF76AFC00212920FFF766FC00210220F1
:101E9000FFF762FC00212B20FFF75EFC0021BA2037
:101EA000FFF75AFC0021BC20FFF756FC0121082057
:101EB000FFF752FC00210820FFF74EFC10BD10B5C3
:101EC0004FF48050FEF720FB60B1FFF7A2FF0EA099
:101ED00000F05CF84FF48050FEF712FB4FF4805096
:101EE000FEF723FB10BD000020D7B4CCAC20D6B841
:101EF000C1EECAB6B1F0B3C9B9A60D0A0000000020
:101F0000280000202A000020BDF8C8EBD6D0B6CFAC
:101F100031320D0A0000000040EA01039B0703D0A4
:101F200009E008C9121F08C0042AFAD203E011F818
:101F3000013B00F8013B521EF9D2704730B50B4609
:101F4000014600202022012409E021FA02F59D42E9
:101F500005D303FA02F5491B04FA02F52844151EBD
:101F6000A2F10102F1DC30BD064C074D06E0E0684D
:101F700040F0010394E8070098471034AC42F6D3D0
:101F8000FEF7DAF8E8210008082200080FB4054B34
:101F900010B503A9044A029800F018F810BC5DF8C7
:101FA00014FB0000991400082C00002002E008C86F
:101FB000121F08C1002AFAD170477047002001E0C3
:101FC00001C1121F002AFBD1704700002DE9FF4F0D
:101FD0008BB09A460F4605460026C9E0252837D122
:101FE00000246D1C6649A04601222B78203B02FA92
:101FF00003F0084202D004436D1CF6E728782E282F
:1020000017D115F8010F44F004042A280ED06FF000
:102010002F022878A0F1300109290AD808EB88019D
:1020200002EB410100EB01086D1CF2E757F8048B4D
:102030006D1C287869283FD006DC002871D0632801
:102040000CD0642804D137E0732811D075284ED005
:1020500052460D99904706F1010688E017F8040BE7
:102060008DF8000000208DF80100E946012003E012
:1020700057F8049B4FF0FF3061074FF0000401D484
:102080000AE0641C44450DDA8442FADB19F80410B6
:102090000029F6D106E0641C8442FCDB19F8041028
:1020A0000029F8D1264404E019F8010B52460D9995
:1020B0009047641EF8D25AE001CF4FF00A0B002877
:1020C00004DAC0F100004FF02D0102E0210504D533
:1020D0002B218DF82410012103E0E10705D02021F8
:1020E000F7E70DF1200908910CE00021F9E701CF95
:1020F0004FF00A0BF9E75946FFF720FF01F13002D4
:1021000009F8012D0028F6D1ADEB090000F1200BF4
:10211000600701D44FF00108D84503DDA8EB0B00A0
:1021200001E029E000208046002406E009A852468C
:10213000005D0D999047761C641C08988442F5DB7D
:1021400004E0302052460D999047761CB8F100010A
:10215000A8F10108F5DC05E019F8010B52460D99CC
:102160009047761CBBF10001ABF1010BF4DC6D1C58
:10217000287800287FF432AF0FB03046BDE8F08FEA
:10218000092801006C697520736875692064656EA3
:1021900067000000000000007368616E20736875BE
:1021A0006F0000000000000000000000616E206A67
:1021B00069616E20636875206661000000000000A0
:1021C0007175616E206D69650000000000000000FF
:1021D000000000007A6875616E6720746169000014
:1021E000000000000000000008220008000000209D
:1021F00030000000AC1F000838220008300000202A
:1022000000040000BC1F000800A24A0400000000F7
:102210000000000001020304060708090000000096
:102220000102030401020304060708090204060868
:082230000000000000000000A6
:0400000508000131BD
:00000001FF
